:020000040C00EE
:10E000004200DEC04200DEC0000000000000000050
:10E010000000000000000000000000000000000000
:020000040C01ED
:1000000098540430690E010C6155010C0DB9010CB6
:100010000DB9010C0DB9010C0DB9010C0DB9010C94
:100020000000000000000000000000005D0D010C59
:100030005F0D010C00000000610D010C630D010C4F
:10004000650D010C670D010C690D010C6B0D010CA8
:100050006D0D010C0DB9010C6F0D010C710D010C32
:10006000730D010C750D010C770D010C790D010C50
:100070007B0D010C7D0D010C7F0D010C810D010C20
:10008000830D010C850D010C870D010C890D010CF0
:100090008B0D010C8D0D010C8F0D010C910D010CC0
:1000A000930D010C950D010C970D010C990D010C90
:1000B0009B0D010C9D0D010C9F0D010CA10D010C60
:1000C000A30D010CA50D010CA70D010CA90D010C30
:1000D000AB0D010CAD0D010CAF0D010CB10D010C00
:1000E000B30D010CB50D010CB70D010CB90D010CD0
:1000F000BB0D010CBD0D010CBF0D010CC10D010CA0
:10010000C30D010CC50D010CC70D010CC90D010C6F
:10011000CB0D010CCD0D010CCF0D010CD10D010C3F
:10012000D30D010CD50D010CD70D010CD90D010C0F
:10013000DB0D010CDD0D010CDF0D010CE10D010CDF
:10014000E30D010CE50D010CE70D010CE90D010CAF
:10015000EB0D010CED0D010CEF0D010CF10D010C7F
:10016000F30D010CF50D010CF70D010CF90D010C4F
:10017000FB0D010CFD0D010CFF0D010C010E010C1E
:10018000030E010C050E010C070E010C090E010CEB
:100190000B0E010C0D0E010C0F0E010C110E010CBB
:1001A000130E010C150E010C170E010C190E010C8B
:1001B0001B0E010C1D0E010C1F0E010C210E010C5B
:1001C000230E010C250E010C270E010C290E010C2B
:1001D0002B0E010C2D0E010C2F0E010C310E010CFB
:1001E000330E010C350E010C370E010C390E010CCB
:1001F0003B0E010C3D0E010C3F0E010C410E010C9B
:10020000430E010C450E010C470E010C490E010C6A
:100210004B0E010C4D0E010C4F0E010C510E010C3A
:10022000530E010C550E010C570E010C590E010C0A
:100230005B0E010C5D0E010C5F0E010C610E010CDA
:10024000630E010C650E010C670E010C40B15218D3
:1002500005D2C068904234BF0020012070470020C2
:10026000704700000B4B30B51A6800230A4C9342CC
:1002700003DB06D14FF0FF3008E01D01655D8542CC
:1002800005D10020044A02EB03130B6030BD01339B
:10029000EDE700BF74A5010C78A5010C70470000C4
:1002A0002DE9F74317461A4680460C461E46FFF7CF
:1002B000CDFF002870D00093D8F804305B689847D1
:1002C000374BC0F3410013F82090C9F1000303EA53
:1002D000040534EA030326D0D8E9013001225B6922
:1002E00001A928449847002812DB0022A3195B1BB0
:1002F0004B4524BF2E1B4E44631BD5B2AE4202F1C8
:10030000010208D8009B9B1B0093009B6BB9002047
:1003100003B0BDE8F08305F108016944194411F800
:10032000041C7955E9E70025EFE7009B4B45B3FB3B
:10033000F9F61DD209FB06F6D8F808303019184432
:10034000D8F8043001225B6901A9284498470028A5
:10035000DEDB002237440099D3B2994202F1010258
:10036000D5D9F91808336B4413F8043C4B55F2E720
:10037000D8F80800D8F80430204432465B6979196F
:10038000284498470028C3DB009B09FB16330093E1
:10039000009B002BCED1BAE74FF0FF30B8E700BF8B
:1003A00068A5010C2DE9F04F8DB002921A46054662
:1003B0000F461E4621F00F0A01F00F08FFF746FF17
:1003C00028B94FF0FF3318460DB0BDE8F08F6B68C9
:1003D0000DF1200B5B689847584BC0F3410053F870
:1003E00020305A460093514643462846FFF758FFAF
:1003F0000028E6D106F10F03434423F00F03AAEBD4
:100400000709A9EB06091A46514628460193994463
:10041000FFF71CFF0028D4D04B46284604AAB91980
:10042000FFF73EFF03460028CBD1B8F1000F63D1A0
:100430004446B442C7D2A6EB040A3AF00F0A10D0E1
:10044000A86869689DF800203844D1F818B0BAFB54
:10045000F2F2029920440393D8470028B1DB039BB2
:100460005444B9F1000FAED008A82246002301463B
:1004700096420AD9DDF808C001331CF802C0102BDF
:1004800000F801CB02F10102F2D1964299D100228B
:1004900004A8102B01D04A4549D108F11008102BAF
:1004A000A0448ED14A458CD1019A424589D1A86891
:1004B0009DF800206D683844B3FBF2F2AD6920442A
:1004C000A847C3177FE7029A125D01340BF8012099
:1004D00001310F2913D8B442F5D1002204A80DF13F
:1004E000200C0F2920D84A450BD010F801EB01321F
:1004F00001F80CE00131F4E741460446E9E7B44273
:10050000EBD0102903937FF45CAFD5E901309DF85F
:100510000020D3F818B0B1FBF2F2504408A9D84734
:100520000028039B85DA4CE74A45EAD049E710F8F2
:10053000016B0132CE540133ABE700BF68A5010C5B
:100540002DE9F04105460E469046FFF77FFEA8B123
:100550006B689B6A98470468074664B10020BDE851
:10056000F081D5E90130DB69304498470028F6D1A5
:10057000BB681C441E444445F3D3EFE74FF0FF3003
:10058000EDE708B543689B6A9847006908BD0021FC
:1005900008B5084600F054F9FEE70346002030B5E0
:1005A000013A00D230BD1D780C78A54202D008B9BE
:1005B000281BF5E701330131F2E7F0B505460C04DD
:1005C00044EA01640C4344EA012462B91346561913
:1005D000032A0ED823F003022A4403F00303134432
:1005E0009A420AD1F0BDAB07F0D005F8011B013AE1
:1005F000EBE7B71A3C60043AEAE702F8011BEFE7C1
:10060000034670B56AB900241519032D13D822F0DA
:10061000030421441C44002302F003029A4210D137
:1006200070BD41EA0304A407EDD011F8014B013A73
:1006300003F8014BE6E70D1B2E681D1B2E60043CE2
:10064000E2E7CD5CE5540133E8E7000010B506F0C1
:1006500095F828B1034B1C6800F03AFD204610BD08
:10066000014BF8E70C0004301000043037B50C469D
:1006700031B900F02DFD0E4B1D68284603B030BD8A
:10068000031DF6D8C31C052B184628BF0520042BD4
:10069000EFD8042101AA06F073F830B1044B1D68AD
:1006A000019B236000F014FDE7E7024BF7E700BF72
:1006B0000C00043010000430031D08D8C31C052BA7
:1006C000184628BF0520042B01D806F061B84AF26D
:1006D000C53070477FB50E46054618B94FF0FF305C
:1006E00004B070BD0029F9D0012001A9FFF7BAFDBF
:1006F000044610B9019B9E4209D0022001A9FFF7D0
:10070000B1FD0028EAD1019B9E42E7D1012468692E
:10071000A96902AB03C3082202ABA101022000F0C9
:100720000DFCDDE71FB5082102AA022006F0C8FA79
:10073000DDE902020B490C4B9A4208BF884207D1FF
:100740000A4B0B4A00930B490B4B0C4806F0E4FB99
:10075000082200210DEB0200FFF72FFF05B05DF826
:1007600004FB00BFA9B454B26D6F90A429A6010C7C
:10077000E8A5010C16A6010CC8A5010C1EA6010CCB
:1007800013B5044668B10421072001AA06F098FABF
:1007900028B9019B012B8CBF00230123237002B0D9
:1007A00010BD4AF2C530FAE708B520210C20084AEE
:1007B00006F02AFB18B14CF25A32904206D1BDE83D
:1007C000084020210D20034A06F01EBB08BD00BFD3
:1007D00066B2010C86B2010C1FB50421072003AAE2
:1007E00006F06EFA0446B8B90D4806F095FB0D4BBD
:1007F0000D4A00930D490E4B0E4806F08DFB039BEE
:1008000053B906F078FB044630B9FFF7CDFF044634
:1008100010B906F072FB0446204604B010BD00BFBC
:100820002EA6010C29A6010C4BA6010C16A6010C44
:10083000C8A5010C1EA6010C002070477047FEE7FA
:100840002DE9F3414FF40051584803F031F805F019
:10085000BDFE04F05DFA044628B1554806F05CFB85
:10086000204605F08DFE534806F056FB06F0F2F9DF
:10087000044608B15048F1E70DF10300FFF780FF8F
:10088000044608B14D48E9E79DF803302BB1FFF766
:10089000A3FF044608B14A48E0E7FFF743FF00F032
:1008A0000FFC0546FFF7D2FE0446284600F02CFC5C
:1008B000444E3368A34201D04348CFE705F05EFEC3
:1008C000044608B14148C9E702F086FD044620B15C
:1008D00001463F4806F020FBC2E73E4A3E493F48FA
:1008E00006F01AFB0124204605F051FE002838D0FE
:1008F000204605F048FE0546F0B9DFF8E4800C22FA
:1009000000213848FFF759FE00F0DAFB2146074680
:10091000344801F0A1F80546384600F0F5FB33688D
:10092000AB420FD1204605F030FE0546C8B1214646
:100930002D4803E00024D6E721462C4806F0ECFAC7
:1009400028468EE72A4806F0E7FA204605F021FE01
:10095000336818B1D8F80000834282D1AB42CED1BF
:10096000E0E7002CE6D11F4D2248A96806F0D4FA32
:1009700029682148CB8A4A7D097D06F0CDFA1F48B7
:1009800006F0CAFA01A9287900F042F82B681A6922
:100990001C8992065BBFAB68019A5B689B181C447C
:1009A00005F030FE20460AF075FF00BFE00004307D
:1009B00083A6010C9AA6010CB0A6010CD3A6010CCB
:1009C000F8A6010C100004300EA7010C3EA7010C84
:1009D0005AA7010C21AD010C86A7010C8EA7010CB2
:1009E0000C000430D4000430F9A7010CB5A7010CA9
:1009F000D9A7010C1EA8010C4AA8010C65A8010C7E
:100A00000020704708B502F0E3FD002008BD00009B
:100A1000642808B507D001466422054806F07CFA30
:100A20004FF0FF3008BD4FF0406300200B60F9E746
:100A300087A8010C012909D002290CD069B978B125
:100A4000012808BF022018BFFF20704750B10128BD
:100A500008BF0420F7E7052070474FF0FF307047CC
:100A6000012070470320704708B543689B6A984788
:100A7000007D08BD436870B59B6A16460D46044666
:100A800098478368B5FBF3F563689B6A984783686A
:100A90006B43336063689B6A984783680020736088
:100AA00070BD00002DE9F341D1F8008006460D46E7
:100AB000C0B201A91746FFF7D5FB044688BB2B68D7
:100AC000CBB103464FF40050019AD1682B6009B1B5
:100AD000984506D8984510D23146134806F01CFABE
:100AE00009E0B1F5005F0FD24FF400533146D268F0
:100AF0000E4806F011FA4FF0FF340198FFF7CEFBD5
:100B0000204602B0BDE8F0814FEA433C47F833C0CD
:100B10002B68A1F5005107EBC30358602B68013324
:100B2000D4E74FF0FF34EBE7E0A8010CAAA8010CD2
:100B300005F05BBE054B00201A684FF0E023013A38
:100B40005A61052298611A61704700BF2000043085
:100B50004FF0E02130B50E480E4C8A6905682368D5
:100B600093422B444FF47A753CBF49695B180A499C
:100B70009B1A09680360B1FBF5F19942074B04D257
:100B8000002519680560013119601868226030BDC0
:100B9000E8200430EC20043020000430E42004304D
:100BA00038B570B30368190701D4002038BD8369D4
:100BB000154C9BB1D4F8F03043F08063C4F8F030AA
:100BC000FFF7C6FF0546D4F8F0301A01EDD4FFF761
:100BD000BFFF401B0228F6D90320E7E7D4F8F03026
:100BE00023F08063C4F8F030FFF7B2FF0546D4F875
:100BF000F0301B01D9D5FFF7ABFF401B0228F6D917
:100C0000EAE70120D2E700BF000C0254F8B5036800
:100C1000054698014FD5314C636A43F00103636286
:100C2000FFF796FF0646636AD90746D52C4CD4F8E1
:100C3000F03013F4407320D0D5F8F82093421CD044
:100C4000D4F8F020D4F8F03022F4407143F480332B
:100C5000C4F8F030D4F8F030D20723F48033C4F86D
:100C6000F030C4F8F01008D5FFF772FF41F2883772
:100C70000646D4F8F0309B0726D5D5F8F830184949
:100C800003F44072B2F5407F24D1C869154A20F4BC
:100C90007C5002EA13120243CA61114AC3F30B03E8
:100CA000D2F8F01021F44071C2F8F010D2F8F01030
:100CB0000B43C2F8F030002005E0FFF749FF801B2E
:100CC0000228B0D90320F8BDFFF742FF801BB842CD
:100CD000CFD9F7E7CA6922F47C52DDE70008025455
:100CE000000C0254CFFFFF0013B5194C05F0B4F807
:100CF000D4F8F030174843F01803C4F8F030FFF789
:100D00004FFF08B10AF002FE1348FFF77FFF08B15A
:100D10000AF0FCFD0421D4F8F030084643F4004307
:100D2000C4F8F030D4F8A830002243F40013C4F81B
:100D3000A830D4F8A83003F400130193019B05F008
:100D4000A7F9042002B0BDE8104005F0D1B900BFFA
:100D5000000C0254B8B3010CB0B2010CFEE7FEE780
:100D6000FEE7FEE7FEE7FEE7FEE7FEE7FEE7FEE75B
:100D7000FEE7FEE7FEE7FEE7FEE7FEE7FEE7FEE74B
:100D8000FEE7FEE7FEE7FEE7FEE7FEE7FEE7FEE73B
:100D9000FEE7FEE7FEE7FEE7FEE7FEE7FEE7FEE72B
:100DA000FEE7FEE7FEE7FEE7FEE7FEE7FEE7FEE71B
:100DB000FEE7FEE7FEE7FEE7FEE7FEE7FEE7FEE70B
:100DC000FEE7FEE7FEE7FEE7FEE7FEE7FEE7FEE7FB
:100DD000FEE7FEE7FEE7FEE7FEE7FEE7FEE7FEE7EB
:100DE000FEE7FEE7FEE7FEE7FEE7FEE7FEE7FEE7DB
:100DF000FEE7FEE7FEE7FEE7FEE7FEE7FEE7FEE7CB
:100E0000FEE7FEE7FEE7FEE7FEE7FEE7FEE7FEE7BA
:100E1000FEE7FEE7FEE7FEE7FEE7FEE7FEE7FEE7AA
:100E2000FEE7FEE7FEE7FEE7FEE7FEE7FEE7FEE79A
:100E3000FEE7FEE7FEE7FEE7FEE7FEE7FEE7FEE78A
:100E4000FEE7FEE7FEE7FEE7FEE7FEE7FEE7FEE77A
:100E5000FEE7FEE7FEE7FEE7FEE7FEE7FEE7FEE76A
:100E6000FEE7FEE7FEE7FEE707B52C4B83F30A88B3
:100E700003F0B0FE04F0F0FF294B2A49D3F8F0202C
:100E800042F40042C3F8F020D3F8A82042F4001244
:100E9000C3F8A820D3F8A82002F400120192019A06
:100EA0000A6B8AB1D3F8F02042F48032C3F8F02004
:100EB000D3F8F02022F48032C3F8F0200B6B002B23
:100EC000FCD10122184B1A60154A1849136843F4E3
:100ED00080531360164B8B4212D30020154B1649DA
:100EE0008B4218D3FFF753FB186850F8224058681C
:100EF00040F82240013298688242F5D30C33EAE789
:100F00000022F8E71C6844F8220001325C68A24223
:100F1000F8D30833E4E70022F8E700BF9434043044
:100F2000000C0254007C0054F020043058A5010C41
:100F300040A5010C58A5010C68A5010C2DE9F74F3F
:100F40009146002282460C46984601921BB9032026
:100F500003B0BDE8F08F05F0D3FF2F4F054697F89B
:100F600000B0BBF1000F10D105F0CAFF064605F036
:100F7000CBFF594602463046FFF71FFB42F21603ED
:100F80002B8004236B8001233B7005F0B9FF6F8831
:100F9000074405F0B5FF061DBE4225D3C4F30B037D
:100FA0001FFA89F46E88ADF806400434A4B22644D2
:100FB00043EA0A30B6F5803FADF80400C7DA05F021
:100FC000A3FFB6B2864225D8042238460DEB0201B3
:100FD000FFF716FB4A464146381DFFF711FB6B88A9
:100FE00000201C446C80B3E7042231460DEB020064
:100FF000FFF706FBBDF80430BAEB133F03D1C3F390
:101000000B039C4204D0BDF8063004331E44C3E7F2
:1010100002209DE701209BE7F42004300023F0B577
:10102000B5B0009305464FF6FF7305A8174601F0CB
:1010300007FA044618B14FF0FF3035B0F0BD064650
:101040000DF10E0303AA04A905A801F045FA002832
:10105000F1D1BDF80E30602B0ED1BDF80C30842BD1
:10106000E9D83846049913AAFFF71AF90028E2D103
:101070000124BDF80C60E3E7102BE1D1BDF80C3082
:10108000202BD8D8384604990BAAFFF709F9002875
:10109000D1D1002CCFD01F2ECDD9A6F1200013AC7A
:1010A00004900BA920222044FFF7AAFAA9012346A5
:1010B000324641F03F010120FFF740FFBDE700004D
:1010C000024B1868421C1A60704700BFF8200430B9
:1010D000024A1368013B1360704700BFF8200430D8
:1010E000FFF7FEBFFFF7FCBFFFF7FABFFFF7F8BF40
:1010F000FFF7F6BFFFF7F4BFFFF7F2BFFFF7F0BF50
:10110000FFF7EEBFFEE7000008B5034B1B68834204
:1011100001D0FFF7E5FF08BDF82004302DE9F843C2
:10112000582390F8C85006465D432C2303FB015515
:1011300005440C469046D5F8209001F0ECFB10B920
:101140002B69DB060BD51CB14946304600F0AEFCDE
:10115000164B1D68FFF7BCFF2846BDE8F883214603
:10116000304601F0E5FBA0B9114B1D68114B1B681F
:10117000AB42EFD01049114B1148002C18BF194653
:1011800005F0CAFE002CE3D00121484601F0BEFB69
:10119000DEE7FFF795FF224607464146304601F05D
:1011A0000FFC05463846FFF7AFFFDFE708000430C5
:1011B0000C0004301000043006A9010C0EA9010C2B
:1011C00018A9010C00487047FC2404304379012B16
:1011D00007D10368012B04D10079431E58425841BE
:1011E000704700207047000073B50D46002104468B
:1011F00090F8C8202846CDE90011FFF7E7FF58B363
:1012000058235A431C4EA358B34203D1204601AA87
:1012100001F03DFA582294F8C83002FB0343DB6A20
:10122000B34204D16A460121204601F030FADDE9DB
:1012300000239A4284BF13460192AB6029462046A0
:10124000019A00F0A9FE0D4B1968002902DD0C4837
:1012500005F062FE02B070BD1146204601F0C8F9EB
:10126000064605F1080101F0F3F9AB683046019339
:10127000FFF714F8E2E700BF3DB8F396D825043035
:101280003DA9010CF0B58B7904460F4685B043B3F8
:10129000D0F8B050284601F09CF994F8C8300646C2
:1012A000303354F82310384600F06CFD34182846CB
:1012B000FFF767F906462846FFF7D6FB10220146DE
:1012C0006846FFF77AF93B796A468DF80030214687
:1012D00033462846FFF766F8003818BF012005B0EE
:1012E000F0BD582290F8C83002FB03031D6AD1E715
:1012F0002DE9F8430E46904699460024099FBC42CA
:1013000001D300200EE03D1BB5F5806F28BF4FF4E0
:10131000806530462B460A4A04EB0901FEF7C0FF00
:1013200010B10120BDE8F88308992B464046044AD5
:101330006118FFF737F80028F3D12C44DFE700BF2E
:10134000FC2004302DE9F04F95B004460E4601F024
:10135000E3FB002800F09581BA4805F0DDFDFFF7BA
:10136000BFFE231893F8C91069BB204601F012FA9A
:10137000804690B900222046114601F0FFFA00286D
:101380003DD094F8C810B04805F0C6FD012294F88D
:10139000C830234483F8BC200BE04821AB4805F05B
:1013A000BBFD012294F8C8309045234483F8BC204B
:1013B000E0D194F8C800231893F8BC30023B022B0C
:1013C00098BF45F001050130C0B2012884F8C8007B
:1013D000C7D9002D00F0A68100232C274FF0580814
:1013E00084F8C830E21892F8C910002900F04C8146
:1013F0000133DBB2012B84F8C830F3D992E12046E7
:1014000000F038FF002807DD012294F8C83007F803
:10141000332007EBC3035860204600F0BFFC4FF0B9
:10142000010988B100238A4A20460AA9CDE90B2385
:10143000CDF828900D9300F076FB804650B194F8DB
:10144000C810844805F068FD94F8C830234483F838
:10145000BC90AEE70AA8FFF7B9FE80F001010AAA26
:101460002046C9B201F08AFA40B14146204601F057
:1014700052FA18B994F8C8107348E3E70AA8FFF7BE
:10148000A5FE00284BD194F8C83053BB20460AA9CA
:10149000FFF7AAFE94F8C8009DF82F30221882F8B2
:1014A000BC30033B012B08D800F091FB28B1FF2290
:1014B00094F8C830234483F8BC209DF82F30023BB9
:1014C000022B1FD894F8C80000F069FBD0B1FF22AE
:1014D00094F8C830234483F8BC205F4805F01CFD15
:1014E000FEE794F8BC20042A04BF012284F8BC2043
:1014F000012BCBD094F8BD30042BC7D1012384F845
:10150000BD30C3E794F8C830234493F8BC30FF2BB8
:10151000E3D000222046114601F030FA36E79DF86C
:101520002F80B8F1010F61D194F8C80001F06CFC74
:10153000831E022B814617D8FFF7C2FD4146824623
:101540000AAA2046FFF7EAFD80465046FFF7DCFD79
:10155000424B1B68984507D0414B1868804514BF23
:101560004FF005094FF0010994F8C8305FFA89F08F
:10157000E21882F8BC00002B79D1234493F8BC30E8
:10158000012B7FF416AFFFF79BFD002181460AAACD
:101590002046FFF7C3FD80464846FFF7B5FD002112
:1015A000204601F0B8F9002866D0582294F8C830D7
:1015B00002FB0343D3F82CA0FFF782FD01218146F3
:1015C0000AAA2046FFF7AAFD80464846FFF79CFD81
:1015D000244B9A457FF4EDAE204B1B6898457FF471
:1015E000E8AE94F8C83004222344D3E6FFF768FD40
:1015F000012181460AAA2046FFF790FD8046484611
:10160000FFF782FD154A94F8C8301268904504EB44
:10161000030229D0052182F8BC10002B3FF4C9AE8B
:1016200094F8BC20042A04BF012284F8BC20012BBA
:10163000A3D094F8BD20042A9FD1012284F8BD20B4
:101640009BE700BF69A9010CD6A9010C97A9010C61
:1016500001010001FFA9010C26AA010C10000430B1
:10166000080004303DB8F3969DF82F0081E701286B
:1016700089D00428D4D19CE6B74B1B68984594D1F7
:1016800097E60546B54FA0E692F8BC200EA802F0FA
:10169000FB02012A14BF0121002108FB03F207FB12
:1016A000012214BF2C2100215B4203F0580319448E
:1016B00001232244156A214400932A46402300F066
:1016C000BFFE58BB00230DF1160206A90EA800F0BC
:1016D00003FF002822DB40F0BA81BDF816300C2B46
:1016E0001CD12846069907AAFEF7DAFDB0B99DF885
:1016F0001C30012B12D8E21892F8BC205B42023A4F
:10170000022A94BF2C20002003F0580314331844FD
:1017100008A9204401F07CF90028D3DA40F2011333
:10172000A4F8BC300020012884F8C80024D9002384
:101730008B4D894FDFF82C820793012B84F8C8303A
:1017400040F2F880079A022A7FF409AE002384F859
:10175000C83094F8C930002B00F06B81012394F855
:10176000CA1084F8C830002900F0638184F8C820CA
:10177000794BD3F800900CE1221892F8C980B8F1A7
:10178000000F40F0D48001230A9340F20113ADF81A
:101790002C3092F8BC30CDE90C88042B8DF82E80CB
:1017A0008DF82F3007D8012B0DD800F0B780FF231C
:1017B00082F8BC30B2E0052BF9D100F008FA00281D
:1017C00000F0AC8054E0FFF77BFC414607460AAAD4
:1017D0002046FFF7A3FC05463846FFF795FC414637
:1017E000204601F098F818B95B4B1B689D4277D0F2
:1017F00000254FF0580B2F4694F8C8A05A48514680
:1018000005F08AFB594805F087FB94F8C8300BFBBC
:101810000343D3F82090D3F84C809B6A0293029B39
:10182000BB422CD12A465146514805F075FB002396
:1018300041464A46204601950093FFF759FD01466F
:1018400048B90122204601F0F9F8054648B301469F
:10185000484805F061FB94F8C800231893F8BC5081
:10186000EB1E012B57D800F0B2F9014600283CD0FE
:10187000FF2294F8C830234483F8BC204EE094F84B
:10188000C83029460BFB03435B6A484603EBC7039A
:101890005A680023039200F0F2FF039A01371544BF
:1018A000BDE7582794F8C830014607FB03431A6D7B
:1018B00003465268404601F021F894F8C82007FB1F
:1018C0000242D2E91432013A53F83200196803EBAC
:1018D000C207411A2B4640467A6801F00FF8BAE772
:1018E00020460AA9FFF780FCB5E7032D0ED101229F
:1018F000204601F0A3F8014640B11E4805F00CFB5C
:10190000FF2294F8C830234483F8BC2094F8C80020
:1019100000F045F953E7023D012DF7D994F8C800CE
:10192000231893F8BC30FF2B01D1134815E5013083
:10193000C0B2F8E6234493F8C9208DF818209DF82A
:10194000181001F0FF02C9B1079B0133079394F807
:10195000C8300133DBB2F0E610000430FC24043060
:101960000C000430080004302FAA010C61AA010CFD
:101970007CAA010CC3AA010C26AA010C93F8BC3066
:10198000012B14D01146204600F0F8FF78B1D5F8AD
:101990000090102200210AA8FEF70FFE204601F059
:1019A00095F8FFF795FB484615B0BDE8F08FFFF7B7
:1019B00087FB0022814611462046FFF7AFFB824697
:1019C0004846FFF7A1FB3B68D5F800909A45E0D167
:1019D000CA45DED0D8F800309A45DAD094F8C8303D
:1019E000BBB1012B14BFFF2002200EA901F0E6F9C4
:1019F0000028CCD19DF83830012B0CD19DF83B301C
:101A0000012B08D00021204601F030F800289BD09F
:101A1000BDE70120E9E700222046114601F00EF85B
:101A200002460028EED094F8C8100A4805F074FA6F
:101A3000ADE7582202FB0342126A5B42517803F081
:101A40005803317192682344B260336090E694F891
:101A5000C830CDE4FCAA010C0129F8B506460C46B5
:101A600005D9FFF735FB0E4B1C682046F8BD022256
:101A700001210C48FEF7A1FD00230B4F3C4484F8E4
:101A8000C930FFF71DFB314605463846FFF75AFCC3
:101A900004462846FFF738FBFFF71AFBE5E700BFCF
:101AA0000C000430D52504300C25043013B50C4649
:101AB00090F8C83001AA303350F82310204600F0C7
:101AC000C3FE002809DB0199E26801232046521A6F
:101AD00000F014FFC00F02B010BD0120FBE7582337
:101AE00073B5154690F8C8600C4603FB06006946BE
:101AF000C06C01F00DF9E979012903D03246204686
:101B000001F070F99DF80330012B02D1204601F05D
:101B1000F1F8A968204600F0A9FD204601F094F8EC
:101B2000002002B070BD73B50D46044600F09EF96A
:101B30000128E86005D0022828D028B3072002B089
:101B400070BDD4F8B0602A462146304600F0C0F897
:101B50000028F4D1304601F033F8012301460DF19D
:101B600007023046FEF79CFBB8B9012230460DF162
:101B7000070101F039F810B101238DF807309DF805
:101B8000073003F00F03EB710020D8E7582294F8D8
:101B9000C83002FB03431E6AD5E70120CFE713B527
:101BA00088B1012814BFFF20022001A9FEF75AFBCB
:101BB00058B9019801F0A0F904460198FEF76EFBB0
:101BC000204602B010BD0120EFE70124F8E71FB561
:101BD000D8B1012814BFFF20022001A9FEF742FB63
:101BE000B8B9019802A901F093F8044678B99DF8B4
:101BF0000B30032B03D1019801F07CF804460198C7
:101C0000FEF74CFB204604B010BD0120E5E701249F
:101C1000F5E70124F6E70023F0B51A461D461C46F9
:101C200058278A4201D39A4209D290F8C86007FB2C
:101C30000606766A06EBC4067668013432448B42A7
:101C400001D39A4212D990F8C8608A4207FB06066F
:101C5000366D06EBC506766805F101053344E4D31D
:101C60009942DED89A42DCD1601EF0BD8A42F9D298
:101C7000DBE710B5582490F8C83063432C2404FBEC
:101C80000133C118886A4B6A013803EBC001496807
:101C90000433914200D310BD013853F83040214441
:101CA000F7E738B504460D46FFF7E3FF582294F8EE
:101CB000C83053432C2202FB05310C44626A02EB0C
:101CC000C00352F830105B6810680B44181A38BD16
:101CD0002DE9F74F88460746164600F07AFC39464C
:101CE000834698F8C80000F057FCB0F1000A42DBC8
:101CF00000242546A146544513D1B9F1000F0CD05C
:101D0000002D18BF2C460323B4FBF3F35A1C03EB3E
:101D10004303E31A013332603371002003B0BDE89E
:101D2000F08F98F8C8303846303358F823100DF14A
:101D30000702012301FB04B1FEF7B2FA00281CDB05
:101D4000012238460DF1070100F04EFF38B1B9F11C
:101D5000000F02D0002D08BF25460134CBE7B9F1B2
:101D6000000F05D0002DF8D0054805F0D5F8C7E7DD
:101D70004FF00109F1E70720D0E70120CEE700BFCF
:101D80003BAB010C10B5036801EB41045A1E03790B
:101D9000013B594304FB021010BD00002DE9F8433C
:101DA000582390F8C84003FB0404D4F82880B8F105
:101DB000480F04D8D4F854E0BEF1480F05D927489D
:101DC00005F0AAF80020BDE8F883D0F8B030D3F8C9
:101DD0000C900023194618461E469C461D461A467E
:101DE000404509D3714507D3404503D1714501D121
:101DF000B44530D01A48E3E7AA4213D1676A07EB2B
:101E0000C0077F6801303A44276D07EBC1077F6840
:101E100001313D44AA42E3D14A459444164418D9BD
:101E20001048CDE70BD2676A022B07EBC0077F682B
:101E30003A4401D10C48C3E701230130EAE7276D9A
:101E4000012B07EBC1077F683D44F3D0022301312A
:101E5000E0E70023C2E70120B5E700BF5BAB010C60
:101E6000F0AB010CBBAB010C87AB010C5822F0B5F9
:101E7000054690F8C83087B002FB030304A9186A2E
:101E800000F046FFD5F8B00002A900F041FF9DF830
:101E90001030012B4DD0334A3349032B08BF0A467B
:101EA0009DF81330314901939DF81230304800936A
:101EB0009DF8113005F030F89DF80830012B3AD02C
:101EC000284A2949032B08BF0A469DF80B30294CA4
:101ED00001939DF80A302849009325489DF8093060
:101EE00005F01AF8002627469DF81010207800F01B
:101EF0006DFE60B39DF80810607800F067FE30B3A7
:101F0000A378042B03D09DF812209A421FD107EB2F
:101F10008607FC78012C10D19DF80C2095F8C8306C
:101F20009A4211D11549164804F0F6FF204607B031
:101F3000F0BD144AB4E7134AC7E734B11249134B52
:101F4000022C08BF1946EEE700241149EBE70136E1
:101F5000042E04F10404C7D10E4804F0DDFF002074
:101F6000E5E700BF1BAC010C24AC010C56AC010C26
:101F700064AC010C08B4010CA2AC010C2AAC010C3D
:101F8000AAAC010C1FAC010C44AC010C37AC010C29
:101F900032AC010CBCAC010C2DE9F04F16460446E6
:101FA0008DB0B2480D4604F0B7FF31462046FFF72A
:101FB00032FE00238246BAF1FF3F069302D10DB0F4
:101FC000BDE8F08F582294F8C830D4F8B08002935E
:101FD00002FB03435A6A0023D8F80C10101D1F4659
:101FE00050F83A303B44994203D3BAF1010AF6D291
:101FF0001F462B680699013B8B4200F21F81582631
:10200000029B06FB0343D3F82090DB6C03930AF199
:10201000010352F83330049313680593DDE9043269
:10202000A3EB020B029B303354F8230000F004FCB6
:102030000021024607902046FFF71BFE94F8C830A7
:102040000BEB070106FB03435A6A089052F8303045
:1020500012689B1A994240F2E880059BD9F80C60FF
:1020600040461E44049BF61A079BF61A00F0B1FA8C
:10207000864228BF06462B68012B40F0D880F31B10
:1020800018BF0123AB712B79012B40F0D2800023C4
:1020900040461946D8F80C2000F0F1FB2B68012BC4
:1020A00017D12A4641462046FFF719FDAB7983B97F
:1020B000494620460993FFF7F9FC2A46494620463F
:1020C000FFF70DFD099B40461946D8F80C2000F09B
:1020D000D6FB002342460399009320465B460196B7
:1020E000FFF706F929462046FFF7CCF802232B71AB
:1020F00018B15F4A1368013313602B68012B09D1B3
:10210000204603990993FFF7D1FCAA79099B002A7D
:1021100040F097803A4622B100235946039800F0D8
:10212000AEFB5B464946039A2046CDE900B6FFF771
:10213000DFF829462046FFF7A5F803232B7118B1D5
:102140004B4A136801331360AB7993B1494620467B
:10215000FFF7ACFC582294F8C83002FB03435B6ADB
:10216000059A1F68D71B049ABF1A089A53F8323091
:102170001F442FB100233A465946484600F07FFBE2
:1021800000234A4641462046CDE900B6FFF7B0F8A5
:10219000AB7983B3404600F01CFA94F8C8205E4443
:1021A000303254F8222003465200019241464A46FA
:1021B00020460096FFF79CF818B12D4A13680133AA
:1021C000136040460AA900F0A3FD9DF82B30012BB7
:1021D00002D1484600F08EFD9DF82910012903D058
:1021E0004846029A00F0FEFD4846A96800F03EFA13
:1021F000484600F029FD0023AE792946AB71204600
:10220000FFF740F82B6801332B6001232B7118B1C5
:10221000174A13680133136086B101230021404639
:10222000D8F80C2000F06AFB08E03E4623E70023C4
:1022300028E7022B3FF461AF032B85D0069B0133C7
:10224000B9E61946079A2046FFF713FD582294F87D
:10225000C830059902FB03431B6D1A6853F83030F0
:102260008A1A0499521A1A4455E700BFD0AC010CDF
:10227000D8250430D0F8B0302DE9F0475821D3F8F4
:102280000C90002390F8C8E0044601FB0E019C4628
:1022900018461E46D1F82880D1F854A01D461A468B
:1022A000C44526D3504524D30EF1300E54F82E00E9
:1022B00000F0C2FA002105460246371A2046FFF711
:1022C000F0FC2A46804601212046FFF7EAFC94F8FC
:1022D000C830AD1B303380452CBF45442D1854F811
:1022E000230000F0ADFA85422CBF0020401B381AB5
:1022F00021E0AA4213D14F6A07EBCC077F680CF1AB
:10230000010C3A440F6D07EBC0077F6801303D4474
:10231000AA42C5D14A4516441DD9104808E010D23A
:102320004F6A022B07EBCC077F683A4405D10C4873
:1023300004F0F2FD0020BDE8F08701230CF1010C50
:10234000E6E70F6D012B07EBC0077F683D44EED039
:1023500002230130DCE70023A0E700BFBBAB010C88
:1023600087AB010C2DE9F74304460D461746994605
:10237000002B60D01846FEF729FF00285BD194F8A7
:10238000C810204600F034F901A9064600F060F9B3
:1023900080463046FDF782FFB8F1000F4ED101991B
:1023A0002046FFF738FC414606464FF0580C731C98
:1023B00011D1D9F800305A1E8A421FD3B5FA85F5DB
:1023C0006D09582294F8C83053432C2202FB053380
:1023D0001C44206A1CE0D4F8B030DA6894F8C830A5
:1023E0000CFB0343586A0023043050F836E0734472
:1023F0009A4201D3013EF8D20131D8E78B421AD17B
:10240000012D10D199F80430012BDAD9D4F8B0009D
:1024100020233A460021FDF743FF003818BF012072
:1024200003B0BDE8F08335B999F80450022D94BF8C
:1024300000250125C5E7022DC3D1E7E70120EFE71D
:102440002DE9F7430E4617469946044628B94FF042
:10245000FF38404603B0BDE8F0830029F7D0002ADA
:10246000F5D0CB680D8938461D44042329460DEB71
:102470000302FDF715FF80460028E8D146F6081252
:10248000BDF804107389914223D1BDF8061099421A
:10249000DDD1042338460DEB03022944FDF700FF8C
:1024A0000028D4D146F60713BDF804209A42CED1B5
:1024B0009DF82830C4E90067A4F80890A3727389D6
:1024C000BDF806202B44E3600435134463612561A5
:1024D000BFE7002BE6D0BAE72DE9F7430F46904659
:1024E0001E46044620B94FF0FF3003B0BDE8F0832C
:1024F0000368002BF7D04368002BF4D04FF6FF7928
:10250000D4E90413994215D223685B8923B1E368A7
:102510008B4204BF04312161042360680DEB030288
:10252000FDF7BEFE0028DED1A37A256923B1E3685A
:10253000AB4201D80120D8E72189BDF806204945E2
:1025400002F1040303D0BDF804C08C450BD116B1D1
:10255000BDF80410318004353D60A8F800202269E0
:102560001A442261C1E72B442361C9E738B500232F
:10257000934201D1064B04E0C55CCC5CA54205D07A
:10258000044B1C68FEF7A4FD204638BD0133EFE77D
:10259000100004300C0004300B78052B06D078B105
:1025A000012807D1022B03D004220CE0032070473E
:1025B000D8207047FF2B0CBFD8204FF0FF3070475A
:1025C000012BF5D0032293420CBFD8204FF0FF30EF
:1025D000704710B50446FDF7D4FF2378052B04D1CE
:1025E00000F02EF9E368181A10BD00F025F9F9E79C
:1025F00070B5D0F8B03086B0009358236E460025F1
:1026000003FB0100036A019356F8044B02AAE16838
:10261000102320461039FDF743FE024638B12178D9
:10262000094804F079FC0024204606B070BD102251
:10263000064902A8FDF7B1FF0028F5D06B1C022B5C
:102640004FF00105F0D0DFE7F9AC010C36B4010C16
:1026500070B50D46044600F0B3FA2A46A0F1100109
:1026600004232046BDE87040FDF71ABE13B50446AA
:10267000019100F0A5FA0423A0F110010DEB030273
:10268000204600F001FB02B010BDFFF7F3BD2DE9BD
:10269000F34717462C224FF0580802FB01F690F83A
:1026A000C830044608FB03630344D3F82090B3F812
:1026B00008A0DB6848469A44042351460DEB030208
:1026C000FDF7EEFD054620B10125284602B0BDE824
:1026D000F08794F8C830BDF8042008FB036646F67E
:1026E000081334449A4264891BD1BDF806309C42D9
:1026F00001D00325E9E7042348460DEB030204EB70
:102700000A01FDF7CDFD0028DED146F60713BDF81E
:1027100004209A42EDD1BDF806102144514439609D
:10272000D3E7002CF1D0E4E737B548230546019301
:1027300095F8C8300846EBB1012B0BD102290BD01C
:1027400004221AE0052803D1D5F8B420B83509E0F1
:1027500001200DE0FF29F5D158225343EA18526AAF
:1027600028331D4401A9FEF79DF908B9019B2B6090
:1027700003B030BD0129EFD003228242E2D15822BA
:1027800002FB03525C4204F058045434126D254499
:10279000E8E70000F8B5274B0446002914BF0A46B5
:1027A0001A464FF41073582190F8C8506B4301FB40
:1027B0000501D01803F59063134402F510624862D6
:1027C0000B65C4F8B42055B1012D14BFFF210221BF
:1027D0002046FFF7A9FF20B101252846F8BD0121B9
:1027E000F6E71DB3012D14BFFF2104212046FFF79A
:1027F0009BFFE8B905212046FFF796FF0546002814
:10280000EAD1582394F8C86003FB0643186AFDF721
:10281000B8FE0746D4F8B000FDF7B3FE3036874265
:102820002CBF44F8267044F82600D6E70321DDE7E4
:102830000925D2E7DC250430D823584350307047AF
:1028400000EB40005030704773B50C460546164605
:10285000FDF797FEA04203D92846FDF792FE0446F5
:10286000D823E9686A46503903FB14112846FEF75D
:1028700001F90028A4BF009B336002B070BD2DE9B0
:10288000F3411E46C368054699420C46174630D2AE
:102890005B1A93422DD3EEB16A46FEF7EBF800289F
:1028A00029DB013FDDF800803C446A46214628468A
:1028B000FEF7E0F800281EDBDDE9004728463A462F
:1028C0002146FDF73DFE002815DB6EB1444512D9C7
:1028D000013CEAE7511E21446A46FEF7CBF8002886
:1028E00009DBDDF80080E0E73C44444503D80134CF
:1028F000DBE74FF0FF3002B0BDE8F08110B412B159
:1029000010BCFFF7BCBF104610BC70470023C26864
:102910001946FFF7F3BF582290F8C83053432C22D2
:1029200002FB0133C1180422086A00F05DB90000FF
:10293000582290F8C83053432C2202FB01310E4B31
:1029400042184158994206D1D16813895B1802D2C6
:102950005189C91801D300207047136ADB68994276
:10296000F9D2106920F4F97020F001000005000D83
:10297000B0FA80F0400970473DB8F3962DE9F04178
:1029800016464FF0580890F8C8200F4633460021ED
:1029900008FB02020446FFF7E5FC054668B994F817
:1029A000C820334608FB0242012120462C32FFF7A3
:1029B000D9FC10B1002F18BF05462846BDE8F081AC
:1029C0005823F0B590F8C84085B05C432C2303FB36
:1029D000024404440546276AFEF772FB0023CDE952
:1029E000023301934FF48073214606463A46009322
:1029F0002846064B00F088FA04463046FEF784FB72
:102A0000FEF766FB204605B0F0BD00BF1C31043068
:102A100002780B789A420FD80BD342784B789A42BF
:102A20000AD806D342884B889A4205D860EB00004A
:102A300070474FF0FF3070470120704737B5582579
:102A40000B46114690F8C82004466A432C2505FB26
:102A500003220244126A01AB00F0F2FB20B9019993
:102A600094F8C800FDF728FE03B030BD2DE9F04111
:102A70002C264FF0580804464E4390F8C8000F46E5
:102A800008FB006121440A6AFEF7C8FA054628B12E
:102A90000C4804F041FA2846BDE8F08194F8C830AB
:102AA00008FB03663444256AFEF78CFB294603467F
:102AB0003A462046FDF70EFE05460028EBD00248B8
:102AC000E7E700BF22AD010C4CAD010C38B5044660
:102AD000D0F8B00008B1FDF7E1FB00235825012B29
:102AE00084F8C83000D938BDE21892F8C9206AB914
:102AF00005FB0343D86C08B1FDF7D0FB94F8C83050
:102B000005FB0343186A08B1FDF7C8FB94F8C83009
:102B10000133DBB2E3E700002DE9F7430546002669
:102B20004FF05809012E85F8C8600BD9052005F132
:102B3000B001FDF797FB044690B301461E4804F030
:102B4000EBF92AE0AB1993F8C980B8F1000F2DD149
:102B500041463046FDF76EFF95F8C810074609FB61
:102B60000151C0B22031FDF77DFB0446E0B90121DF
:102B70003046FDF75FFF95F8C810074609FB015185
:102B8000C0B24C31FDF76EFB044678B101233246EA
:102B900039460A48009404F0BFF92846FFF796FF2B
:102BA000204603B0BDE8F0834346F0E795F8C860DF
:102BB0000136F6B2B6E700BFB2AD010C78AD010C3C
:102BC000C068203820F00F0020387047042809D052
:102BD000052803D1481E18BF01207047431A5842E8
:102BE000584170470120704738B515460C4661B111
:102BF0005AB1FDF739FF2146254411F8013B8342C4
:102C000003D1A942F9D1012038BD0020FCE738B535
:102C10000C460123114622460546FDF741FB0028DC
:102C20000FDB012221462846FFF7DEFF18B1032300
:102C30000020237038BD2378012B14BF0223012309
:102C4000F6E70120F6E7000030B5C16885B010391D
:102C500021F00F040546FDF707FF102201466846E4
:102C6000FDF7ABFC102268460649FDF7C9FC1023AE
:102C70006A4621462846FDF795FB003818BF01201B
:102C800005B030BD36B4010C2DE9FF471D460646A0
:102C90000F469046FDF775FC6C1E0444404204400C
:102CA000102C1AD83046FDF7DFFE82462A464146F0
:102CB0006846FDF7A5FC5146621B0DEB0500FDF7CC
:102CC0007CFC23466A4639463046FDF76BFB0038EC
:102CD00018BF012004B0BDE8F0874FF0FF30F9E7DE
:102CE00007B501238DF8042001AAFFF7CDFF03B03B
:102CF0005DF804FBC1680122203921F00F01FFF7C4
:102D0000EFBFC268203A22F00F02FFF780BF000039
:102D100030B50D46C16887B0102302AA10390446A9
:102D2000FDF7BEFA002802DA012007B030BD1022FC
:102D3000204602A9FFF758FF00283AD110221E4969
:102D400002A8FDF72AFC00280CBF012302232B70E8
:102D50002046FFF735FF012301460DF1070220460B
:102D6000FDF79EFA0028DFDB9DF80730204603F0D0
:102D70000F021B096A702B7101220DF10701FFF789
:102D800033FF10B96B78042B03D901236B70002338
:102D90002B71E2682046203A22F00F02103AA91C5B
:102DA000FFF735FF0028BFD12046E91CFFF7A9FF38
:102DB000BBE70323CBE700BF36B4010C13B50C46C9
:102DC000C0B201A9FDF74EFA50B921460198FFF7AC
:102DD0009FFF04460198FDF761FA204602B010BD3E
:102DE0000124FAE713B541EA021104468DF80710F1
:102DF000FFF7E6FE012301460DF107022046FFF72B
:102E000043FF02B010BD0000F0B5044685B050B1DC
:102E1000012814BFFF2002206946FFF7CFFF20B131
:102E2000FF2005B0F0BD0120F6E7002C41D0012CB9
:102E300014BFFF20042002A9FFF7C0FF012808D11A
:102E40002146264804F068F8254B029300238DF8AC
:102E50000C3000229DF800609DF80870214D31462D
:102E60002878FFF7B3FE50B339466878FFF7AEFE17
:102E700028B3AB78042B03D09DF8031099421ED1E0
:102E8000EB78042B03D09DF80B10994217D12B79C6
:102E9000042B10D16B79023BDBB2022B1AD9124AF8
:102EA0001248214604F038F86879831E022BB8D9FD
:102EB000B6E70320BFE79DF802109942EAD001323D
:102EC000032A05F10605CAD10948214604F024F871
:102ED0000120A6E7074A52F82320E1E7DAAD010C0A
:102EE0000301030324B4010C44AC010C21AE010C1A
:102EF00042AE010C18B4010CC1680122203921F046
:102F00000F011039FFF7ECBE2DE9F04FDFB00E4690
:102F1000154604466B9F18B390F8C82005926FF0D1
:102F200000410022DFF8C091CDE908126A9AD9F871
:102F300000800392699A0DF1400A0292689A314624
:102F4000009220462A46CDF804A000F029F948B1A5
:102F5000D9F80060FEF7BCF830465FB0BDE8F08FEE
:102F60000590DCE727B1202251463846FDF748FBA3
:102F700000230AAF00932A464FF6FF7331463846C6
:102F8000FFF75EFA82460028E2D1294620460F9ECE
:102F9000FFF77BFBB042DBD346464FF0FF3401E046
:102FA0004FF0010A06AF0DF11C0B3A4659460DF1E0
:102FB0001A030AA8FFF790FA0028C9DB40F08A80BC
:102FC000BDF81A30222B62D024D8022B4BD0102B04
:102FD000E8D1B7F800A0BAF1200FB9D1534628467E
:102FE000DBF8001018AAFDF75BF90028B0D1FEF756
:102FF00067F85246074618A910A8FFF7B7FA8246A5
:103000003846FEF781F8394B1B685345C8D09FE717
:103010009846C7E7502BC5D13B88042B98D128464A
:10302000DBF8001009AAFDF73BF9002890D1FEF764
:1030300047F808A907460598FDF718FB8346384668
:10304000FEF762F8294BD3F80080D84580D1DDE93E
:1030500008218A42A6D9D9F800309845D8D024480A
:1030600003F05AFF74E73B88982B3FF671AF284670
:10307000DBF8001038AAFDF713F900287FF468AFD9
:103080003A88059838A900F037F804468AE7002CFA
:1030900083DB184B1B68A3427FF77FAF3B88802BF5
:1030A0003FF656AF2846DBF8001018AAFDF7F8F8EF
:1030B00000287FF44DAFFEF703F8009483462021EB
:1030C0003B8818AA10A800F0F1F806465846FEF70B
:1030D0001BF862E7BAF1010F7FF43AAF034B1B68AC
:1030E00043457FF435AF35E70C0004301000043061
:1030F00076AE010CA8B2010C2DE9F0414FF020088A
:103100000E461546C2B004467022002126A8CDF80E
:103110000480FDF752FA702226A90AA8FDF770FA7A
:103120001B490AA800F074F92A4631460AA800F0A3
:103130008AF90023424602A926930AA826AB00F08A
:103140009EF901AF0AA800F049F920463A4626A99F
:10315000FDF7EEFC044628B14FF0FF34204642B0A4
:10316000BDE8F081FDF7ACFF3A68804626A902A8C9
:10317000FFF7FCF907464046FDF7C6FF054B1B6805
:10318000BB42E9D1044B1E60044B1D60E6E700BF63
:10319000090000021000043000000430E020043078
:1031A0002DE9F04792467022B8B00DEB02000C46B4
:1031B000DDE9425700219946409EFDF7FEF9702255
:1031C00068460DEB0201FDF71BFA68461B4900F04B
:1031D0001FF935B1002F04DD3A462946684600F054
:1031E00032F9002563892289D4F80C80134498446D
:1031F000454508D300242022684641991CAB1C9405
:1032000000F03DF90CE0A8EB0507B74228BF3746B0
:103210004A463B4629465046FDF742F8044630B13F
:10322000684600F0DBF8204638B0BDE8F0873A4643
:103230004946684600F007F93D44D9E70900000215
:1032400070B514461D468AB058B390F8C83042B3E2
:103250003DB3582673432C2606FB013101444B89AC
:1032600013B903200AB070BD012304A800935023B2
:10327000FFF7E6F80028F5D103460DF10A0203A98D
:1032800004A8FFF729F970B9BDF80A30042BE8D17A
:103290002A4620460399FDF703F8003818BF01209D
:1032A000E0E70720DEE74FF0FF30DBE72DE9F047EE
:1032B000894600219EB0414B1646269ADFF800A1B0
:1032C00053F8324006AF182280463846CDE9031144
:1032D0000591DAF80050FDF770F909223949201DEF
:1032E000FDF75BF9002854D10A22374904F10D009B
:1032F000FDF753F900284CD120224FF42050334BD6
:10330000CDE90423E3780733E118314B11F8022C9F
:10331000CDE9080344F212133846ADF81830013AEB
:1033200003AB00F0CFF80146002832D160223846C6
:10333000FDF743F9F578049C0436AC4233D82B1BD7
:103340001E44224631463846FDF75AF905F0FE057F
:1033500073195A78023594429ABF131B2246C2EB66
:10336000440406EB05019ABFC918B8183819FDF7CF
:1033700047F9049B9DF814105B00CDE900734246A9
:103380004B46039841F0062100F0EEF890B9114B3E
:103390001D68039808B100F0C3F8FDF799FE2846B0
:1033A0001EB0BDE8F087601B2A4631463844FDF761
:1033B00027F9CDE7DAF80050EBE700BF0000043052
:1033C0000C00043050B4010C46B4010C090000029A
:1033D00009060006100004300020704770B505464D
:1033E000FDF76EFE2C68064634B9FDF771FE3046D7
:1033F000FDF78AFE204670BD012C06D1281D00F085
:1034000089FA044600232B60EFE76FF08804F9E7A0
:10341000F8B505460C46FDF753FE2F1D6C22002122
:1034200006463846FDF7C9F82146384600F084FACA
:10343000044608B901232B60FDF74AFE3046FDF72C
:1034400063FE2046F8BDF8B505460F461446FDF765
:1034500037FE064634B9FDF73BFE3046FDF754FE15
:103460002046F8BD2B68012B06D122463946281D7F
:1034700000F08EFA0446EEE76FF08804EBE72DE9E2
:10348000F04104460F4690461D46FDF719FE002305
:103490002B6023680646012B11D12B464246394644
:1034A000201D00F087FA05462046FFF797FFFDF73D
:1034B0000FFE3046FDF728FE2846BDE8F0816FF08C
:1034C0008805F1E770B51E46038803F44F44B4F550
:1034D000824F17D1551E6D08ED00104CC4E9001243
:1034E0000146182204F10800FDF78AF80123226A38
:1034F0006581013242F0004222620020326084F88D
:10350000243070BD03F4E043B3F5805F02D0B3F51F
:10351000005F01D1D500E0E70025DEE71C32043072
:10352000F0B5002887B004DB442200210C48FDF7E9
:1035300044F800266C460B4F31461822684607F1C6
:103540000805C7E90066FDF738F80FCC0FC594E809
:10355000030085E80300304687F8246007B0F0BD1B
:10356000443204301C32043030B5002885B02ADAE9
:103570001648C468240A26D1048904F44F45B5F5D9
:10358000824F1CD121F4FF7525F00105B5F1062FFE
:1035900019D1E4B2122C12D14489B4F5807F0ED136
:1035A000099C00920394089CCDE901340B464268C3
:1035B00050F8081B00F0A4FE10F1860F01D16FF047
:1035C000850005B030BD6FF08600FAE71C3204308C
:1035D0007047002818BF6FF08300704710B514467D
:1035E0001846FDF70DF8039B00201C6010BD00007D
:1035F00010B50A46044619B1024B00211B689847D2
:1036000010BD00BF5CB4010C01680E4A0346914234
:1036100015D1C169A2F11022A2F1EF1291420ED18F
:103620008268012A0BD8C26812B101698A4206D0A9
:10363000586928B19B691B1A5842584170470120AC
:10364000704700BF55AA00FF0E4B70B59E68B6B11B
:103650003046FFF7D9FF044618B9F3687BB93569DE
:103660000DB9204670BD2846FFF7CEFF28B9EB689C
:10367000B34204D12E462D69F2E70446F1E7012456
:10368000EFE700BF883204302DE9F843404E34683C
:10369000D4B1B468C4B1002877D0002975D001FB3B
:1036A00000F5B5FBF0F088426FD1281D6DD8A90751
:1036B0000DD025F003070437F46803E06368BB42CC
:1036C00007D2A469002CF9D12046BDE8F8832F4623
:1036D000F2E7A3681BB12F4B01201B689847D4E980
:1036E0000520616804F12008C91B23291CD8012387
:1036F000A360BAB19061A36903B15A610023C4E920
:1037000005333369DA0706D5FFF79EFF18B10120AC
:10371000204B1B6898472A46002140464446FCF748
:103720004CFFD1E7F060E6E707F1200C04EB0C0357
:10373000203959600021DFF860E0C3E902142169F3
:10374000196144F80CE0DFF854C0C3F81CC001B1A3
:10375000CB60C3E90520B2B193619A6902B15361AC
:10376000236100234FF00109C4E905333369C4E93B
:103770000179DB07CFD5FFF767FF0028CBD0054BDA
:1037800048461B68C6E7F360E7E700249CE700BFF4
:10379000883204301400043055AA00FF669911EEF7
:1037A0002DE9F041054600287CD03F4F3B68002BB7
:1037B00078D0BA68002A75D0834203D87A68134457
:1037C000984203D3394B01201B689847A5F1200488
:1037D0002046FFF719FF18B1344B01201B689847AA
:1037E00055F8183C012B03D0304B01201B6898473B
:1037F000002355F8146C45F8183CAEB1B26892B984
:1038000055F81C3C03F1200273681344736055F8AB
:10381000103C336103B1DE60204620220021FCF71A
:10382000CCFE234634461E462069002832D08368E9
:10383000002B2FD16368426820331344636003690F
:10384000D4E905212361DAB901BB4269816962616A
:10385000A161EAB19461A26902B1546103B1DC6073
:1038600020220021FCF7A9FE3B699B071AD5FFF730
:10387000EBFEB8B1BDE8F0410C4B01201B681847C6
:103880009161A1690029E0D04A61DEE7F960F8E7BB
:10389000FC60E0E7002EE7D1FB68A36103B15C6147
:1038A000FC60E1E7BDE8F0818832043014000430A8
:1038B00038B50D461422002104461248FCF77DFE5F
:1038C0001149124801F07CF9232D1AD914F0030391
:1038D0001FBF043DED18C3F10403E4182A4600217C
:1038E0002046FCF76AFE074B094AC3E900459C6085
:1038F0002260A2F11022203DA2F1EF126560E26188
:10390000DC6038BD88320430A137010C8936010CE7
:1039100055AA00FF036810B504462BB1054A93422F
:1039200005D1043000F0DEFB0020206010BD6FF0F8
:103930008800FBE709000002F8B5076805460C4659
:1039400007BB124B994213D1061D304600F0C6FB4F
:103950003046394600F0CCFB064628B92C6030468C
:10396000BDE8F840FFF735BE2846FFF7D3FFF6E77E
:1039700001F0FE44B4F1007F14BF6FF086006FF0D9
:103980008500F8BD6FF08800FBE700BF090000026A
:1039900010B5074B04689C4206D1043000F0D6FBFA
:1039A000BDE81040FFF715BE6FF0880010BD00BFE6
:1039B000090000022DE9F0411F460478064644F054
:1039C000007404F17E44033C102C98BF104B8846D1
:1039D00015468CBF00241C5D3A601AB12121404677
:1039E000FCF7EBFDAC420DD832680A4B9A420CD181
:1039F0004146301D00F0EAFBFFF7EBFD00B93C60EB
:103A0000BDE8F0816FF08900FAE76FF08800F7E712
:103A100060B4010C090000022DE9F04F0D46D5B04D
:103A200000F1440304934BAB059300F16403069348
:103A3000DDE9043253F8041F42F8041F0699994245
:103A4000F8D100240BAE09AF291904223846FCF73F
:103A5000D7FD3B6804341BBA402C46F8043FF3D131
:103A600097490DF1280A5546DDE951EBDDE94C7621
:103A7000DDE94E328C46DDF84C81DDF84091019154
:103A8000A868DCF800104FEAF92484EAB91401446C
:103A90008BEA0E0084EA796400EA090080EA0B00F0
:103AA0002144014441444FEA773888EAB70888EA5C
:103AB000B7580A44884447EA060107EA0600194055
:103AC00001438844E868DCF804104FEA7834014484
:103AD00089EA0E00104080EA0E00594401444FEA82
:103AE000F22080EAB21080EA726084EAB8040144ED
:103AF00084EAB8540B440C4448EA070108EA07007A
:103B0000314001430C442869DCF808102035014499
:103B100082EA0900184080EA0900714401444FEA32
:103B2000F32080EAB31080EA736001444FEA7430F6
:103B300080EAB40080EAB45001EB060E084448EA7B
:103B4000040108EA040639403143084455F80C6C76
:103B5000DCF80C100CF1200C0E444E4482EA0309F0
:103B600009EA0E094FEAFE2189EA020981EABE113B
:103B700081EA7E614E440E444FEA703181EAB00121
:103B800081EAB05106EB0709314444EA000604EA31
:103B9000000706EA08063E43314455F8087C5CF805
:103BA000106C3E44164483EA0E0202EA09025A40AF
:103BB00016444FEAF92282EAB91282EA796216447F
:103BC0004FEA713282EAB10282EAB152B044324421
:103BD00040EA010600EA010726403E43324455F818
:103BE000047C5CF80C6C3E441E448EEA090303EA34
:103BF000080383EA0E031E444FEAF82383EAB8134E
:103C000083EA78631E444FEA723383EAB20304EB1B
:103C1000060B83EAB25341EA02043344044001EA4A
:103C20000206344323442E685CF8084C344489EA85
:103C3000080606EA0B0686EA0906744434444FEA8D
:103C4000FB2686EABB1686EA7B66344400EB040E4C
:103C50004FEA733080EAB30080EAB350204442EA6E
:103C600003040C4002EA0306344306196C685CF84E
:103C7000040C204488EA0B0404EA0E04484484EA55
:103C8000080420444FEAFE2484EABE1484EA7E64D9
:103C9000204401EB00094FEA763181EAB60181EA5E
:103CA000B651014443EA0600104003EA06042043EB
:103CB0000F181AA9A9427FF4E3AE3AA9079101E0CF
:103CC00074B4010CDAF84010DAF80C404FEAF14510
:103CD00085EA7145DAF8080085EA9125DAF82C10B2
:103CE0000AF1200A01444FEAB44080EAF41080EA65
:103CF000D4002944014403918BEA0E004FEAF921D4
:103D000081EAB91100EA090081EA796180EA0B00D1
:103D10000844019907EA0605096C08440399084418
:103D2000404402440292CAF8281047EA06024FEAC9
:103D3000773181EAB7011A402A4381EAB751114429
:103D4000DAF8242001444FEAF24585EA72455AF830
:103D5000100C85EA9225DAF81020DDF808C014442A
:103D60004FEAB04282EAF01282EAD0022C441444B4
:103D7000029A89EA0E051540019A85EA0E05526CF1
:103D8000CAF82C405A4422441544029A4FEAF222BF
:103D900082EABC1282EA7C622A4403EB020B47EA05
:103DA00001054FEA713307EA010C83EAB10335409C
:103DB00045EA0C0583EAB1532B441344039A5AF89D
:103DC0000CCC4FEAF24585EA724585EA9225DAF88D
:103DD000142000EB02084FEABC4282EAFC1282EA9D
:103DE000DC02A8449044029A4FEA733589EA020043
:103DF000019A00EA0B00926C80EA09007244424486
:103E000010444FEAFB2282EABB1282EA7B62024440
:103E100041EA030006EB020E85EAB30501EA030658
:103E20003840304385EAB355054415445AF8086CC8
:103E3000DAF818204FEAF44080EA744080EA9420CF
:103E40000CEB02044FEAB64282EAF61282EAD6028C
:103E500004441444029A03EA050C82EA0B0000EAC7
:103E60000E005040019ACAF83080D26CCAF8344033
:103E70004A44224410444FEAFE2282EABE1282EAF9
:103E80007E62024407EB02094FEA753043EA0507F8
:103E900080EAB5000F4047EA0C0780EAB550384485
:103EA00010445AF8047CDAF81C204FEAF84C8CEAEB
:103EB000784C16444FEAB7428CEA982C82EAF71203
:103EC00082EAD70266441644019ADDF808C0126DF2
:103ED000CAF83860324462448BEA0E0C0CEA090CD2
:103EE0008CEA0B0C62444FEAF92C8CEAB91C8CEA80
:103EF000796C94444FEA703282EAB00201EB0C080C
:103F000082EAB05245EA00010292194005EA000235
:103F10001143029A0A444FEAF44181EA744181EA6A
:103F20009421DAF820406244DAF800C03C440C44A2
:103F30004FEABC4181EAFC1181EADC010C440199A1
:103F40008EEA0907496D07EA08072144594487EAC0
:103F50000E070F444FEAF82181EAB81181EA78612F
:103F6000394403EB010B4FEA723383EAB20383EA6D
:103F7000B25340EA020702932F4000EA02031F43B4
:103F8000029BCAF83C403B440B444FEAF64181EAAD
:103F9000764181EA9621DAF82460DAF80470664402
:103FA00031444FEAB74686EAF71686EAD706314427
:103FB00002910199DDF808C0896D89EA080661441B
:103FC00006EA0B06714486EA09060E444FEAFB2115
:103FD00081EABB1181EA7B61314405EB010E42EAC3
:103FE00003064FEA7335CAF840C0064002EA030CE4
:103FF00085EAB30546EA0C0685EAB35535446E18E2
:10400000DAF80810039D4FEAF44C3D444FEAB147FB
:1040100087EAF11787EAD1078CEA744C01998CEA98
:10402000942C6544C96D3D4488EA0B0707EA0E07E6
:104030002944494487EA08070F444FEAFE2181EAF0
:10404000BE1181EA7E61394443EA060703EA0609A4
:10405000174047EA090700EB010901984FEA763C4F
:1040600020308CEAB60C019007988CEAB65CCAF84E
:104070004450BC44504501EB0C077FF423AE0AA822
:10408000C0F81031C0E9001C029BC0F82481C0F8C0
:104090000031C0F81421C0F8FC40C0F820B1C0F8CD
:1040A0001CE1C0F80C61C0F80451C0F81891C0F8C8
:1040B0000871049A059952F8043F049251F8042FAC
:1040C0001344049A05911360069B9342F1D14FF477
:1040D0009471FFF78DFA55B0BDE8F08F682200218A
:1040E000FCF76BBA10B16821FFF782BA7047000085
:1040F00003460846C1B9C3E910110D4A0D49DFF85E
:1041000038C0C3E912120D4A0D49C3E914C20D4A61
:10411000C3E916120C4A1A6602F17452A2F5230280
:10412000A2F692425A6670476FF08600704700BF51
:1041300085AE67BB67E6096A72F36E3C3AF54FA538
:104140007F520E518C68059BABD9831F2DE9F0413E
:1041500005460E46144612B3036C03F03F079B1846
:10416000036422BF436C013343647FB1C7F140084D
:1041700042450FD342463844FCF742FA29462846C6
:10418000FFF74AFC27444644A7F140043F2C09D8D6
:104190002CB1002722463146E819FCF731FA0020FD
:1041A000BDE8F081374606EB04083946284640371B
:1041B000FFF732FCA8EB07033F2BF6D8A4F140032E
:1041C00023F03F0340331E44E41ADFE773B50D4686
:1041D0008021036C044603F03F035A1C382AC15463
:1041E000104474D80021C2F13802FCF7E6F9D4E992
:1041F0001062730F43EAC20304221BBA0DEB0201E3
:1042000004F138000193FCF7FBF90422F6000DEBF2
:10421000020136BA04F13C000196FCF7F1F921469F
:104220002046FFF7F9FB0422A36C0DEB02011BBA39
:1042300028460193FCF7E4F90422E36C0DEB02013C
:104240001BBAA8180193FCF7DBF90422236D0DEBD0
:1042500002011BBA05F108000193FCF7D1F9042211
:10426000636D0DEB02011BBA05F10C000193FCF725
:10427000C7F90422A36D0DEB02011BBA05F1100072
:104280000193FCF7BDF90422E36D0DEB02011BBAAB
:1042900005F114000193FCF7B3F90422236E0DEB32
:1042A00002011BBA05F118000193FCF7A9F90422D9
:1042B000636E0DEB02011BBA05F11C000193FCF7C4
:1042C0009FF92046FFF70EFF002002B070BDC2F13B
:1042D00040020021FCF771F921462046FFF79CFBC4
:1042E00038220021204680E7043004289ABF034B7F
:1042F00033F910006FF08300704700BF74B5010CF4
:104300004123F0B595B00DF1080CCDE9003CDDE995
:104310001A56DDE91C47029303ABFFF75FF998B922
:104320009DF80C30042B0DD1402F0FD133462A4677
:1043300020460DF10D0100F08DFB15B0BDE8F040F9
:10434000FFF7D2BF6FF0860015B0F0BD6FF094009C
:10435000FAE70022016000F11C0340F8042F9842A4
:10436000FBD17047F0B5002405462646204652F89A
:10437000247051F82430DB1946EB06071B1845F86A
:10438000243004F1010447F10000082CEFD1F0BD06
:10439000002370B50646184652F8235051F82340C2
:1043A000641B65EB0505241A46F8234003F101035D
:1043B00065F10005082BC5F10000EDD170BD70B5A9
:1043C00004395642041F013A1C3054F8043F51F896
:1043D000045F134035402B4384422360F5D170BD08
:1043E000002330B50446184654F8232051F82350D2
:1043F00001336A40082B40EA0200F5D130BD021FAC
:1044000000F11C03002052F8041F9A4240EA010008
:10441000F9D170472DE9F047002506468946AA469E
:10442000171FA0F1040C02F11C0857F8043F5CF8B8
:1044300004EF4C46200C1A0CA4B29BB2110041436D
:1044400062435C43434318041B0C24184B41100483
:10445000120C241853417046002224185341641949
:10446000534147451D46CCF80040DED1336A5A1906
:104470005B1932624AEB0A00BDE8F08710B50438D8
:10448000A1F120024B7F0C7F1B0443EA0463CC7F25
:104490000439234391F822408A4243EA042340F836
:1044A000043FEFD110BD70B588B01E460446FFF73B
:1044B00059FF3246054621466846FFF769FFC0F1BD
:1044C0000102694620462A43FFF779FF08B070BD14
:1044D0002DE9F04F9846D3F840A000230746184630
:1044E0008BB0914601AA0133092B42F8040BFAD193
:1044F000A1F1040B01F11C06D9F800305BF8041F90
:10450000019D4A4601A803FB0155FFF783FF0AFB03
:1045100005F504464246294601A8FFF77BFF08231C
:10452000044401AA5168013B42F8041BFAD1B34587
:104530000994E1D1424601A93846FFF729FFC0F1AD
:10454000010222433846C2F10102FFF738FF0BB0E7
:10455000BDE8F08F014BFFF7BBBF00BF24B6010CD5
:104560000B4601F120020146FFF7B2BF30B5044609
:104570000D4689B068460121FFF7EBFE2B466A46DF
:1045800021462046FFF7A4FF09B030BD38B50446E8
:104590001546FFF7DEFE29462046BDE83840FFF706
:1045A000DFBF2DE9F04314460646274689B00122B5
:1045B0006846FFF704FF224601213046FFF7E6FF79
:1045C000256804F11C09023D4FF02008EB0705D5D2
:1045D00023466A4631463046FFF77AFF23466A464D
:1045E00069466846FFF774FFB8F101084FEA5505C0
:1045F000ECD14F4502D057F8045FE5E709B0BDE8BC
:10460000F083000070B5144606460D4688B021467A
:1046100020460C4AFFF7C5FF224621466846FFF7B1
:1046200099FF6A4631463046FFF794FF22466946B5
:104630006846FFF78FFF6A4629462846FFF78AFF3C
:1046400008B070BD24B6010C30B5044689B0FFF740
:1046500015FF0C4A21466846FFF79AFE05460121E0
:104660006846FFF776FE6A4621466846FFF790FEE9
:104670002DB1003818BF0120404209B030BD4FF0C5
:10468000FF30FAE7E0B5010C10B588B004460146EA
:10469000054A6846FFF77CFE6946C0F101022046E4
:1046A000FFF78DFE08B010BDE0B5010C70B51F2AF4
:1046B00004460B4688B00FD800206D466946064672
:1046C0000130202805F8016BFAD1C2F11F0008441F
:1046D0001A4493420CD12046FFF7D0FE2046FFF744
:1046E000D3FF2046054908B0BDE87040FFF738BF4A
:1046F00013F8015B00F8015FEBE700BFE0B5010CC8
:1047000030B589B00446FFF743FE054621466846AA
:10471000044AFFF727FE2A4669462046FFF74FFE68
:1047200009B030BD24B6010CF0B516461F4604464C
:104730000D4699B011466846FFF70CFF32466946B0
:1047400008A8FFF707FF3A4669466846FFF702FFE9
:1047500008A908461E9AFFF7FDFE224669466846EC
:10476000FFF7CEFF08A92A460846FFF7C9FF6A46A9
:1047700031463046FFF7EEFE6A46694610A8FFF75D
:10478000E9FE6A46684610A9FFF7E4FE10A9224632
:104790000846FFF7DFFE08AA11462046FFF7DAFEBB
:1047A0002146204610AAFFF7ABFF2146204610AA5B
:1047B000FFF7A6FF6A4621462046FFF7A1FF10A992
:1047C00022460846FFF79CFF10A9084608AAFFF7F3
:1047D000C1FE2A4669466846FFF7BCFE6A4628467F
:1047E00010A9FFF78DFF19B0F0BD000070B50446A9
:1047F00090B00D4611461646FFF740FE2146234A6B
:1048000008A8FFF7C5FD012803D04FF0FF3010B016
:1048100070BD11462046FFF7A3FE284606F1200191
:10482000FFF72CFE2946194A08A8FFF7B1FD012819
:10483000EBD111462846FFF793FE2A4629466846E3
:10484000FFF788FE2246214608A8FFF783FE08A945
:1048500022460846FFF77EFE08A922460846FFF7D3
:104860004FFF08A922460846FFF74AFF08A922463B
:104870000846FFF745FF08A90846044B044AFFF71E
:1048800012FE684608A9FFF7ABFDC0E724B6010C8D
:10489000C0B5010C70B504460D46164698B01146D9
:1048A00008A8FFF757FE344B2146684608AAFFF7D1
:1048B000FAFD214608AA10A8FFF722FF694610AAB0
:1048C00008A8FFF747FE08AA114668462A4BFFF7DB
:1048D000EAFD69466846284B08AAFFF7E4FD2A4628
:1048E000294610A8FFF736FE10AA11461046224BA3
:1048F000FFF7D9FD214610AA08A8FFF72BFE08AA4A
:10490000114610461C4BFFF7CEFD10AA114610466B
:10491000FFF720FE10AA184B11461046FFF7C3FD03
:104920006A4669462046FFF715FE2146204608AA3A
:10493000FFF7E6FE2146204608AAFFF7E1FE3246D1
:1049400029463046FFF706FE0B4B324631463046CD
:10495000FFF7A9FD2246284608A9FFF7D1FE6A46BF
:1049600029462846FFF7F6FD2946284610AAFFF7F4
:10497000C7FE18B070BD00BF24B6010C2DE9F04F82
:104980009946054692460C46A3B02C9E2F493246C6
:1049900002A8FFF7FDFCD6F800B031460BF001028B
:1049A00002A80DF14808FFF70AFD00214046FFF775
:1049B000D0FC4A4641460AA8FFF7A2FE0122514612
:1049C0002846FFF7FCFC012249462046FFF7F7FC8A
:1049D00001211F4A1AA8FFF7D9FD6FEA0B022046F2
:1049E00002F001020AA9FFF7EAFCFF277B0922AACD
:1049F00002EB830353F8806C07F01F02D64086EA6F
:104A00000B06F2434946404602F00102FFF7D7FC8D
:104A1000404606F001020AA9FFF7D1FC21462846CC
:104A20001AAAFFF737FF534621462846CDF80080E3
:104A30001AAAFFF779FE013FD8D1214628461AAAC3
:104A4000FFF7E0FD23B0BDE8F08F00BFE0B5010C3B
:104A500024B6010C2DE9F041C2B004460F460146D0
:104A600002A815469846FFF7EFFD28B16FF003073F
:104A7000384642B0BDE8F0810AAE304604F120016C
:104A8000FFF7E2FD0028F1D14246294612A8FFF7C0
:104A90000DFE30464649FFF763FD1AAC31463046FD
:104AA000434AFFF77EFD424B3246204612A9FFF7EC
:104AB0000FFD22AD20463E49FFF758FD0122284652
:104AC00002A9FFF77CFC28463949FFF749FD324629
:104AD000374B29462846FFF7FBFC28463449FFF7A9
:104AE00045FD3A4632A92AA8FFF780FE074600286E
:104AF0005BD112A83146009532AB2AAAFFF73EFFE0
:104B00002046FFF77CFC90B90122204612A9FFF74E
:104B100056FC28492046FFF729FD2046FFF7B4FD43
:104B2000204602A9FFF75CFC0028A1D09EE7224B9B
:104B3000224A32A92AA80094FFF720FF012220462A
:104B40002AA9FFF73CFC0122284632A9FFF737FCCF
:104B500001213AA8174AFFF719FD12A92AA8FFF761
:104B60003FFC60B10B462046294600963AAAFFF763
:104B7000DBFD294620463AAAFFF744FDC9E7314646
:104B800032A8FFF72DFC28B9294620463AAAFFF79C
:104B900081FEEEE739462046064AFFF7F7FC394624
:104BA0002846044AFFF7F2FCB3E76FF001075FE71E
:104BB000E0B5010C24B6010C80B5010CA0B5010CC8
:104BC000024B1860024B0020196070471C00043033
:104BD00018000430464A136B23F4807323F001035A
:104BE00043F480731363136943F030031361536913
:104BF0001807FCD53F4B1A6922F4FE0242F48002EA
:104C00001A611A6822F018021A601A6842F001024A
:104C10001A601A689107FCD537490A6822F00F021A
:104C200042F005020A609A6A22F0030242F0010291
:104C30009A629A6A42F480329A629A6A42F4003224
:104C40009A629A6A42F480229A629A6A22F0100268
:104C50009A629A6A22F00C0242F008029A629A6AF8
:104C600022F020029A629A6A22F47C5242F4006294
:104C70009A625A6B6FF3080242F03B025A635A6B16
:104C800022F47E4242F400725A635A6B22F4FE020E
:104C900042F480325A635A6B22F0FE4242F0807234
:104CA0005A631A6842F080721A60124B1A689201B5
:104CB000FCD51A6A22F00F021A621A6A22F07002F8
:104CC0001A621A6A22F4E0621A621A6A22F4E04254
:104CD0001A62DA6942F00302DA61064BDA6902F01D
:104CE0001802182AFAD11A6842F480521A607047E2
:104CF00000080254000C02540020025008B501F0D4
:104D00008FFB18B1BDE8084006F000BE08BD0000EA
:104D10001FB51D4B1B6801931C4B5B6802931C4B1A
:104D20005B680393019B029B039B00F031FC01F045
:104D30004DFCFFF7E3FF01F0CDFB20B1154802F079
:104D4000EBF806F0E3FDFBF75BFE20B1124802F042
:104D5000E3F806F0DBFD002400F026F800F0FEF892
:104D60000E4B1C6000F020F800F0F8F80C4B2046C9
:104D70009B68984720B10B4802F0CEF806F0C6FDBC
:104D8000002004B010BD00BF0080020C00E0020C47
:104D900000E0000CE3AE010C05AF010CA0320430C2
:104DA000C0B6010C32AF010CF7B5624C236883B971
:104DB000614BD3F8882042F08072C3F888204FF40A
:104DC0000022D3F8883003F080730193019B5B4B82
:104DD0009A61206800286DD1594B5A49D3F8D020E8
:104DE00022F00102C3F8D0200A680130C3F8D820AD
:104DF0004A68103122F01F02C3F8DC2011F8045C6D
:104E000051F8082C003D18BF012522F01F0242EA8C
:104E1000450242F001020428C3F8E020E4D1BFF3C8
:104E20004F8FBFF36F8FD3F8D02042F00102C3F849
:104E3000D0202368D3B94022434844497F25C0E9A4
:104E40000012F922C0E90433C0E90252C0E9063376
:104E5000036201F06BFA08B106F058FDFF213A48F1
:104E600001F0BAFA3A49384801F0CCFA2368002B2D
:104E70004FD1012000F05CFF2268002A50D12E4B58
:104E80000520D3F8881041F40031C3F88810D3F816
:104E90008830114603F400330093009B01F0F8F8CA
:104EA000052001F025F92B4A536C43F002035364AB
:104EB00003B0F0BD0027234D214E2B68C6F8D83033
:104EC000D6F8D800D6F8DC208342D6F8E01011D10D
:104ED0006B6823F01F0393420CD12A7BAB68003A26
:104EE00018BF012223F01F0343EA420343F00103EA
:104EF0008B4201D006F00AFD0137042F05F11005A1
:104F0000DBD10F4BD3F8D030DE0792D406F0FEFC95
:104F10008FE700F017FF0128AED006F0F7FCABE7F3
:104F20000C4B5B6C9B07C3D403B0BDE8F04006F0AC
:104F3000EDBC00BFA0320430000C0254002403502A
:104F400000ED00E080B6010C2C33043000780054F2
:104F50000000FF5D006002507047000073B5012340
:104F60000226744C744D20466361266200F074FE84
:104F700028466E6100F070FE002323602B602369D9
:104F800003F07F43B3F1344F04D06C4801F0C4FF09
:104F900006F0BCFCE368002B04DA694801F0BCFFB2
:104FA00006F0B4FCE36803F07F53B3F1345F04D040
:104FB000644801F0B1FF06F0A9FC616A624B9942B6
:104FC00007D0624801F0A8FF614801F0A5FF06F094
:104FD0009DFCD4E90F320BB9432A11D000215D4862
:104FE0000092432201F098FF5B4801F095FF4323B4
:104FF0004FF0000CC4E90FC3236843F4007323602F
:10500000D5E90F329A420CD300927F2100225348F7
:1050100001F082FF7F260023C5E90F634FF4007380
:105020002B60D4E90632012B01D11C2A0ED01C21A1
:105030004B4801F071FF1C230120C4E906034948D5
:1050400001F06AFF236843F001032360D4E90C32C6
:105050000BB9132A10D0002143480092132201F00B
:105060005BFF424801F058FF13230021C4E90C13F1
:10507000236843F04003236023691A0704D53C48A2
:1050800001F04AFF06F042FC23695B0604D539486B
:1050900001F042FF06F03AFC23682A68134323D04C
:1050A00000F020FB00F040FB236843B1214800F0F2
:1050B00043FC20B1304801F02FFF06F027FC2B689D
:1050C00043B11D4800F038FC20B12B4801F024FF0B
:1050D00006F01CFC00F0E4FB20B1284801F01CFFA6
:1050E00006F014FC01F012F8A16AC32907D0244885
:1050F00001F012FF234801F00FFF06F007FC636880
:10510000B3F56D4F13D0B3F5B85F10D0B3F5385F7A
:105110000DD0B3F5464F0AD0B3F5E44F07D0B3F541
:10512000B84F04D002B0BDE8704006F0EFBB02B04B
:1051300070BD00BFE8320430A43204305DAF010C12
:1051400079AF010CA8AF010C0000010CD6AF010C27
:10515000E6AF010C0EB0010C3BB0010C76B0010CB7
:10516000A3B0010CD7B0010C0AB1010C3AB1010C8B
:105170006CB1010C98B1010CB9B1010CDFB1010C9B
:1051800001B2010C11B2010C042A09DB0B680360A7
:1051900000F1040001F10401A2F10402042AF5DA8D
:1051A000002A09D00B78037000F1010001F1010120
:1051B000A2F10102012AF5DA70470000044B82B027
:1051C000186883B26FF30F00184302B0704700BF36
:1051D00004B7010C0C20704700207047012805D946
:1051E00002280CBF00206FF0040070476FF003002E
:1051F00070476FF003007047014B1868704700BF9D
:105200005C33043000487047ECB6010C08B54FF42D
:105210007A7000F09BFA002008BD00000C4B70B5BE
:105220005A6992B11C69002301390144151DA3423A
:1052300001D1002070BD52F83360864203D855F882
:105240003360B14201D90133F1E70120F2E700BF39
:10525000400004302DE9F0411446204B96001A78A6
:10526000074622F002021A70421E02EB8402B2F5D7
:10527000001F0D4611D31A4A94693CB16FF0040027
:105280001A7842F002021A70BDE8F0813246FF211E
:105290002846FBF792F92046F6E70023DFF8448022
:1052A0003146C8F80030FFF7B9FF324690B107F138
:1052B00040612846FFF768FFD8F8003023B1324636
:1052C00000212846FBF779F9002324F04040C8F874
:1052D0000030D9E707F10061EBE700BF5C33043031
:1052E000400004306033043038B50E4D6B68DC0785
:1052F00009D40C4B5A68900711D45A68520744BF1E
:105300000422DA6038BDFBF723FC04466B6899077A
:10531000EFD4FBF71DFC001B0128F7D9E9E70222B7
:10532000DA60EAE7000403500B4A10B5D36823F0B3
:105330000203D36001F07EF8FBF70AFC044601F09B
:1053400095F840B1FBF704FC001B0128F7D901F0E8
:105350008DF80028F3D010BD000403502DE9F04F64
:10536000454F87B03B784FEA8208019123F0020352
:105370004146064615463B70FFF750FFF0B14FF02F
:10538000020B4FF0406A721E4244B2F5001F0CD26D
:1053900048EA060414F00F0407D1384BD3E90201A0
:1053A000234601F1040E83420DD16FF004003B78D7
:1053B00043F002033B7007B0BDE8F08F4FF0006A86
:1053C000DFF8BCB0DFE751F833C0664503D35EF8C1
:1053D00033C0624544D90133E5E700F06FF93B780B
:1053E00043F001033B70019B1022191902A8FBF73F
:1053F00007F9029B049A05991A40039B0B40B3F1ED
:10540000FF3F08BFB2F1FF3F24D00AEB0601584628
:1054100002AA214400F0E6F981461034A04502D0EA
:10542000B9F1000FDFD03B78414623F0010330197A
:105430003B70FFF7F3FE80B100F06AF9FFF754FF0D
:1054400000F0EEFFB9F1000F25F0404018BF4FF01B
:10545000FF30B0E74FF00009DFE700F04DF9EDE76E
:10546000FFF762FF41463046FFF7D8FE0028B4D16F
:1054700000F010F9B3E700BF5C33043040000430A3
:105480000200008070B5B0F5001F044686B008D257
:10549000C0F30C032BB92F4AD2E90012101D8B4226
:1054A00008D16FF004002C4A137843F00203137004
:1054B00006B070BD52F83350AC4203D350F83350AD
:1054C000AC4207D90133EAE700F0E4F824E000F049
:1054D00013F936E004212046FFF7A0FE00281F4BF9
:1054E00018BF0423B4F5801F029334BF01230223A5
:1054F00003930123184E0593630B0493FFF714FFE6
:105500003378042123F0020320463370FFF786FE30
:105510000028D9D000F0D2F8337801A943F0010374
:1055200002A8337000F03CFC3378054623F00103F9
:10553000042120463370FFF771FE0028C7D000F029
:10554000E7F8FFF7D1FE00F06BFF281E18BF01201F
:105550004042ADE7400004305C330430040000807A
:10556000084BD3F80421002A0ADAD3F8042142F0C8
:105570000042C3F80421044A1368013313607047E2
:10558000FEE700BF00200250603304307047000087
:1055900010B5032000F06AFD00F066FC094B0A4AD2
:1055A0001B6A03F00F03D35CD840084B18600F2030
:1055B000FBF7C0FA044618B9FFF7E8FF204610BD14
:1055C0000124FBE7000C025470B6010C20000430EB
:1055D0000C4B10B50C4A9C680C4B13EA240338BFE3
:1055E00013461A6842F002021A60EFF3108272B694
:1055F0000023CC58C4500433102BFAD182F3108806
:1056000010BD00BF240004302C200250282002408E
:1056100030B50F4DAB68002BAABF0E4B0E4B0F4A97
:105620001C68B8BF0E4A44F002041C60AB681468E2
:1056300003F0040323431360EFF3108272B60023D8
:10564000CC58C4500433102BFAD182F3108830BDEB
:10565000240004302C200250282002404420025014
:1056600040200240084B10B5084A9C68084B13EADA
:10567000240338BF13461A6842F002021A600B88EE
:105680009BB2038010BD00BF240004302C200250C8
:1056900028200240074B9A6AD20741BF064A5A6047
:1056A00002F188325A6046BF986A00F0010001207A
:1056B000704700BF0020025023016745074BDA6A9C
:1056C000D20741BF064A9A6002F188329A6046BF0B
:1056D000D86A00F001000120704700BF002002508E
:1056E0002301674508B5FFF7D5FF18B9BDE80840A5
:1056F000FFF7E4BF08BD0000044B9A6A42F00102C4
:105700009A62986AC04300F001007047002002507E
:10571000044BDA6A42F00102DA62D86AC04300F050
:105720000100704700200250064BD86910F00100BC
:1057300007D0054ADA6002F14432DA60D86900F035
:1057400001007047002002503B2A1908F8B50546B1
:10575000FBF7FEF91D4E1E4CB2681E4B074614EABD
:10576000220438BF1C46236813F00B0F1AD1B1680E
:10577000194B1A4A1A4812EA210238BF1A46216800
:10578000036A01F47E0103F400030B4315D0716832
:105790001943716013601A0202D54FF400030363CA
:1057A00001200EE0691CDED0FBF7D2F9C01BA84235
:1057B00001D8002DD7D1032003E02368DB0301D4F7
:1057C0000020F8BD4FF480331360F9E72400043063
:1057D0002020024024200250342002503020024079
:1057E000002002502DE9F041264D04462B780E464C
:1057F000012B174644D001232B7000234FF47A70FD
:105800006B60FFF7A3FF50BB1F4B204AAC6012EA4E
:10581000240838BF984624F00043022B23D1394690
:105820003046FFF7D5FE4FF47A70FFF78FFFD8F8B8
:10583000003024F0304222F0040223EA0203C8F8C8
:105840000030134B9C420AD1A968124A124B13EA4A
:10585000210338BF13461A6822F004021A6000239D
:105860002B70BDE8F0810D4B24F004029A423946BA
:10587000304602D1FFF7CCFED5E7FFF7F3FED2E7C3
:105880000220EEE7240004302C20025028200240A1
:105890000600001044200250402002400200001088
:1058A000044A4FF47A70D36943F00203D361FFF7DF
:1058B0004DBF00BF00200250124B134A9968134B92
:1058C00013EA210338BF134600F00302032A06D16E
:1058D0001A6842F4004242F020021A607047C10781
:1058E00007D51A6822F0004222F0280242F028026E
:1058F0001A608207F2D51A6842F0004242F028028C
:10590000EBE700BF240004302C2002502820024086
:10591000064B074A9968074B13EA210338BF134621
:105920001A6842F008021A60704700BF2400043071
:1059300044200250402002402DE9F041DFF8A882C7
:10594000044698F80030012B00F0818101230020EB
:1059500088F800304FF08023C8E901034FF47A70D3
:10596000FFF7F4FE002840F039812768F90719D5C0
:10597000A5696369012D03F00101E26903F00203E7
:1059800040F0368131B1994DD5F8EC1021EA020191
:10599000C5F8EC1033B19549D1F8EC3123EA020394
:1059A000C1F8EC31BA0706D5904A6168536D23F40B
:1059B0007F430B4353657B0740F1AE80D4E902156A
:1059C00011F001030EBF1A46032205F003038E07F0
:1059D00042BF05F00406334342F004024E0742BFC3
:1059E00005F00806334342F008020E0742BF05F0F7
:1059F0001006334342F01002CE0642BF05F04006C7
:105A0000334342F040028E0642BF05F08006334326
:105A100042F080024E0642BF05F48036334342F422
:105A200080320E0642BF05F40036334342F40032A2
:105A3000CE0542BF05F48016334342F480128E0532
:105A400042BF05F40016334342F400124E0542BF34
:105A500005F07F56334342F07F520E0542BF05F0FA
:105A600000452B4342F0004211F4805518BF042634
:105A7000D4F810C00CBF2E460CF0040511F4005FE2
:105A80001EBF0CF0080E45EA0E0546F0080611F49C
:105A9000804F1EBF0CF0100E45EA0E0546F01006B2
:105AA00011F4004F1EBF0CF0200E45EA0E0546F023
