:020000040C00EE
:10E000004200DEC04200DEC0000000000000000050
:10E010000000000000000000000000000000000000
:020000040C01ED
:10000000D8600430710D010C6D52010CC54A010C11
:10001000D94A010CED4A010C014B010C154B010CA6
:10002000000000000000000000000000650C010C52
:10003000670C010C00000000690C010C6B0C010C3A
:100040006D0C010C6F0C010C710C010C730C010C8C
:10005000750C010CB1B0010C770C010C790C010C82
:100060007B0C010C7D0C010C7F0C010C810C010C34
:10007000830C010C850C010C870C010C890C010C04
:100080008B0C010C8D0C010C8F0C010C910C010CD4
:10009000930C010C950C010C970C010C990C010CA4
:1000A0009B0C010C9D0C010C9F0C010CA10C010C74
:1000B000A30C010CA50C010CA70C010CA90C010C44
:1000C000AB0C010CAD0C010CAF0C010CB10C010C14
:1000D000B30C010CB50C010CB70C010CB90C010CE4
:1000E000BB0C010CBD0C010CBF0C010CC10C010CB4
:1000F000C30C010CC50C010CC70C010CC90C010C84
:10010000CB0C010CCD0C010CCF0C010CD10C010C53
:10011000D30C010CD50C010CD70C010CD90C010C23
:10012000DB0C010CDD0C010CDF0C010CE10C010CF3
:10013000E30C010CE50C010CE70C010CE90C010CC3
:10014000EB0C010CED0C010CEF0C010CF10C010C93
:10015000F30C010CF50C010CF70C010CF90C010C63
:10016000FB0C010CFD0C010CFF0C010C010D010C32
:10017000030D010C050D010C070D010C090D010CFF
:100180000B0D010C0D0D010C0F0D010C110D010CCF
:10019000130D010C150D010C170D010C190D010C9F
:1001A0001B0D010C1D0D010C1F0D010C210D010C6F
:1001B000230D010C250D010C270D010C290D010C3F
:1001C0002B0D010C2D0D010C2F0D010C310D010C0F
:1001D000330D010C350D010C370D010C390D010CDF
:1001E0003B0D010C3D0D010C3F0D010C410D010CAF
:1001F000430D010C450D010C470D010C490D010C7F
:100200004B0D010C4D0D010C4F0D010C510D010C4E
:10021000530D010C550D010C570D010C590D010C1E
:100220005B0D010C5D0D010C5F0D010C610D010CEE
:10023000630D010C650D010C670D010C690D010CBE
:100240006B0D010C6D0D010C6F0D010C40B15218BE
:1002500005D2C068904234BF0020012070470020C2
:10026000704700000B4B30B51A6800230A4C9342CC
:1002700003DB06D14FF0FF3008E01D01655D8542CC
:1002800005D10020044A02EB03130B6030BD01339B
:10029000EDE700BF48A1010C4CA1010C7047000024
:1002A0002DE9F743984683680546B3F5001F0C46D1
:1002B000174604D33F4B1A780AB901221A704246F6
:1002C00021462846FFF7C2FF002870D06B68CDF8A2
:1002D00000805B689847384BC0F3410013F82090CA
:1002E000C9F1000303EA040634EA030329D0D5E97F
:1002F000013001225B6901A930449847002815DBD1
:10030000002204EB08039B1B4B4524BFA6EB04080B
:10031000C844A31BD6B2B04502F1010209D8009B24
:10032000A3EB08030093009B6BB9002003B0BDE86A
:10033000F08306F108016944194411F8041CB95509
:10034000E8E70026EFE7009B4B45B3FBF9F81CD22A
:1003500009FB08F8AB6808EB040018446B6801223D
:100360005B6901A9304498470028DFDB002247443D
:100370000099D3B2994202F10102D6D9F918083393
:100380006B4413F8043C8B55F2E7A8686B68204473
:1003900042465B69B919304498470028C6DB009B88
:1003A00009FB18330093009B002BD1D1BDE74FF020
:1003B000FF30BBE7DC0004303CA1010C2DE9F04F1D
:1003C0008DB002921A4605460F461E4621F00F0ACE
:1003D00001F00F08FFF73AFF28B94FF0FF33184636
:1003E0000DB0BDE8F08F6B680DF1200B5B6898478E
:1003F000584BC0F3410053F820305A460093514601
:1004000043462846FFF74CFF0028E6D106F10F03CC
:10041000434423F00F03AAEB0709A9EB06091A4688
:100420005146284601939944FFF710FF0028D4D085
:100430004B46284604AAB919FFF732FF03460028A5
:10044000CBD1B8F1000F63D14446B442C7D2A6EB7A
:10045000040A3AF00F0A10D0A86869689DF80020D5
:100460003844D1F818B0BAFBF2F202992044039351
:10047000D8470028B1DB039B5444B9F1000FAED03C
:1004800008A822460023014696420AD9DDF808C092
:1004900001331CF802C0102B00F801CB02F101025D
:1004A000F2D1964299D1002204A8102B01D04A45DE
:1004B00049D108F11008102BA0448ED14A458CD1A7
:1004C000019A424589D1A8689DF800206D6838449A
:1004D000B3FBF2F2AD692044A847C3177FE7029A45
:1004E000125D01340BF8012001310F2913D8B442F9
:1004F000F5D1002204A80DF1200C0F2920D84A457F
:100500000BD010F801EB013201F80CE00131F4E7F7
:1005100041460446E9E7B442EBD0102903937FF447
:100520005CAFD5E901309DF80020D3F818B0B1FBDD
:10053000F2F2504408A9D8470028039B85DA4CE71B
:100540004A45EAD049E710F8016B0132CE54013335
:10055000ABE700BF3CA1010C2DE9F04105460E467A
:100560009046FFF773FEA8B16B689B6A98470468D2
:10057000074664B10020BDE8F081D5E90130DB69B0
:10058000304498470028F6D1BB681C441E444445BB
:10059000F3D3EFE74FF0FF30EDE708B543689B6A10
:1005A0009847006908BD002108B5084600F0E4F846
:1005B000FEE70346002030B5013A00D230BD1D7879
:1005C0000C78A54202D008B9281BF5E701330131A8
:1005D000F2E7F0B505460C0444EA01640C4344EA32
:1005E000012462B913465619032A0ED823F00302D8
:1005F0002A4403F0030313449A420AD1F0BDAB0727
:10060000F0D005F8011B013AEBE7B71A3C60043A59
:10061000EAE702F8011BEFE7034670B56AB9002468
:100620001519032D13D822F0030421441C44002380
:1006300002F003029A4210D170BD41EA0304A407FC
:10064000EDD011F8014B013A03F8014BE6E70D1B21
:100650002E681D1B2E60043CE2E7CD5CE55401339F
:10066000E8E7000010B505F081FE28B1034B1C68D7
:1006700000F0B2FC204610BD014BF8E70C0004303E
:10068000100004307FB50E46054618B94FF0FF3014
:1006900004B070BD0029F9D0012001A9FFF7E2FDE7
:1006A000044610B9019B9E4209D0022001A9FFF720
:1006B000D9FD0028EAD1019B9E42E7D10124686957
:1006C000A96902AB03C3082202ABA101022000F01A
:1006D000B9FBDDE707B508216A46022006F0B2F84B
:1006E000082200216846FFF774FF03B05DF804FBA1
:1006F00013B5044668B10421072001AA06F0A2F848
:1007000028B9019B012B8CBF00230123237002B069
:1007100010BD4AF2C530FAE708B520210C20084A7E
:1007200006F034F918B14CF25A32904206D1BDE8C5
:10073000084020210D20034A06F028B908BD00BF5B
:10074000A0A1010CC0A1010C07B50421072001AA3A
:1007500006F078F848B9019B3BB906F08EF920B94C
:10076000FFF7DAFF08B906F08AF903B05DF804FB79
:10077000002070477047FEE773B54FF400515048B2
:1007800002F0D6FE05F0C4FD4E494F4806F086F94A
:100790004E494D4806F082F904F0FAF8044628B1B3
:1007A0004B4806F07BF9204605F08CFD06F014F866
:1007B000044608B14748F4E70DF10300FFF798FF3E
:1007C000044608B14448ECE79DF803302BB1FFF72D
:1007D000BBFF044608B14148E3E7FFF77BFF00F0A9
:1007E000F3FB0546FFF73EFF0446284600F010FCE9
:1007F0003B4D2B68A34201D03A48D2E705F060FD9B
:10080000044608B13848CCE702F026FC044620B183
:100810000146364806F042F9C5E70124204605F0B6
:1008200058FD002836D024B1314806F037F90024AD
:10083000F4E7002005F049FD044680B100212D4871
:10084000E8E72D4806F02AF9002005F044FD2B6862
:1008500018B12A4A10688342A6D1A34212D00C22B2
:1008600000212748FFF7B5FE00F0AEFB0021064649
:10087000234800F0F3FF0446304600F0C9FB2B6824
:10088000A342DED1002005F022FD044620B1002164
:100890001C48BFE7002CCAD1194D01A9287900F0E6
:1008A0003BF82B681A691C8992065BBFAB68019AFA
:1008B0005B689B181C4405F047FD20460AF0BCFB12
:1008C000EC0004302EAA010CE0A1010C1CAA010CC2
:1008D000E5A1010CFCA1010C1FA2010C44A2010C1A
:1008E000100004305AA2010C8AA2010CA6A2010C2D
:1008F000D2A2010C02A3010C26A3010C0C000430AF
:10090000E000043046A3010C0020704708B502F057
:100910009FFC002008BD0000642808B507D00146F0
:100920006422054806F0BAF84FF0FF3008BD4FF0DA
:10093000406300200B60F9E76BA3010C012909D08B
:1009400002290CD069B978B1012808BF022018BF6C
:10095000FF20704750B1012808BF0420F7E70520A9
:1009600070474FF0FF3070470120704703207047F9
:1009700008B543689B6A9847007D08BD436870B519
:100980009B6A16460D46044698478368B5FBF3F507
:1009900063689B6A984783686B43336063689B6AAC
:1009A000984783680020736070BD00002DE9F34113
:1009B000D1F8008006460D46C0B201A91746FFF7E0
:1009C00051FC044688BB2B68CBB103464FF4005062
:1009D000019AD1682B6009B1984506D8984510D284
:1009E0003146134806F05AF809E0B1F5005F0FD21E
:1009F0004FF400533146D2680E4806F04FF84FF0DE
:100A0000FF340198FFF74AFC204602B0BDE8F081B0
:100A10004FEA433C47F833C02B68A1F5005107EB80
:100A2000C30358602B680133D4E74FF0FF34EBE782
:100A3000C4A3010C8EA3010C05F09ABC054B002049
:100A40001A684FF0E023013A5A61052298611A6151
:100A5000704700BF200004304FF0E02130B50E4851
:100A60000E4C8A690568236893422B444FF47A75CB
:100A70003CBF49695B180A499B1A09680360B1FBCE
:100A8000F5F19942074B04D2002519680560013140
:100A900019601868226030BDF4200430F82004305A
:100AA00020000430F020043038B570B30368190713
:100AB00001D4002038BD8369154C9BB1D4F8F030C7
:100AC00043F08063C4F8F030FFF7C6FF0546D4F862
:100AD000F0301A01EDD4FFF7BFFF401B0228F6D912
:100AE0000320E7E7D4F8F03023F08063C4F8F03057
:100AF000FFF7B2FF0546D4F8F0301B01D9D5FFF758
:100B0000ABFF401B0228F6D9EAE70120D2E700BF7D
:100B1000000C0254F8B50368054698014FD5314CD6
:100B2000636A43F001036362FFF796FF0646636A58
:100B3000D90746D52C4CD4F8F03013F4407320D0AC
:100B4000D5F8FC2093421CD0D4F8F020D4F8F03033
:100B500022F4407143F48033C4F8F030D4F8F0301C
:100B6000D20723F48033C4F8F030C4F8F01008D56D
:100B7000FFF772FF41F288370646D4F8F0309B0742
:100B800026D5D5F8FC30184903F44072B2F5407F01
:100B900024D1C869154A20F47C5002EA131202439A
:100BA000CA61114AC3F30B03D2F8F01021F440716B
:100BB000C2F8F010D2F8F0100B43C2F8F030002069
:100BC00005E0FFF749FF801B0228B0D90320F8BDDC
:100BD000FFF742FF801BB842CFD9F7E7CA6922F47A
:100BE0007C52DDE700080254000C0254CFFFFF00E6
:100BF00013B5194C04F0D2FFD4F8F030174843F085
:100C00001803C4F8F030FFF74FFF08B10AF050FAAC
:100C10001348FFF77FFF08B10AF04AFA0421D4F81D
:100C2000F030084643F40043C4F8F030D4F8A8305C
:100C3000002243F40013C4F8A830D4F8A83003F419
:100C400000130193019B05F0C5F8042002B0BDE834
:100C5000104005F0EFB800BF000C025450AB010C7F
:100C600040AA010CFEE7FEE7FEE7FEE7FEE7FEE72F
:100C7000FEE7FEE7FEE7FEE7FEE7FEE7FEE7FEE74C
:100C8000FEE7FEE7FEE7FEE7FEE7FEE7FEE7FEE73C
:100C9000FEE7FEE7FEE7FEE7FEE7FEE7FEE7FEE72C
:100CA000FEE7FEE7FEE7FEE7FEE7FEE7FEE7FEE71C
:100CB000FEE7FEE7FEE7FEE7FEE7FEE7FEE7FEE70C
:100CC000FEE7FEE7FEE7FEE7FEE7FEE7FEE7FEE7FC
:100CD000FEE7FEE7FEE7FEE7FEE7FEE7FEE7FEE7EC
:100CE000FEE7FEE7FEE7FEE7FEE7FEE7FEE7FEE7DC
:100CF000FEE7FEE7FEE7FEE7FEE7FEE7FEE7FEE7CC
:100D0000FEE7FEE7FEE7FEE7FEE7FEE7FEE7FEE7BB
:100D1000FEE7FEE7FEE7FEE7FEE7FEE7FEE7FEE7AB
:100D2000FEE7FEE7FEE7FEE7FEE7FEE7FEE7FEE79B
:100D3000FEE7FEE7FEE7FEE7FEE7FEE7FEE7FEE78B
:100D4000FEE7FEE7FEE7FEE7FEE7FEE7FEE7FEE77B
:100D5000FEE7FEE7FEE7FEE7FEE7FEE7FEE7FEE76B
:100D6000FEE7FEE7FEE7FEE7FEE7FEE7FEE7FEE75B
:100D700007B52C4B83F30A8803F06CFD04F00EFFDB
:100D8000294B2A49D3F8F02042F40042C3F8F0205E
:100D9000D3F8A82042F40012C3F8A820D3F8A82062
:100DA00002F400120192019A0A6B8AB1D3F8F02082
:100DB00042F48032C3F8F020D3F8F02022F48032DD
:100DC000C3F8F0200B6B002BFCD10122184B1A60EA
:100DD000154A1849136843F480531360164B8B422D
:100DE00012D30020154B16498B4218D3FFF7DBFBBB
:100DF000186850F82240586840F82240013298683C
:100E00008242F5D30C33EAE70022F8E71C6844F885
:100E1000220001325C68A242F8D30833E4E70022E2
:100E2000F8E700BFD4400430000C0254007C0054AA
:100E3000FC2004302CA1010C14A1010C2CA1010CEC
:100E40003CA1010C2DE9F74F9146002282460C4649
:100E5000984601921BB9032003B0BDE8F08F05F05E
:100E600011FE2F4F054697F800B0BBF1000F10D1CF
:100E700005F008FE064605F009FE594602463046D2
:100E8000FFF7A7FB42F216032B8004236B8001239C
:100E90003B7005F0F7FD6F88074405F0F3FD061D74
:100EA000BE4225D3C4F30B031FFA89F46E88ADF854
:100EB00006400434A4B2264443EA0A30B6F5803F23
:100EC000ADF80400C7DA05F0E1FDB6B2864225D8D8
:100ED000042238460DEB0201FFF79EFB4A464146CD
:100EE000381DFFF799FB6B8800201C446C80B3E72A
:100EF000042231460DEB0200FFF78EFBBDF80430F3
:100F0000BAEB133F03D1C3F30B039C4204D0BDF8EB
:100F1000063004331E44C3E702209DE701209BE70F
:100F2000002104300023F0B5B5B0009305464FF61C
:100F3000FF7305A8174601F05FF9044618B14FF09A
:100F4000FF3035B0F0BD06460DF10E0303AA04A92B
:100F500005A801F09DF90028F1D1BDF80E30602BF5
:100F60000ED1BDF80C30842BE9D83846049913AA69
:100F7000FFF796F90028E2D10124BDF80C60E3E701
:100F8000102BE1D1BDF80C30202BD8D8384604996D
:100F90000BAAFFF785F90028D1D1002CCFD01F2E46
:100FA000CDD9A6F1200013AC04900BA92022204437
:100FB000FFF732FBA9012346324641F03F010120F1
:100FC000FFF740FFBDE70000024B1868421C1A60A3
:100FD000704700BF04210430024A1368013B1360CC
:100FE000704700BF04210430FFF7FEBFFFF7FCBFCE
:100FF000FFF7FABFFFF7F8BFFFF7F6BFFFF7F4BF41
:10100000FFF7F2BFFFF7F0BFFFF7EEBFFEE700000C
:1010100008B5034B1B68834201D0FFF7E5FF08BD0D
:10102000042104302DE9F843582390F8C8500646AF
:101030005D432C2303FB015505440C469046D5F82F
:10104000209001F04AFB10B92B69DB060BD51CB1CF
:101050004946304600F02CFC164B1D68FFF7BCFFDC
:101060002846BDE8F8832146304601F043FBA0B98D
:10107000114B1D68114B1B68AB42EFD01049114B4F
:101080001148002C18BF194605F008FD002CE3D0CC
:101090000121484601F01CFBDEE7FFF795FF2246E1
:1010A00007464146304601F06DFB05463846FFF7DE
:1010B000AFFFDFE7080004300C00043010000430FC
:1010C000EAA3010CF2A3010CFCA3010C0048704739
:1010D000082504304379012B07D10368012B04D183
:1010E0000079431E58425841704700207047000065
:1010F00073B50D460021044690F8C8202846CDE976
:101100000011FFF7E7FF20B358235A43184EA358A6
:10111000B34203D1204601AA01F099F9582294F86C
:10112000C83002FB0343DB6AB34204D16A460121A3
:10113000204601F08CF9DDE900239A4284BF134672
:101140000192AB6029462046019A00F0FFFD02B0F3
:1011500070BD1146204601F02BF9064605F1080145
:1011600001F056F9AB6830460193FFF797F8E9E7CD
:101170003DB8F396F0B58B7904460F4685B043B37E
:10118000D0F8B050284601F003F994F8C83006466C
:10119000303354F82310384600F038FD3418284610
:1011A000FFF7FBF906462846FFF7E2FB102201464F
:1011B0006846FFF70EFA3B796A468DF80030214603
:1011C00033462846FFF7FAF8003818BF012005B06B
:1011D000F0BD582290F8C83002FB03031D6AD1E726
:1011E0002DE9F8430E46904699460024099FBC42DB
:1011F00001D300200EE03D1BB5F5806F28BF4FF4F2
:10120000806530462B460A4A04EB0901FFF748F88F
:1012100010B10120BDE8F88308992B464046044AE6
:101220006118FFF7CBF80028F3D12C44DFE700BFAB
:10123000082104302DE9F04F95B004460D4601F029
:1012400035FB002800F06C81B74805F027FCFFF75C
:10125000CBFE231893F8C91000293ED1204601F097
:1012600079F948BB00222046114601F069FAE8B935
:10127000204600F0E1FE002808DD012194F8C82096
:10128000AA4B03F8321003EBC2035860204600F06B
:10129000C8FC58B10023A64A20460AA9CDE90B2371
:1012A0000A960D9300F042FB804690B394F8C83044
:1012B000234483F8BC6006E094F8C8300128234436
:1012C00083F8BC60CED194F8C800231893F8BC30E2
:1012D000023B022B98BF47F001070130C0B2012842
:1012E00084F8C800B5D9002F00F07A8100232C279C
:1012F0004FF0580884F8C830E21892F8C910002955
:1013000000F020810133DBB2012B84F8C830F3D91F
:1013100066E10AA8FFF7DEFE80F001010AAA204676
:10132000C9B201F00DFA28B14146204601F0D5F9C5
:101330000028BBD00AA8FFF7CDFE002851D194F8B1
:10134000C83053BB20460AA9FFF7D2FE94F8C80064
:101350009DF82F30221882F8BC30033B012B08D8AF
:1013600000F05AFB28B1FF2294F8C830234483F8D8
:10137000BC209DF82F30023B022B1FD894F8C800E8
:1013800000F032FBD0B1FF2294F8C830234483F838
:10139000BC20684805F082FBFEE794F8BC20042AD4
:1013A00004BF012284F8BC20012BCBD094F8BD30BF
:1013B000042BC7D1012384F8BD30C3E794F8C830AB
:1013C000234493F8BC30FF2BE3D000222046114683
:1013D00001F0B6F9012294F8C830234483F8BC2008
:1013E00071E79DF82F80B8F1010F61D194F8C80022
:1013F00001F0D4FB831E022B814617D8FFF7E4FDD2
:10140000414682460AAA2046FFF70CFE8046504617
:10141000FFF7FEFD484B1B68984507D0474B1868FF
:10142000804514BF4FF005094FF0010994F8C8300A
:101430005FFA89F0E21882F8BC00002B66D12344E1
:1014400093F8BC30012B7FF43EAFFFF7BDFD0021C8
:1014500081460AAA2046FFF7E5FD80464846FFF789
:10146000D7FD0021204601F038F9002853D058223A
:1014700094F8C83002FB0343D3F82CA0FFF7A4FD77
:10148000012181460AAA2046FFF7CCFD8046484646
:10149000FFF7BEFD2A4B9A457FF415AF264B1B681C
:1014A00098457FF410AF94F8C8300422234495E7A0
:1014B000FFF78AFD012181460AAA2046FFF7B2FD07
:1014C00080464846FFF7A4FD1B4A94F8C8301268CE
:1014D000904504EB030216D0052182F8BC10002BC6
:1014E0003FF4F1AE94F8BC20042A04BF012284F832
:1014F000BC20012BA3D094F8BD20042A9FD1012247
:1015000084F8BD209BE79DF82F0094E701289CD02C
:101510000428E7D1D7E6084B1B689845A7D1D2E647
:1015200007460126DBE600BF21A4010C0825043094
:10153000010100014FA4010C100004300800043028
:101540003DB8F39692F8BC200EA802F0FB02012AE7
:1015500014BF0121002108FB03F207FB012214BF85
:101560002C2100215B4203F058031944012322443B
:10157000166A214400933246402300F03DFE58BBDA
:1015800000230DF1160206A90EA800F081FE002826
:1015900022DB40F05781BDF816300C2B1CD13046B1
:1015A000069907AAFEF77CFEB0B99DF81C30012B06
:1015B00012D8E21892F8BC205B42023A022A94BF89
:1015C0002C20002003F058031433184408A92044A9
:1015D00001F000F90028D3DA40F20113A4F8BC307E
:1015E00000205826994F012884F8C80024D90023E8
:1015F000974E964FDFF85C820E93012B84F8C8302B
:1016000040F2C9800E9A022A7FF421AE002384F8AA
:10161000C83094F8C930002B00F00681012394F8FB
:10162000CA1084F8C830002900F0FE8084F8C82071
:10163000864BD3F80090CBE0221892F8C980B8F11D
:10164000000F40F0A58001230A9340F20113ADF88A
:101650002C3092F8BC30CDE90C88042B8DF82E800C
:101660008DF82F3007D8012B0AD800F08880FF238F
:1016700082F8BC3083E0052BF9D100F0CDF95AE0B7
:10168000FFF7A2FC414682460AAA2046FFF7CAFCA1
:1016900081465046FFF7BCFC4146204601F01DF84C
:1016A00010B93B68994562D00021894694F8C8304A
:1016B00006FB0343D3F820A0D3F84C80D3F828B01E
:1016C000CB4540D10023019152464146204600932C
:1016D000FFF786FD8146F8B94FF0580A94F8C830F4
:1016E00001460AFB03431A6D03465268404600F068
:1016F000E7FF94F8C8200AFB0242D2E91432013A0B
:1017000053F83200196803EBC20C411A4B464046AD
:10171000DCF8042000F0D4FF94F8C800231893F8F4
:10172000BC30DA1E012A27D800F076F920B994F8E7
:10173000C80000F059F910B3FF2294F8C8302344D0
:1017400083F8BC201BE094F8C830504606FB0343E6
:101750005B6A03EBC9035A680023CDE9021209F161
:10176000010900F06EFFDDE902121144A8E72046EE
:101770000AA9FFF7BDFCCFE7023B012BD7D994F8AC
:10178000C800231893F8BC30FF2B01D132485CE528
:101790000130C0B227E7234493F8C9208DF81C20FC
:1017A0009DF81C1001F0FF0239B10E9B01330E931E
:1017B00094F8C8300133DBB21FE793F8BC30012B3B
:1017C00014D01146204600F0BBFF78B1D6F8009047
:1017D000102200210AA8FEF7FCFE204601F040F886
:1017E000FFF7FAFB484615B0BDE8F08FFFF7ECFBBA
:1017F0000022814611462046FFF714FC82464846E7
:10180000FFF706FC3B68D6F800909A45E0D1CA4540
:10181000DED0D8F800309A45DAD00021204600F01A
:10182000EFFF0028C1D0D1E7582202FB0342126A21
:101830005B42517803F05803297192682344AA60EF
:101840002B60F5E694F8C8305CE500BF100004306A
:101850000C000430080004304FA4010C0129F8B535
:1018600006460C4605D9FFF7B7FB0E4B1C68204611
:10187000F8BD022201210C48FEF7ABFE00230B4FFE
:101880003C4484F8C930FFF79FFB31460546384693
:10189000FFF7D0FC04462846FFF7BAFBFFF79CFB96
:1018A000E5E700BF0C000430E125043018250430C2
:1018B00013B50C4690F8C83001AA303350F8231005
:1018C000204600F0A2FE002809DB0199E26801230E
:1018D0002046521A00F0F4FEC00F02B010BD0120E5
:1018E000FBE7582373B5154690F8C8600C4603FB18
:1018F00006006946C06C01F0D5F8E979012903D0EA
:101900003246204601F038F99DF80330012B02D110
:10191000204601F0B9F8A968204600F087FD20466E
:1019200001F05CF8002002B070BD000073B52C4BD4
:1019300006460C4600F0CCF90128E06006D00228EB
:1019400045D0002841D0072002B070BDD6F8B05075
:1019500022463146284600F0FFF80028F4D12846F8
:1019600000F0F8FF012301460DF103022846FEF7BF
:1019700097FC98BB012228460DF1030100F0FEFF01
:1019800010B101238DF803309DF80330204603F099
:101990000F03E371FFF79EFBB8B9019001A9284638
:1019A000EE6800F035FD019920B94B1E033301D8D4
:1019B0008E420AD20B4805F071F80123236003F12F
:1019C000012363600023C4E902330020BCE75822EE
:1019D00096F8C83002FB03631D6AB9E70120B3E73C
:1019E000A0AB010C58A4010C13B588B1012814BF99
:1019F000FF20022001A9FEF735FC58B9019801F03B
:101A000027F904460198FEF749FC204602B010BDB4
:101A10000120EFE70124F8E71FB5D8B1012814BF72
:101A2000FF20022001A9FEF71DFCB8B9019802A908
:101A300001F038F8044678B99DF80B30032B03D138
:101A4000019801F021F804460198FEF727FC204692
:101A500004B010BD0120E5E70124F5E70124F6E715
:101A60005822F8B590F8C83002FB0306481E033030
:101A7000B26A736D01D802B12BB91C4805F00EF89B
:101A80004FF0FF30F8BD00242546274620468D4202
:101A900001D3A5420DD2904203D3154804F0FEFFB6
:101AA000EEE7D6F824C00CEBC00CDCF804C0013023
:101AB00065448C4201D3A54215D99F4202D31A46F0
:101AC0000C48EBE7D6F850C08D420CEBC70CDCF8A5
:101AD00004C007F101076444DDD3A142D7D8A54271
:101AE000D5D10138CEE78D42F9D2D4E78AA4010CD2
:101AF000C2A4010CF8A4010C10B5582490F8C83009
:101B000063432C2404FB0133C118886A4B6A0138F3
:101B100003EBC00149680433914200D310BD013882
:101B200053F830402144F7E738B504460D46FFF737
:101B3000E3FF582294F8C83053432C2202FB0531AE
:101B40000C44626A02EBC00352F830105B68106804
:101B50000B44181A38BD00002DE9F74F8846074698
:101B6000164600F015FC3946834698F8C80000F088
:101B7000EFFBB0F1000A42DB00242546A1465445A4
:101B800013D1B9F1000F0CD0002D18BF2C46032340
:101B9000B4FBF3F35A1C03EB4303E31A0133326043
:101BA0003371002003B0BDE8F08F98F8C830384694
:101BB000303358F823100DF10702012301FB04B163
:101BC000FEF76EFB00281CDB012238460DF10701F1
:101BD00000F0D4FE38B1B9F1000F02D0002D08BFDB
:101BE00025460134CBE7B9F1000F05D0002DF8D020
:101BF000054804F053FFC7E74FF00109F1E707205C
:101C0000D0E70120CEE700BF2EA5010C10B5036878
:101C100001EB41045A1E0379013B594304FB0210B6
:101C200010BD58232DE9F04390F8C85003FB05057B
:101C3000D5F82880B8F1960F48D8D5F854E0BEF111
:101C4000960F43D8D0F8B030D3F80C900023194643
:101C50001C469C4618461E461A4644450BD3714501
:101C600009D3444532D1714530D1A0EB0C03584221
:101C70005841BDE8F083B24213D16F6A07EBC40745
:101C80007F6801343A442F6D07EBC1077F6801314B
:101C90003E44B242E1D14A451044944416D8002350
:101CA000D9E709D26F6A022B07EBC4077F683A4471
:101CB0000CD001230134ECE72F6D012B07EBC1079A
:101CC0007F683E4402D002230131E2E70020D0E7E2
:101CD0005822F0B5054690F8C83085B002FB0303E2
:101CE00002A9186A184C00F0DDFE6946D5F8B0006C
:101CF00000F0D8FE002627469DF80810207800F056
:101D00002FFED0B19DF80010607800F029FEA0B140
:101D1000A378042B03D09DF80A209A420DD107EB3B
:101D20008607F878012806D19DF8043095F8C82078
:101D30009B1A5842584105B0F0BD0136042E04F1FB
:101D40000404D9D10020F6E7A9AB010C2DE9F04F2E
:101D50000D468DB0114604461646FFF781FEB0F1E0
:101D6000FF3F824606D13146B1480DB0BDE8F04F85
:101D700004F094BE00230693582294F8C830D4F897
:101D8000B080029302FB03435A6A0023D8F80C1078
:101D9000101D1F4650F83A303B44994203D3BAF124
:101DA000010AF6D21F462B680699013B8B4200F2CE
:101DB0001F815826029B06FB0343D3F82090DB6C5F
:101DC00003930AF1010352F8333004931368059327
:101DD000DDE90432A3EB020B029B303354F82300FD
:101DE00000F00AFC0021024607902046FFF784FE1F
:101DF00094F8C83007EB0B0106FB03435A6A0890BE
:101E000052F8303012689B1A994240F2E880059BE4
:101E1000D9F80C6040461E44049BF61A079BF61A3C
:101E200000F0B6FA864228BF06462B68012B40F028
:101E3000D880BB1B18BF0123AB712B79012B40F05D
:101E4000D280002340461946D8F80C2000F0F9FB58
:101E50002B68012B17D12A4641462046FFF741FD4A
:101E6000AB7983B9494620460993FFF721FD2A46FD
:101E700049462046FFF735FD099B40461946D8F8EC
:101E80000C2000F0DEFB002342460399009320461D
:101E90005B460196FFF7A4F929462046FFF76AF949
:101EA00002232B7118B1634A1368013313602B6846
:101EB000012B09D1204603990993FFF7F9FCAA7970
:101EC000099B002A40F09F803A4622B100235946E0
:101ED000039800F0B6FB5B464946039A2046CDE9DD
:101EE00000B6FFF77DF929462046FFF743F90323A3
:101EF0002B7118B14F4A136801331360AB7993B15A
:101F000049462046FFF7D4FC582294F8C83002FB1B
:101F100003435B6A059A1F68D71B049ABF1A089A85
:101F200053F832301F442FB100233A4659464846F1
:101F300000F087FB00234A4641462046CDE900B623
:101F4000FFF74EF9AB7983B3404600F021FA94F8DD
:101F5000C8205E44303254F82220034652000192D9
:101F600041464A4620460096FFF73AF918B1314AF1
:101F700013680133136040460AA900F093FD9DF8F1
:101F80002B30012B02D1484600F07EFD9DF8291030
:101F9000012903D04846029A00F0EEFD4846A968A0
:101FA00000F044FA484600F019FD0023AE792946B6
:101FB000AB712046FFF7DEF82B6801332B6001235D
:101FC0002B7118B11B4A13680133136086B10123CA
:101FD00000214046D8F80C2000F072FB08E03E4695
:101FE00023E7002328E7022B3FF461AF032B85D0C2
:101FF000069BBAF1FF3F03F1010306937FF4BCAEE9
:102000000DB0BDE8F08F1946079A2046FFF774FD22
:10201000582294F8C830059902FB03431B6D1A68D7
:1020200053F830308A1A0499521A1A444DE700BF07
:102030004EA5010CE4250430D0F8B0302DE9F0476E
:102040005821D3F80C90002390F8C8E0044601FB17
:102050000E019C4618461E46D1F82880D1F854A09F
:102060001D461A46C44527D3504525D30EF1300EE0
:1020700054F82E0000F0C0FA002105460246371A37
:102080002046FFF751FD2A46804601212046FFF7F2
:102090004BFD94F8C830AD1B303380452CBF454410
:1020A0002D1854F8230000F0ACFA85422CBF002014
:1020B000401B381ABDE8F087AA4213D14F6A07EBDC
:1020C000CC077F680CF1010C3A440F6D07EBC00799
:1020D0007F6801303D44AA42C4D14A45164417D80E
:1020E0000023BDE70AD24F6A022B07EBCC077F68BB
:1020F0003A440DD001230CF1010CECE70F6D012BDC
:1021000007EBC0077F683D4402D002230130E2E7BD
:102110000020CFE72DE9F74304460D4690461F46C1
:10212000ABB31846FEF7D6FF88BB94F8C81020461C
:1021300000F03EF901A9814600F06AF906464846DA
:10214000FEF7ACF8002E52D101992046FFF788FC2B
:10215000411C18D058223146D4F8B030D3F80CC006
:1021600094F8C83002FB03435B6A0433002653F83B
:1021700030201644B44501D30138F8D2421C01F195
:102180000101F3D131B901991A4804F087FC022DFD
:1021900007D117E03B685A1E8A420CD3B5FA85F581
:1021A0006D09582294F8C83053432C2202FB0533A2
:1021B0001C44206A08E08B42E9D1012D0FD13B7904
:1021C000012BEED9D4F8B000202342460021FEF7BF
:1021D00067F8003818BF012003B0BDE8F083002D78
:1021E000D5D13D79022D94BF00250125D9E70120E5
:1021F000F2E700BF58A4010C2DE9F7430E4617463D
:102200009946044628B94FF0FF38404603B0BDE870
:10221000F0830029F7D0002AF5D0CB680D89384625
:102220001D44042329460DEB0302FEF739F88046CE
:102230000028E8D146F60812BDF8041073899142CF
:1022400023D1BDF806109942DDD1042338460DEBA9
:1022500003022944FEF724F80028D4D146F60713D8
:10226000BDF804209A42CED19DF82830C4E9006719
:10227000A4F80890A3727389BDF806202B44E3608C
:102280000435134463612561BFE7002BE6D0BAE74C
:102290002DE9F7430F4690461E46044620B94FF0FD
:1022A000FF3003B0BDE8F0830368002BF7D043682C
:1022B000002BF4D04FF6FF79D4E90413994215D2DC
:1022C00023685B8923B1E3688B4204BF0431216139
:1022D000042360680DEB0302FDF7E2FF0028DED166
:1022E000A37A256923B1E368AB4201D80120D8E77E
:1022F0002189BDF80620494502F1040303D0BDF849
:1023000004C08C450BD116B1BDF8041031800435E2
:102310003D60A8F8002022691A442261C1E72B44DD
:102320002361C9E738B50023934201D1064B04E08D
:10233000C55CCC5CA54205D0044B1C68FEF74CFE86
:10234000204638BD0133EFE7100004300C000430A4
:102350000B78052B06D088B1012808D1022B03D0B9
:1023600004220EE0032070474FF4E1707047FF2B0A
:102370000CBF4FF4E1704FF0FF307047012BF3D0EA
:10238000032293420CBF4FF4E1704FF0FF307047CF
:1023900010B50446FEF701F92378052B04D100F0AF
:1023A00030F9E368181A10BD00F026F9F9E70000CB
:1023B00070B5D0F8B03086B0009358236E46002533
:1023C00003FB0100036A019356F8044B02AAE1687B
:1023D000102320461039FDF763FF024638B12178FB
:1023E000094804F05BFB0024204606B070BD1022B3
:1023F000064902A8FEF7DDF80028F5D06B1C022B79
:102400004FF00105F0D0DFE770A5010CCCAB010C5B
:1024100070B50D46044600F09DFA2A46A0F1100161
:1024200004232046BDE87040FDF73ABF13B50446CB
:10243000019100F08FFA0423A0F110010DEB0302CB
:10244000204600F0EBFA02B010BDFFF7F5BD2DE914
:10245000F34717462C224FF0580802FB01F690F87C
:10246000C830044608FB03630344D3F82090B3F854
:1024700008A0DB6848469A44042351460DEB03024A
:10248000FDF70EFF054620B10125284602B0BDE844
:10249000F08794F8C830BDF8042008FB036646F6C0
:1024A000081334449A4264891BD1BDF806309C421B
:1024B00001D00325E9E7042348460DEB030204EBB2
:1024C0000A01FDF7EDFE0028DED146F60713BDF840
:1024D00004209A42EDD1BDF80610214451443960E0
:1024E000D3E7002CF1D0E4E737B5962305460193F6
:1024F00095F8C8300846EBB1012B0BD102290BD05F
:1025000004221AE0052803D1D5F8B420B83509E033
:1025100001200DE0FF29F5D158225343EA18526AF1
:1025200028331D4401A9FEF741FA08B9019B2B602D
:1025300003B030BD0129EFD003228242E2D15822FC
:1025400002FB03525C4204F058045434126D2544DB
:10255000E8E70000F8B5274B0446002914BF0A46F7
:102560001A464FF49663582190F8C8506B4301FB0C
:102570000501D01803F51663134402F5965248621C
:102580000B65C4F8B42055B1012D14BFFF21022101
:102590002046FFF7A9FF20B101252846F8BD0121FB
:1025A000F6E71DB3012D14BFFF2104212046FFF7DC
:1025B0009BFFE8B905212046FFF796FF0546002856
:1025C000EAD1582394F8C86003FB0643186AFDF764
:1025D000E4FF0746D4F8B000FDF7DFFF303687424E
:1025E0002CBF44F8267044F82600D6E70321DDE727
:1025F0000925D2E7E82504304FF4E1735843503001
:10260000704700EB40005030704773B50C460546EC
:102610001646FDF7C2FFA04203D92846FDF7BDFFCD
:1026200004464FF4E173E9686A46503903FB14111C
:102630002846FEF7A3F90028A4BF009B336002B030
:1026400070BD2DE9F3411E46C368054699420C460C
:10265000174630D25B1A93422DD3EEB16A46FEF78D
:102660008DF9002829DB013FDDF800803C446A46F3
:1026700021462846FEF782F900281EDBDDE90047E7
:1026800028463A462146FDF767FF002815DB6EB164
:10269000444512D9013CEAE7511E21446A46FEF73F
:1026A0006DF9002809DBDDF80080E0E73C44444593
:1026B00003D80134DBE74FF0FF3002B0BDE8F08112
:1026C00010B412B110BCFFF7BCBF104610BC70476D
:1026D0000023C2681946FFF7F3BF582290F8C830AC
:1026E00053432C2202FB0133C1180422086A00F074
:1026F00045B90000582290F8C83053432C2202FB01
:1027000001310E4B42184158994206D1D1681389C4
:102710005B1802D25189C91801D300207047136A8F
:10272000DB689942F9D2106920F4F97020F00100B9
:102730000005000DB0FA80F0400970473DB8F396EF
:102740002DE9F04116464FF0580890F8C8200F4682
:102750003346002108FB02020446FFF7DBFC054676
:1027600068B994F8C820334608FB0242012120468C
:102770002C32FFF7CFFC10B1002F18BF05462846BA
:10278000BDE8F0815823F0B590F8C84085B05C43AF
:102790002C2303FB024404440546276AFEF714FC7D
:1027A0000023CDE9023301934FF48073214606469E
:1027B0003A4600932846064B00F052FA044630464B
:1027C000FEF726FCFEF708FC204605B0F0BD00BF72
:1027D000583D043002780B789A420FD80BD34278D8
:1027E0004B789A420AD806D342884B889A4205D839
:1027F00060EB000070474FF0FF30704701207047DA
:102800002DE9F0412C264FF0580804464E4390F82D
:10281000C8000F4608FB006121440A6AFEF782FBEC
:10282000054628B10C4804F039F92846BDE8F08186
:1028300094F8C83008FB03663444256AFEF746FC6A
:10284000294603463A462046FDF71CFF0546002868
:10285000EBD00248E7E700BF99A5010CC3A5010C26
:1028600038B50446D0F8B00008B1FDF717FD0023D5
:102870005825012B84F8C83000D938BDE21892F8E9
:10288000C9206AB905FB0343D86C08B1FDF706FD02
:1028900094F8C83005FB0343186A08B1FDF7FEFC45
:1028A00094F8C8300133DBB2E3E700002DE9F743C9
:1028B000054600264FF05809012E85F8C8600BD94F
:1028C000052005F1B001FDF7CDFC044690B30146AB
:1028D0001E4804F0E3F82AE0AB1993F8C980B8F178
:1028E000000F2DD141463046FEF728F895F8C81064
:1028F000074609FB0151C0B22031FDF7B3FC044685
:10290000E0B901213046FEF719F895F8C8100746DE
:1029100009FB0151C0B24C31FDF7A4FC044678B16B
:102920000123324639460A48009404F0B7F8284695
:10293000FFF796FF204603B0BDE8F0834346F0E77B
:1029400095F8C8600136F6B2B6E700BF29A6010CBB
:10295000EFA5010CC068203820F00F002038704728
:10296000042809D0052803D1481E18BF012070474C
:10297000431A5842584170470120704738B51546F0
:102980000C4661B15AB1FDF7F3FF2146254411F819
:10299000013B834203D1A942F9D1012038BD002077
:1029A000FCE738B50C460123114622460546FDF7E3
:1029B00077FC00280FDB012221462846FFF7DEFFC7
:1029C00018B103230020237038BD2378012B14BFD6
:1029D00002230123F6E70120F6E7000030B5C168C5
:1029E00085B0103921F00F040546FDF7C1FF102214
:1029F00001466846FDF7EDFD102268460649FDF7E1
:102A00000BFE10236A4621462846FDF7D7FC003806
:102A100018BF012005B030BDCCAB010C2DE9FF473C
:102A20001D4606460F469046FDF7B7FD6C1E044452
:102A300040420440102C1AD83046FDF799FF8246D8
:102A40002A4641466846FDF7E7FD5146621B0DEBFD
:102A50000500FDF7BEFD23466A4639463046FDF7C0
:102A6000ADFC003818BF012004B0BDE8F0874FF07E
:102A7000FF30F9E707B501238DF8042001AAFFF71D
:102A8000CDFF03B05DF804FBC1680122203921F0BD
:102A90000F01FFF7EFBFC268203A22F00F02FFF7E5
:102AA00080BF000030B50D46C16887B0102302AA70
:102AB00010390446FDF7F4FB002802DA012007B0C4
:102AC00030BD1022204602A9FFF758FF00283AD156
:102AD00010221E4902A8FDF76CFD00280CBF01233F
:102AE00002232B702046FFF735FF012301460DF12D
:102AF00007022046FDF7D4FB0028DFDB9DF80730F6
:102B0000204603F00F021B096A702B7101220DF1A0
:102B10000701FFF733FF10B96B78042B03D90123AA
:102B20006B7000232B71E2682046203A22F00F02DE
:102B3000103AA91CFFF735FF0028BFD12046E91C39
:102B4000FFF7A9FFBBE70323CBE700BFCCAB010C2A
:102B500013B50C46C0B201A9FDF784FB50B921465C
:102B60000198FFF79FFF04460198FDF797FB204669
:102B700002B010BD0124FAE713B541EA0211044680
:102B80008DF80710FFF7E6FE012301460DF107025D
:102B90002046FFF743FF02B010BD00007FB504469A
:102BA000002842D0012814BFFF2002206946FFF709
:102BB000CFFF002837D1002C39D0012C14BFFF20C3
:102BC000042002A9FFF7C4FF012808BF03234FF028
:102BD000000408BF8DF808309DF800509DF808608B
:102BE0001A4A08BF8DF80B3029461078FFF7B8FE57
:102BF00018B331465078FFF7B3FEF0B19378042B49
:102C000003D09DF80310994217D1D378042B03D039
:102C10009DF80B10994210D11379042B09D15079EA
:102C2000831E022B0FD9FF200DE00120BEE70320F9
:102C3000C7E79DF802109942F1D00134032C02F14C
:102C40000602D1D1012004B070BD00BFB9AB010CA8
:102C5000C1680122203921F00F011039FFF70ABFA6
:102C60002DE9F04FDDB0884615460446699F0028DF
:102C70003BD090F8C8200592689ADFF858A10DF172
:102C80003809DAF800600392679A41460292669A20
:102C900020460092CDF804902A4600F0F7F808BBD1
:102CA00027B1202249463846FDF7B6FC002308AF7D
:102CB000414600932A464FF6FF733846FFF79CFAC9
:102CC000804678B9294620460D9FFFF7BEFBB842E3
:102CD00073D229462046FFF7B8FB394602463E48E4
:102CE00003F0DCFEDAF800606DE00590C4E7B7F8A9
:102CF0000080B8F1200FF5D143462846DBF80010DC
:102D000016AAFDF7CDFA0028ECD1FEF75DF9424690
:102D1000074616A94846FFF705FB80463846FEF7EA
:102D200077F92E4B1B684345DCD14FF0010806AF05
:102D30000DF11C0B3A4659460DF11A0308A8FFF78E
:102D4000A7FA0028CEDB3BD1BDF81A30102BCED02D
:102D5000222B13D0022BEAD13B88982BC2D82846CD
:102D6000DBF8001036AAFDF79BFA0028BAD13A88A2
:102D7000059836A900F036F80446D8E7002C1CDB8D
:102D8000174B1B68A34218DD3B88802BAAD8284626
:102D9000DBF8001016AAFDF783FA0028A2D1FEF78F
:102DA00013F90094834620213B8816AA484600F078
:102DB000BDF806465846FEF72BF94FF0FF34B6E74C
:102DC000B8F1010F8ED1FEF707F930465DB0BDE8CE
:102DD000F08F00BF0C00043051A6010C100004302D
:102DE00038AA010C2DE9F0414FF020080E46154697
:102DF000C2B004467022002126A8CDF80480FDF759
:102E0000E8FB702226A90AA8FDF706FC1B490AA8C0
:102E100000F03EF92A4631460AA800F054F9002392
:102E2000424602A926930AA826AB00F068F901AF32
:102E30000AA800F013F920463A4626A9FDF7FCFD42
:102E4000044628B14FF0FF34204642B0BDE8F0817F
:102E5000FEF7BAF83A68804626A902A8FFF762FA98
:102E600007464046FEF7D4F8054B1B68BB42E9D144
:102E7000044B1E60044B1D60E6E700BF0900000222
:102E80001000043000000430EC2004302DE9F0473D
:102E900092467022B8B00DEB02000C46DDE94257B5
:102EA00000219946409EFDF794FB702268460DEB89
:102EB0000201FDF7B1FB68461B4900F0E9F835B1A6
:102EC000002F04DD3A462946684600F0FCF800254C
:102ED00063892289D4F80C8013449844454508D36B
:102EE00000242022684641991CAB1C9400F007F98D
:102EF0000CE0A8EB0507B74228BF37464A463B46D9
:102F000029465046FDF7CCF9044630B1684600F03A
:102F1000A5F8204638B0BDE8F0873A4649466846ED
:102F200000F0D1F83D44D9E7090000022DE9F0474F
:102F3000894600219EB0414B1646269ADFF800A133
:102F400053F8324006AF182280463846CDE90311C7
:102F50000591DAF80050FDF73CFB09223949201DA4
:102F6000FDF727FB002854D10A22374904F10D0050
:102F7000FDF71FFB00284CD120224FF42050334B8B
:102F8000CDE90423E3780733E118314B11F8022C23
:102F9000CDE9080344F212133846ADF81830013A6F
:102FA00003AB00F0CFF80146002832D1602238464A
:102FB000FDF70FFBF578049C0436AC4233D82B1B8D
:102FC0001E44224631463846FDF726FB05F0FE0535
:102FD00073195A78023594429ABF131B2246C2EBEA
:102FE000440406EB05019ABFC918B8183819FDF753
:102FF00013FB049B9DF814105B00CDE9007342465F
:103000004B46039841F0062100F0EEF890B9114BC1
:103010001D68039808B100F0C3F8FDF7DDFF2846EE
:103020001EB0BDE8F087601B2A4631463844FDF7E4
:10303000F3FACDE7DAF80050EBE700BF0000043008
:103040000C000430E6AB010CDCAB010C0900000203
:1030500009060006100004300020704770B50546D0
:10306000FDF7B2FF2C68064634B9FDF7B5FF3046D0
:10307000FDF7CEFF204670BD012C06D1281D00F0C3
:1030800089FA044600232B60EFE76FF08804F9E724
:10309000F8B505460C46FDF797FF2F1D6C22002161
:1030A00006463846FDF795FA2146384600F084FA80
:1030B000044608B901232B60FDF78EFF3046FDF76B
:1030C000A7FF2046F8BDF8B505460F461446FDF7A4
:1030D0007BFF064634B9FDF77FFF3046FDF798FFCA
:1030E0002046F8BD2B68012B06D122463946281D03
:1030F00000F08EFA0446EEE76FF08804EBE72DE966
:10310000F04104460F4690461D46FDF75DFF002343
:103110002B6023680646012B11D12B4642463946C7
:10312000201D00F087FA05462046FFF797FFFDF7C0
:1031300053FF3046FDF76CFF2846BDE8F0816FF085
:103140008805F1E770B51E46038803F44F44B4F5D3
:10315000824F17D1551E6D08ED00104CC4E90012C6
:103160000146182204F10800FDF756FA0123226AED
:103170006581013242F0004222620020326084F810
:10318000243070BD03F4E043B3F5805F02D0B3F5A3
:10319000005F01D1D500E0E70025DEE7583E0430AE
:1031A000F0B5002887B004DB442200210C48FDF76D
:1031B00010FA00266C460B4F31461822684607F17C
:1031C0000805C7E90066FDF704FA0FCC0FC594E8BF
:1031D000030085E80300304687F8246007B0F0BD9F
:1031E000803E0430583E043030B5002885B02ADADD
:1031F0001648C468240A26D1048904F44F45B5F55D
:10320000824F1CD121F4FF7525F00105B5F1062F81
:1032100019D1E4B2122C12D14489B4F5807F0ED1B9
:10322000099C00920394089CCDE901340B46426846
:1032300050F8081B00F0A4FE10F1860F01D16FF0CA
:10324000850005B030BD6FF08600FAE7583E0430C7
:103250007047002818BF6FF08300704710B5144600
:103260001846FDF7D9F9039B00201C6010BD000033
:1032700010B50A46044619B1024B00211B68984755
:1032800010BD00BFF0AB010C01680E4A034691422D
:1032900015D1C169A2F11022A2F1EF1291420ED113
:1032A0008268012A0BD8C26812B101698A4206D02D
:1032B000586928B19B691B1A584258417047012030
:1032C000704700BF55AA00FF0E4B70B59E68B6B19F
:1032D0003046FFF7D9FF044618B9F3687BB9356962
:1032E0000DB9204670BD2846FFF7CEFF28B9EB6820
:1032F000B34204D12E462D69F2E70446F1E70124DA
:10330000EFE700BFC43E04302DE9F843404E346877
:10331000D4B1B468C4B1002877D0002975D001FBBE
:1033200000F5B5FBF0F088426FD1281D6DD8A907D4
:103330000DD025F003070437F46803E06368BB424F
:1033400007D2A469002CF9D12046BDE8F8832F46A6
:10335000F2E7A3681BB12F4B01201B689847D4E903
:103360000520616804F12008C91B23291CD801230A
:10337000A360BAB19061A36903B15A610023C4E9A3
:1033800005333369DA0706D5FFF79EFF18B1012030
:10339000204B1B6898472A46002140464446FDF7CB
:1033A00018F9D1E7F060E6E707F1200C04EB0C0315
:1033B000203959600021DFF860E0C3E90214216977
:1033C000196144F80CE0DFF854C0C3F81CC001B127
:1033D000CB60C3E90520B2B193619A6902B1536130
:1033E000236100234FF00109C4E905333369C4E9BF
:1033F0000179DB07CFD5FFF767FF0028CBD0054B5E
:1034000048461B68C6E7F360E7E700249CE700BF77
:10341000C43E04301400043055AA00FF669911EE32
:103420002DE9F041054600287CD03F4F3B68002B3A
:1034300078D0BA68002A75D0834203D87A681344DA
:10344000984203D3394B01201B689847A5F120040B
:103450002046FFF719FF18B1344B01201B6898472D
:1034600055F8183C012B03D0304B01201B689847BE
:10347000002355F8146C45F8183CAEB1B26892B907
:1034800055F81C3C03F1200273681344736055F82F
:10349000103C336103B1DE60204620220021FDF79D
:1034A00098F8234634461E462069002832D08368A7
:1034B000002B2FD163684268203313446360036993
:1034C000D4E905212361DAB901BB426981696261EE
:1034D000A161EAB19461A26902B1546103B1DC60F7
:1034E00020220021FDF775F83B699B071AD5FFF7ED
:1034F000EBFEB8B1BDE8F0410C4B01201B6818474A
:103500009161A1690029E0D04A61DEE7F960F8E73E
:10351000FC60E0E7002EE7D1FB68A36103B15C61CA
:10352000FC60E1E7BDE8F081C43E043014000430E3
:1035300038B50D461422002104461248FDF749F81B
:103540001149124801F07CF9232D1AD914F0030314
:103550001FBF043DED18C3F10403E4182A460021FF
:103560002046FDF736F8074B094AC3E900459C6041
:103570002260A2F11022203DA2F1EF126560E2610B
:10358000DC6038BDC43E04302134010C0933010C29
:1035900055AA00FF036810B504462BB1054A9342B3
:1035A00005D1043000F0DEFB0020206010BD6FF07C
:1035B0008800FBE709000002F8B5076805460C46DD
:1035C00007BB124B994213D1061D304600F0C6FBD3
:1035D0003046394600F0CCFB064628B92C60304610
:1035E000BDE8F840FFF735BE2846FFF7D3FFF6E702
:1035F00001F0FE44B4F1007F14BF6FF086006FF05D
:103600008500F8BD6FF08800FBE700BF09000002ED
:1036100010B5074B04689C4206D1043000F0D6FB7D
:10362000BDE81040FFF715BE6FF0880010BD00BF69
:10363000090000022DE9F0411F460478064644F0D7
:10364000007404F17E44033C102C98BF104B884654
:1036500015468CBF00241C5D3A601AB121214046FA
:10366000FCF7B7FFAC420DD832680A4B9A420CD136
:103670004146301D00F0EAFBFFF7EBFD00B93C606E
:10368000BDE8F0816FF08900FAE76FF08800F7E796
:10369000F4AB010C090000022DE9F04F0D46D5B046
:1036A00000F1440304934BAB059300F164030693CC
:1036B000DDE9043253F8041F42F8041F06999942C9
:1036C000F8D100240BAE09AF291904223846FCF7C3
:1036D000A3FF3B6804341BBA402C46F8043FF3D1E7
:1036E00097490DF1280A5546DDE951EBDDE94C76A5
:1036F000DDE94E328C46DDF84C81DDF840910191D8
:10370000A868DCF800104FEAF92484EAB9140144EF
:103710008BEA0E0084EA796400EA090080EA0B0073
:103720002144014441444FEA773888EAB70888EADF
:10373000B7580A44884447EA060107EA06001940D8
:1037400001438844E868DCF804104FEA7834014407
:1037500089EA0E00104080EA0E00594401444FEA05
:10376000F22080EAB21080EA726084EAB804014470
:1037700084EAB8540B440C4448EA070108EA0700FD
:10378000314001430C442869DCF80810203501441D
:1037900082EA0900184080EA0900714401444FEAB6
:1037A000F32080EAB31080EA736001444FEA74307A
:1037B00080EAB40080EAB45001EB060E084448EAFF
:1037C000040108EA040639403143084455F80C6CFA
:1037D000DCF80C100CF1200C0E444E4482EA030974
:1037E00009EA0E094FEAFE2189EA020981EABE11BF
:1037F00081EA7E614E440E444FEA703181EAB001A5
:1038000081EAB05106EB0709314444EA000604EAB4
:10381000000706EA08063E43314455F8087C5CF888
:10382000106C3E44164483EA0E0202EA09025A4032
:1038300016444FEAF92282EAB91282EA7962164402
:103840004FEA713282EAB10282EAB152B0443244A4
:1038500040EA010600EA010726403E43324455F89B
:10386000047C5CF80C6C3E441E448EEA090303EAB7
:10387000080383EA0E031E444FEAF82383EAB813D1
:1038800083EA78631E444FEA723383EAB20304EB9F
:10389000060B83EAB25341EA02043344044001EACE
:1038A0000206344323442E685CF8084C344489EA09
:1038B000080606EA0B0686EA0906744434444FEA11
:1038C000FB2686EABB1686EA7B66344400EB040ED0
:1038D0004FEA733080EAB30080EAB350204442EAF2
:1038E00003040C4002EA0306344306196C685CF8D2
:1038F000040C204488EA0B0404EA0E04484484EAD9
:10390000080420444FEAFE2484EABE1484EA7E645C
:10391000204401EB00094FEA763181EAB60181EAE1
:10392000B651014443EA0600104003EA060420436E
:103930000F181AA9A9427FF4E3AE3AA9079101E052
:1039400008AC010CDAF84010DAF80C404FEAF14507
:1039500085EA7145DAF8080085EA9125DAF82C1035
:103960000AF1200A01444FEAB44080EAF41080EAE8
:10397000D4002944014403918BEA0E004FEAF92157
:1039800081EAB91100EA090081EA796180EA0B0055
:103990000844019907EA0605096C0844039908449C
:1039A000404402440292CAF8281047EA06024FEA4D
:1039B000773181EAB7011A402A4381EAB7511144AD
:1039C000DAF8242001444FEAF24585EA72455AF8B4
:1039D000100C85EA9225DAF81020DDF808C01444AE
:1039E0004FEAB04282EAF01282EAD0022C44144438
:1039F000029A89EA0E051540019A85EA0E05526C75
:103A0000CAF82C405A4422441544029A4FEAF22242
:103A100082EABC1282EA7C622A4403EB020B47EA88
:103A200001054FEA713307EA010C83EAB10335401F
:103A300045EA0C0583EAB1532B441344039A5AF820
:103A40000CCC4FEAF24585EA724585EA9225DAF810
:103A5000142000EB02084FEABC4282EAFC1282EA20
:103A6000DC02A8449044029A4FEA733589EA0200C6
:103A7000019A00EA0B00926C80EA09007244424409
:103A800010444FEAFB2282EABB1282EA7B620244C4
:103A900041EA030006EB020E85EAB30501EA0306DC
:103AA0003840304385EAB355054415445AF8086C4C
:103AB000DAF818204FEAF44080EA744080EA942053
:103AC0000CEB02044FEAB64282EAF61282EAD60210
:103AD00004441444029A03EA050C82EA0B0000EA4B
:103AE0000E005040019ACAF83080D26CCAF83440B7
:103AF0004A44224410444FEAFE2282EABE1282EA7D
:103B00007E62024407EB02094FEA753043EA05077B
:103B100080EAB5000F4047EA0C0780EAB550384408
:103B200010445AF8047CDAF81C204FEAF84C8CEA6E
:103B3000784C16444FEAB7428CEA982C82EAF71286
:103B400082EAD70266441644019ADDF808C0126D75
:103B5000CAF83860324462448BEA0E0C0CEA090C55
:103B60008CEA0B0C62444FEAF92C8CEAB91C8CEA03
:103B7000796C94444FEA703282EAB00201EB0C088F
:103B800082EAB05245EA00010292194005EA0002B9
:103B90001143029A0A444FEAF44181EA744181EAEE
:103BA0009421DAF820406244DAF800C03C440C4426
:103BB0004FEABC4181EAFC1181EADC010C44019925
:103BC0008EEA0907496D07EA08072144594487EA44
:103BD0000E070F444FEAF82181EAB81181EA7861B3
:103BE000394403EB010B4FEA723383EAB20383EAF1
:103BF000B25340EA020702932F4000EA02031F4338
:103C0000029BCAF83C403B440B444FEAF64181EA30
:103C1000764181EA9621DAF82460DAF80470664485
:103C200031444FEAB74686EAF71686EAD7063144AA
:103C300002910199DDF808C0896D89EA080661449E
:103C400006EA0B06714486EA09060E444FEAFB2198
:103C500081EABB1181EA7B61314405EB010E42EA46
:103C600003064FEA7335CAF840C0064002EA030C67
:103C700085EAB30546EA0C0685EAB35535446E1865
:103C8000DAF80810039D4FEAF44C3D444FEAB1477F
:103C900087EAF11787EAD1078CEA744C01998CEA1C
:103CA000942C6544C96D3D4488EA0B0707EA0E076A
:103CB0002944494487EA08070F444FEAFE2181EA74
:103CC000BE1181EA7E61394443EA060703EA060928
:103CD000174047EA090700EB010901984FEA763CD3
:103CE00020308CEAB60C019007988CEAB65CCAF8D2
:103CF0004450BC44504501EB0C077FF423AE0AA8A6
:103D0000C0F81031C0E9001C029BC0F82481C0F843
:103D10000031C0F81421C0F8FC40C0F820B1C0F850
:103D20001CE1C0F80C61C0F80451C0F81891C0F84B
:103D30000871049A059952F8043F049251F8042F2F
:103D40001344049A05911360069B9342F1D14FF4FA
:103D50009471FFF78DFA55B0BDE8F08F682200210D
:103D6000FCF737BC10B16821FFF782BA704700003A
:103D700003460846C1B9C3E910110D4A0D49DFF8E1
:103D800038C0C3E912120D4A0D49C3E914C20D4AE5
:103D9000C3E916120C4A1A6602F17452A2F5230204
:103DA000A2F692425A6670476FF08600704700BFD5
:103DB00085AE67BB67E6096A72F36E3C3AF54FA5BC
:103DC0007F520E518C68059BABD9831F2DE9F041C2
:103DD00005460E46144612B3036C03F03F079B18CA
:103DE000036422BF436C013343647FB1C7F14008D1
:103DF00042450FD342463844FCF70EFC294628467C
:103E0000FFF74AFC27444644A7F140043F2C09D859
:103E10002CB1002722463146E819FCF7FDFB0020B3
:103E2000BDE8F081374606EB04083946284640379E
:103E3000FFF732FCA8EB07033F2BF6D8A4F14003B1
:103E400023F03F0340331E44E41ADFE773B50D4609
:103E50008021036C044603F03F035A1C382AC154E6
:103E6000104474D80021C2F13802FCF7B2FBD4E947
:103E70001062730F43EAC20304221BBA0DEB020166
:103E800004F138000193FCF7C7FB0422F6000DEBA8
:103E9000020136BA04F13C000196FCF7BDFB214655
:103EA0002046FFF7F9FB0422A36C0DEB02011BBABD
:103EB00028460193FCF7B0FB0422E36C0DEB0201F2
:103EC0001BBAA8180193FCF7A7FB0422236D0DEB86
:103ED00002011BBA05F108000193FCF79DFB0422C7
:103EE000636D0DEB02011BBA05F10C000193FCF7A9
:103EF00093FB0422A36D0DEB02011BBA05F1100028
:103F00000193FCF789FB0422E36D0DEB02011BBA60
:103F100005F114000193FCF77FFB0422236E0DEBE7
:103F200002011BBA05F118000193FCF775FB04228E
:103F3000636E0DEB02011BBA05F11C000193FCF747
:103F40006BFB2046FFF70EFF002002B070BDC2F1F0
:103F500040020021FCF73DFB21462046FFF79CFB79
:103F600038220021204680E7043004289ABF034B02
:103F700033F910006FF08300704700BF08AD010CEB
:103F80004123F0B595B00DF1080CCDE9003CDDE919
:103F90001A56DDE91C47029303ABFFF75FF998B9A6
:103FA0009DF80C30042B0DD1402F0FD133462A46FB
:103FB00020460DF10D0100F08DFB15B0BDE8F0407D
:103FC000FFF7D2BF6FF0860015B0F0BD6FF0940020
:103FD000FAE70022016000F11C0340F8042F984228
:103FE000FBD17047F0B5002405462646204652F81E
:103FF000247051F82430DB1946EB06071B1845F8EE
:10400000243004F1010447F10000082CEFD1F0BD89
:10401000002370B50646184652F8235051F8234045
:10402000641B65EB0505241A46F8234003F10103E0
:1040300065F10005082BC5F10000EDD170BD70B52C
:1040400004395642041F013A1C3054F8043F51F819
:10405000045F134035402B4384422360F5D170BD8B
:10406000002330B50446184654F8232051F8235055
:1040700001336A40082B40EA0200F5D130BD021F2F
:1040800000F11C03002052F8041F9A4240EA01008C
:10409000F9D170472DE9F047002506468946AA4622
:1040A000171FA0F1040C02F11C0857F8043F5CF83C
:1040B00004EF4C46200C1A0CA4B29BB211004143F1
:1040C00062435C43434318041B0C24184B41100407
:1040D000120C2418534170460022241853416419CD
:1040E000534147451D46CCF80040DED1336A5A198A
:1040F0005B1932624AEB0A00BDE8F08710B504385C
:10410000A1F120024B7F0C7F1B0443EA0463CC7FA8
:104110000439234391F822408A4243EA042340F8B9
:10412000043FEFD110BD70B588B01E460446FFF7BE
:1041300059FF3246054621466846FFF769FFC0F140
:104140000102694620462A43FFF779FF08B070BD97
:104150002DE9F04F9846D3F840A0002307461846B3
:104160008BB0914601AA0133092B42F8040BFAD116
:10417000A1F1040B01F11C06D9F800305BF8041F13
:10418000019D4A4601A803FB0155FFF783FF0AFB87
:1041900005F504464246294601A8FFF77BFF0823A0
:1041A000044401AA5168013B42F8041BFAD1B3450B
:1041B0000994E1D1424601A93846FFF729FFC0F131
:1041C000010222433846C2F10102FFF738FF0BB06B
:1041D000BDE8F08F014BFFF7BBBF00BFB8AD010CCE
:1041E0000B4601F120020146FFF7B2BF30B504468D
:1041F0000D4689B068460121FFF7EBFE2B466A4663
:1042000021462046FFF7A4FF09B030BD38B504466B
:104210001546FFF7DEFE29462046BDE83840FFF789
:10422000DFBF2DE9F04314460646274689B0012238
:104230006846FFF704FF224601213046FFF7E6FFFC
:10424000256804F11C09023D4FF02008EB0705D555
:1042500023466A4631463046FFF77AFF23466A46D0
:1042600069466846FFF774FFB8F101084FEA550543
:10427000ECD14F4502D057F8045FE5E709B0BDE83F
:10428000F083000070B5144606460D4688B02146FE
:1042900020460C4AFFF7C5FF224621466846FFF735
:1042A00099FF6A4631463046FFF794FF2246694639
:1042B0006846FFF78FFF6A4629462846FFF78AFFC0
:1042C00008B070BDB8AD010C30B5044689B0FFF739
:1042D00015FF0C4A21466846FFF79AFE0546012164
:1042E0006846FFF776FE6A4621466846FFF790FE6D
:1042F0002DB1003818BF0120404209B030BD4FF049
:10430000FF30FAE774AD010C10B588B004460146E1
:10431000054A6846FFF77CFE6946C0F10102204667
:10432000FFF78DFE08B010BD74AD010C70B51F2AEB
:1043300004460B4688B00FD800206D4669460646F5
:104340000130202805F8016BFAD1C2F11F000844A2
:104350001A4493420CD12046FFF7D0FE2046FFF7C7
:10436000D3FF2046054908B0BDE87040FFF738BFCD
:1043700013F8015B00F8015FEBE700BF74AD010CBF
:1043800030B589B00446FFF743FE0546214668462E
:10439000044AFFF727FE2A4669462046FFF74FFEEC
:1043A00009B030BDB8AD010CF0B516461F46044645
:1043B0000D4699B011466846FFF70CFF3246694634
:1043C00008A8FFF707FF3A4669466846FFF702FF6D
:1043D00008A908461E9AFFF7FDFE22466946684670
:1043E000FFF7CEFF08A92A460846FFF7C9FF6A462D
:1043F00031463046FFF7EEFE6A46694610A8FFF7E1
:10440000E9FE6A46684610A9FFF7E4FE10A92246B5
:104410000846FFF7DFFE08AA11462046FFF7DAFE3E
:104420002146204610AAFFF7ABFF2146204610AADE
:10443000FFF7A6FF6A4621462046FFF7A1FF10A915
:1044400022460846FFF79CFF10A9084608AAFFF776
:10445000C1FE2A4669466846FFF7BCFE6A46284602
:1044600010A9FFF78DFF19B0F0BD000070B504462C
:1044700090B00D4611461646FFF740FE2146234AEE
:1044800008A8FFF7C5FD012803D04FF0FF3010B09A
:1044900070BD11462046FFF7A3FE284606F1200115
:1044A000FFF72CFE2946194A08A8FFF7B1FD01289D
:1044B000EBD111462846FFF793FE2A462946684667
:1044C000FFF788FE2246214608A8FFF783FE08A9C9
:1044D00022460846FFF77EFE08A922460846FFF757
:1044E0004FFF08A922460846FFF74AFF08A92246BF
:1044F0000846FFF745FF08A90846044B044AFFF7A2
:1045000012FE684608A9FFF7ABFDC0E7B8AD010C85
:1045100054AD010C70B504460D46164698B01146D0
:1045200008A8FFF757FE344B2146684608AAFFF754
:10453000FAFD214608AA10A8FFF722FF694610AA33
:1045400008A8FFF747FE08AA114668462A4BFFF75E
:10455000EAFD69466846284B08AAFFF7E4FD2A46AB
:10456000294610A8FFF736FE10AA11461046224B26
:10457000FFF7D9FD214610AA08A8FFF72BFE08AACD
:10458000114610461C4BFFF7CEFD10AA11461046EF
:10459000FFF720FE10AA184B11461046FFF7C3FD87
:1045A0006A4669462046FFF715FE2146204608AABE
:1045B000FFF7E6FE2146204608AAFFF7E1FE324655
:1045C00029463046FFF706FE0B4B32463146304651
:1045D000FFF7A9FD2246284608A9FFF7D1FE6A4643
:1045E00029462846FFF7F6FD2946284610AAFFF778
:1045F000C7FE18B070BD00BFB8AD010C2DE9F04F7B
:104600009946054692460C46A3B02C9E2F49324649
:1046100002A8FFF7FDFCD6F800B031460BF001020E
:1046200002A80DF14808FFF70AFD00214046FFF7F8
:10463000D0FC4A4641460AA8FFF7A2FE0122514695
:104640002846FFF7FCFC012249462046FFF7F7FC0D
:1046500001211F4A1AA8FFF7D9FD6FEA0B02204675
:1046600002F001020AA9FFF7EAFCFF277B0922AA50
:1046700002EB830353F8806C07F01F02D64086EAF2
:104680000B06F2434946404602F00102FFF7D7FC11
:10469000404606F001020AA9FFF7D1FC2146284650
:1046A0001AAAFFF737FF534621462846CDF8008067
:1046B0001AAAFFF779FE013FD8D1214628461AAA47
:1046C000FFF7E0FD23B0BDE8F08F00BF74AD010C33
:1046D000B8AD010C2DE9F041C2B004460F460146C9
:1046E00002A815469846FFF7EFFD28B16FF00307C3
:1046F000384642B0BDE8F0810AAE304604F12001F0
:10470000FFF7E2FD0028F1D14246294612A8FFF743
:104710000DFE30464649FFF763FD1AAC3146304680
:10472000434AFFF77EFD424B3246204612A9FFF76F
:104730000FFD22AD20463E49FFF758FD01222846D5
:1047400002A9FFF77CFC28463949FFF749FD3246AC
:10475000374B29462846FFF7FBFC28463449FFF72C
:1047600045FD3A4632A92AA8FFF780FE07460028F1
:104770005BD112A83146009532AB2AAAFFF73EFF63
:104780002046FFF77CFC90B90122204612A9FFF7D2
:1047900056FC28492046FFF729FD2046FFF7B4FDC7
:1047A000204602A9FFF75CFC0028A1D09EE7224B1F
:1047B000224A32A92AA80094FFF720FF01222046AE
:1047C0002AA9FFF73CFC0122284632A9FFF737FC53
:1047D00001213AA8174AFFF719FD12A92AA8FFF7E5
:1047E0003FFC60B10B462046294600963AAAFFF7E7
:1047F000DBFD294620463AAAFFF744FDC9E73146CA
:1048000032A8FFF72DFC28B9294620463AAAFFF71F
:1048100081FEEEE739462046064AFFF7F7FC3946A7
:104820002846044AFFF7F2FCB3E76FF001075FE7A1
:1048300074AD010CB8AD010C14AD010C34AD010C1C
:10484000024B1860024B0020196070471C000430B6
:1048500018000430464A136B23F4807323F00103DD
:1048600043F480731363136943F030031361536996
:104870001807FCD53F4B1A6922F4FE0242F480026D
:104880001A611A6822F018021A601A6842F00102CE
:104890001A601A689107FCD537490A6822F00F029E
:1048A00042F005020A609A6A22F0030242F0010215
:1048B0009A629A6A42F480329A629A6A42F40032A8
:1048C0009A629A6A42F480229A629A6A22F01002EC
:1048D0009A629A6A22F00C0242F008029A629A6A7C
:1048E00022F020029A629A6A22F47C5242F4006218
:1048F0009A625A6B6FF3080242F03B025A635A6B9A
:1049000022F47E4242F400725A635A6B22F4FE0291
:1049100042F480325A635A6B22F0FE4242F08072B7
:104920005A631A6842F080721A60124B1A68920138
:10493000FCD51A6A22F00F021A621A6A22F070027B
:104940001A621A6A22F4E0621A621A6A22F4E042D7
:104950001A62DA6942F00302DA61064BDA6902F0A0
:104960001802182AFAD11A6842F480521A60704765
:1049700000080254000C02540020025008B501F057
:10498000F1FB18B1BDE8084006F092BB08BD00007D
:104990001FB51D4B1B6801931C4B5B6802931C4B9E
:1049A0005B680393019B029B039B00F095FC01F065
:1049B000AFFCFFF7E3FF01F02FFC20B1154802F038
:1049C0006DF806F075FBFBF79FFF20B1124802F06F
:1049D00065F806F06DFB002400F0A6F800F082F9FF
:1049E0000E4B1C6000F0A0F800F07CF90C4B204648
:1049F0009B68984720B10B4802F050F806F058FB2E
:104A0000002004B010BD00BF0080020C00E0020CCA
:104A100000E0000C06A7010C28A7010CDC3E0430C6
:104A200064AE010C55A7010C30B585B00192CB697D
:104A30000093D1E9053201460B4802F02FF80B48EC
:104A4000816AC26AD0F8E430446B856BD0F8E80024
:104A50000094CDE90150064802F020F805B0BDE809
:104A6000304006F025BB00BF80A7010C00ED00E040
:104A7000ACA7010C0A4601460148FFF7D5BF00BFAD
:104A8000EBA7010C0A4601460148FFF7CDBF00BF66
:104A9000F5A7010C0A4601460148FFF7C5BF00BF54
:104AA000FFA7010C0A4601460148FFF7BDBF00BF42
:104AB00008A8010C0A4601460148FFF7B5BF00BF30
:104AC00013A8010C1EF0040F0CBFEFF30880EFF3E6
:104AD00009807146FFF7CEBF1EF0040F0CBFEFF345
:104AE0000880EFF309807146FFF7CCBF1EF0040F7A
:104AF0000CBFEFF30880EFF309807146FFF7CABFE0
:104B00001EF0040F0CBFEFF30880EFF3098071462D
:104B1000FFF7C8BF1EF0040F0CBFEFF30880EFF3E0
:104B200009807146FFF7C6BFF7B5644C236883B9A7
:104B3000634BD3F8882042F08072C3F888204FF48A
:104B40000022D3F8883003F080730193019B5D4B02
:104B50009A612068002872D15B4B5C49D3F8D02061
:104B600022F00102C3F8D0200A680130C3F8D8202F
:104B70004A68103122F01F02C3F8DC2011F8045CEF
:104B800051F8082C003D18BF012522F01F0242EA0F
:104B9000450242F001020528C3F8E020E4D1BFF34A
:104BA0004F8FBFF36F8FD3F8D02042F00102C3F8CC
:104BB000D020454A536A43F4702353622368D3B923
:104BC0004022434843497F25C0E90012F922C0E949
:104BD0000433C0E90252C0E90633036201F048FA27
:104BE00008B106F065FAFF21394801F097FA3A4911
:104BF000374801F0A9FA2368002B4FD1012000F0BB
:104C000039FF2268002A50D12D4B0520D3F8881097
:104C100041F40031C3F88810D3F88830114603F40A
:104C200000330093009B01F0D5F8052001F002F954
:104C30002A4A536C43F00203536403B0F0BD0027CB
:104C4000224D214E2B68C6F8D830D6F8D800D6F8B9
:104C5000DC208342D6F8E01011D16B6823F01F03EB
:104C600093420CD12A7BAB68003A18BF012223F093
:104C70001F0343EA420343F001038B4201D006F0D5
:104C800017FA0137052F05F11005DBD10E4BD3F8CC
:104C9000D030DE078DD406F00BFA8AE700F0F4FE80
:104CA0000128AED006F004FAABE70C4B5B6C9B0717
:104CB000C3D403B0BDE8F04006F0FAB9DC3E0430DE
:104CC000000C02540024035000ED00E014AE010C6F
:104CD0006C3F0430007800540000FF5D006002501B
:104CE00070470000594A0123116870B501B913607B
:104CF0000226574C574D20466361266200F050FE55
:104D000028466E6100F04CFE002323602B6023696F
:104D100003F07F43B3F1344F04D04F4801F0BEFE9F
:104D200006F0C6F9E368002B04DA4C4801F0B6FE41
:104D300006F0BEF9E36803F07F53B3F1345F04D0AB
:104D4000474801F0ABFE06F0B3F9626A454B9A4260
:104D500004D0454801F0A2FE06F0AAF9E36B13B9AE
:104D6000236C472B0AD0414801F098FE47230020CE
:104D7000C4E90F03236843F400732360EB6B13B99A
:104D80002B6C2B2B09D03A4801F088FE2B230021F5
:104D9000C5E90F134FF400732B6023691A0704D57C
:104DA000344801F07BFE06F083F923695B0604D5E5
:104DB000314801F073FE06F07BF923682A6813433B
:104DC00023D000F033FB00F053FB236843B12048AD
:104DD00000F056FC20B1294801F060FE06F068F9A9
:104DE0002B6843B11B4800F04BFC20B1234801F075
:104DF00055FE06F05DF900F0F7FB20B1204801F008
:104E00004DFE06F055F901F023F8A36AC32B04D038
:104E10001C4801F043FE06F04BF96368B3F56D4F93
:104E200012D0B3F5B85F0FD0B3F5385F0CD0B3F53F
:104E3000464F09D0B3F5E44F06D0B3F5B84F03D0D1
:104E4000BDE8704006F034B970BD00BF683F043063
:104E5000243F0430E03E04301FA8010C3BA8010CA5
:104E60006AA8010C0000010C98A8010CC0A8010C54
:104E7000FBA8010C36A9010C62A9010C83A9010C45
:104E8000A9A9010CCBA9010C042A09DB0B6803605A
:104E900000F1040001F10401A2F10402042AF5DA90
:104EA000002A09D00B78037000F1010001F1010123
:104EB000A2F10102012AF5DA70470000044B82B02A
:104EC000186883B26FF30F00184302B0704700BF39
:104ED000A8AE010C0C20704700207047012805D9AE
:104EE00002280CBF00206FF0040070476FF0030031
:104EF00070476FF003007047014B1868704700BFA0
:104F00009C3F04300048704790AE010C08B54FF448
:104F10007A7000F0BFFA002008BD00000C4B70B59D
:104F20005A6992B11C69002301390144151DA3423D
:104F300001D1002070BD52F83360864203D855F885
:104F40003360B14201D90133F1E70120F2E700BF3C
:104F5000400004302DE9F0411446204B96001A78A9
:104F6000074622F002021A70421E02EB8402B2F5DA
:104F7000800F0D4611D31A4A94693CB16FF00400BA
:104F80001A7842F002021A70BDE8F0813246FF2121
:104F90002846FBF71EFB2046F6E70023DFF8448097
:104FA0003146C8F80030FFF7B9FF324690B107F13B
:104FB00040612846FFF768FFD8F8003023B1324639
:104FC00000212846FBF705FB002324F04040C8F8E9
:104FD0000030D9E707F10061EBE700BF9C3F0430E8
:104FE00040000430A03F043038B50E4D6B68DC073C
:104FF00009D40C4B5A68900711D45A68520744BF21
:105000000422DA6038BDFBF727FD04466B68990778
:10501000EFD4FBF721FD001B0128F7D9E9E70222B5
:10502000DA60EAE7000403500B4A10B5D36823F0B6
:105030000203D36001F0A0F8FBF70EFD044601F077
:10504000B7F840B1FBF708FD001B0128F7D901F0C4
:10505000AFF80028F3D010BD000403502DE9F04F45
:10506000454F87B03B784FEA8208019123F0020355
:105070004146064615463B70FFF750FFF0B14FF032
:10508000020B4FF0406A721E4244B2F5800F0CD200
:1050900048EA060414F00F0407D1384BD3E90201A3
:1050A000234601F1040E83420DD16FF004003B78DA
:1050B00043F002033B7007B0BDE8F08F4FF0006A89
:1050C000DFF8BCB0DFE751F833C0664503D35EF8C4
:1050D00033C0624544D90133E5E700F093F93B78EA
:1050E00043F001033B70019B1022191902A8FBF742
:1050F00093FA029B049A05991A40039B0B40B3F163
:10510000FF3F08BFB2F1FF3F24D00AEB060158462B
:1051100002AA214400F00AFA81461034A04502D0C8
:10512000B9F1000FDFD03B78414623F0010330197D
:105130003B70FFF7F3FE80B100F08EF9FFF754FFEC
:1051400001F010F8B9F1000F25F0404018BF4FF002
:10515000FF30B0E74FF00009DFE700F071F9EDE74D
:10516000FFF762FF41463046FFF7D8FE0028B4D172
:1051700000F034F9B3E700BF9C3F04304000043036
:105180000200008070B5B0F5800F044686B008D2EA
:10519000C0F30C032BB9324AD2E90012101D8B4226
:1051A00008D16FF004002F4A137843F00203137004
:1051B00006B070BD52F83350AC4203D350F83350B0
:1051C000AC4207D90133EAE700F008F929E000F022
:1051D00037F93BE004212046FFF7A0FE0028224BD0
:1051E00018BF0423B4F5001F029334BF0123022328
:1051F00003934FF0010305934FEA543301D3A3F512
:105200008073184E0493FFF70FFF3378042123F0C7
:10521000020320463370FFF781FE0028D4D000F04F
:10522000F1F8337801A943F0010302A8337000F0CC
:1052300059FC3378054623F00103042120463370DE
:10524000FFF76CFE0028C2D000F006F9FFF7CCFE95
:1052500000F088FF281E18BF01204042A8E700BFC9
:10526000400004309C3F043004000080174BD3F80A
:105270000421002A29DAD3F8042142F00042C3F8BD
:105280000421134A136801331360734603F00F03BC
:105290000D2B14D1EFF30982D2E90631C9010CD5E7
:1052A00023F00101098801F46840B0F5684F04D08B
:1052B00001F47841B1F5704F04D1043303E0EFF30A
:1052C0000882E9E7023393617047FEE7002002504D
:1052D000A03F04307047000010B5032000F068FDC7
:1052E00000F064FC094B0A4A1B6A03F00F03D35C0D
:1052F000D840084B18600F20FBF7A0FB044618B9F4
:10530000FFF7E8FF204610BD0124FBE7000C025424
:1053100004AE010C200004300C4B10B50C4A9C6804
:105320000C4B13EA240338BF13461A6842F00202FA
:105330001A60EFF3108272B60023CC58C4500433C5
:10534000102BFAD182F3108810BD00BF2400043066
:105350002C2002502820024030B50F4DAB68002BA6
:10536000AABF0E4B0E4B0F4A1C68B8BF0E4A44F042
:1053700002041C60AB68146803F004032343136049
:10538000EFF3108272B60023CC58C4500433102BB4
:10539000FAD182F3108830BD240004302C20025052
:1053A000282002404420025040200240084B10B503
:1053B000084A9C68084B13EA240338BF13461A684E
:1053C00042F002021A600B889BB2038010BD00BF3E
:1053D000240004302C20025028200240074B9A6AF7
:1053E000D20741BF064A5A6002F188325A6046BF6E
:1053F000986A00F001000120704700BF00200250B1
:1054000023016745074BDA6AD20741BF064A9A6013
:1054100002F188329A6046BFD86A00F0010001208C
:10542000704700BF002002502301674508B5FFF711
:10543000D5FF18B9BDE80840FFF7E4BF08BD00007C
:10544000044B9A6A42F001029A62986AC04300F0E3
:105450000100704700200250044BDA6A42F001025A
:10546000DA62D86AC04300F00100704700200250A1
:10547000064BD86910F0010007D0054ADA6002F146
:105480004432DA60D86900F0010070470020025011
:105490003B2A1908F8B50546FBF7DEFA1D4E1E4CEF
:1054A000B2681E4B074614EA220438BF1C46236824
:1054B00013F00B0F1AD1B168194B1A4A1A4812EAA5
:1054C000210238BF1A462168036A01F47E0103F401
:1054D00000030B4315D071681943716013601A0201
:1054E00002D54FF40003036301200EE0691CDED0F7
:1054F000FBF7B2FAC01BA84201D8002DD7D1032078
:1055000003E02368DB0301D40020F8BD4FF48033AF
:105510001360F9E7240004302020024024200250C8
:105520003420025030200240002002502DE9F0418A
:10553000264D04462B780E46012B174644D00123F6
:105540002B7000234FF47A706B60FFF7A3FF50BB02
:105550001F4B204AAC6012EA240838BF984624F05A
:105560000043022B23D139463046FFF7D5FE4FF4D6
:105570007A70FFF78FFFD8F8003024F0304222F025
:10558000040223EA0203C8F80030134B9C420AD1FC
:10559000A968124A124B13EA210338BF13461A684E
:1055A00022F004021A6000232B70BDE8F0810D4B3D
:1055B00024F004029A423946304602D1FFF7CCFE6D
:1055C000D5E7FFF7F3FED2E70220EEE72400043030
:1055D0002C200250282002400600001044200250D7
:1055E0004020024002000010044A4FF47A70D36950
:1055F00043F00203D361FFF74DBF00BF002002500C
:10560000124B134A9968134B13EA210338BF134610
:1056100000F00302032A06D11A6842F4004242F065
:1056200020021A607047C10707D51A6822F00042AD
:1056300022F0280242F028021A608207F2D51A6886
:1056400042F0004242F02802EBE700BF24000430A1
:105650002C20025028200240064B074A9968074B2D
:1056600013EA210338BF13461A6842F008021A6091
:10567000704700BF24000430442002504020024004
:105680002DE9F041DFF8A882044698F80030012B9C
:1056900000F081810123002088F800304FF0802342
:1056A000C8E901034FF47A70FFF7F4FE002840F0D8
:1056B00039812768F90719D5A5696369012D03F0B8
:1056C0000101E26903F0020340F0368131B1994DE6
:1056D000D5F8EC1021EA0201C5F8EC1033B1954978
:1056E000D1F8EC3123EA0203C1F8EC31BA0706D550
:1056F000904A6168536D23F47F430B4353657B07E6
:1057000040F1AE80D4E9021511F001030EBF1A4634
:10571000032205F003038E0742BF05F0040633435E
:1057200042F004024E0742BF05F00806334342F040
:1057300008020E0742BF05F01006334342F0100284
:10574000CE0642BF05F04006334342F040028E06CB
:1057500042BF05F08006334342F080024E0642BF4E
:1057600005F48036334342F480320E0642BF05F41E
:105770000036334342F40032CE0542BF05F48016B2
:10578000334342F480128E0542BF05F400163343C2
:1057900042F400124E0542BF05F07F56334342F0FB
:1057A0007F520E0542BF05F000452B4342F00042F8
:1057B00011F4805518BF0426D4F810C00CBF2E4633
:1057C0000CF0040511F4005F1EBF0CF0080E45EA52
:1057D0000E0546F0080611F4804F1EBF0CF0100EA7
:1057E00045EA0E0546F0100611F4004F1EBF0CF0FE
:1057F000200E45EA0E0546F0200611F4803F1EBF3C
:105800000CF0400E45EA0E0546F0400611F4802FDC
:105810001EBF0CF4004E45EA0E0546F4004611F496
:10582000002F1CBF0CF07F4C45EA0C05C1F30B0C9C
:1058300018BF46F07F46BCF1000F08D0DFF8F4E057
:10584000DEF854C02CEA02021343CEF8543011F4AF
:105850007F2F05D0374A536F23EA06032B43536744
:10586000B90510D5D4E90F316569EA0742BF314E59
:1058700043EA0142C6F8E420AE0742BF2D4A43EA9C
:105880000143C2F8E4313D070AD5D4E90831012BC0
:1058900061D1284AD2F88430DBB20B43C2F884309D
:1058A000F9060BD5236AA16A012B5ED1214AD2F8F1
:1058B000843023F0FF030B43C2F88430BA0606D5C8
:1058C0001C4AE16AD2F894300B43C2F894307B064C
:1058D00010D5D4E90C316569EE0742BF154E43EA95
:1058E0000142C6F8FC20AA0742BF124A43EA01431C
:1058F000C2F8FC313B0615D56269A36B02F00101C9
:1059000002F00202002B3BD029B10A4C591E41F48F
:105910000041C4F8F4102AB1064A013B43F40043A5
:10592000C2F8F431002388F80030BDE8F08100BFF0
:10593000240004300020025029B1184DD5F8EC1095
:105940001143C5F8EC10002B3FF4D0AE1349D1F849
:10595000EC311343C8E6022BA2D1104AD2F88C30A6
:10596000DBB20B43C2F88C309AE7022BA6D10B4A6C
:10597000D2F88C3023F0FF030B43C2F88C309DE744
:1059800011B10649C1F8F430002ACBD00022034BF4
:10599000C3F8F421C6E70220C7E700BF0020025089
:1059A00006230360324B1A6D02F47F4242601A6D87
:1059B00022F47F42C2601A6F02614269511E0129BE
:1059C00030D8012A0CBFD3F8E830D3F8E831DB43F4
:1059D000C361003B18BF01238361254B012A0CBF23
:1059E000D3F8E030D3F8E031012AD9B2C3F307434A
:1059F00003641F4BC1630CBFD3F8F830D3F8F83100
:105A0000012AD9B2C3F30743436340F2C7230360BB
:105A1000174B01630CBFD3F8F030D3F8F03103F02B
:105A20000F038363026A531E012B17D80368012AF0
:105A300043F0180303600E4B0BBFD3F88020D3F85C
:105A4000882022F0FF0222F0FF020BBF4262426276
:105A5000D3F88030D3F88830DBB28362036843F038
:105A600020030360024BD3F89030C362704700BF3D
:105A700000200250034AD36B23F003030343D36394
:105A8000704700BF00200250024BD86B00F00300AB
:105A9000704700BF002002500F4B104A10B59C68A1
:105AA0000F4B800113EA240338BF1346C9071A6855
