:020000040C00EE
:10E000004200DEC04200DEC0000000000000000050
:10E010000000000000000000000000000000000000
:020000040C01ED
:10000000A8620430590E010C456E010C9D66010C6E
:10001000B166010CC566010CD966010CED66010CD8
:100020000000000000000000000000004D0D010C69
:100030004F0D010C00000000510D010C530D010C7F
:10004000550D010C570D010C590D010C5B0D010CE8
:100050005D0D010CB5CD010C5F0D010C610D010CA6
:10006000630D010C650D010C670D010C690D010C90
:100070006B0D010C6D0D010C6F0D010C710D010C60
:10008000730D010C750D010C770D010C790D010C30
:100090007B0D010C7D0D010C7F0D010C810D010C00
:1000A000830D010C850D010C870D010C890D010CD0
:1000B0008B0D010C8D0D010C8F0D010C910D010CA0
:1000C000930D010C950D010C970D010C990D010C70
:1000D0009B0D010C9D0D010C9F0D010CA10D010C40
:1000E000A30D010CA50D010CA70D010CA90D010C10
:1000F000AB0D010CAD0D010CAF0D010CB10D010CE0
:10010000B30D010CB50D010CB70D010CB90D010CAF
:10011000BB0D010CBD0D010CBF0D010CC10D010C7F
:10012000C30D010CC50D010CC70D010CC90D010C4F
:10013000CB0D010CCD0D010CCF0D010CD10D010C1F
:10014000D30D010CD50D010CD70D010CD90D010CEF
:10015000DB0D010CDD0D010CDF0D010CE10D010CBF
:10016000E30D010CE50D010CE70D010CE90D010C8F
:10017000EB0D010CED0D010CEF0D010CF10D010C5F
:10018000F30D010CF50D010CF70D010CF90D010C2F
:10019000FB0D010CFD0D010CFF0D010C010E010CFE
:1001A000030E010C050E010C070E010C090E010CCB
:1001B0000B0E010C0D0E010C0F0E010C110E010C9B
:1001C000130E010C150E010C170E010C190E010C6B
:1001D0001B0E010C1D0E010C1F0E010C210E010C3B
:1001E000230E010C250E010C270E010C290E010C0B
:1001F0002B0E010C2D0E010C2F0E010C310E010CDB
:10020000330E010C350E010C370E010C390E010CAA
:100210003B0E010C3D0E010C3F0E010C410E010C7A
:10022000430E010C450E010C470E010C490E010C4A
:100230004B0E010C4D0E010C4F0E010C510E010C1A
:10024000530E010C550E010C570E010C40B1521803
:1002500005D2C068904234BF0020012070470020C2
:10026000704700000B4B30B51A6800230A4C9342CC
:1002700003DB06D14FF0FF3008E01D01655D8542CC
:1002800005D10020044A02EB03130B6030BD01339B
:10029000EDE700BFE0BE010CE4BE010C70470000BA
:1002A0002DE9F743984683680546B3F5001F0C46D1
:1002B000174604D33F4B1A780AB901221A704246F6
:1002C00021462846FFF7C2FF002870D06B68CDF8A2
:1002D00000805B689847384BC0F3410013F82090CA
:1002E000C9F1000303EA040634EA030329D0D5E97F
:1002F000013001225B6901A930449847002815DBD1
:10030000002204EB08039B1B4B4524BFA6EB04080B
:10031000C844A31BD6B2B04502F1010209D8009B24
:10032000A3EB08030093009B6BB9002003B0BDE86A
:10033000F08306F108016944194411F8041CB95509
:10034000E8E70026EFE7009B4B45B3FBF9F81CD22A
:1003500009FB08F8AB6808EB040018446B6801223D
:100360005B6901A9304498470028DFDB002247443D
:100370000099D3B2994202F10102D6D9F918083393
:100380006B4413F8043C8B55F2E7A8686B68204473
:1003900042465B69B919304498470028C6DB009B88
:1003A00009FB18330093009B002BD1D1BDE74FF020
:1003B000FF30BBE7DC000430D4BE010C2DE9F04F68
:1003C0008DB002921A4605460F461E4621F00F0ACE
:1003D00001F00F08FFF73AFF28B94FF0FF33184636
:1003E0000DB0BDE8F08F6B680DF1200B5B6898478E
:1003F000584BC0F3410053F820305A460093514601
:1004000043462846FFF74CFF0028E6D106F10F03CC
:10041000434423F00F03AAEB0709A9EB06091A4688
:100420005146284601939944FFF710FF0028D4D085
:100430004B46284604AAB919FFF732FF03460028A5
:10044000CBD1B8F1000F63D14446B442C7D2A6EB7A
:10045000040A3AF00F0A10D0A86869689DF80020D5
:100460003844D1F818B0BAFBF2F202992044039351
:10047000D8470028B1DB039B5444B9F1000FAED03C
:1004800008A822460023014696420AD9DDF808C092
:1004900001331CF802C0102B00F801CB02F101025D
:1004A000F2D1964299D1002204A8102B01D04A45DE
:1004B00049D108F11008102BA0448ED14A458CD1A7
:1004C000019A424589D1A8689DF800206D6838449A
:1004D000B3FBF2F2AD692044A847C3177FE7029A45
:1004E000125D01340BF8012001310F2913D8B442F9
:1004F000F5D1002204A80DF1200C0F2920D84A457F
:100500000BD010F801EB013201F80CE00131F4E7F7
:1005100041460446E9E7B442EBD0102903937FF447
:100520005CAFD5E901309DF80020D3F818B0B1FBDD
:10053000F2F2504408A9D8470028039B85DA4CE71B
:100540004A45EAD049E710F8016B0132CE54013335
:10055000ABE700BFD4BE010C2DE9F04105460E46C5
:100560009046FFF773FEA8B16B689B6A98470468D2
:10057000074664B10020BDE8F081D5E90130DB69B0
:10058000304498470028F6D1BB681C441E444445BB
:10059000F3D3EFE74FF0FF30EDE708B543689B6A10
:1005A0009847006908BD002108B5084600F018F911
:1005B000FEE70346002030B5013A00D230BD1D7879
:1005C0000C78A54202D008B9281BF5E701330131A8
:1005D000F2E7F0B505460C0444EA01640C4344EA32
:1005E000012462B913465619032A0ED823F00302D8
:1005F0002A4403F0030313449A420AD1F0BDAB0727
:10060000F0D005F8011B013AEBE7B71A3C60043A59
:10061000EAE702F8011BEFE7034670B56AB9002468
:100620001519032D13D822F0030421441C44002380
:1006300002F003029A4210D170BD41EA0304A407FC
:10064000EDD011F8014B013A03F8014BE6E70D1B21
:100650002E681D1B2E60043CE2E7CD5CE55401339F
:10066000E8E7000010B507F017FD28B1034B1C6840
:1006700000F026FD204610BD014BF8E70C000430C9
:100680001000043037B50C4631B900F019FD0E4B9F
:100690001D68284603B030BD031DF6D8C31C052BCA
:1006A000184628BF0520042BEFD8042101AA07F023
:1006B000F5FC30B1044B1D68019B236000F000FD88
:1006C000E7E7024BF7E700BF0C00043010000430EE
:1006D000031D08D8C31C052B184628BF0520042B72
:1006E00001D807F0E3BC4AF2C53070477FB50E462B
:1006F000054618B94FF0FF3004B070BD0029F9D09D
:10070000012001A9FFF7AEFD044610B9019B9E42EE
:1007100009D0022001A9FFF7A5FD0028EAD1019B1D
:100720009E42E7D101246869A96902AB03C308228C
:1007300002ABA101022000F0F9FBDDE707B50821BB
:100740006A46022007F04AFF082200216846FFF7A8
:1007500040FF03B05DF804FB13B5044668B1042103
:10076000072001AA07F03AFF28B9019B012B8CBF93
:1007700000230123237002B010BD4AF2C530FAE70E
:1007800008B520210C20084A07F0CCFF18B14CF224
:100790005A32904206D1BDE8084020210D20034A7C
:1007A00007F0C0BF08BD00BF38BF010C58BF010C27
:1007B00007B50421072001AA07F010FF48B9019BE3
:1007C0003BB908F026F820B9FFF7DAFF08B908F0BE
:1007D00022F803B05DF804FB002070477047FEE785
:1007E0002DE9F3414FF400514F4802F0DDFF07F0CF
:1007F0007BFB4E494E4808F01DF805F0B5FE044657
:1008000028B14C4808F016F8204607F047FB07F0DF
:10081000AFFE044608B14848F4E70DF10300FFF7C6
:100820009BFF044608B14548ECE79DF803302BB127
:10083000FFF7BEFF044608B14148E3E7FFF77EFF3C
:1008400000F036FC0546FFF70DFF0446284600F091
:1008500053FC3C4E3368A34201D03B48D2E707F03B
:100860001BFB044608B13948CCE702F00DFD0446F5
:1008700020B10146364807F0DDFFC5E701242046D8
:1008800007F013FB002838D0204607F00AFB054686
:10089000F0B9DFF8C0800C2200212F48FFF799FE45
:1008A00000F006FC214607462B4801F093F8054668
:1008B000384600F021FC3368AB420FD1204607F0E8
:1008C000F2FA0546C8B12146244803E00024D6E7E1
:1008D0002146234807F0AEFF284696E7214807F057
:1008E000A9FF204607F0E3FA336818B1D8F80000F2
:1008F00083428AD1AB42CED1E0E7002CE6D1164D3F
:1009000001A9287900F038F82B681A691C89920629
:100910005BBFAB68019A5B689B181C4407F000FB47
:1009200020460CF00BFA00BFEC0004303CC8010C70
:1009300078BF010C7DBF010C94BF010CB7BF010C47
:10094000DCBF010C10000430F2BF010C22C0010C0E
:100950003EC0010C0C000430E0000430AEC0010CBD
:100960006AC0010C8EC0010C0020704708B502F06F
:1009700065FD002008BD0000642808B507D00146C9
:100980006422054807F056FF4FF0FF3008BD4FF0D6
:10099000406300200B60F9E7D3C0010C012909D0A6
:1009A00002290CD069B978B1012808BF022018BF0C
:1009B000FF20704750B1012808BF0420F7E7052049
:1009C00070474FF0FF307047012070470320704799
:1009D00008B543689B6A9847007D08BD436870B5B9
:1009E0009B6A16460D46044698478368B5FBF3F5A7
:1009F00063689B6A984783686B43336063689B6A4C
:100A0000984783680020736070BD00002DE9F341B2
:100A1000D1F8008006460D46C0B201A91746FFF77F
:100A200021FC044688BB2B68CBB103464FF4005031
:100A3000019AD1682B6009B1984506D8984510D223
:100A40003146134807F0F6FE09E0B1F5005F0FD21A
:100A50004FF400533146D2680E4807F0EBFE4FF0DA
:100A6000FF340198FFF71AFC204602B0BDE8F08180
:100A70004FEA433C47F833C02B68A1F5005107EB20
:100A8000C30358602B680133D4E74FF0FF34EBE722
:100A90002CC1010CF6C0010C07F035BB2DE9F74F56
:100AA00090461F4A064615680F464540ED43002B09
:100AB00014BF9A468A4600240C9B04F104094B4556
:100AC00005D20C9B9C4220D303B0BDE8F08F0422DA
:100AD00008EB04010DEB0200FFF79EFD019A0AEB03
:100AE000040106EA020B04220DEB0200FFF794FD5D
:100AF000019A38192A4042EA0B02019204220DEBB6
:100B00000201FFF789FD4C46D6E718F804301AF8C1
:100B1000042033402A4013433B550134D1E700BF42
:100B2000F0200430054B00201A684FF0E023013A12
:100B30005A61052298611A61704700BF2000043095
:100B40004FF0E02130B50E480E4C8A6905682368E5
:100B500093422B444FF47A753CBF49695B180A49AC
:100B60009B1A09680360B1FBF5F19942074B04D267
:100B7000002519680560013119601868226030BDD0
:100B8000F8200430FC20043020000430F42004302D
:100B900038B570B30368190701D4002038BD8369E4
:100BA000154C9BB1D4F8F03043F08063C4F8F030BA
:100BB000FFF7C6FF0546D4F8F0301A01EDD4FFF771
:100BC000BFFF401B0228F6D90320E7E7D4F8F03036
:100BD00023F08063C4F8F030FFF7B2FF0546D4F885
:100BE000F0301B01D9D5FFF7ABFF401B0228F6D927
:100BF000EAE70120D2E700BF000C0254F8B5036811
:100C0000054698014FD5314C636A43F00103636296
:100C1000FFF796FF0646636AD90746D52C4CD4F8F1
:100C2000F03013F4407320D0D5F8FC2093421CD050
:100C3000D4F8F020D4F8F03022F4407143F480333B
:100C4000C4F8F030D4F8F030D20723F48033C4F87D
:100C5000F030C4F8F01008D5FFF772FF41F2883782
:100C60000646D4F8F0309B0726D5D5F8FC30184955
:100C700003F44072B2F5407F24D1C869154A20F4CC
:100C80007C5002EA13120243CA61114AC3F30B03F8
:100C9000D2F8F01021F44071C2F8F010D2F8F01040
:100CA0000B43C2F8F030002005E0FFF749FF801B3E
:100CB0000228B0D90320F8BDFFF742FF801BB842DD
:100CC000CFD9F7E7CA6922F47C52DDE70008025465
:100CD000000C0254CFFFFF0013B5194C06F04AFD7B
:100CE000D4F8F030174843F01803C4F8F030FFF799
:100CF0004FFF08B10CF05EF81348FFF77FFF08B113
:100D00000CF058F80421D4F8F030084643F40043BE
:100D1000C4F8F030D4F8A830002243F40013C4F82B
:100D2000A830D4F8A83003F400130193019B06F017
:100D30003DFE042002B0BDE8104006F067BE00BFD3
:100D4000000C025458C9010C48C8010CFEE7FEE72C
:100D5000FEE7FEE7FEE7FEE7FEE7FEE7FEE7FEE76B
:100D6000FEE7FEE7FEE7FEE7FEE7FEE7FEE7FEE75B
:100D7000FEE7FEE7FEE7FEE7FEE7FEE7FEE7FEE74B
:100D8000FEE7FEE7FEE7FEE7FEE7FEE7FEE7FEE73B
:100D9000FEE7FEE7FEE7FEE7FEE7FEE7FEE7FEE72B
:100DA000FEE7FEE7FEE7FEE7FEE7FEE7FEE7FEE71B
:100DB000FEE7FEE7FEE7FEE7FEE7FEE7FEE7FEE70B
:100DC000FEE7FEE7FEE7FEE7FEE7FEE7FEE7FEE7FB
:100DD000FEE7FEE7FEE7FEE7FEE7FEE7FEE7FEE7EB
:100DE000FEE7FEE7FEE7FEE7FEE7FEE7FEE7FEE7DB
:100DF000FEE7FEE7FEE7FEE7FEE7FEE7FEE7FEE7CB
:100E0000FEE7FEE7FEE7FEE7FEE7FEE7FEE7FEE7BA
:100E1000FEE7FEE7FEE7FEE7FEE7FEE7FEE7FEE7AA
:100E2000FEE7FEE7FEE7FEE7FEE7FEE7FEE7FEE79A
:100E3000FEE7FEE7FEE7FEE7FEE7FEE7FEE7FEE78A
:100E4000FEE7FEE7FEE7FEE7FEE7FEE7FEE7FEE77A
:100E5000FEE7FEE7FEE7FEE707B52C4B83F30A88C3
:100E600005F0E4FA06F086FC294B2A49D3F8F02075
:100E700042F40042C3F8F020D3F8A82042F4001254
:100E8000C3F8A820D3F8A82002F400120192019A16
:100E90000A6B8AB1D3F8F02042F48032C3F8F02014
:100EA000D3F8F02022F48032C3F8F0200B6B002B33
:100EB000FCD10122184B1A60154A1849136843F4F3
:100EC00080531360164B8B4212D30020154B1649EA
:100ED0008B4218D3FFF767FB186850F82240586818
:100EE00040F82240013298688242F5D30C33EAE799
:100EF0000022F8E71C6844F8220001325C68A24234
:100F0000F8D30833E4E70022F8E700BFA442043036
:100F1000000C0254007C005400210430C4BE010CBB
:100F2000ACBE010CC4BE010CD4BE010C2DE9F74FC0
:100F30009146002282460C46984601921BB9032036
:100F400003B0BDE8F08F07F069FC2F4F054697F816
:100F500000B0BBF1000F10D107F060FC064607F0AF
:100F600061FC594602463046FFF733FB42F2160356
:100F70002B8004236B8001233B7007F04FFC6F88AC
:100F8000074407F04BFC061DBE4225D3C4F30B03F8
:100F90001FFA89F46E88ADF806400434A4B22644E2
:100FA00043EA0A30B6F5803FADF80400C7DA07F02F
:100FB00039FCB6B2864225D8042238460DEB020130
:100FC000FFF72AFB4A464146381DFFF725FB6B8891
:100FD00000201C446C80B3E7042231460DEB020074
:100FE000FFF71AFBBDF80430BAEB133F03D1C3F38C
:100FF0000B039C4204D0BDF8063004331E44C3E703
:1010000002209DE701209BE7042104300023F0B576
:10101000B5B0009305464FF6FF7305A8174601F0DB
:10102000A7F9044618B14FF0FF3035B0F0BD0646C1
:101030000DF10E0303AA04A905A801F0E5F90028A3
:10104000F1D1BDF80E30602B0ED1BDF80C30842BE1
:10105000E9D83846049913AAFFF722F90028E2D10B
:101060000124BDF80C60E3E7102BE1D1BDF80C3092
:10107000202BD8D8384604990BAAFFF711F900287D
:10108000D1D1002CCFD01F2ECDD9A6F1200013AC8A
:1010900004900BA920222044FFF7BEFAA9012346A1
:1010A000324641F03F010120FFF740FFBDE700005D
:1010B000024B1868421C1A60704700BF08210430B8
:1010C000024A1368013B1360704700BF08210430D7
:1010D000FFF7FEBFFFF7FCBFFFF7FABFFFF7F8BF50
:1010E000FFF7F6BFFFF7F4BFFFF7F2BFFFF7F0BF60
:1010F000FFF7EEBFFEE7000008B5034B1B68834215
:1011000001D0FFF7E5FF08BD082104302DE9F843C1
:10111000582390F8C85006465D432C2303FB015525
:1011200005440C469046D5F8209001F092FB10B98A
:101130002B69DB060BD51CB14946304600F074FC28
:10114000164B1D68FFF7BCFF2846BDE8F883214613
:10115000304601F08BFBA0B9114B1D68114B1B6889
:10116000AB42EFD01049114B1148002C18BF194663
:1011700007F060FB002CE3D00121484601F064FB3E
:10118000DEE7FFF795FF224607464146304601F06D
:10119000B5FB05463846FFF7AFFFDFE70800043030
:1011A0000C0004301000043052C1010C5AC1010C73
:1011B00064C1010C004870470C2504304379012BB1
:1011C00007D10368012B04D10079431E58425841CE
:1011D000704700207047000073B50D46002104469B
:1011E00090F8C8202846CDE90011FFF7E7FF20B3AB
:1011F00058235A43184EA358B34203D1204601AA9C
:1012000001F0E1F9582294F8C83002FB0343DB6A8D
:10121000B34204D16A460121204601F0D4F9DDE948
:1012200000239A4284BF13460192AB6029462046B0
:10123000019A00F047FE02B070BD1146204601F051
:1012400073F9064605F1080101F09EF9AB683046D6
:101250000193FFF723F8E9E73DB8F396F0B58B79F2
:1012600004460F4685B043B3D0F8B050284601F08D
:101270004BF994F8C8300646303354F823103846FA
:1012800000F080FD34182846FFF787F90646284607
:10129000FFF79EFB102201466846FFF79AF93B795B
:1012A0006A468DF80030214633462846FFF786F817
:1012B000003818BF012005B0F0BD582290F8C830A2
:1012C00002FB03031D6AD1E72DE9F8430E46904661
:1012D00099460024099FBC4201D300200EE03D1B2B
:1012E000B5F5806F28BF4FF4806530462B460A4A1B
:1012F00004EB0901FEF7D4FF10B10120BDE8F8832B
:1013000008992B464046044A6118FFF757F8002811
:10131000F3D12C44DFE700BF0C2104302DE9F04F5E
:1013200095B004460D4601F095FB002800F06C8155
:10133000B74807F07FFAFFF7CBFE231893F8C910E0
:1013400000293ED1204601F0C1F948BB00222046C9
:10135000114601F0B1FAE8B9204600F029FF002853
:1013600008DD012194F8C820AA4B03F8321003EBE2
:10137000C2035860204600F010FD58B10023A64A71
:1013800020460AA9CDE90B230A960D9300F08AFBAB
:10139000804690B394F8C830234483F8BC6006E0DC
:1013A00094F8C8300128234483F8BC60CED194F867
:1013B000C800231893F8BC30023B022B98BF47F0BB
:1013C00001070130C0B2012884F8C800B5D9002F48
:1013D00000F07A8100232C274FF0580884F8C83099
:1013E000E21892F8C910002900F020810133DBB225
:1013F000012B84F8C830F3D966E10AA8FFF7DEFEB6
:1014000080F001010AAA2046C9B201F055FA28B1BC
:101410004146204601F01DFA0028BBD00AA8FFF77C
:10142000CDFE002851D194F8C83053BB20460AA9FC
:10143000FFF7D2FE94F8C8009DF82F30221882F8EA
:10144000BC30033B012B08D800F0A2FB28B1FF22DF
:1014500094F8C830234483F8BC209DF82F30023B19
:10146000022B1FD894F8C80000F07AFBD0B1FF22FD
:1014700094F8C830234483F8BC20684807F0DAF9B0
:10148000FEE794F8BC20042A04BF012284F8BC20A3
:10149000012BCBD094F8BD30042BC7D1012384F8A5
:1014A000BD30C3E794F8C830234493F8BC30FF2B19
:1014B000E3D000222046114601F0FEF9012294F803
:1014C000C830234483F8BC2071E79DF82F80B8F121
:1014D000010F61D194F8C80001F034FC831E022B87
:1014E000814617D8FFF7E4FD414682460AAA204606
:1014F000FFF70CFE80465046FFF7FEFD484B1B6889
:10150000984507D0474B1868804514BF4FF0050930
:101510004FF0010994F8C8305FFA89F0E21882F8B8
:10152000BC00002B66D1234493F8BC30012B7FF420
:101530003EAFFFF7BDFD002181460AAA2046FFF716
:10154000E5FD80464846FFF7D7FD0021204601F023
:1015500080F9002853D0582294F8C83002FB034386
:10156000D3F82CA0FFF7A4FD012181460AAA20464A
:10157000FFF7CCFD80464846FFF7BEFD2A4B9A4553
:101580007FF415AF264B1B6898457FF410AF94F895
:10159000C8300422234495E7FFF78AFD01218146E4
:1015A0000AAA2046FFF7B2FD80464846FFF7A4FD91
:1015B0001B4A94F8C8301268904504EB030216D019
:1015C000052182F8BC10002B3FF4F1AE94F8BC204A
:1015D000042A04BF012284F8BC20012BA3D094F874
:1015E000BD20042A9FD1012284F8BD209BE79DF8ED
:1015F0002F0094E701289CD00428E7D1D7E6084BB8
:101600001B689845A7D1D2E607460126DBE600BF56
:1016100089C1010C0C25043001010001B7C1010C86
:1016200010000430080004303DB8F39692F8BC2056
:101630000EA802F0FB02012A14BF0121002108FBC1
:1016400003F207FB012214BF2C2100215B4203F0AF
:101650005803194401232244166A21440093324658
:10166000402300F085FE58BB00230DF1160206A9A9
:101670000EA800F0C9FE002822DB40F09C81BDF8D6
:1016800016300C2B1CD13046069907AAFEF708FE2F
:10169000B0B99DF81C30012B12D8E21892F8BC208A
:1016A0005B42023A022A94BF2C20002003F0580328
:1016B0001433184408A9204401F048F90028D3DA6B
:1016C00040F20113A4F8BC3000205827DFF8EC8268
:1016D000012884F8C80024D90023B94EB74FDFF899
:1016E000E4820793012B84F8C83040F2E980079A1E
:1016F000022A7FF420AE002384F8C83094F8C93061
:10170000002B00F04A81012394F8CA1084F8C830F5
:10171000002900F0428184F8C820A84BD3F800903B
:10172000EBE0221892F8C960002E40F0C680012339
:101730000A9340F20113ADF82C3092F8BC30CDE999
:101740000C66042B8DF82E608DF82F3007D8012BF6
:101750000DD800F0A980FF2382F8BC30A4E0052B4F
:10176000F9D100F015FA002800F09E8042E0FFF762
:101770009FFC314682460AAA2046FFF7C7FC8146F5
:101780005046FFF7B9FC3146204601F062F818B91F
:10179000D8F80030994569D00021894694F8C830BE
:1017A00007FB0343D3F820A0DE6CD3F828B0CB4569
:1017B00027D1002301915246314620460093FFF77E
:1017C00083FD014648B90122204601F0D5F8814643
:1017D00058B301467C4807F02DF894F8C800231848
:1017E00093F8BC60F31E012B5BD800F0D1F90146E1
:1017F000002840D0FF2294F8C830234483F8BC204E
:1018000052E094F8C830504607FB03435B6A03EB91
:10181000C9035A680023CDE9021209F1010900F059
:10182000CCFFDDE902121144C1E74FF0580A94F8E9
:10183000C83001460AFB03431A6D0346526830461E
:1018400000F0FAFF94F8C8200AFB0242D2E91432F1
:10185000013A53F83200196803EBC20C411A4B46A7
:101860003046DCF8042000F0E7FFB6E720460AA97E
:10187000FFF7B2FCB1E7032E0ED10122204601F0A2
:101880007BF8014640B1504806F0D4FFFF2294F89F
:10189000C830234483F8BC2094F8C80000F060F9F5
:1018A00061E7023E012EF7D994F8C800231893F897
:1018B000BC30FF2B01D145483BE50130C0B207E702
:1018C000234493F8C9208DF818209DF8181001F0D2
:1018D000FF0239B1079B0133079394F8C8300133F5
:1018E000DBB2FFE693F8BC30012B14D01146204642
:1018F00000F0E2FF78B1D6F80090102200210AA88B
:10190000FEF767FE204601F07FF8FFF7D9FB484657
:1019100015B0BDE8F08FFFF7CBFB002281461146E2
:101920002046FFF7F3FB82464846FFF7E5FB3B689E
:10193000D6F800909A45E0D1CA45DED0D8F80030FC
:101940009A45DAD094F8C830BBB1012B14BFFF2000
:1019500002200EA901F0D0F90028CCD19DF8383032
:10196000012B0CD19DF83B30012B08D000212046E3
:1019700001F01AF80028ADD0BDE70120E9E7002208
:101980002046114600F0F8FF02460028EED094F8F9
:10199000C8100F4806F04EFFADE7582202FB034285
:1019A000126A5B42517803F058032971926823440C
:1019B000AA602B60B1E694F8C83017E51000043037
:1019C0000C00043008000430C0C1010CB7C1010C88
:1019D000F9C1010C0129F8B506460C4605D9FFF7F7
:1019E0006FFB0E4B1C682046F8BD022201210C48FB
:1019F000FEF7EFFD00230B4F3C4484F8C930FFF79E
:101A000057FB314605463846FFF788FC0446284612
:101A1000FFF772FBFFF754FBE5E700BF0C00043053
:101A2000E52504301C25043013B50C4690F8C83069
:101A300001AA303350F82310204600F0A2FE0028FF
:101A400009DB0199E26801232046521A00F0F4FEF6
:101A5000C00F02B010BD0120FBE7582373B5154637
:101A600090F8C8600C4603FB06006946C06C01F0A4
:101A7000EDF8E979012903D03246204601F050F90A
:101A80009DF80330012B02D1204601F0D1F8A9685E
:101A9000204600F087FD204601F074F8002002B0D7
:101AA00070BD000073B52C4B06460C4600F0CCF917
:101AB0000128E06006D0022845D0002841D0072048
:101AC00002B070BDD6F8B05022463146284600F02C
:101AD000FFF80028F4D1284601F010F80123014650
:101AE0000DF103022846FEF7DBFB98BB01222846D6
:101AF0000DF1030101F016F810B101238DF8033048
:101B00009DF80330204603F00F03E371FFF756FB07
:101B1000B8B9019001A92846EE6800F035FD019999
:101B200020B94B1E033301D88E420AD20B4806F06F
:101B300081FE0123236003F1012363600023C4E9D4
:101B400002330020BCE7582296F8C83002FB03633A
:101B50001D6AB9E70120B3E7A8C9010C38C2010C1E
:101B600013B588B1012814BFFF20022001A9FEF798
:101B700079FB58B9019801F03FF904460198FEF746
:101B80008DFB204602B010BD0120EFE70124F8E7ED
:101B90001FB5D8B1012814BFFF20022001A9FEF70C
:101BA00061FBB8B9019802A901F050F8044678B970
:101BB0009DF80B30032B03D1019801F039F804464E
:101BC0000198FEF76BFB204604B010BD0120E5E74D
:101BD0000124F5E70124F6E75822F8B590F8C8305B
:101BE00002FB0306481E0330B26A736D01D802B1CE
:101BF0002BB91C4806F01EFE4FF0FF30F8BD002444
:101C00002546274620468D4201D3A5420DD290425B
:101C100003D3154806F00EFEEEE7D6F824C00CEB11
:101C2000C00CDCF804C0013065448C4201D3A542ED
:101C300015D99F4202D31A460C48EBE7D6F850C09C
:101C40008D420CEBC70CDCF804C007F101076444BB
:101C5000DDD3A142D7D8A542D5D10138CEE78D42F8
:101C6000F9D2D4E76AC2010CA2C2010CD8C2010C9D
:101C700010B5582490F8C83063432C2404FB01337A
:101C8000C118886A4B6A013803EBC0014968043304
:101C9000914200D310BD013853F830402144F7E79A
:101CA00038B504460D46FFF7E3FF582294F8C830D4
:101CB00053432C2202FB05310C44626A02EBC00341
:101CC00052F830105B6810680B44181A38BD0000D9
:101CD0002DE9F74F88460746164600F015FC3946B1
:101CE000834698F8C80000F0EFFBB0F1000A42DB31
:101CF00000242546A146544513D1B9F1000F0CD05C
:101D0000002D18BF2C460323B4FBF3F35A1C03EB3E
:101D10004303E31A013332603371002003B0BDE89E
:101D2000F08F98F8C8303846303358F823100DF14A
:101D30000702012301FB04B1FEF7B2FA00281CDB05
:101D4000012238460DF1070100F0ECFE38B1B9F17F
:101D5000000F02D0002D08BF25460134CBE7B9F1B2
:101D6000000F05D0002DF8D0054806F063FDC7E749
:101D70004FF00109F1E70720D0E70120CEE700BFCF
:101D80000EC3010C10B5036801EB41045A1E037920
:101D9000013B594304FB021010BD58232DE9F043C9
:101DA00090F8C85003FB0505D5F82880B8F1960FC8
:101DB00048D8D5F854E0BEF1960F43D8D0F8B030EB
:101DC000D3F80C90002319461C469C4618461E4624
:101DD0001A4644450BD3714509D3444532D1714568
:101DE00030D1A0EB0C0358425841BDE8F083B24219
:101DF00013D16F6A07EBC4077F6801343A442F6D33
:101E000007EBC1077F6801313E44B242E1D14A4548
:101E10001044944416D80023D9E709D26F6A022BE4
:101E200007EBC4077F683A440CD001230134ECE788
:101E30002F6D012B07EBC1077F683E4402D00223C0
:101E40000131E2E70020D0E75822F0B5054690F8CE
:101E5000C83085B002FB030302A9186A184C00F0D1
:101E6000F5FE6946D5F8B00000F0F0FE00262746E2
:101E70009DF80810207800F047FED0B19DF80010C2
:101E8000607800F041FEA0B1A378042B03D09DF848
:101E90000A209A420DD107EB8607F878012806D16F
:101EA0009DF8043095F8C8209B1A5842584105B057
:101EB000F0BD0136042E04F10404D9D10020F6E768
:101EC000B1C9010C2DE9F04F0D468DB01146044605
:101ED0001646FFF781FEB0F1FF3F824606D131463C
:101EE000B1480DB0BDE8F04F06F0A4BC0023069346
:101EF000582294F8C830D4F8B080029302FB034310
:101F00005A6A0023D8F80C10101D1F4650F83A30BA
:101F10003B44994203D3BAF1010AF6D21F462B681B
:101F20000699013B8B4200F21F815826029B06FB5B
:101F30000343D3F82090DB6C03930AF1010352F8BA
:101F40003330049313680593DDE90432A3EB020BED
:101F5000029B303354F8230000F00AFC00210246B3
:101F600007902046FFF784FE94F8C83007EB0B017A
:101F700006FB03435A6A089052F8303012689B1AE5
:101F8000994240F2E880059BD9F80C6040461E4417
:101F9000049BF61A079BF61A00F0B6FA864228BF91
:101FA00006462B68012B40F0D880BB1B18BF0123CD
:101FB000AB712B79012B40F0D280002340461946AB
:101FC000D8F80C2000F0F9FB2B68012B17D12A461A
:101FD00041462046FFF741FDAB7983B9494620468B
:101FE0000993FFF721FD2A4649462046FFF735FDB4
:101FF000099B40461946D8F80C2000F0DEFB002370
:1020000042460399009320465B460196FFF75CF930
:1020100029462046FFF722F902232B7118B1634AA3
:102020001368013313602B68012B09D120460399F3
:102030000993FFF7F9FCAA79099B002A40F09F80D9
:102040003A4622B100235946039800F0B6FB5B469E
:102050004946039A2046CDE900B6FFF735F92946EF
:102060002046FFF7FBF803232B7118B14F4A136882
:1020700001331360AB7993B149462046FFF7D4FC96
:10208000582294F8C83002FB03435B6A059A1F6824
:10209000D71B049ABF1A089A53F832301F442FB145
:1020A00000233A465946484600F087FB00234A463B
:1020B00041462046CDE900B6FFF706F9AB7983B378
:1020C000404600F021FA94F8C8205E44303254F8BB
:1020D000222003465200019241464A46204600967D
:1020E000FFF7F2F818B1314A136801331360404624
:1020F0000AA900F0ABFD9DF82B30012B02D1484618
:1021000000F096FD9DF82910012903D04846029A57
:1021100000F006FE4846A96800F044FA484600F080
:1021200031FD0023AE792946AB712046FFF796F8C2
:102130002B6801332B6001232B7118B11B4A1368E4
:102140000133136086B1012300214046D8F80C20EA
:1021500000F072FB08E03E4623E7002328E7022B4D
:102160003FF461AF032B85D0069BBAF1FF3F03F12B
:10217000010306937FF4BCAE0DB0BDE8F08F1946A5
:10218000079A2046FFF774FD582294F8C830059945
:1021900002FB03431B6D1A6853F830308A1A049906
:1021A000521A1A444DE700BF2EC3010CE825043033
:1021B000D0F8B0302DE9F0475821D3F80C90002327
:1021C00090F8C8E0044601FB0E019C4618461E46E6
:1021D000D1F82880D1F854A01D461A46C44527D30B
:1021E000504525D30EF1300E54F82E0000F0C0FA01
:1021F000002105460246371A2046FFF751FD2A46C0
:10220000804601212046FFF74BFD94F8C830AD1BF6
:10221000303380452CBF45442D1854F8230000F07E
:10222000ACFA85422CBF0020401B381ABDE8F0876D
:10223000AA4213D14F6A07EBCC077F680CF1010C5F
:102240003A440F6D07EBC0077F6801303D44AA4256
:10225000C4D14A45164417D80023BDE70AD24F6AB5
:10226000022B07EBCC077F683A440DD001230CF119
:10227000010CECE70F6D012B07EBC0077F683D44B5
:1022800002D002230130E2E70020CFE72DE9F74337
:1022900004460D4690461F46ABB31846FEF78EFF28
:1022A00088BB94F8C810204600F03EF901A9814689
:1022B00000F06AF906464846FDF7F0FF002E52D1BD
:1022C00001992046FFF788FC411C18D0582231465E
:1022D000D4F8B030D3F80CC094F8C83002FB0343F4
:1022E0005B6A0433002653F830201644B44501D30A
:1022F0000138F8D2421C01F10101F3D131B9019941
:102300001A4806F097FA022D07D117E03B685A1ECB
:102310008A420CD3B5FA85F56D09582294F8C83075
:1023200053432C2202FB05331C44206A08E08B42F5
:10233000E9D1012D0FD13B79012BEED9D4F8B000B2
:10234000202342460021FDF7ABFF003818BF0120D3
:1023500003B0BDE8F083002DD5D13D79022D94BFA7
:1023600000250125D9E70120F2E700BF38C2010CA2
:102370002DE9F7430E4617469946044628B94FF013
:10238000FF38404603B0BDE8F0830029F7D0002AAB
:10239000F5D0CB680D8938461D44042329460DEB42
:1023A0000302FDF77DFF80460028E8D146F60812BB
:1023B000BDF804107389914223D1BDF806109942EB
:1023C000DDD1042338460DEB03022944FDF768FFF5
:1023D0000028D4D146F60713BDF804209A42CED186
:1023E0009DF82830C4E90067A4F80890A3727389A7
:1023F000BDF806202B44E360043513446361256176
:10240000BFE7002BE6D0BAE72DE9F7430F46904629
:102410001E46044620B94FF0FF3003B0BDE8F083FC
:102420000368002BF7D04368002BF4D04FF6FF79F8
:10243000D4E90413994215D223685B8923B1E36878
:102440008B4204BF04312161042360680DEB030259
:10245000FDF726FF0028DED1A37A256923B1E368C2
:10246000AB4201D80120D8E72189BDF806204945B3
:1024700002F1040303D0BDF804C08C450BD116B1A2
:10248000BDF80410318004353D60A8F800202269B1
:102490001A442261C1E72B442361C9E738B5002300
:1024A000934201D1064B04E0C55CCC5CA54205D04B
:1024B000044B1C68FEF704FE204638BD0133EFE7ED
:1024C000100004300C0004300B78052B06D088B1C6
:1024D000012808D1022B03D004220EE0032070470C
:1024E0004FF4E1707047FF2B0CBF4FF4E1704FF0D9
:1024F000FF307047012BF3D0032293420CBF4FF4FF
:10250000E1704FF0FF30704710B50446FEF745F814
:102510002378052B04D100F030F9E368181A10BDB8
:1025200000F026F9F9E7000070B5D0F8B03086B0B9
:10253000009358236E46002503FB0100036A0193B4
:1025400056F8044B02AAE168102320461039FDF723
:10255000A7FE024638B12178094806F06BF900243D
:10256000204606B070BD1022064902A8FEF721F8E9
:102570000028F5D06B1C022B4FF00105F0D0DFE7EF
:1025800050C3010CD4C9010C70B50D46044600F0CF
:10259000B5FA2A46A0F1100104232046BDE8704098
:1025A000FDF77EBE13B50446019100F0A7FA04239F
:1025B000A0F110010DEB0302204600F003FB02B076
:1025C00010BDFFF7F5BD2DE9F34717462C224FF05C
:1025D000580802FB01F690F8C830044608FB036374
:1025E0000344D3F82090B3F808A0DB6848469A4427
:1025F000042351460DEB0302FDF752FE054620B1C0
:102600000125284602B0BDE8F08794F8C830BDF82F
:10261000042008FB036646F6081334449A42648992
:102620001BD1BDF806309C4201D00325E9E7042305
:1026300048460DEB030204EB0A01FDF731FE0028CA
:10264000DED146F60713BDF804209A42EDD1BDF85D
:102650000610214451443960D3E7002CF1D0E4E75F
:1026600037B596230546019395F8C8300846EBB177
:10267000012B0BD102290BD004221AE0052803D12B
:10268000D5F8B420B83509E001200DE0FF29F5D1D7
:1026900058225343EA18526A28331D4401A9FEF711
:1026A000B5F908B9019B2B6003B030BD0129EFD00B
:1026B00003228242E2D1582202FB03525C4204F020
:1026C00058045434126D2544E8E70000F8B5274B50
:1026D0000446002914BF0A461A464FF4966358214F
:1026E00090F8C8506B4301FB0501D01803F5166341
:1026F000134402F5965248620B65C4F8B42055B1F4
:10270000012D14BFFF2102212046FFF7A9FF20B1B0
:1027100001252846F8BD0121F6E71DB3012D14BFA0
:10272000FF2104212046FFF79BFFE8B90521204641
:10273000FFF796FF05460028EAD1582394F8C860B1
:1027400003FB0643186AFDF728FF0746D4F8B000DC
:10275000FDF723FF303687422CBF44F8267044F83B
:102760002600D6E70321DDE70925D2E7EC25043072
:102770004FF4E17358435030704700EB4000503045
:10278000704773B50C4605461646FDF706FFA04296
:1027900003D92846FDF701FF04464FF4E173E968C9
:1027A0006A46503903FB14112846FEF717F9002832
:1027B000A4BF009B336002B070BD2DE9F3411E46FB
:1027C000C368054699420C46174630D25B1A9342BD
:1027D0002DD3EEB16A46FEF701F9002829DB013F4F
:1027E000DDF800803C446A4621462846FEF7F6F8AC
:1027F00000281EDBDDE9004728463A462146FDF762
:10280000ABFE002815DB6EB1444512D9013CEAE766
:10281000511E21446A46FEF7E1F8002809DBDDF885
:102820000080E0E73C44444503D80134DBE74FF047
:10283000FF3002B0BDE8F08110B412B110BCFFF758
:10284000BCBF104610BC70470023C2681946FFF792
:10285000F3BF582290F8C83053432C2202FB0133B7
:10286000C1180422086A00F05DB90000582290F8EF
:10287000C83053432C2202FB01310E4B4218415801
:10288000994206D1D16813895B1802D25189C918BF
:1028900001D300207047136ADB689942F9D21069AE
:1028A00020F4F97020F001000005000DB0FA80F06E
:1028B000400970473DB8F3962DE9F04116464FF0B8
:1028C000580890F8C8200F463346002108FB020242
:1028D0000446FFF7DBFC054668B994F8C820334688
:1028E00008FB0242012120462C32FFF7CFFC10B139
:1028F000002F18BF05462846BDE8F0815823F0B5E3
:1029000090F8C84085B05C432C2303FB0244044488
:102910000546276AFEF7CCFB0023CDE9023301937D
:102920004FF48073214606463A4600932846064BEC
:1029300000F06AFA04463046FEF7DEFBFEF7C0FB05
:10294000204605B0F0BD00BF5C3D043002780B7836
:102950009A420FD80BD342784B789A420AD806D3C2
:1029600042884B889A4205D860EB000070474FF0D0
:10297000FF3070470120704737B558250B46114688
:1029800090F8C82004466A432C2505FB0322024424
:10299000126A01AB00F0DCFB20B9019994F8C80081
:1029A000FDF796FE03B030BD2DE9F0412C264FF027
:1029B000580804464E4390F8C8000F4608FB0061D3
:1029C00021440A6AFEF722FB054628B10C4805F0AF
:1029D00031FF2846BDE8F08194F8C83008FB036653
:1029E0003444256AFEF7E6FB294603463A4620466C
:1029F000FDF77CFE05460028EBD00248E7E700BF64
:102A000079C3010CA3C3010C38B50446D0F8B0005B
:102A100008B1FDF743FC00235825012B84F8C8308A
:102A200000D938BDE21892F8C9206AB905FB034302
:102A3000D86C08B1FDF732FC94F8C83005FB0343AD
:102A4000186A08B1FDF72AFC94F8C8300133DBB2EC
:102A5000E3E700002DE9F743054600264FF058094B
:102A6000012E85F8C8600BD9052005F1B001FDF7EE
:102A7000F9FB044690B301461E4805F0DBFE2AE050
:102A8000AB1993F8C980B8F1000F2DD141463046FB
:102A9000FDF784FF95F8C810074609FB0151C0B245
:102AA0002031FDF7DFFB0446E0B901213046FDF798
:102AB00075FF95F8C810074609FB0151C0B24C31AB
:102AC000FDF7D0FB044678B10123324639460A4867
:102AD000009405F0AFFE2846FFF796FF204603B0AE
:102AE000BDE8F0834346F0E795F8C8600136F6B2DA
:102AF000B6E700BF09C4010CCFC3010CC068203881
:102B000020F00F0020387047042809D0052803D191
:102B1000481E18BF01207047431A58425841704759
:102B20000120704738B515460C4661B15AB1FDF722
:102B30004FFF2146254411F8013B834203D1A942AE
:102B4000F9D1012038BD0020FCE738B50C4601233F
:102B5000114622460546FDF7A3FB00280FDB0122A4
:102B600021462846FFF7DEFF18B10323002023701B
:102B700038BD2378012B14BF02230123F6E701207F
:102B8000F6E7000030B5C16885B0103921F00F04B8
:102B90000546FDF71DFF102201466846FDF719FDA9
:102BA000102268460649FDF737FD10236A46214684
:102BB0002846FDF703FC003818BF012005B030BDE2
:102BC000D4C9010C2DE9FF471D4606460F46904625
:102BD000FDF7E3FC6C1E044440420440102C1AD85C
:102BE0003046FDF7F5FE82462A4641466846FDF727
:102BF00013FD5146621B0DEB0500FDF7EAFC234671
:102C00006A4639463046FDF7D9FB003818BF012027
:102C100004B0BDE8F0874FF0FF30F9E707B50123B6
:102C20008DF8042001AAFFF7CDFF03B05DF804FB87
:102C3000C1680122203921F00F01FFF7EFBFC26800
:102C4000203A22F00F02FFF780BF000030B50D469A
:102C5000C16887B0102302AA10390446FDF720FB93
:102C6000002802DA012007B030BD1022204602A958
:102C7000FFF758FF00283AD110221E4902A8FDF79D
:102C800098FC00280CBF012302232B702046FFF77D
:102C900035FF012301460DF107022046FDF700FB39
:102CA0000028DFDB9DF80730204603F00F021B09E8
:102CB0006A702B7101220DF10701FFF733FF10B984
:102CC0006B78042B03D901236B7000232B71E2680E
:102CD0002046203A22F00F02103AA91CFFF735FFD8
:102CE0000028BFD12046E91CFFF7A9FFBBE703235B
:102CF000CBE700BFD4C9010C13B50C46C0B201A983
:102D0000FDF7B0FA50B921460198FFF79FFF04463E
:102D10000198FDF7C3FA204602B010BD0124FAE77E
:102D200013B541EA021104468DF80710FFF7E6FEDD
:102D3000012301460DF107022046FFF743FF02B0D1
:102D400010BD00007FB50446002842D0012814BF02
:102D5000FF2002206946FFF7CFFF002837D1002C63
:102D600039D0012C14BFFF20042002A9FFF7C4FFB3
:102D7000012808BF03234FF0000408BF8DF8083076
:102D80009DF800509DF808601A4A08BF8DF80B3076
:102D900029461078FFF7B8FE18B331465078FFF790
:102DA000B3FEF0B19378042B03D09DF80310994241
:102DB00017D1D378042B03D09DF80B10994210D172
:102DC0001379042B09D15079831E022B0FD9FF20D0
:102DD0000DE00120BEE70320C7E79DF802109942ED
:102DE000F1D00134032C02F10602D1D1012004B04C
:102DF00070BD00BFC1C9010CC1680122203921F09A
:102E00000F011039FFF70ABF2DE9F04FADF55F7DD7
:102E10000E4614460546EB9F002840D090F8C82087
:102E200005926FF000410022DFF8C881CDE9081259
:102E3000EA9AD8F800900392E99A0DF1400A0292BA
:102E4000E89A3146009228462246CDF804A000F0C8
:102E50002FF900285BD127B1202251463846FDF7D3
:102E6000DBFB00230AAF009322464FF6FF73314687
:102E70003846FFF77DFA8246002848D12146284689
:102E80000F9EFFF79EFBB04246D221462846FFF731
:102E900098FB31460246584805F0CCFC37E00590D7
:102EA000BFE74FF0010A06AF0DF11C0B3A46594639
:102EB0000DF11A030AA8FFF7A7FA002827DB40F054
:102EC0008A80BDF81A30232B64D029D8022B4ED02B
:102ED000102BE8D1B7F800A0BAF1200F17D1534654
:102EE0002046DBF8001018AAFDF7DAF978B9FEF7EA
:102EF000DFF85246074618A910A8FFF7CFFA824616
:102F00003846FEF7F9F83D4B1B685345C9D0D8F851
:102F1000006067E09946C6E74E464FF0FF35C2E7CE
:102F2000502BC0D13B88042BF1D12046DBF8001098
:102F300009AAFDF7B5F90028E9D1FEF7B9F808A903
:102F400007460598FDF79EFB83463846FEF7D4F802
:102F50002A4BD3F80090D945D9D1DDE908218A421E
:102F6000A1D9D8F800309945D4D0254894E73B88BA
:102F7000B3F5CC7FCBD82046DBF8001078AAFDF75C
:102F80008FF90028C3D13A88059878A900F03CF859
:102F9000054688E7002DC0DB1A4B1B68AB42BCDD41
:102FA0003B88B3F5C07FB2D12046DBF8001018AAE9
:102FB000FDF776F90028AAD1FEF77AF80095834646
:102FC00020213B8818AA10A800F0F8F806465846B9
:102FD000FEF792F8A1E7BAF1010F98D1074B1B68F1
:102FE0004B4594D1FEF76CF830460DF55F7DBDE89A
:102FF000F08F00BF0C00043031C4010C100004300D
:1030000058C4010C44C8010C2DE9F0414FF02008D0
:103010000E461546C2B004467022002126A8CDF8FF
:103020000480FDF7D6FA702226A90AA8FDF7F4FA63
:103030001B490AA800F044F92A4631460AA800F0C4
:103040005AF90023424602A926930AA826AB00F0AB
:103050006EF901AF0AA800F019F920463A4626A9F0
:10306000FDF71AFD044628B14FF0FF34204642B068
:10307000BDE8F081FEF71CF83A68804626A902A850
:10308000FFF70CFA07464046FEF736F8054B1B687B
:10309000BB42E9D1044B1E60044B1D60E6E700BF54
:1030A000090000021000043000000430EC2004305D
:1030B0002DE9F04792467022B8B00DEB02000C46A5
:1030C000DDE9425700219946409EFDF782FA7022C1
:1030D00068460DEB0201FDF79FFA68461B4900F0B8
:1030E000EFF835B1002F04DD3A462946684600F076
:1030F00002F9002563892289D4F80C80134498448E
:10310000454508D300242022684641991CAB1C94F5
:1031100000F00DF90CE0A8EB0507B74228BF3746D1
:103120004A463B4629465046FDF7BAF8044630B1B8
:10313000684600F0ABF8204638B0BDE8F0873A4664
:103140004946684600F0D7F83D44D9E70900000237
:1031500070B514461D468AB058B390F8C83042B3D3
:103160003DB3582673432C2606FB013101444B899D
:1031700013B903200AB070BD012304A800935023A3
:10318000FFF7F6F80028F5D103460DF10A0203A96E
:1031900004A8FFF739F970B9BDF80A30042BE8D15B
:1031A0002A4620460399FDF77BF8003818BF012016
:1031B000E0E70720DEE74FF0FF30DBE72DE9F04FD7
:1031C000884600218BB091461D46149A2A4BDFF8A1
:1031D000ACA053F8324003EBC2035B6818220746E9
:1031E00004A8D3F800B00391DAF80060FDF7F1F914
:1031F0004FF42052224B2146CDE9062344F201032D
:103200005A46ADF8103004A803AB00F0B3F80446FA
:1032100020BBDDF80CB00146182204A8FDF7D9F94F
:10322000584604A900F0DAF818B9BDF8124007347E
:10323000E408A54212D1FDF73BFF434604463A4657
:10324000CDE900950E49039800F028F980B90D4B9F
:103250001E68FDF735FF2046FDF74EFF039808B1C5
:1032600000F0C6F8FDF72CFF30460BB0BDE8F08F3C
:10327000DAF80060EDE700BF000004300C00043015
:1032800009030006100004300020704770B50546A1
:10329000FDF70EFF2C68064634B9FDF711FF3046E6
:1032A000FDF72AFF204670BD012C06D1281D00F035
:1032B000ADFA044600232B60EFE76FF08804F9E7CE
:1032C000F8B505460C46FDF7F3FE2F1D6C220021D4
:1032D00006463846FDF77DF92146384600F0A8FA43
:1032E000044608B901232B60FDF7EAFE3046FDF7DE
:1032F00003FF2046F8BDF8B505460F461446FDF716
:10330000D7FE064634B9FDF7DBFE3046FDF7F4FE86
:103310002046F8BD2B68012B06D122463946281DD0
:1033200000F0B2FA0446EEE76FF08804EBE72DE90F
:10333000F04104460F4690461D46FDF7B9FE0023B6
:103340002B6023680646012B11D12B464246394695
:10335000201D00F0ABFA05462046FFF797FFFDF76A
:10336000AFFE3046FDF7C8FE2846BDE8F0816FF09D
:103370008805F1E770B544F201041E46038823F482
:103380004055A5421BD1CC8864BAA4B204F10054C4
:10339000013CE400104DC5E900120146182205F178
:1033A0000800FDF739F901232A6A6C81013242F0E5
:1033B00000422A620020326085F8243070BD03F498
:1033C000E043B3F5805F02D0B3F5005F01D1D400D4
:1033D000E0E70024DEE700BF5C3E043008B50846A5
:1033E00018220249FDF718F9002008BD643E043098
:1033F000F0B5002887B005DB4FF4047200210D48BA
:10340000FDF7E7F800266C460B4F31461822684658
:1034100007F10805C7E90066FDF7DBF80FCC0FC51B
:1034200094E8030085E80300304687F8246007B07D
:10343000F0BD00BF843E04305C3E0430704700287D
:1034400018BF6FF083007047F0B544F2010EDDE95C
:103450000556DDE9077C048824F44054744514D1F2
:103460000D4C23F4FF7E2EF0010EA64505D023F06F
:10347000FF0E04F58854A6450AD1CDE9077CCDE9B5
:103480000556BDE8F04000F01BBF6FF08500F0BDB1
:103490006FF08600FBE700BF0002000600287FB542
:1034A0000C46154611DA0A48C668D0E90012360AF9
:1034B0000BD1099E00950396089E0830CDE9013690
:1034C0002346FFF7C1FF04B070BD6FF08600FAE736
:1034D0005C3E043010B50A46044619B1024B002187
:1034E0001B68984710BD00BFE4C9010C10B5044625
:1034F00008B1FFF7EFFF2046BDE8104002F086BF9D
:1035000001680E4A0346914215D1C169A2F1102209
:10351000A2F1EF1291420ED18268012A0BD8C26843
:1035200012B101698A4206D0586928B19B691B1AF9
:103530005842584170470120704700BF55AA00FF0C
:103540000E4B70B59E68B6B13046FFF7D9FF044602
:1035500018B9F3687BB935690DB9204670BD2846A6
:10356000FFF7CEFF28B9EB68B34204D12E462D6990
:10357000F2E70446F1E70124EFE700BF944004308E
:103580002DE9F843404E3468D4B1B468C4B1002882
:1035900077D0002975D001FB00F5B5FBF0F088422B
:1035A0006FD1281D6DD8A9070DD025F0030704376A
:1035B000F46803E06368BB4207D2A469002CF9D128
:1035C0002046BDE8F8832F46F2E7A3681BB12F4BD6
:1035D00001201B689847D4E90520616804F12008A0
:1035E000C91B23291CD80123A360BAB19061A36928
:1035F00003B15A610023C4E905333369DA0706D5FC
:10360000FFF79EFF18B10120204B1B6898472A4600
:10361000002140464446FCF7DCFFD1E7F060E6E7D6
:1036200007F1200C04EB0C03203959600021DFF86E
:1036300060E0C3E902142169196144F80CE0DFF885
:1036400054C0C3F81CC001B1CB60C3E90520B2B1BE
:1036500093619A6902B15361236100234FF001091C
:10366000C4E905333369C4E90179DB07CFD5FFF736
:1036700067FF0028CBD0054B48461B68C6E7F360C0
:10368000E7E700249CE700BF9440043014000430B6
:1036900055AA00FF669911EE2DE9F0410546002874
:1036A0007CD03F4F3B68002B78D0BA68002A75D099
:1036B000834203D87A681344984203D3394B0120DC
:1036C0001B689847A5F120042046FFF719FF18B1A1
:1036D000344B01201B68984755F8183C012B03D048
:1036E000304B01201B689847002355F8146C45F8AF
:1036F000183CAEB1B26892B955F81C3C03F12002F7
:1037000073681344736055F8103C336103B1DE6095
:10371000204620220021FCF75CFF234634461E464B
:103720002069002832D08368002B2FD1636842685B
:103730002033134463600369D4E905212361DAB9B6
:1037400001BB426981696261A161EAB19461A269C8
:1037500002B1546103B1DC6020220021FCF739FF83
:103760003B699B071AD5FFF7EBFEB8B1BDE8F04106
:103770000C4B01201B6818479161A1690029E0D01A
:103780004A61DEE7F960F8E7FC60E0E7002EE7D188
:10379000FB68A36103B15C61FC60E1E7BDE8F08117
:1037A000944004301400043038B50D461422002132
:1037B00004461248FCF70DFF1149124802F02CFE96
:1037C000232D1AD914F003031FBF043DED18C3F1D4
:1037D0000403E4182A4600212046FCF7FAFE074BB2
:1037E000094AC3E900459C602260A2F11022203DF5
:1037F000A2F1EF126560E261DC6038BD94400430F4
:103800009936010C8135010C55AA00FF036810B5EB
:1038100004462BB1054A934205D1043000F0DEFB8B
:103820000020206010BD6FF08800FBE70900000257
:10383000F8B5076805460C4607BB124B994213D1F1
:10384000061D304600F0C6FB3046394600F0CCFB82
:10385000064628B92C603046BDE8F840FFF7EFBDBA
:103860002846FFF7D3FFF6E701F0FE44B4F1007FEE
:1038700014BF6FF086006FF08500F8BD6FF0880010
:10388000FBE700BF0900000210B5074B04689C422B
:1038900006D1043000F0D6FBBDE81040FFF7CFBDE5
:1038A0006FF0880010BD00BF090000022DE9F04153
:1038B0001F460478064644F0007404F17E44033C3D
:1038C000102C98BF104B884615468CBF00241C5DF9
:1038D0003A601AB121214046FCF77BFEAC420DD87C
:1038E00032680A4B9A420CD14146301D00F0EAFB87
:1038F000FFF7A5FD00B93C60BDE8F0816FF08900DD
:10390000FAE76FF08800F7E7E8C9010C0900000248
:103910002DE9F04F0D46D5B000F1440304934BABB5
:10392000059300F164030693DDE9043253F8041FA4
:1039300042F8041F06999942F8D100240BAE09AF52
:10394000291904223846FCF767FE3B6804341BBA89
:10395000402C46F8043FF3D197490DF1280A55460B
:10396000DDE951EBDDE94C76DDE94E328C46DDF8E0
:103970004C81DDF840910191A868DCF800104FEA15
:10398000F92484EAB91401448BEA0E0084EA7964CC
:1039900000EA090080EA0B002144014441444FEA57
:1039A000773888EAB70888EAB7580A44884447EA6B
:1039B000060107EA0600194001438844E868DCF87C
:1039C00004104FEA7834014489EA0E00104080EA7E
:1039D0000E00594401444FEAF22080EAB21080EA16
:1039E000726084EAB804014484EAB8540B440C447D
:1039F00048EA070108EA0700314001430C442869FE
:103A0000DCF808102035014482EA0900184080EAF9
:103A10000900714401444FEAF32080EAB31080EAC0
:103A2000736001444FEA743080EAB40080EAB45015
:103A300001EB060E084448EA040108EA040639408E
:103A40003143084455F80C6CDCF80C100CF1200CD8
:103A50000E444E4482EA030909EA0E094FEAFE21A8
:103A600089EA020981EABE1181EA7E614E440E4470
:103A70004FEA703181EAB00181EAB05106EB0709E3
:103A8000314444EA000604EA000706EA08063E4319
:103A9000314455F8087C5CF8106C3E44164483EAC7
:103AA0000E0202EA09025A4016444FEAF92282EA5B
:103AB000B91282EA796216444FEA713282EAB1029F
:103AC00082EAB152B044324440EA010600EA0107FA
:103AD00026403E43324455F8047C5CF80C6C3E446E
:103AE0001E448EEA090303EA080383EA0E031E4418
:103AF0004FEAF82383EAB81383EA78631E444FEA57
:103B0000723383EAB20304EB060B83EAB25341EA51
:103B100002043344044001EA0206344323442E687D
:103B20005CF8084C344489EA080606EA0B0686EA83
:103B30000906744434444FEAFB2686EABB1686EA3B
:103B40007B66344400EB040E4FEA733080EAB30026
:103B500080EAB350204442EA03040C4002EA030620
:103B6000344306196C685CF8040C204488EA0B04A2
:103B700004EA0E04484484EA080420444FEAFE2480
:103B800084EABE1484EA7E64204401EB00094FEA13
:103B9000763181EAB60181EAB651014443EA060072
:103BA000104003EA060420430F181AA9A9427FF423
:103BB000E3AE3AA9079101E0FCC9010CDAF8401024
:103BC000DAF80C404FEAF14585EA7145DAF8080069
:103BD00085EA9125DAF82C100AF1200A01444FEA0F
:103BE000B44080EAF41080EAD400294401440391EF
:103BF0008BEA0E004FEAF92181EAB91100EA0900C7
:103C000081EA796180EA0B000844019907EA060518
:103C1000096C084403990844404402440292CAF8DB
:103C2000281047EA06024FEA773181EAB7011A40C5
:103C30002A4381EAB7511144DAF8242001444FEABB
:103C4000F24585EA72455AF8100C85EA9225DAF8B1
:103C50001020DDF808C014444FEAB04282EAF012A6
:103C600082EAD0022C441444029A89EA0E051540D7
:103C7000019A85EA0E05526CCAF82C405A44224437
:103C80001544029A4FEAF22282EABC1282EA7C626E
:103C90002A4403EB020B47EA01054FEA713307EAB6
:103CA000010C83EAB103354045EA0C0583EAB153C0
:103CB0002B441344039A5AF80CCC4FEAF24585EA98
:103CC000724585EA9225DAF8142000EB02084FEAE3
:103CD000BC4282EAFC1282EADC02A8449044029AC6
:103CE0004FEA733589EA0200019A00EA0B00926CF0
:103CF00080EA09007244424410444FEAFB2282EAFF
:103D0000BB1282EA7B62024441EA030006EB020E28
:103D100085EAB30501EA03063840304385EAB35526
:103D2000054415445AF8086CDAF818204FEAF440B4
:103D300080EA744080EA94200CEB02044FEAB64219
:103D400082EAF61282EAD60204441444029A03EA92
:103D5000050C82EA0B0000EA0E005040019ACAF8F6
:103D60003080D26CCAF834404A44224410444FEAAE
:103D7000FE2282EABE1282EA7E62024407EB020958
:103D80004FEA753043EA050780EAB5000F4047EA7D
:103D90000C0780EAB550384410445AF8047CDAF82D
:103DA0001C204FEAF84C8CEA784C16444FEAB74294
:103DB0008CEA982C82EAF71282EAD702664416440B
:103DC000019ADDF808C0126DCAF8386032446244C6
:103DD0008BEA0E0C0CEA090C8CEA0B0C62444FEADD
:103DE000F92C8CEAB91C8CEA796C94444FEA703255
:103DF00082EAB00201EB0C0882EAB05245EA000107
:103E00000292194005EA00021143029A0A444FEA5D
:103E1000F44181EA744181EA9421DAF82040624455
:103E2000DAF800C03C440C444FEABC4181EAFC1182
:103E300081EADC010C4401998EEA0907496D07EA21
:103E400008072144594487EA0E070F444FEAF82136
:103E500081EAB81181EA7861394403EB010B4FEA3A
:103E6000723383EAB20383EAB25340EA0207029351
:103E70002F4000EA02031F43029BCAF83C403B4428
:103E80000B444FEAF64181EA764181EA9621DAF85D
:103E90002460DAF80470664431444FEAB74686EA93
:103EA000F71686EAD706314402910199DDF808C079
:103EB000896D89EA0806614406EA0B06714486EAC0
:103EC00009060E444FEAFB2181EABB1181EA7B61BE
:103ED000314405EB010E42EA03064FEA7335CAF896
:103EE00040C0064002EA030C85EAB30546EA0C0628
:103EF00085EAB35535446E18DAF80810039D4FEA89
:103F0000F44C3D444FEAB14787EAF11787EAD107FD
:103F10008CEA744C01998CEA942C6544C96D3D443B
:103F200088EA0B0707EA0E072944494487EA08078D
:103F30000F444FEAFE2181EABE1181EA7E613944D5
:103F400043EA060703EA0609174047EA090700EBB8
:103F5000010901984FEA763C20308CEAB60C0190BA
:103F600007988CEAB65CCAF84450BC44504501EB53
:103F70000C077FF423AE0AA8C0F81031C0E9001C7A
:103F8000029BC0F82481C0F80031C0F81421C0F8A9
:103F9000FC40C0F820B1C0F81CE1C0F80C61C0F8CA
:103FA0000451C0F81891C0F80871049A059952F8A4
:103FB000043F049251F8042F1344049A05911360AE
:103FC000069B9342F1D14FF49471FFF783FA55B0F9
:103FD000BDE8F08F68220021FCF7FBBA10B1682120
:103FE000FFF778BA7047000003460846C1B9C3E935
:103FF00010110D4A0D49DFF838C0C3E912120D4AFD
:104000000D49C3E914C20D4AC3E916120C4A1A66D7
:1040100002F17452A2F52302A2F692425A66704748
:104020006FF08600704700BF85AE67BB67E6096A20
:1040300072F36E3C3AF54FA57F520E518C68059B8A
:10404000ABD9831F2DE9F04105460E46144612B345
:10405000036C03F03F079B18036422BF436C0133DA
:1040600043647FB1C7F1400842450FD3424638440C
:10407000FCF7D2FA29462846FFF74AFC2744464473
:10408000A7F140043F2C09D82CB100272246314625
:10409000E819FCF7C1FA0020BDE8F081374606EBCD
:1040A0000408394628464037FFF732FCA8EB0703DF
:1040B0003F2BF6D8A4F1400323F03F0340331E44C6
:1040C000E41ADFE773B50D468021036C044603F064
:1040D0003F035A1C382AC154104474D80021C2F13D
:1040E0003802FCF776FAD4E91062730F43EAC20390
:1040F00004221BBA0DEB020104F138000193FCF716
:104100008BFA0422F6000DEB020136BA04F13C00F2
:104110000196FCF781FA21462046FFF7F9FB0422BD
:10412000A36C0DEB02011BBA28460193FCF774FA4D
:104130000422E36C0DEB02011BBAA8180193FCF7F3
:104140006BFA0422236D0DEB02011BBA05F1080086
:104150000193FCF761FA0422636D0DEB02011BBAB7
:1041600005F10C000193FCF757FA0422A36D0DEB47
:1041700002011BBA05F110000193FCF74DFA04226D
:10418000E36D0DEB02011BBA05F114000193FCF77E
:1041900043FA0422236E0DEB02011BBA05F118004D
:1041A0000193FCF739FA0422636E0DEB02011BBA8E
:1041B00005F11C000193FCF72FFA2046FFF70EFFD4
:1041C000002002B070BDC2F140020021FCF701FAEC
:1041D00021462046FFF79CFB38220021204680E73D
:1041E00038B503460C4620F4FF70194920F0010051
:1041F000884215D0174823F0FF01814210D023F4E4
:104200007F7525F00305A0F57060854208D000F5A4
:10421000A060814204D0002313706FF0850038BD88
:1042200013F0FF0018BF40F00070C0B21070084AD1
:10423000934207D00028F0D002F072F802F0DDF8C7
:10424000A04201D10020EAE76FF08600E7E700BF57
:104250000002000600130006F8B504460E460120D1
:1042600074211D46174602F0CBF8286020B304F4F1
:10427000E04400F0AAF9B4F5E04F3A463146286828
:1042800010D100F081FBFFF7DAF8044640B9286846
:1042900000F0B9F9C000B0F5805F06D96FF0850471
:1042A0002046F8BD00F0D8F9EDE72868043000F0AA
:1042B0002FFE4307F4D0F1E76FF08C04F0E7000025
:1042C0002DE9F0411E46002386B00593008805AB1A
:1042D0000D9FFFF7C1FF059D044678B9394630466A
:1042E0000DF11302FFF77CFF044638B9284600F0B1
:1042F0008AF90F9B98420BD06FF09404284600F087
:104300000AFB284602F082F8204606B0BDE8F0819C
:104310001C4A26F4875323F01F0393422ED19DF8A5
:10432000138001214246284600F059F90446D0B9CD
:10433000154B26F0FF069E421DD0284600F063F97B
:104340000238C01B03D4B842A8BF384604460E9BAF
:104350003A46CDE90143414628460C9BCDF8008002
:1043600000F046FA044614F1960FC5D02046FFF738
:1043700066F80446C2E74FF0FF34E8E76FF08604C2
:10438000BCE700BF000300060013000608B501F0FB
:10439000C7FFBDE8084002F030B82DE9F0478CB007
:1043A000054601A80E469046994601F0C1FF9DF8CA
:1043B000500001F0B5FF0746002854D001A801F0D5
:1043C000B7FF0022394601A801F0D3FF044670B9B7
:1043D000384602F012F820222146074604A8FCF7CE
:1043E000F8F8042221466846FCF7F3F856B904A809
:1043F0002021FFF76FF801A801F09EFF20460CB0C6
:10440000BDE8F087BE4201A8B24628BFBA4601F017
:10441000CFFF30BB4A46414601A801F0D6FF00BBA2
:10442000042269460DEB020001F0CFFFC8B904A9D0
:1044300001A801F0D6FFA0B904AA05EB0A018D423C
:1044400007D19DF80330A6EB0A0601338DF803303F
:10445000CCE715F8010B12F8013B434005F8013C8D
:10446000EDE70446C3E76FF08604C7E72DE9F043A4
:104470004FF0000987B007469DF83C008846154676
:104480001E46CDE9019901F04BFF044678B303A81D
:1044900001F04EFF21464A4603A801F06AFF044698
:1044A000F0B903A801F084FF0446C8B9082201A9A5
:1044B00003A801F08AFF044690B94246394603A892
:1044C00001F083FF044658B93246294603A801F09B
:1044D0007CFF044620B90E9903A801F082FF044630
:1044E00003A801F029FF204607B0BDE8F0836FF074
:1044F0008604F8E738B5154601F087FA044638B95E
:104500000146284600F0CBFD002808BF6FF0860466
:10451000204638BDF8B5054655F8047B04462846C4
:104520000E4600F0F9FC874216D12368B3F5C07F30
:1045300012D80021284600F0B2FD00280CDD002131
:10454000284600F0D5FC38B14EB9002104F10C002A
:1045500000F0A5FD00281FDC6FF086001EE004F1CE
:104560001C050021284600F09AFD0028F4DD0021FA
:10457000284600F0BDFC0028EED004F124050021FF
:10458000284600F08CFD0028E6DD0021284600F0DA
:10459000AFFC0028D9D1DFE70EB90020F8BD00211B
:1045A00004F12C0000F07BFD0028D5DD002104F192
:1045B000340000F074FD0028CEDD002104F13C0041
:1045C00000F06DFD0028E8DCC6E710B5742200217C
:1045D0000446FBF7FEFF0023C4E91B3310BD01298D
:1045E00038B50546144602D06FF0950038BD22B9A3
:1045F00001230020C5E91B34F8E7104601F090FEC6
:104600000028F5D1F0E700687047000070B5002180
:104610000446FFF77FFF054610B10E4D284670BDDA
:10462000261D304600F074FC7F28F6D90C3429464C
:10463000204600F05DFC0028EFD0204600F068FC2A
:104640000128EAD93146204600F0E1FC0028E5DBEC
:10465000E3E700BF00BEFFFF2DE9F3418046061DE2
:10466000304608F10C078D18009100F06BFB3846BE
:1046700000F068FB30232946684601AA01F001FEDC
:10468000044630B9DDE9003213449D420BD06FF08F
:104690008604304600F05BFB384600F058FB2046AD
:1046A00002B0BDE8F08102232946684601AA01F064
:1046B000E8FD04460028ECD1DDE90012304600F0A8
:1046C00031FC0028E3D1304600F026FCDDE9003261
:1046D0001344C8F80000009329460223684601AA43
:1046E00001F0CFFD04460028D3D1DDE900123846A1
:1046F00000F018FC0028CAD1DDE90032404613441E
:104700000093FFF783FF04460028C0D1009BAB4213
:10471000C5D06FF06504BCE7F0B585B00446FFF77F
:1047200075FF20B901212046FFF7F4FE10B11348B0
:1047300005B0F0BD04F10C0304F11C0504F12406DE
:1047400004F11407CDE90100009332463B462946A7
:10475000201D00F09BF90028E9D104F13C030193EE
:1047600004F1340300933A463146284604F12C0301
:1047700000F054FA0028DBD0D9E700BF00BEFFFFED
:10478000F0B50C4685B0002105461646FFF7C2FE7F
:1047900058BB02A800F0D6FA21462A6802A800F009
:1047A000C1FB0446C0B92C1D214602A800F02FFC15
:1047B000002817DA2A4602A94435234652F80C7B12
:1047C0000846009501F017F9044628B93A463146E3
:1047D00002A800F0BFFB044602A800F0B8FA204689
:1047E00005B0F0BD6FF08604F6E76FF08604F6E7DB
:1047F0002DE9F04F0D46EDB00CAE07469046002176
:104800004FF4C07230469DF8D8B10393FBF7E1FE38
:1048100015B9B8F1000F06D0039B23B96FF08600DD
:104820006DB0BDE8F08F3C68A4F11003B3F5B87F1C
:10483000F4D8324638467899FFF7A2FF0028EFD126
:1048400004F1FF3916F80930BC2B02D06FF0950047
:10485000E6E7002D57D15846FFF798FD054600289A
:10486000DCD0381D00F054FB3278471EC4F1010340
:1048700007EBC3031A41D1D1780718BFA14605F150
:10488000020314BF34460DF131044B45C6D8A9EBE1
:104890000501013904EB010A2B4652462046CDF8AA
:1048A00000B0FFF77AFD0028BAD1FF233278C7EBBA
:1048B000C9073B41134033700AF1FF3214F8013B42
:1048C000611E8A4201D9002BF8D0012BBED1779A04
:1048D000AAEB0403511C01D09342B7D104AE224687
:1048E00041460398CDF804B00096FFF7BFFD0028BD
:1048F00096D12A4631465046FBF75BFE002818BF8A
:104900006FF094008CE72846FFF740FD002885D023
:104910008045A0D082E710B5044698B35C3000F023
:1049200016FA04F1640000F012FA04F1440000F0F9
:104930000EFA04F1140000F00AFA04F1240000F069
:1049400006FA04F11C0000F002FA04F10C0000F079
:10495000FEF9201D00F0FBF904F1540000F0F7F916
:1049600004F14C0000F0F3F904F13C0000F0EFF921
:1049700004F1340000F0EBF904F12C00BDE8104024
:1049800000F0E5B910BD0000F0B58D1885B00391B9
:1049900006463023294602AA03A801F072FC044609
:1049A00030B9DDE9022313449D4204D06FF0860440
:1049B000204605B0F0BD294601AA03A801F0ACFCD1
:1049C00004460028F4D1019B002BEFD1371D3A4655
:1049D000294603A8FFF78EFD044600284BD1384630
:1049E00000F09AFA3246294642F80C0B03A8FFF76A
:1049F00081FD044600283ED1294606F1140203A891
:104A0000FFF778FD0446B0BB294606F11C0203A857
:104A1000FFF770FD044670BB294606F1240203A887
:104A2000FFF768FD044630BB294606F12C0203A8B7
:104A3000FFF760FD0446F0B9294606F1340203A8E9
:104A4000FFF758FD0446B0B9294606F13C0203A819
:104A5000FFF750FD044670B93368DB00B3F5805FA3
:104A60000DD83046FFF758FE044658B9039BAB42B9
:104A70009ED06FF065043046FFF74DFF98E76FF06A
:104A80008504F8E7004CF6E700BEFFFF2DE9F04390
:104A9000884685B08146684615461E460C9F00F044
:104AA00051F902A800F04EF9B8F1000F2AD04DB329
:104AB000B9F1000F02D186BB002413E02A4641461B
:104AC000684600F0F7FB044660B90121484600F053
:104AD000E6FA002805DD4946684600F098FA002805
:104AE00077D04D4C684600F032F902A800F02FF95B
:104AF00024B114F5844F01D0A4F58444204605B0B8
:104B0000BDE8F083B9F1000F01D0002E64D1B8F1F7
:104B1000000FD1D0002DCFD0CDE7002FCCD0012178
:104B2000404600F0BCFA0028DBDD0121284600F0F9
:104B3000B6FA0028D5DD3A463146684600F0BAFBA1
:104B400004460028CED101226946684600F09AFB4F
:104B500004460028C6D10122414602A800F092FB7B
:104B600004460028BED16946684602AA00F036FE17
:104B700004460028B6D10146684600F090FA0028A5
:104B8000AFD13A463146684600F094FB044600280F
:104B9000A8D101226946684600F074FB044600284B
:104BA000A0D10122294602A800F06CFB044600288F
:104BB00098D16946684602AA00F010FE0446002813
:104BC00090D10146684600F06AFA00283FF474AFBD
:104BD00087E7002E3FF470AF002F98D001213046B8
:104BE00000F05DFA00287FF77CAF0121384600F025
:104BF00056FA00287FF775AF4946304600F007FAAD
:104C00000028BFF66EAF4946384600F000FA00288B
:104C1000FFF67DAF65E700BF00BEFFFF2DE9F04363
:104C2000994685B00446DDE90C8668460D46174670
:104C300000F088F802A800F085F8B9F1000F06D15D
:104C4000B8F1000F2DD1002E46D1002402E05CB94E
:104C50006FF08604684600F07AF802A800F077F852
:104C6000204605B0BDE8F08301222146684600F0E9
:104C700009FB00284DD13A46494602A800F0FEFA49
:104C8000002846D102A96A46084600F0A7FD002880
:104C90003FD1014602A800F002FA0028D0D0214CF2
:104CA000D8E7002DD4D001222946684600F0EAFA60
:104CB00078BB3A46414602A800F0E0FA48BB02A998
:104CC0006A46084600F08AFD18BB014602A800F0BB
:104CD000E6F90028B7D0E2E7002CB9D0002DB7D014
:104CE0002A463146684600F0E5FA90B90122694645
:104CF000684600F0C7FA60B922466946684600F087
:104D00006DFD30B90146684600F0C9F900289CD015
:104D1000C5E710F5844FC2D010F1870F98D0A0F5E9
:104D2000844497E700BEFFFF054B01311B68013249
:104D3000434022EA030208400243501E00B270477B
:104D4000F020043000220123C0E90023704710B591
:104D5000044648B1006818B1E1888900FEF7C6FB37
:104D600000220123C4E9002310BD42F210739942CE
:104D700070B504460D4602D96FF08C0070BDC38833
:104D80008B4201D30020F9E70421284601F038FBCB
:104D900006460028F0D0216841B1E2889200FBF776
:104DA0003BFCE18820688900FEF7A0FBE5802660D7
:104DB000E8E738B504460D4619B9FFF7C8FF0020EB
:104DC00038BDC2888A4207D1002100689200FBF7F3
:104DD00000FC0123A380F2E7FFF7B9FF2946204634
:104DE000BDE83840FFF7C1BF42F21073994270B579
:104DF0000A46054602D96FF08C0070BDC3888B420D
:104E000007D8BDE87040FFF7B0BF296851F82310FC
:104E100011B9013B002BF8D15C1C944238BF1446F9
:104E20000421204601F0ECFA06460028E3D0296868
:104E300039B1A200FBF7F0FBE98828688900FEF78A
:104E400055FB0020EC802E60D7E7884270B5054600
:104E50000E4609D0C98849B9C2882AB101239200F7
:104E600083800068FBF7B5FB002070BD4C1E74B951
:104E7000EA88B6F904300134A242AB800ED2214652
:104E80002846FFF772FF88B16FF08C00EDE73368BA
:104E900053F82430002BEBD1013CE8E72868121BC3
:104EA0000021920000EB8400FBF793FB3168286837
:104EB000A200FBF7B1FBD7E770B50C460121054610
:104EC000FFF753FF064688B9EA8801469200286832
:104ED000FBF77FFB84EAE472A2EBE472E40FC4EB1D
:104EE000C4342B68640001341A60AC80304670BD55
:104EF000C388B1EB431F3FBF03684A0953F8220040
:104F000001F01F013ABFC84000F0010000207047C7
:104F1000C188006800F0B2BD08B5FFF7F9FF07309F
:104F2000C00808BD70B50E4612F0030118BF01217C
:104F300001EB920105461446FFF73BFF38B92346C3
:104F40003246E9882868BDE8704000F0D1BD6FF0B6
:104F50008C0070BD13460A46C188006800F0EDBDA4
:104F600038B504460D46FFF7D3FFE3882844B0EB7D
:104F7000431F06D820682A46E18800F048FE00203A
:104F800038BD10F01F0118BF012101EB5011204660
:104F9000FFF7EBFE0028EDD06FF08C00F0E70A463B
:104FA000C18808B511B1006800F0F9FD002008BD06
:104FB00010B5C38823B9CA885AB9ABB1012017E02C
:104FC000026802EB830252F8042C002AF3D1013B61
:104FD000F0E70C6804EB820454F8044C0CB9013A75
:104FE000EAE79A42EAD30FD8013B5A1C01D10020CC
:104FF00010BD026852F823400A6852F823209442F8
:10500000DCD803F1FF33F0D24FF0FF30F0E730B5DA
:10501000C38823B9CA885AB9002B3DD136E002684B
:1050200002EB830252F8042C002AF3D1013BF0E793
:105030000C6804EB820555F8045C4DBB013AEAE7C5
:10504000B1F9045003D2B1F90400404226E0B0F9AE
:105050000420002A03DD002D0CDA01201EE0002DC3
:1050600008DD3AB14FF0FF3018E003F1FF330BD207
:10507000504213E0013B016851F8235054F82310CB
:105080008D42F2D9104609E0591CF4D1002005E008
:10509000002BD8D09342D3D9B0F9040030BD1FB54E
:1050A00081EAE173A3EBE17301930123C90FC1EB23
:1050B000C13149000131ADF80C10ADF80E3002A934
:1050C00001AB0293FFF7A3FF05B05DF804FB90422C
:1050D0002DE9F04106460F46144602D0884206D11B
:1050E00027460123FC88B3804CB9002005E0FFF778
:1050F000ACFE0028F4D06FF08C00BDE8F0813B6876
:105100004FEA840803EB840353F8043C0BB9013CD9
:10511000EAE721463046FFF728FE0028EBD1356844
:1051200023463A682946284600F0A7FD074605EBC6
:105130000803002FD9D0F288651CA24208D829465E
:105140003046FFF712FE0028D5D1336803EB840305
:105150001A682C46D2192CBF01270027003F18BF20
:10516000012743F8042BE4E72DE9F04105460E46FC
:105170009046D4886CBBF1882846FFF7F6FD0746B9
:10518000002842D1F288A2420BD9AE4209D0316840
:105190002868121B920001EB840100EB8400FBF7EE
:1051A0003BFAEA88F088824207D92B68121A00215C
:1051B000920003EB8000FBF70CFAD8F8002023469E
:1051C0003168286800F070FD024698B90123AB8071
:1051D0000DE0D8F8003003EB840353F8043C0BB91E
:1051E000013CC7E7F188A142C6D26FF009073846F3
:1051F000BDE8F0812968EB8801EB840108461B1BA0
:1052000000F0D6FF0028E1D0EFE76FF08C07EEE763
:105210002DE9F843B2F904C0B1F90440054604FB96
:105220000CFC67467B430E4691461DD51146304621
:10523000FFF7BEFEB0F1FF3F80460CD04A46314634
:105240002846FFF791FF68B9B8F1000F08BF0124A5
:105250000020AC8006E032462846FFF785FF08B9FB
:105260006442AC80BDE8F883FFF731FF0028EFD03F
:105270006FF08C00F6E70123FFF7CABF4FF0FF3352
:10528000FFF7C6BF1FB582EAE273A3EBE273019397
:105290000123D20FC2EBC23252000132ADF80C2012
:1052A000ADF80E3002AA01AB0293FFF7E7FF05B09D
:1052B0005DF804FB2DE9F04701231446002286B077
:1052C000884206460D46CDE90223CDE9042310D1DC
:1052D00002A8FFF7BAFD58B16FF08C0904A8FFF7D8
:1052E00036FD02A8FFF733FD484606B0BDE8F0875B
:1052F00002ADA64206D1314604A8FFF7A6FD00285C
:10530000EAD104ACEF884FBBB7FA87FAB4F806804D
:105310004FEA5A1AB8F1000F29D108EB07013046BD
:10532000FFF723FDB8F1000F08BF4AF0010A01465C
:105330000028D1D13046FFF7BFFD81460028CBD1F0
:10534000CDF800803A4623682968306800F098FD5F
:10535000BAF1000F15D00123B380BFE72B6803EB30
:10536000870353F8043C002BCED1013FCBE72368E1
:1053700003EB880353F8043C002BCED108F1FF382F
:10538000C8E7AB88A28853439BB2E5E72DE9F34118
:1053900004460F461546CE8836B13B6803EB8603BC
:1053A00053F8043C3BB145B90021204602B0BDE8AA
:1053B000F041FFF781BD013EEEE72046711CFFF78B
:1053C000D4FC28B16FF08C08404602B0BDE8F081F3
:1053D00039462046FFF739FD80460028F2D1013DCD
:1053E000009533463A68E188206800F08DFCEBE7D1
:1053F0002DE9F04F99B0CDE9021000211846019235
:105400000593FFF74CFE002800F0E5814FF00109FD
:105410008D4B05991493019815ABADF83090ADF80C
:105420003890CDF84090CDF848901393FFF7C0FD29
:1054300001301ED1039B33B9029B9BB90023184650
:1054400019B0BDE8F08F00210398FFF735FD002863
:10545000F2D00024A046A2462746264600946FF0CC
:105460008C03D4E0DDE90110FFF7EFFC0028F0D158
:10547000E4E7002501990BA80B95ADF83250FFF732
:10548000E4FC0B9E0446BDF83270002840F09C817D
:105490000D90ADF83A0005990DA8FFF7D6FCDDF8A0
:1054A00034A00546BDF83A80002840F09281019B67
:1054B0000F90D9880FA80231ADF83890ADF8309030
:1054C000FFF753FC044618B10F9B2C460093C6E728
:1054D00001460FA8FFF7F0FC0F9B00930028BED1F8
:1054E000019B1190D98811A80231FFF73EFC119C55
:1054F00083460028B3D10DA8FFF70AFD00F01F0076
:105500001F286FD0C0F11F0319460BA80493FFF7A3
:1055100027FD0B9EBDF832700028A0D104990DA87C
:10552000FFF71EFDDDF834A0BDF83A80002896D1C3
:10553000C1463D46A7EB080B4FEA4B1319460DA891
:10554000CDF834A0ADF83A800793FFF709FDDDF8F8
:1055500034A0BDF83A80002881D1009B03EB8B0B6F
:105560000DA90BA80B96ADF83270CDF834A0ADF8AC
:105570003A80FFF74CFD002839DA09F1FF3307992B
:105580000DA80693FFF70BFD09F1FF330AEB830328
:10559000079309F18043023B0AEB830305F1FF3BCC
:1055A00005F180450993013D009BA5EB090503EB3F
:1055B0008505069B9B4549D8039B6BB118460FA9EF
:1055C000FFF743FC00287FF44AAF019B059A9B88B4
:1055D00092885343039A9380029B002B40F0D7801C
:1055E000002314E0C1463D46CDF810B0A2E7DBF839
:1055F00000300BA90133CBF8003008460DAAFFF7A5
:105600003DFE0B9E0346BDF832700028A8D00BA8C3
:1056100001930B96ADF83270FFF799FB0DA8CDF80A
:1056200034A0ADF83A80FFF792FB009B0FA80F93D0
:10563000FFF78DFB11A81194FFF789FB0C2115A82A
:10564000FDF748FF019BFAE601000300079B56F8AF
:105650002B101A684FEA8B09A9F104003318914204
:1056600008934AD20023305806F060FA002914BF8C
:105670004FF0FF330346BBF1010F2B600EBF002339
:10568000B14459F8083C1593089B1B68169306EB28
:105690008B031B6817932B6801332B602B68002149
:1056A000013B2B6011A81194FFF706FC119C002808
:1056B0007FF4D5AE069B1BB3099B1B682360079B39
:1056C00011A91B68084663602A68FFF75FFE119CFA
:1056D00000287FF4C4AE13A911A8FFF798FC002896
:1056E000DCDC2A680DA911A8CDF834A0ADF83A8009
:1056F000FFF74CFE30B1119CB1E64FF0FF33BAE733
:10570000069BDBE76FF00703009A4FEAC50902FB2F
:10571000039911A84946FFF723FC119C00287FF448
:105720009EAE0BA9084611AA0B96ADF83270FFF792
:10573000A5FD0B9E0346BDF8327000287FF467AFCD
:1057400001460BA8FFF7ABFC00281CDA0DA911A835
:10575000FFF77BFB0028CED1494611A8FFF700FCDC
:10576000119C00287FF47BAE0BA9084611AAFFF715
:1057700082FD0B9E0346BDF8327000287FF447AFD0
:105780002B68013B2B600BF1FF3B043D11E70499B3
:105790000BA80B96ADF83270FFF701FC019B0BA92B
:1057A0009B880298ADF83030FFF74FFB0146002888
:1057B0007FF455AE0298FFF772FC00287FF410AF1B
:1057C0000123029A93800BE72C46A846AA4600952F
:1057D00045E6009443E66FF00B0330E670B50446EF
:1057E0000D46104600211646FFF759FC002824DB21
:1057F0002A46334621460020FFF7FAFD054638B118
:10580000284670BD324621462046FFF734FD90B948
:1058100000212046FFF743FC0028F3DB31462046F9
:10582000FFF7F5FB0028EBDB324621462046FFF769
:1058300025FD0028F2D00546E2E76FF00905DFE715
:105840002DE9F04F8BB00646DDE914578B4628460C
:10585000002191460793FFF722FC002805DC6FF03A
:10586000860420460BB0BDE8F08F2B681B68D90773
:10587000F5D500214846FFF712FC0028EFDB48462B
:10588000FFF746FBB0F5406FE9D82846FFF740FB2D
:10589000B0F5406FE3D8B9F8061031B901213046B0
:1058A0000BB0BDE8F04FFFF707BBE88800F054FCF1
:1058B0000421069000F0A4FD8046002800F09880A6
:1058C00000220123CDE9082317B13B68002B68D1E2
:1058D0000DF1200A2946504600F024FC0446002819
:1058E00066D11FB19AE8030087E8030059463046A5
:1058F000FFF7ABFA002859D1012329463046B3807F
:10590000FFF785FB002867DA3046E988FFF72DFAB4
:10591000044600284AD1286800F0D3FA089BCDF845
:105920000880CDE900033168EB882A688246084682
:1059300000F05EFCEB883168D9F80000B9F806C0C9
:105940000593DDE9073EB3F12A3F2A68059BCDE9BF
:10595000000CCDE902E8084647D100F018FCCDE97B
:1059600000A83168EB8808462A6800F04DFCBBF9B6
:1059700004A0BAF1FF3F1BD1D9F800301B68DB0748
:1059800016D5F188306800F027FC01225146FFF758
:10599000CBF93246B08029463046FFF76CFC04460E
:1059A00006E03846E988FFF7E0F978B16FF08C043B
:1059B000069B40469900FDF799FD1FB13B68002BFF
:1059C0007FF44FAF08A8FFF7C2F94AE70AAB97E8A0
:1059D000030003E9030089E72A4631463046FFF712
:1059E000FDFE044600288FD0E2E700F0C0FBB6E7DA
:1059F0006FF08C0435E713B5049CCDE900344FF00B
:105A00002A33FFF71DFF02B010BD37B5022315463C
:105A100001AA044600F035FC40B9019A28462168E5
:105A2000FFF780FA2368019A1344236003B030BD66
:105A3000044B1B68584043085B4240421843C01760
:105A4000704700BFF020043010B50B4C226823686B
:105A50004240594081EA0200C00FFFF7E9FF236886
:105A6000521A434022EA030208401043C00FBDE827
:105A70001040FFF7DDBF00BFF020043001390029DE
:105A800001DA0020704750F82130002BF6D0B3FA2D
:105A900083F00131C0EB4110704739B101F1804111
:105AA000013900EB81018142034600D270471B6837
