:020000040C00EE
:10E000004200DEC04200DEC0000000000000000050
:10E010000000000000000000000000000000000000
:020000040C01ED
:10000000C8420430B107010C3D15010C256B010CF1
:10001000256B010C256B010C256B010C256B010C6C
:10002000000000000000000000000000A506010C18
:10003000A706010C00000000A906010CAB06010C8C
:10004000AD06010CAF06010CB106010CB306010CA4
:10005000B506010C256B010CB706010CB906010CA5
:10006000BB06010CBD06010CBF06010CC106010C4C
:10007000C306010CC506010CC706010CC906010C1C
:10008000CB06010CCD06010CCF06010CD106010CEC
:10009000D306010CD506010CD706010CD906010CBC
:1000A000DB06010CDD06010CDF06010CE106010C8C
:1000B000E306010CE506010CE706010CE906010C5C
:1000C000EB06010CED06010CEF06010CF106010C2C
:1000D000F306010CF506010CF706010CF906010CFC
:1000E000FB06010CFD06010CFF06010C0107010CCB
:1000F0000307010C0507010C0707010C0907010C98
:100100000B07010C0D07010C0F07010C1107010C67
:100110001307010C1507010C1707010C1907010C37
:100120001B07010C1D07010C1F07010C2107010C07
:100130002307010C2507010C2707010C2907010CD7
:100140002B07010C2D07010C2F07010C3107010CA7
:100150003307010C3507010C3707010C3907010C77
:100160003B07010C3D07010C3F07010C4107010C47
:100170004307010C4507010C4707010C4907010C17
:100180004B07010C4D07010C4F07010C5107010CE7
:100190005307010C5507010C5707010C5907010CB7
:1001A0005B07010C5D07010C5F07010C6107010C87
:1001B0006307010C6507010C6707010C6907010C57
:1001C0006B07010C6D07010C6F07010C7107010C27
:1001D0007307010C7507010C7707010C7907010CF7
:1001E0007B07010C7D07010C7F07010C8107010CC7
:1001F0008307010C8507010C8707010C8907010C97
:100200008B07010C8D07010C8F07010C9107010C66
:100210009307010C9507010C9707010C9907010C36
:100220009B07010C9D07010C9F07010CA107010C06
:10023000A307010CA507010CA707010CA907010CD6
:10024000AB07010CAD07010CAF07010C002108B58D
:10025000084600F0ABF8FEE7F0B505460C0444EAAA
:1002600001640C4344EA012462B913465619032A77
:100270000ED823F003022A4403F0030313449A42E6
:100280000AD1F0BDAB07F0D005F8011B013AEBE74E
:10029000B71A3C60043AEAE702F8011BEFE70346AD
:1002A00070B56AB900241519032D13D822F0030480
:1002B00021441C44002302F003029A4210D170BD75
:1002C00041EA0304A407EDD011F8014B013A03F809
:1002D000014BE6E70D1B2E681D1B2E60043CE2E778
:1002E000CD5CE5540133E8E710B502F083F928B19D
:1002F000034B1C6800F0CEFA204610BD014BF8E716
:10030000000004300400043007B508216A460220CA
:1003100002F0C4FB082200216846FFF79DFF03B0EE
:100320005DF804FB13B5044668B10421072001AA57
:1003300002F0B4FB28B9019B012B8CBF00230123E1
:10034000237002B010BD4AF2C530FAE708B520218B
:100350000C20084A02F046FC18B14CF25A32904286
:1003600006D1BDE8084020210D20034A02F03ABC26
:1003700008BD00BF3863010C5863010C07B50421A8
:10038000072001AA02F08AFB48B9019B3BB902F0A1
:10039000A0FC20B9FFF7DAFF08B902F09CFC03B01B
:1003A0005DF804FB002070477047FEE737B54FF457
:1003B0000051234800F0EAFB02F0EEF82149224800
:1003C00002F090FC00F0BCFC044628B11F4802F08B
:1003D00089FC204602F0C2F802F02AFB044608B16C
:1003E0001B48F4E70DF10700FFF79CFF044608B136
:1003F0001848ECE79DF807302BB1FFF7BFFF044624
:1004000008B11548E3E7FFF77FFF00F03BFA054628
:10041000FFF76AFF0446284600F058FA0F4B1B68A6
:10042000A34201D00E48D2E702F096F8044608B184
:100430000C48CCE702F0CCF80B4806F037FB00BFC5
:10044000A80004300C67010C7863010C7D63010C7B
:100450009463010CB763010CDC63010C04000430ED
:10046000F263010C2264010C0084030C002070472D
:1004700008B500F035FA002008BD0000054B00204B
:100480001A684FF0E023013A5A61052298611A6117
:10049000704700BF140004304FF0E02130B50E4823
:1004A0000E4C8A690568236893422B444FF47A7591
:1004B0003CBF49695B180A499B1A09680360B1FB94
:1004C000F5F19942074B04D2002519680560013106
:1004D00019601868226030BDAC200430B0200430B0
:1004E00014000430A820043038B570B3036819072D
:1004F00001D4002038BD8369154C9BB1D4F8F0308D
:1005000043F08063C4F8F030FFF7C6FF0546D4F827
:10051000F0301A01EDD4FFF7BFFF401B0228F6D9D7
:100520000320E7E7D4F8F03023F08063C4F8F0301C
:10053000FFF7B2FF0546D4F8F0301B01D9D5FFF71D
:10054000ABFF401B0228F6D9EAE70120D2E700BF43
:10055000000C0254F8B50368054698014FD5314C9C
:10056000636A43F001036362FFF796FF0646636A1E
:10057000D90746D52C4CD4F8F03013F4407320D072
:10058000D5F8F82093421CD0D4F8F020D4F8F030FD
:1005900022F4407143F48033C4F8F030D4F8F030E2
:1005A000D20723F48033C4F8F030C4F8F01008D533
:1005B000FFF772FF41F288370646D4F8F0309B0708
:1005C00026D5D5F8F830184903F44072B2F5407FCB
:1005D00024D1C869154A20F47C5002EA1312024360
:1005E000CA61114AC3F30B03D2F8F01021F4407131
:1005F000C2F8F010D2F8F0100B43C2F8F03000202F
:1006000005E0FFF749FF801B0228B0D90320F8BDA1
:10061000FFF742FF801BB842CFD9F7E7CA6922F43F
:100620007C52DDE700080254000C0254CFFFFF00AB
:1006300013B5194C01F0FEFBD4F8F030174843F025
:100640001803C4F8F030FFF74FFF08B106F06AFA5C
:100650001348FFF77FFF08B106F064FA0421D4F8CD
:10066000F030084643F40043C4F8F030D4F8A83022
:10067000002243F40013C4F8A830D4F8A83003F4DF
:1006800000130193019B01F0F1FC042002B0BDE8CE
:10069000104001F01BBD00BF000C02543068010C7B
:1006A0002867010CFEE7FEE7FEE7FEE7FEE7FEE750
:1006B000FEE7FEE7FEE7FEE7FEE7FEE7FEE7FEE712
:1006C000FEE7FEE7FEE7FEE7FEE7FEE7FEE7FEE702
:1006D000FEE7FEE7FEE7FEE7FEE7FEE7FEE7FEE7F2
:1006E000FEE7FEE7FEE7FEE7FEE7FEE7FEE7FEE7E2
:1006F000FEE7FEE7FEE7FEE7FEE7FEE7FEE7FEE7D2
:10070000FEE7FEE7FEE7FEE7FEE7FEE7FEE7FEE7C1
:10071000FEE7FEE7FEE7FEE7FEE7FEE7FEE7FEE7B1
:10072000FEE7FEE7FEE7FEE7FEE7FEE7FEE7FEE7A1
:10073000FEE7FEE7FEE7FEE7FEE7FEE7FEE7FEE791
:10074000FEE7FEE7FEE7FEE7FEE7FEE7FEE7FEE781
:10075000FEE7FEE7FEE7FEE7FEE7FEE7FEE7FEE771
:10076000FEE7FEE7FEE7FEE7FEE7FEE7FEE7FEE761
:10077000FEE7FEE7FEE7FEE7FEE7FEE7FEE7FEE751
:10078000FEE7FEE7FEE7FEE7FEE7FEE7FEE7FEE741
:10079000FEE7FEE7FEE7FEE7FEE7FEE7FEE7FEE731
:1007A000FEE7FEE7FEE7FEE7FEE7FEE7FEE7FEE721
:1007B00007B52C4B83F30A8800F024FA01F03AFBCA
:1007C000294B2A49D3F8F02042F40042C3F8F02024
:1007D000D3F8A82042F40012C3F8A820D3F8A82028
:1007E00002F400120192019A0A6B8AB1D3F8F02048
:1007F00042F48032C3F8F020D3F8F02022F48032A3
:10080000C3F8F0200B6B002BFCD10122184B1A60AF
:10081000154A1849136843F480531360164B8B42F2
:1008200012D30020154B16498B4218D3FFF70EFD4B
:10083000186850F82240586840F822400132986801
:100840008242F5D30C33EAE70022F8E71C6844F84B
:10085000220001325C68A242F8D30833E4E70022A8
:10086000F8E700BFC8220430000C0254007C00549A
:10087000B42004302463010C0C63010C2463010CCC
:100880003463010C024B1868421C1A60704700BFA9
:10089000B8200430024A1368013B1360704700BF60
:1008A000B8200430FFF7FEBFFFF7FCBFFFF7FABF29
:1008B000FFF7F8BFFFF7F6BFFFF7F4BFFFF7F2BF90
:1008C000FFF7F0BFFFF7EEBFFEE7000008B5034BF0
:1008D0001B68834201D0FFF7E5FF08BDB820043054
:1008E0007047000001680E4A0346914215D1C16964
:1008F000A2F11022A2F1EF1291420ED18268012AD8
:100900000BD8C26812B101698A4206D0586928B171
:100910009B691B1A5842584170470120704700BF1D
:1009200055AA00FF0E4B70B59E68B6B13046FFF772
:10093000D9FF044618B9F3687BB935690DB920466B
:1009400070BD2846FFF7CEFF28B9EB68B34204D14B
:100950002E462D69F2E70446F1E70124EFE700BFD8
:10096000BC2004302DE9F843404E3468D4B1B4685B
:10097000C4B1002877D0002975D001FB00F5B5FB84
:10098000F0F088426FD1281D6DD8A9070DD025F051
:1009900003070437F46803E06368BB4207D2A46925
:1009A000002CF9D12046BDE8F8832F46F2E7A36872
:1009B0001BB12F4B01201B689847D4E905206168C3
:1009C00004F12008C91B23291CD80123A360BAB154
:1009D0009061A36903B15A610023C4E90533336907
:1009E000DA0706D5FFF79EFF18B10120204B1B68E0
:1009F00098472A46002140464446FFF72DFCD1E7A0
:100A0000F060E6E707F1200C04EB0C032039596095
:100A10000021DFF860E0C3E902142169196144F89C
:100A20000CE0DFF854C0C3F81CC001B1CB60C3E9CF
:100A30000520B2B193619A6902B153612361002329
:100A40004FF00109C4E905333369C4E90179DB07D3
:100A5000CFD5FFF767FF0028CBD0054B48461B6872
:100A6000C6E7F360E7E700249CE700BFBC20043042
:100A70000800043055AA00FF669911EE2DE9F041F7
:100A8000054600287CD03F4F3B68002B78D0BA68E1
:100A9000002A75D0834203D87A681344984203D35E
:100AA000394B01201B689847A5F120042046FFF729
:100AB00019FF18B1344B01201B68984755F8183CB2
:100AC000012B03D0304B01201B689847002355F8B9
:100AD000146C45F8183CAEB1B26892B955F81C3C9C
:100AE00003F1200273681344736055F8103C3361BE
:100AF00003B1DE60204620220021FFF7ADFB234634
:100B000034461E462069002832D08368002B2FD13E
:100B1000636842682033134463600369D4E90521A4
:100B20002361DAB901BB426981696261A161EAB1FD
:100B30009461A26902B1546103B1DC6020220021FA
:100B4000FFF78AFB3B699B071AD5FFF7EBFEB8B1AD
:100B5000BDE8F0410C4B01201B6818479161A16969
:100B60000029E0D04A61DEE7F960F8E7FC60E0E7E1
:100B7000002EE7D1FB68A36103B15C61FC60E1E793
:100B8000BDE8F081BC2004300800043038B50D46C3
:100B90001422002104461248FFF75EFB1149124857
:100BA00000F026F8232D1AD914F003031FBF043DCB
:100BB000ED18C3F10403E4182A4600212046FFF78C
:100BC0004BFB074B094AC3E900459C602260A2F138
:100BD0001022203DA2F1EF126560E261DC6038BDB9
:100BE000BC2004307D0A010C6509010C55AA00FFE8
:100BF000024B1860024B002019607047100004304F
:100C00000C000430464A136B23F4807323F0010375
:100C100043F480731363136943F030031361536922
:100C20001807FCD53F4B1A6922F4FE0242F48002F9
:100C30001A611A6822F018021A601A6842F001025A
:100C40001A601A689107FCD537490A6822F00F022A
:100C500042F005020A609A6A22F0030242F00102A1
:100C60009A629A6A42F480329A629A6A42F4003234
:100C70009A629A6A42F480229A629A6A22F0100278
:100C80009A629A6A22F00C0242F008029A629A6A08
:100C900022F020029A629A6A22F47C5242F40062A4
:100CA0009A625A6B6FF3080242F03B025A635A6B26
:100CB00022F47E4242F400725A635A6B22F4FE021E
:100CC00042F480325A635A6B22F0FE4242F0807244
:100CD0005A631A6842F080721A60124B1A689201C5
:100CE000FCD51A6A22F00F021A621A6A22F0700208
:100CF0001A621A6A22F4E0621A621A6A22F4E04264
:100D00001A62DA6942F00302DA61064BDA6902F02C
:100D10001802182AFAD11A6842F480521A607047F1
:100D200000080254000C02540020025008B501F0E3
:100D300065FB18B1BDE8084005F0F4BE08BD000031
:100D40001FB51D4B1B6801931C4B5B6802931C4B2A
:100D50005B680393019B029B039B00F007FC01F07F
:100D60001BFCFFF7E3FF01F0A3FB20B1154801F0E6
:100D7000B9FF05F0D7FEFFF779FB20B1124801F06B
:100D8000B1FF05F0CFFE002400F026F800F0FEF8D9
:100D90000E4B1C6000F020F800F0F8F80C4B2046D9
:100DA0009B68984720B10B4801F09CFF05F0BAFE04
:100DB000002004B010BD00BF0080020C00E0020C57
:100DC00000E0000C6B64010C8D64010CD420043035
:100DD000D868010CBA64010CF7B5624C236883B97A
:100DE000614BD3F8882042F08072C3F888204FF41A
:100DF0000022D3F8883003F080730193019B5B4B92
:100E00009A61206800286DD1594B5A49D3F8D020F7
:100E100022F00102C3F8D0200A680130C3F8D820BC
:100E20004A68103122F01F02C3F8DC2011F8045C7C
:100E300051F8082C003D18BF012522F01F0242EA9C
:100E4000450242F001020428C3F8E020E4D1BFF3D8
:100E50004F8FBFF36F8FD3F8D02042F00102C3F859
:100E6000D0202368D3B94022434844497F25C0E9B4
:100E70000012F922C0E90433C0E90252C0E9063386
:100E8000036201F041FA08B105F04CFEFF213A4837
:100E900001F090FA3A49384801F0A2FA2368002B91
:100EA0004FD1012000F032FF2268002A50D12E4B92
:100EB0000520D3F8881041F40031C3F88810D3F826
:100EC0008830114603F400330093009B01F0CEF804
:100ED000052001F0FBF82B4A536C43F002035364E6
:100EE00003B0F0BD0027234D214E2B68C6F8D83043
:100EF000D6F8D800D6F8DC208342D6F8E01011D11D
:100F00006B6823F01F0393420CD12A7BAB68003A35
:100F100018BF012223F01F0343EA420343F00103F9
:100F20008B4201D005F0FEFD0137042F05F11005BD
:100F3000DBD10F4BD3F8D030DE0792D405F0F2FDB1
:100F40008FE700F0EDFE0128AED005F0EBFDABE73A
:100F50000C4B5B6C9B07C3D403B0BDE8F04005F0BD
:100F6000E1BD00BFD4200430000C02540024035023
:100F700000ED00E09868010C602104300078005416
:100F80000000FF5D006002507047000070B5012353
:100F90000226654C654D20466361266200F04AFEDC
:100FA00028466E6100F046FE002323602B60236913
:100FB00003F07F43B3F1344F04D05D4801F092FE5B
:100FC00005F0B0FDE368002B04DA5A4801F08AFE10
:100FD00005F0A8FDE36803F07F53B3F1345F04D05C
:100FE000554801F07FFE05F09DFD626A534B9A4221
:100FF00004D0534801F076FE05F094FDE36B13B97D
:10100000236C432B0BD04F4801F06CFE43234FF071
:10101000000CC4E90FC3236843F400732360D5E9CF
:101020000F329A4206D300237F26C5E90F634FF49F
:1010300000732B60A369012B02D1E3691C2B0AD03A
:101040001C230120C4E906033F4801F04BFE23683E
:1010500043F001032360236B13B9636B132B0AD096
:101060003A4801F03FFE13230021C4E90C13236822
:1010700043F04003236023691A0704D5344801F084
:1010800031FE05F04FFD23695B0604D5314801F0C0
:1010900029FE05F047FD23682A68134323D000F09A
:1010A0000FFB00F02FFB236843B11F4800F032FC18
:1010B00020B1294801F016FE05F034FD2B6843B13C
:1010C0001A4800F027FC20B1234801F00BFE05F080
:1010D00029FD00F0D3FB20B1204801F003FE05F00C
:1010E00021FD01F001F8A36AC32B04D01C4801F0D4
:1010F000F9FD05F017FD6368B3F56D4F12D0B3F538
:10110000B85F0FD0B3F5385F0CD0B3F5464F09D0B8
:10111000B3F5E44F06D0B3F5B84F03D0BDE8704047
:1011200005F000BD70BD00BF1C210430D820043084
:10113000E564010C0165010C3065010C0000010C37
:101140005E65010C8665010CC165010CF465010C3E
:101150002666010C5266010C7366010C9966010C3F
:10116000BB66010C042A09DB0B68036000F1040074
:1011700001F10401A2F10402042AF5DA002A09D0DF
:101180000B78037000F1010001F10101A2F10102ED
:10119000012AF5DA70470000044B82B0186883B268
:1011A0006FF30F00184302B0704700BF1C69010CB9
:1011B0000C20704700207047012805D902280CBF79
:1011C00000206FF0040070476FF0030070476FF06D
:1011D00003007047014B1868704700BF902104302E
:1011E000004870470469010C08B54FF47A7000F0AC
:1011F0009BFA002008BD00000C4B70B55A6992B1F3
:101200001C69002301390144151DA34201D10020AE
:1012100070BD52F83360864203D855F83360B1424E
:1012200001D90133F1E70120F2E700BF34000430B7
:101230002DE9F0411446204B96001A78074622F01B
:1012400002021A70421E02EB8402B2F5001F0D4624
:1012500011D31A4A94693CB16FF004001A7842F035
:1012600002021A70BDE8F0813246FF212846FEF7DF
:10127000F3FF2046F6E70023DFF844803146C8F844
:101280000030FFF7B9FF324690B107F140612846C0
:10129000FFF768FFD8F8003023B132460021284616
:1012A000FEF7DAFF002324F04040C8F80030D9E709
:1012B00007F10061EBE700BF9021043034000430F7
:1012C0009421043038B50E4D6B68DC0709D40C4B03
:1012D0005A68900711D45A68520744BF0422DA6052
:1012E00038BDFFF7D9F804466B689907EFD4FFF7CC
:1012F000D3F8001B0128F7D9E9E70222DA60EAE710
:10130000000403500B4A10B5D36823F00203D360E6
:1013100001F07EF8FFF7C0F8044601F095F840B1FF
:10132000FFF7BAF8001B0128F7D901F08DF8002863
:10133000F3D010BD000403502DE9F04F454F87B0A6
:101340003B784FEA8208019123F0020341460646AA
:1013500015463B70FFF750FFF0B14FF0020B4FF016
:10136000406A721E4244B2F5001F0CD248EA0604DD
:1013700014F00F0407D1384BD3E90201234601F1E1
:10138000040E83420DD16FF004003B7843F002035A
:101390003B7007B0BDE8F08F4FF0006ADFF8BCB0DB
:1013A000DFE751F833C0664503D35EF833C06245CA
:1013B00044D90133E5E700F06FF93B7843F00103CE
:1013C0003B70019B1022191902A8FEF768FF029BCF
:1013D000049A05991A40039B0B40B3F1FF3F08BFE5
:1013E000B2F1FF3F24D00AEB0601584602AA21447D
:1013F00000F0E6F981461034A04502D0B9F1000FA3
:10140000DFD03B78414623F0010330193B70FFF7F2
:10141000F3FE80B100F06AF9FFF754FF00F0EEFF31
:10142000B9F1000F25F0404018BF4FF0FF30B0E792
:101430004FF00009DFE700F04DF9EDE7FFF762FF3D
:1014400041463046FFF7D8FE0028B4D100F010F92D
:10145000B3E700BF90210430340004300200008064
:1014600070B5B0F5001F044686B008D2C0F30C0377
:101470002BB92F4AD2E90012101D8B4208D16FF010
:1014800004002C4A137843F00203137006B070BDB9
:1014900052F83350AC4203D350F83350AC4207D922
:1014A0000133EAE700F0E4F824E000F013F936E055
:1014B00004212046FFF7A0FE00281F4B18BF04237D
:1014C000B4F5801F029334BF012302230393012349
:1014D000184E0593630B0493FFF714FF3378042130
:1014E00023F0020320463370FFF786FE0028D9D090
:1014F00000F0D2F8337801A943F0010302A8337059
:1015000000F03CFC3378054623F00103042120461B
:101510003370FFF771FE0028C7D000F0E7F8FFF73F
:10152000D1FE00F06BFF281E18BF01204042ADE73E
:10153000340004309021043004000080084BD3F8BC
:101540000421002A0ADAD3F8042142F00042C3F849
:101550000421044A1368013313607047FEE700BF9B
:1015600000200250942104307047000010B5032081
:1015700000F06AFD00F066FC094B0A4A1B6A03F0A2
:101580000F03D35CD840084B18600F20FEF776FF9E
:10159000044618B9FFF7E8FF204610BD0124FBE719
:1015A000000C02548868010C140004300C4B10B578
:1015B0000C4A9C680C4B13EA240338BF13461A6884
:1015C00042F002021A60EFF3108272B60023CC5888
:1015D000C4500433102BFAD182F3108810BD00BF21
:1015E000180004302C2002502820024030B50F4D46
:1015F000AB68002BAABF0E4B0E4B0F4A1C68B8BF3E
:101600000E4A44F002041C60AB68146803F0040343
:1016100023431360EFF3108272B60023CC58C450FA
:101620000433102BFAD182F3108830BD1800043037
:101630002C2002502820024044200250402002402A
:10164000084B10B5084A9C68084B13EA240338BFBE
:1016500013461A6842F002021A600B889BB203809C
:1016600010BD00BF180004302C200250282002407A
:10167000074B9A6AD20741BF064A5A6002F1883284
:101680005A6046BF986A00F001000120704700BF11
:101690000020025023016745074BDA6AD20741BF99
:1016A000064A9A6002F188329A6046BFD86A00F012
:1016B00001000120704700BF002002502301674550
:1016C00008B5FFF7D5FF18B9BDE80840FFF7E4BF3C
:1016D00008BD0000044B9A6A42F001029A62986ABF
:1016E000C04300F00100704700200250044BDA6A4A
:1016F00042F00102DA62D86AC04300F0010070478C
:1017000000200250064BD86910F0010007D0054AAE
:10171000DA6002F14432DA60D86900F00100704703
:10172000002002503B2A1908F8B50546FEF7B4FE22
:101730001D4E1E4CB2681E4B074614EA220438BFE9
:101740001C46236813F00B0F1AD1B168194B1A4AC3
:101750001A4812EA210238BF1A462168036A01F4C6
:101760007E0103F400030B4315D0716819437160C7
:1017700013601A0202D54FF40003036301200EE048
:10178000691CDED0FEF788FEC01BA84201D8002DE0
:10179000D7D1032003E02368DB0301D40020F8BD88
:1017A0004FF480331360F9E7180004302020024022
:1017B00024200250342002503020024000200250E9
:1017C0002DE9F041264D04462B780E46012B174695
:1017D00044D001232B7000234FF47A706B60FFF725
:1017E000A3FF50BB1F4B204AAC6012EA240838BF4D
:1017F000984624F00043022B23D139463046FFF7A8
:10180000D5FE4FF47A70FFF78FFFD8F8003024F040
:10181000304222F0040223EA0203C8F80030134BDE
:101820009C420AD1A968124A124B13EA210338BF1D
:1018300013461A6822F004021A6000232B70BDE8D8
:10184000F0810D4B24F004029A423946304602D111
:10185000FFF7CCFED5E7FFF7F3FED2E70220EEE775
:10186000180004302C2002502820024006000010EE
:10187000442002504020024002000010044A4FF46D
:101880007A70D36943F00203D361FFF74DBF00BF05
:1018900000200250124B134A9968134B13EA21039C
:1018A00038BF134600F00302032A06D11A6842F437
:1018B000004242F020021A607047C10707D51A683B
:1018C00022F0004222F0280242F028021A60820729
:1018D000F2D51A6842F0004242F02802EBE700BF5E
:1018E000180004302C20025028200240064B074AE2
:1018F0009968074B13EA210338BF13461A6842F070
:1019000008021A60704700BF1800043044200250DB
:10191000402002402DE9F041DFF8A882044698F803
:101920000030012B00F081810123002088F8003075
:101930004FF08023C8E901034FF47A70FFF7F4FEFB
:10194000002840F039812768F90719D5A56963692E
:10195000012D03F00101E26903F0020340F036813A
:1019600031B1994DD5F8EC1021EA0201C5F8EC101F
:1019700033B19549D1F8EC3123EA0203C1F8EC31D7
:10198000BA0706D5904A6168536D23F47F430B4331
:1019900053657B0740F1AE80D4E9021511F00103D5
:1019A0000EBF1A46032205F003038E0742BF05F05F
:1019B0000406334342F004024E0742BF05F0080616
:1019C000334342F008020E0742BF05F010063343CE
:1019D00042F01002CE0642BF05F04006334342F00B
:1019E00040028E0642BF05F08006334342F080027B
:1019F0004E0642BF05F48036334342F480320E0671
:101A000042BF05F40036334342F40032CE0542BFF4
:101A100005F48016334342F480128E0542BF05F46C
:101A20000016334342F400124E0542BF05F07F56C4
:101A3000334342F07F520E0542BF05F000452B4371
:101A400042F0004211F4805518BF0426D4F810C0AB
:101A50000CBF2E460CF0040511F4005F1EBF0CF005
:101A6000080E45EA0E0546F0080611F4804F1EBF29
:101A70000CF0100E45EA0E0546F0100611F4004F6A
:101A80001EBF0CF0200E45EA0E0546F0200611F4AC
:101A9000803F1EBF0CF0400E45EA0E0546F04006A2
:101AA00011F4802F1EBF0CF4004E45EA0E0546F4DB
:101AB000004611F4002F1CBF0CF07F4C45EA0C05CA
:101AC000C1F30B0C18BF46F07F46BCF1000F08D0E5
:101AD000DFF8F4E0DEF854C02CEA02021343CEF83B
:101AE000543011F47F2F05D0374A536F23EA060391
:101AF0002B435367B90510D5D4E90F316569EA075F
:101B000042BF314E43EA0142C6F8E420AE0742BF6D
:101B10002D4A43EA0143C2F8E4313D070AD5D4E92E
:101B20000831012B61D1284AD2F88430DBB20B4353
:101B3000C2F88430F9060BD5236AA16A012B5ED165
:101B4000214AD2F8843023F0FF030B43C2F88430DB
:101B5000BA0606D51C4AE16AD2F894300B43C2F8A3
:101B600094307B0610D5D4E90C316569EE0742BF8D
:101B7000154E43EA0142C6F8FC20AA0742BF124AAA
:101B800043EA0143C2F8FC313B0615D56269A36BF9
:101B900002F0010102F00202002B3BD029B10A4CF5
:101BA000591E41F40041C4F8F4102AB1064A013B21
:101BB00043F40043C2F8F431002388F80030BDE854
:101BC000F08100BF180004300020025029B1184DE8
:101BD000D5F8EC101143C5F8EC10002B3FF4D0AE53
:101BE0001349D1F8EC311343C8E6022BA2D1104AB5
:101BF000D2F88C30DBB20B43C2F88C309AE7022B60
:101C0000A6D10B4AD2F88C3023F0FF030B43C2F865
:101C10008C309DE711B10649C1F8F430002ACBD0D1
:101C20000022034BC3F8F421C6E70220C7E700BF38
:101C30000020025006230360334B1A6D02F47F42EA
:101C400042601A6D22F47F42C2601A6F02614269DB
:101C5000511E012932D8012A0CBFD3F8E830D3F83D
:101C6000E831DB43C361003B18BF01238361264B8E
:101C7000012A0CBFD3F8E030D3F8E031012A03F099
:101C80007F01C3F3064303641F4BC1630CBFD3F84A
:101C9000F830D3F8F831012A03F07F01C3F306438B
:101CA000436340F2C7230360174B01630CBFD3F8B3
:101CB000F030D3F8F03103F003038363026A531E5C
:101CC000012B17D80368012A43F0180303600E4B59
:101CD0000BBFD3F88020D3F8882022F0FF0222F037
:101CE000FF020BBF42624262D3F88030D3F88830E3
:101CF000DBB28362036843F020030360024BD3F836
:101D00009030C362704700BF00200250034AD36B7B
:101D100023F003030343D363704700BF0020025046
:101D2000024BD86B00F00300704700BF0020025048
:101D30000F4B104A10B59C680F4B800113EA240327
:101D400038BF1346C9071A680AD522F0004222F4A8
:101D5000FE521A601A68024342F024021A6010BD53
:101D600022F4FE521A601A68024342F00042F3E77E
:101D7000180004302C200250282002402DE9F8439E
:101D8000294E054633788946012B4AD0012333700A
:101D900000234FF47A707360FFF7C6FC0446F0B975
:101DA0002B682249224AB36011EA230838BF9046C3
:101DB00048F2080223F00041914215D16868FFF70C
:101DC00069FD4FF47A70FFF7AFFC04462A68D8F833
:101DD000003022F0004223EA0203C8F8003000235A
:101DE00033702046BDE8F883082B02D1FFF77EFD53
:101DF000E7E74FF0FF33C9F80030AF68D5E90223B9
:101E00001344BB42E2D938466968FFF791FF4FF4AB
:101E10007A70FFF789FC10B1C9F80070D5E7013777
:101E2000ECE70224DDE700BF180004302820024060
:101E30002C200250024A536A43F001035362704758
:101E4000000802542DE9F041524CE36903F01803F5
:101E5000082B00F09980E36913F0180F0AD123686A
:101E60004D4813F0200F03D02368C3F3C103D840BB
:101E7000BDE8F081E36903F01803102B00F08680C1
:101E8000E36903F01803182B40F08280A76AA36A65
:101E9000A66A13F47C5FD4F83880C3F30520E7D03A
:101EA00003F0ACFEC6F300160546C8F3CC00704341
:101EB00003F0A4FE4FF0645103F0F8FE07F00303B3
:101EC000012B064611D0032B4ED0606BC0F30800E7
:101ED00003F094FE314603F0E1FD4FF07E5103F034
:101EE000DDFD294604462D483BE023689B0629D5A5
:101EF00023682948C3F3C103D84003F07FFE294675
:101F000003F088FF676B0446C7F3080003F076FE12
:101F1000314603F0C3FD4FF07E5103F0BFFD014693
:101F2000204603F0C3FE1B4B0446586BC0F346200B
:101F3000013003F063FE0146204603F06BFF04F01E
:101F400005F895E7606BC0F3080003F057FE3146D3
:101F500003F0A4FD4FF07E5103F0A0FD2946044696
:101F60000F4803F057FFDAE7606BC0F3080003F097
:101F700045FE314603F092FD4FF07E5103F08EFD99
:101F8000294604460748ECE7074871E707486FE72A
:101F900001486DE7000C02540090D0030024744AFD
:101FA0000024744C20BCBE4B00093D0040787D01EC
:101FB00008B5FFF747FF064B064A1B6A03F00F03FD
:101FC000D35C03F01F03D840034B186008BD00BF6B
:101FD000000C02548868010C1400043008B5FFF7A7
:101FE000E7FF054B054A1B6AC3F30213D35C03F0FA
:101FF0001F03D84008BD00BF000C02548068010CCC
:1020000008B5FFF7D5FF054B054A1B6AC3F302234A
:10201000D35C03F01F03D84008BD00BF000C02547E
:102020008068010C08B5FFF7C3FF054B054A1B6A22
:10203000C3F30233D35C03F01F03D84008BD00BFD5
:10204000000C02548068010C07490302CA6803F4BB
:10205000E06322F4E0621204120C134343F0BF6306
:1020600043F40033CB60704700ED00E0154B30B512
:10207000DC68C4F30224C4F10703251D042B28BF28
:102080000423062D4FF0FF3594BF0024033C05FACE
:1020900003F321EA0303A54022EA0502A340002836
:1020A00043EA0203ACBF00F16040074A4FEA031362
:1020B000DBB2ABBF00F5614000F00F0080F80033E9
:1020C000135430BD00ED00E014ED00E0002807DB04
:1020D00001234109034A00F01F00834042F82130E8
:1020E000704700BF00E100E0BFF34F8F0549064B8A
:1020F000CA6802F4E0621343CB60BFF34F8F00BFA6
:10210000FDE700BF00ED00E00400FA052DE9F04F07
:1021100000234FF00F094A4A4A4D02EA90280A6804
:1021200032FA03F401D1BDE8F08F012404FA03FA76
:102130001AEA020270D04C6824F01007022F16D160
:102140004FEAD30C00EB8C0C03F0070EDCF8206098
:102150004FEA8E0E09FA0EFB26EA0B0B0E6906F00B
:102160000F0606FA0EF646EA0B06CCF820600326A8
:10217000D0F800B04FEA430E06FA0EFC2BEA0C0B27
:102180006FEA0C0604F0030C0CFA0EFC013F4CEA5B
:102190000B0C012FC0F800C040D9032C3CD0C768FD
:1021A00037408E6806FA0EF63E43C660E60033D529
:1021B00023F0030707F1A84707F5083703F00306E4
:1021C000D7F860C0F60009FA06FE2CEA0E0C08FAF1
:1021D00006F646EA0C063E66D743D5F8806014F44E
:1021E000803F0CBF3E401643C5F88060D5F8846040
:1021F00014F4003F0CBF3E401643C5F884602E68BF
:1022000014F4801F0CBF3E4016432E606E68A4027B
:1022100054BF3E4016436E60013380E7876806EA8C
:10222000070CCF6807FA0EF747EA0C078760476884
:1022300027EA0A0C27099F4047EA0C074760AEE7E8
:102240007F7F2B000020025438B50A4CE36823F04E
:102250002003E360FEF720F90546E3689B0601D5FD
:10226000002038BDFEF718F9401BB0F57A7FF4D98D
:102270000320F6E700780054F8B5114D0646EC68E7
:1022800014F040041AD1EB6843F08003EB60FEF7D2
:1022900003F923460746EC6814F0400401D1032BF0
:1022A00001D11846F8BDFEF7F7F8C01BB0F57A7FEC
:1022B000234684BF032386F82D30ECE70023F0E7A4
:1022C0000078005438B50F4C0546E36823F08003CE
:1022D000E360A3699B0606D4FFF7B6FF10B10320A5
:1022E00085F82D0038BDA36923F02003A361FFF713
:1022F000ABFF10B1032085F82D00A36943F0200344
:10230000A361EFE70078005438B5044600284CD0AC
:1023100090F82D3003F0FF021BB980F82C20FEF757
:1023200087F90223224D84F82D30EB68DB0637D481
:10233000CA236B62532320466B62FFF79DFF18B1DF
:10234000FF2303206B6238BDAB69204623F08E6308
:1023500023F04003AB6121696368AA690B4313430F
:10236000A2691343AB61D4E9022343EA02432B6120
:10237000EA68D4E9093122F4F8520B431343EB60C5
:10238000FFF7A0FF0028DBD1D4E90713AA690B43AC
:1023900022F06042134362691343AB61FF236B6217
:1023A0000123002084F82D30CDE70120CBE700BFCA
:1023B00000780054094B1A6822EA01021A60D963B6
:1023C0000A04586842EA01620A4320EA02025A609B
:1023D000DA6A002022EA0102DA627047007C0054C7
:1023E000054B00201A6822EA01021A60DA6A22EA22
:1023F0000102DA62D9637047007C0054034A00206E
:10240000136843F001031360704700BF00040350DA
:1024100038B502230B4CE360236823F001032360EB
:10242000FEF73AF80546206810F0010000D138BDEB
:10243000FEF732F8401B0128F5D92368DB07F2D5F7
:102440000320F4E700040350024B186800F0010079
:10245000704700BF0004035038B50C4C6368D907BF
:1024600004D400200222094BDA6038BDFEF714F8CC
:10247000054663689B07F4D4FEF70EF8401B01285D
:10248000F7D963689A07F4D40320EBE700040350FC
:10249000064B5A68D20707D40222DA601A6842F063
:1024A00002021A60FFF7D8BF0120704700040350F2
:1024B00037B51A49D1E84F3F0133DBB2C1E8423F9B
:1024C000002AF7D1012B23D8154B164DD3F8E8106D
:1024D000284621F03001C3F8E810D3F88C1041F4FD
:1024E0008021C3F88C10D3F88C302A7203F4802337
:1024F0000193019B0C4B6A722B6001F082FB044636
:1025000048B96946284601F052FC204603B030BD68
:102510004FF0FF30FAE76FF00100F7E79821043041
:10252000000C02549C21043000080C5208B50748E6
:1025300001F0BFFB064AD2F88C3023F48023C2F8A6
:102540008C300022034B1A7008BD00BF9C21043060
:10255000000C0254982104300020704708B5FEF7A3
:10256000A1F900000A4B37B51B786BB1094C6369C0
:10257000984748B9E56AA847C307FCD4236A019382
:1025800003B0BDE830401847002003B030BD00BFA5
:10259000B0210430D069010C10B50B4C0020A368A9
:1025A000984780B902202369984760B94FF4E13118
:1025B0000120A46AA04730B901211520A04710B915
:1025C0000122024B1A7010BDD069010CB0210430F9
:1025D00010B5064C00202369984708B1043004D197
:1025E000E368984708B9024B187010BDD069010C18
:1025F000B021043000F076B970B50446074E451896
:10260000A54201D8002070BD2046F369984710B953
:1026100004F50054F4E743F65C20F4E7D868010CB5
:102620002DE9F84FDFF85CA00746DAF80430884659
:10263000154698470024144BC0F3410013F820902E
:1026400004F18003AB4294BF80262E1BB6FBF9FB3E
:10265000DAF814305A460D493819984700280EDB2D
:102660005A46DAF81830094908EB04009847002860
:1026700005DB3444A542E3D80020BDE8F88F43F6DB
:102680005C20FAE7D868010C2069010CB121043004
:1026900008B54FF400514FF42830FFF7ADFF48B9AB
:1026A000BDE808404FF400524FF428314FF4203079
:1026B000FFF7B6BF43F65C2008BD00002DE9F347E5
:1026C000DFF870900546D9F80430884614469847DC
:1026D000194BC0F3410013F820A0B5FBFAF70AFB31
:1026E000175727BBA4B9384602B0BDE8F0870AFBEC
:1026F00006F6A41BF7D0012201A9A819C847002893
:1027000012DB224601A908EB0600FDF7C8FDEAE747
:10271000B4FBFAF605F52035324641462846D9F88D
:102720001490C8470028E2DA43F65C27DBE74AF258
:10273000C537D8E7D868010C2069010C2DE9F04FA6
:1027400086187542C5F30C05354485B0B5F5005FB4
:102750000446019104D943F65C2005B0BDE8F08F32
:10276000DFF86C81D8F8043098470422594BC0F345
:10277000410053F82070D8F8143057480093FBB24A
:10278000B2FBF3F203A9009B9847039A531C023251
:1027900008BF01230393002D34D024F4FF5B2BF0FA
:1027A0001F0BA5EB0B010BF52030FFF725FF0028D1
:1027B000D1D1B5F5407FAA4628BF4FF4407ADA451B
:1027C00029D8B5F5407F5ED3FBB21027B7FBF3F7EE
:1027D000424D3A4629464048009B9847B6F5407F0F
:1027E0005CD8042203A93D48FDF759FD384B3A4611
:1027F0003A493B489B69984708B18742ABD1FFF7FC
:1028000047FFAAE74FF400514FF42030FFF7F4FEE2
:102810000028C2D09FE70BF180039A452CBF4FF0F0
:102820008009AAEB0B095FFA87F8B9FBF8F82B4986
:102830004246009B0BF5283098475E4516D909EBB8
:102840000B039C4212D2A3455A4638BF2246111BA5
:10285000A2EB0B009E4294BFC2EB0602C2EB030246
:10286000019B19441D4B1844FDF719FD184B4246B6
:102870009B691A490BF52030984710B180457FF4C9
:102880006AAFCB449BE74FF440724FF420314FF4D2
:102890002830FFF7C5FE002896D05CE7B4F5447FEA
:1028A0009FD2B4F5407F224638BF4FF44072019B5F
:1028B000111BA2F540700B44B6F5447F94BFC2EBE8
:1028C0000602C2F5447219462844FDF7E8FC88E781
:1028D000D868010C2069010C00A30200B12104306A
:1028E000008302002DE9F0414D4F86B00020BB6807
:1028F000984700286BD104226946FFF7DFFE0446A3
:1029000000283FD104224FF440700DEB0201FFF785
:10291000D5FE0446002835D1424E009BB34203D178
:10292000019B013B03335ED97B6898473E4BC0F364
:10293000410053F8205004224FF4005004A9FFF73F
:10294000BDFE0446F0B904224FF40C5005A9FFF770
:10295000B5FE0446B0B9049B4FF40051B3424FF4A6
:10296000203013D1059B013B03330FD8FFF744FE02
:1029700068BB4FF400524FF420314FF42830FFF77A
:102980004FFE20BB204606B0BDE8F081FFF734FEC5
:102990000146E0B94FF08008EDB280222348FDF7F0
:1029A0005BFCB8FBF5F84FF42035BF69284642467A
:1029B0001E498035B847B5F5283FF7D1FFF768FEC7
:1029C00028B9042202A90296FFF7B8FE10B143F617
:1029D0005C24D7E70123042203A94FF4407003933A
:1029E000FFF7ACFECDE704224FF40C5005A9FFF72A
:1029F00065FE04460028C5D1059B5A1E033206D841
:102A0000019A934203D30233BCD1012ABAD1FFF712
:102A10003FFE43F65C23002818BF1C46B2E700BF08
:102A2000D868010C1281DEC02069010CB12104308C
:102A3000FFF758BF1E280BD8012303FA00F00A4BFA
:102A4000034043B9094B18420BD110F0980F06D13F
:102A50004CF25A307047202300200B60704704234B
:102A6000FAE74023F8E700BF65FF004000000F20B1
:102A700037B50C4601A91D46FFF7DCFF50B9019B95
:102A800029469A4228BF1A46204603B0BDE8304086
:102A9000FFF714BE4CF25A3003B030BD13461E2867
:102AA00070D8DFE800F0106F15191D2125292D3190
:102AB00035393D42474C51565B606F6F6F6F6F6F9A
:102AC0006F6F6F656A000A4600200421FFF7D0BFD0
:102AD0000A4602202421F9E70A4603204421F5E7AB
:102AE0000A4604204821F1E70A4605204C21EDE77B
:102AF0000A4606206C21E9E70A4607208C21E5E713
:102B00000A4608209021E1E70A460920B021DDE7C6
:102B10000A460A20D021D9E70A460B20F021D5E742
:102B20000A460C204FF48871D0E70A460D204FF476
:102B30009871CBE70A460E204FF41471C6E70A4697
:102B40000F204FF41C71C1E70A4610204FF4A87102
:102B5000BCE70A4611204FF4C871B7E70A461220B5
:102B60004FF4E871B2E70A4613204FF40471ADE761
:102B70000A461D204FF42571A8E70A461E204FF48F
:102B80003571A3E74CF25A307047F0B593B00E465A
:102B900001A915461C46FFF74DFF00BB019B934260
:102BA00003D24AF2C53013B0F0BD402BF9D83046FD
:102BB00002A9FFF783FD0028F5D1224602AB2819B0
:102BC000824205D12A4621463046FFF7B7FDEAE7A3
:102BD00013F8011B12F8017BB943F1D0E1E74CF285
:102BE0005A30E0E713461E2870D8DFE800F0106F77
:102BF00015191D2125292D3135393D42474C515696
:102C00005B606F6F6F6F6F6F6F6F6F656A000A4603
:102C100000200421FFF7B9BF0A4602202421F9E76A
:102C20000A4603204421F5E70A4604204821F1E73B
:102C30000A4605204C21EDE70A4606206C21E9E70B
:102C40000A4607208C21E5E70A4608209021E1E7A3
:102C50000A460920B021DDE70A460A20D021D9E73B
:102C60000A460B20F021D5E70A460C204FF4887164
:102C7000D0E70A460D204FF49871CBE70A460E20A4
:102C80004FF41471C6E70A460F204FF41C71C1E7D8
:102C90000A4610204FF4A871BCE70A4611204FF4F1
:102CA000C871B7E70A4612204FF4E871B2E70A4646
:102CB00013204FF40471ADE70A461D204FF425712F
:102CC000A8E70A461E204FF43571A3E74CF25A30AC
:102CD0007047002070470020704708461146FFF7F4
:102CE00041BC00000FB41FB5012106AB53F8042B03
:102CF000054800910021039300F0B0F805B05DF89D
:102D000004EB04B0704700BFDB2C010C07B5034691
:102D10008DF80720084601220DF10701984703B0FE
:102D20005DF804FB2DE9F84F1D4607468846164618
:102D3000BDF828409DF82CA09DF830909DF83430C7
:102D40007AB333B113461D4613F8012B002AFAD18A
:102D5000AD1BAC428ABF641B0024A4B2BAF1000FC1
:102D600014D02A4631464046B847BAF1000F18D071
:102D7000002513E04A4641463846FFF7C7FF0BF1EE
:102D8000010B1FFA8BF39C42F4D8EAE7D346F8E72D
:102D90004A4641463846FFF7B9FF0135ABB29C427F
:102DA000F6D8BDE8F88F2DE9F04F002489B09DF8E2
:102DB00048C006469DF85800A4450F469DF854109B
:102DC0000CBF4FF0200A4FF0300AA0429846CDE9E0
:102DD00005440CBF612041209DF85030CDF81B40C8
:102DE00019B1A242ACBF214652420DF11E04A146C8
:102DF0000A38B2FBF3FB03FB1B2B5FFA8BF5BBF12D
:102E0000090F94BF30352D18A646EDB2934204F158
:102E1000FF346570B2FBF3F518D931B1BCF1000F86
:102E200016D12D232370AEF102040023CDE902A3B5
:102E30009DF84C303946CDE900833046A9EB0403B8
:102E4000621CFFF76FFF09B0BDE8F08F2A46D0E79C
:102E50002D2239463046FFF759FFE6E72DE9F04FBE
:102E600089B01C469DF8483006460F469246F3B19D
:102E700012783C2A19D00A3AD2B2282A98BF624B5B
:102E80004FF0010098BF53F822204FF0000388BF95
:102E90000022CDE90230CDE900333046FFF742FF92
:102EA000202239463046FFF731FF0AF1010A4FF080
:102EB0000009CB46C846002511E0BDB9252B00F01E
:102EC0009B800A2B06D10D22394630460793FFF727
:102ED0001DFF079B1A4639463046FFF717FF1AF8C1
:102EE000013B002BE9D109B0BDE8F08F7A2B08D85F
:102EF000682B0ED8302B74D036D8252B76D02D2BBE
:102F00007FD000230122CDE90033CDE902323F4AD0
:102F100062E0693B112BF4D801A252F823F000BF04
:102F20008B2F010C032F010C032F010CDF2E010C42
:102F3000032F010C032F010C032F010C032F010C95
:102F4000032F010C032F010CC72F010C032F010CC1
:102F5000952F010C032F010C032F010CB52F010C31
:102F6000032F010CDF2E010C582B28D00BD8A3F116
:102F70003102082AC5D808EB8808303B03EB480328
:102F80001FFA83F8ABE7642BBBD101230025CDE901
:102F9000033502E00025CDE903550A23CDE901936D
:102FA000CDF800B043463946304654F8042BFFF7BD
:102FB000FAFE94E70025049510230395EEE701231C
:102FC00000250493F8E720230121CDE902310023F5
:102FD000CDE9008954F8042B39463046FFF7A2FEAC
:102FE00069E7B8F1000FC6D1AB4678E71A46394613
:102FF0003046FFF78BFE5EE7A946AB46A8460125A3
:103000006DE7A9466BE700BF2C69010CE066010C77
:10301000044B82B0186883B26FF30F00184302B0FC
:10302000704700BF086A010C0120704700207047FC
:10303000002070476FF003007047002070470020A9
:103040007047002070476FF0030070470020704702
:1030500010B50C46014630B12CB10448A2B200F0C4
:10306000A1FD204610BD6FF00400FBE734220430C0
:103070000A4608B5014640B13AB14FF47A730448A4
:1030800092B200F046FC002008BD6FF00400FBE7A0
:103090003422043010B52B4B88B0D3F88C20072491
:1030A00042F00102C3F88C20D3F88C2003A902F06F
:1030B00001020092009AD3F88C20234842F00102CA
:1030C000C3F88C20D3F88C2002F001020192019AFF
:1030D000D3F8A42042F48042C3F8A420D3F8A4304B
:1030E0004FF4007203F480430293029B0223CDE964
:1030F00003230693012307940593FFF707F84FF482
:10310000806303A9104803930794FEF7FFFF0F495C
:103110000F4B0C220B6000234FF4E130C1E9052373
:103120004FF40042C1E901030846C1E90333C1E994
:1031300007234B6200F07CFC003818BF012040429E
:1031400008B010BD000C02540000025234220430BA
:103150000038015000207047704770477047704733
:10316000D0F88C2008B5222A036845D15B6AB0F8F4
:103170006010826D0B401370836D01338365B0F86E
:103180005E30013B9BB2A0F85E30B0F85E309BB27F
:1031900073BB026852E8003F23F4907342E80031A9
:1031A00003680029F5D103F1080252E8001F944694
:1031B00021F001014CE80012002AF4D12021C0F8CE
:1031C0008C100267C16E4267012912D1C26653E8B2
:1031D000002F22F0100243E800210029F7D1DA691C
:1031E000B0F85C10D20644BF10221A62FFF7B7FF96
:1031F00008BDFFF7B2FFFBE79A6942F008029A6147
:10320000F6E7D0F88C2008B5222A036842D1596A23
:10321000B0F860201140826D22F8021B8265B0F880
:103220005E20013A92B2A0F85E20B0F85E2092B221
:1032300062BB53E8002F22F4907243E8002100297A
:10324000F7D103F1080252E8001F944621F0010172
:103250004CE80012002AF4D12021C0F88C1002673B
:10326000C16E4267012912D1C26653E8002F22F0D5
:10327000100243E800210029F7D1DA69B0F85C10A8
:10328000D20644BF10221A62FFF769FF08BDFFF79C
:1032900064FFFBE79A6942F008029A61F6E70000D2
:1032A00003682DE9F047DD69D3F800909F68D0F8F6
:1032B0008C200446222A40F0A980B0F868303BB93F
:1032C000B4F85E309BB2002B40F08380BDE8F087FD
:1032D0004FF0000AB0F860804F4E07F00107AB06D0
:1032E000EED52368A26D5B6A03EA08031370A36D31
:1032F0000133A365B4F85E30013B9BB2A4F85E30A5
:103300002368DD6969072AD0EA070AD519F4807FA6
:1033100007D001221A62D4F8902042F00102C4F8CA
:103320009020A80708D53FB102221A62D4F8902055
:1033300042F00402C4F89020690708D53FB1042286
:103340001A62D4F8903043F00203C4F89030D4F8F5
:10335000903023B12046FFF701FFC4F890A0B4F8E5
:103360005E309BB2002BBAD1226852E8003F23F4B2
:10337000807342E8003123680029F5D103F1080287
:1033800052E8001F1046314040E80012002AF5D1F3
:103390002021C4F88C102267E16E6267012914D1E4
:1033A000E26653E8002F22F0100243E800210029D2
:1033B000F7D1DA692046D20648BF1022B4F85C1073
:1033C00048BF1A62FFF7CBFE89E72046FFF7C5FE2C
:1033D00085E7B4F868209A427FF678AF226802F158
:1033E000080353E8003F23F08053083242E80031DD
:1033F00022680029F2D1094B636752E8003F43F08D
:10340000200342E800310029F7D15FE79A6942F0D2
:1034100008029A615AE700BFFEFFFFEF6131010C1D
:1034200003682DE9F047DD69D3F800909F68D0F874
:103430008C200446222A40F0A780B0F868303BB9BF
:10344000B4F85E309BB2002B40F08180BDE8F0877D
:103450004FF0000AB0F860804E4E07F00107AB064F
:10346000EED52368A26D596A08EA010122F8021B11
:10347000A265B4F85E20013A92B2A4F85E20DD693C
:1034800069072AD0EA070AD519F4807F07D00122FC
:103490001A62D4F8902042F00102C4F89020A807E4
:1034A00008D53FB102221A62D4F8902042F00402FB
:1034B000C4F89020690708D53FB104221A62D4F8F5
:1034C000903043F00203C4F89030D4F8903023B128
:1034D0002046FFF743FEC4F890A0B4F85E309BB2DC
:1034E000002BBCD1226852E8003F23F4807342E8ED
:1034F000003123680029F5D103F1080252E8001FCA
:103500001046314040E80012002AF5D12021C4F8CD
:103510008C102267E16E6267012914D1E26653E8DC
:10352000002F22F0100243E800210029F7D1DA69C8
:103530002046D20648BF1022B4F85C1048BF1A6279
:10354000FFF70DFE8BE72046FFF707FE87E7B4F88D
:1035500068209A427FF67AAF226802F1080353E8A6
:10356000003F23F08053083242E8003122680029EE
:10357000F2D1094B636752E8003F43F0200342E871
:1035800000310029F7D161E79A6942F008029A6197
:103590005CE700BFFEFFFFEF0332010CF8B5044605
:1035A0000368C169826800691D680243606902435B
:1035B00075480A43284002431A605A68E06822F4BA
:1035C000405202435A60714AA069934205D002F109
:1035D000805293421CBF226A10439A6822F06E42C6
:1035E00022F4306202439A60DA6A606A22F00F02C3
:1035F0000243DA62664A93426ED0A2F57442934265
:1036000000F08F8002F58062934200F08C8002F51A
:103610008062934200F08980B3F1502F00F08780E0
:1036200002F5C052934200F0848002F5A05293420A
:1036300000F0818002F5806293427ED002F58062C4
:1036400093427CD0A2F5C05293427BD002F58062B7
:1036500093427AD002F5C052934279D04D4A9342B8
:103660001CD002F1704293424FF0000035D100218E
:1036700000F0B2FD70B3616A474A656832F8112004
:1036800005EB4501B0FBF2F399420AD901204FF056
:103690000113A3660023C4E91D33F8BD4FF4805025
:1036A000E5E7B3EB053FF1D80023194602F06EFCC5
:1036B0000023064619464FF4807768082A46E6FB41
:1036C000070102F063FC354BA0F540729A42DDD849
:1036D0002368D8600020DAE70120B1F5004F4FF0F1
:1036E000000138D100F078FD0028F3D0616A2A4B40
:1036F000626833F81130B0FBF3F0530803EB40037A
:10370000B3FBF2F34FF6EF72A3F110019142BDD873
:1037100023F00F02216892B2C3F342031343CB603C
:10372000D8E70220D9E70420D7E70820D5E7102002
:10373000D3E72020D1E74020CFE78020CDE74FF42A
:103740008070CAE74FF40070C7E74FF48060C4E7A9
:103750004FF40060C1E700F03FFD0028BAD0616A75
:103760000D4B626833F81130B0FBF3F303EB5203F7
:10377000B3FBF2F34FF6EF72A3F11001914285D83B
:103780002268D360A6E700BFF369FFCF002400449E
:1037900000380150002400540C6A010CFFFC0F009B
:1037A000836A10B5DA0706D50168C46A4A6822F44C
:1037B000003222434A609C0706D50168046B4A68C0
:1037C00022F4803222434A60590706D50168446BCF
:1037D0004A6822F4802222434A601A0706D501680B
:1037E000846B4A6822F4004222434A60DC0606D514
:1037F0000168C46B8A6822F4805222438A60990669
:1038000006D50168046C8A6822F4005222438A605B
:103810005A0610D50168446C4A68B4F5801F22F43A
:10382000801242EA04024A6005D14A68846C22F49C
:10383000C00222434A601B0606D50268C16C536869
:1038400023F400230B43536010BD2DE9F8430546D4
:103850000F4616469846DDF820902A68D36937EA65
:1038600003030CBF01230023B34201D0002029E051
:10387000B9F1FF3FF2D0FCF70FFEA0EB080048457E
:103880002C6802D8B9F1000F1ED154E8003F23F490
:10389000D07344E80032002AF7D104F1080353E85A
:1038A000003F23F0010304F1080141E80032002A3F
:1038B000F3D12023C5F88830C5F88C3000230320CD
:1038C00085F88430BDE8F88323685A07C5D5E369D5
:1038D0001B05C2D54FF40063236254E8003F23F474
:1038E000D07344E80032002AF7D104F1080353E80A
:1038F000003F23F0010304F1080141E80032002AEF
:10390000F3D12023C5F88830C5F88C30C5F8903045
:10391000D4E72DE9F7439846D0F888300446202BA9
:103920000E4617464BD100294BD0002A49D00368D8
:1039300000259A68120642BF9A6822F080029A60B7
:103940002123C0F89050C0F88830FCF7A5FDA3688B
:103950008146B3F5805FA4F85470A4F8567003D183
:1039600023690BB935461E46B4F856204B4692B231
:10397000CDF8008042B940212046FFF766FF48B9E4
:103980002023C4F8883006E0002280212046FFF77B
:103990005CFF18B1032003B0BDE8F08322685EB974
:1039A00035F8023BC3F308039362B4F85620013A9A
:1039B00092B2A4F85620D7E716F8013BF4E70220AC
:1039C000E9E70120E7E773B500260446C0F89060F8
:1039D000FCF762FD236805461B681A0719D42368A3
:1039E0001B685B070AD56FF07E43002200934FF4FB
:1039F00080012B462046FFF728FFB0B90020202386
:103A000084F88400C4F88830C4F88C30E0662067FD
:103A10000CE06FF07E43324600934FF400110346F2
:103A20002046FFF712FF0028D9D0032002B070BD56
:103A300010B5044650B3D0F888301BB980F88430F4
:103A4000FFF78AFB24232268C4F8883013682046D5
:103A500023F001031360FFF7A1FD012816D0A36A2C
:103A600013B12046FFF79CFE23682046BDE81040B6
:103A70005A6822F490425A609A6822F02A029A60A8
:103A80001A6842F001021A60FFF79DBF012010BDC5
:103A9000002330B581658168A0F85C20B1F5805FB6
:103AA000A0F85E20436731D10369002B40F2FF1379
:103AB00018BFFF23A0F860300023C0F89030222305
:103AC000C0F88C30016801F1080353E8003F43F06F
:103AD0000103083141E800340368002CF2D1456E3F
:103AE0008468B5F1005F016935D1B0F8685095423E
:103AF00031D8B4F5805F29D1C1B1264A426753E875
:103B0000002F42F4807243E8002121E029B90369C3
:103B1000002B0CBFFF237F23CCE7B1F1805FC9D11D
:103B20000369002B0CBF7F233F23C3E71A4A426778
:103B300003F1080252E8002F42F0805203F108001E
:103B400040E800210029F3D1002030BD114A42672E
:103B50000029D4D1ECE7B4F5805F16D151B10F4AFA
:103B6000426753E8002F42F4907243E80021002995
:103B7000F7D1E9E70A4A426753E8002F42F02002F2
:103B800043E800210029F7D1DEE7044A4267002913
:103B9000E7D1F1E7A132010C2134010C6131010CB4
:103BA0000332010C38B5D0F88C30202B21D111B361
:103BB0000AB30023C36603689C68650642BF9C681D
:103BC00024F040049C600D4CA3420ED004F18054BC
:103BD000A3420AD05C68240207D553E8004F44F0A2
:103BE000806443E80045002DF7D1FFF751FF002026
:103BF00038BD0220FCE70120FAE700BF00240044A2
:103C0000704738B50446002839D0437A03F0FF02E4
:103C100013B90272FFF7F4FF02232268637213687C
:103C2000616823F004031360136823F0804323F0DA
:103C300020030B4343F080431360136823F0804359
:103C40001360FCF729FC054623681A68510009D463
:103C50001A6842F004021A605B685A0611D5042300
:103C600063720CE0FCF718FC401B0428ECD92368B5
:103C70001B685800E8D5012363720223E36001202A
:103C800038BDFCF709FC05462368586810F00400AD
:103C900003D101236372E060F2E7FCF7FDFB401BF8
:103CA0000428F1D923685B685B07EDD50423E3E7BB
:103CB000704770B50446002833D00268136823F0BB
:103CC000804323F0200343F080431360136823F004
:103CD00080431360FCF7E0FB064623681D6815F07F
:103CE00080450FD11A68204622F00C021A605A68EB
:103CF00022F060025A60FFF7DBFF65722846E5603C
:103D000025720FE0FCF7C8FB801B0428E5D9236867
:103D10001B685B00E1D5012363720223E36000238B
:103D20002372012070BD7047002307B5019303681B
:103D30005A68510709D45A6822F040025A60C36891
:103D400023F00803C360002018E01A6842F08042A4
:103D50001A601A6822F080421A6004220192019AC5
:103D6000013A0192019A62B901234372C368027257
:103D700043F00203C360FFF7D6FF012003B05DF8F4
:103D800004FB1A685200EAD45A68510642BF5A68C6
:103D900022F040025A6004220192019A013A0192F3
:103DA000019A002AE0D05A685207F6D4C7E7F8B55E
:103DB000037A0446012B0E4643D00123427A037254
:103DC0009A42D5B239D10223437203685B685F0619
:103DD0001BD4FCF761FB074623685A68D0071CD543
:103DE0009A6859682261490642BF0822E2605A680F
:103DF0004FF0000544BF22F001025A604FF001036A
:103E000058BF32606372002315E00823C360FFF7D8
:103E10008BFF0128DDD12846F8BDFCF73DFBC01B18
:103E20000428D9D923685B6813F00103D4D1012297
:103E300062720222E2602372EDE704221D46C26034
:103E4000E1E70225E7E700002DE9F0474A4C054687
:103E5000D4F83490D4F82880A36AD4F828A013F4B6
:103E60007C5FA66BC3F3052000F0818001F0C6FEE5
:103E7000C6F3CC0607460AF01000704301F0BEFE00
:103E80004FF0645101F012FF0646C9F3080001F03B
:103E9000B5FE0146304601F001FE4FF07E5101F0C3
:103EA000FDFD08F00303022B06465AD0032B5BD01E
:103EB00023683248C3F3C103D84001F09FFE39465E
:103EC00001F0A8FF314601F0F1FE2B4A04461068CC
:103ED00010F0007012D0906A10F480300ED0506B49
:103EE000C0F3462001F08AFE4FF07E5101F0D6FD6E
:103EF0000146204601F08EFF02F028F81E4A286095
:103F0000106810F0007012D0906A10F400300ED0DB
:103F1000506BC0F3064001F071FE4FF07E5101F08E
:103F2000BDFD0146204601F075FF02F00FF8124B6F
:103F300068601A6891011CD59A6A520319D5586BAA
:103F4000C0F3066001F05AFE4FF07E5101F0A6FD6D
:103F50000146204601F05EFF01F0F8FFA860BDE8D1
:103F6000F08739460648ABE739460648A8E7C5E971
:103F700000000020F2E700BF000C02540090D003C4
:103F80000024744A20BCBE4B2DE9F047444C054642
:103F9000D4F83C90D4F82C80E36AD4F82CA013F425
:103FA0007C5F266CC3F3052077D001F027FEC6F3B3
:103FB000CC0607460AF01000704301F01FFE4FF0D8
:103FC000645101F073FE0646C9F3080001F016FEC5
:103FD0000146304601F062FD4FF07E5101F05EFD7A
:103FE00008F00303022B064641D0032B42D023687E
:103FF0002C48C3F3C103D84001F000FE394601F05C
:1040000009FF314601F052FE254B0446D86A10F4F0
:1040100080300ED0D86BC0F3462001F0EFFD4FF09A
:104020007E5101F03BFD0146204601F0F3FE01F018
:104030008DFF1B4B2860D86A10F400300ED0D86B6F
:10404000C0F3064001F0DAFD4FF07E5101F026FD8D
:104050000146204601F0DEFE01F078FF104B68605B
:10406000DA6A520309D40020A860BDE8F087394617
:104070000D48C4E739460D48C1E7D86BC0F3066068
:1040800001F0BCFD4FF07E5101F008FD01462046D5
:1040900001F0C0FE01F05AFFE6E7C5E90000E2E7E3
:1040A000000C02540090D0030024744A20BCBE4B84
:1040B0002DE9F047444C0546D4F84490D4F83080BC
:1040C000236BD4F830A013F47C5FA66CC3F30520F7
:1040D00077D001F093FDC6F3CC0607460AF0100036
:1040E000704301F08BFD4FF0645101F0DFFD064697
:1040F000C9F3080001F082FD0146304601F0CEFC14
:104100004FF07E5101F0CAFC08F00303022B064673
:1041100041D0032B42D023682C48C3F3C103D840BD
:1041200001F06CFD394601F075FE314601F0BEFD2F
:10413000254B0446186B10F480300ED0586CC0F339
:10414000462001F05BFD4FF07E5101F0A7FC0146D7
:10415000204601F05FFE01F0F9FE1B4B2860186B52
:1041600010F400300ED0586CC0F3064001F046FD4C
:104170004FF07E5101F092FC0146204601F04AFECC
:1041800001F0E4FE104B68601A6B520309D4002062
:10419000A860BDE8F08739460D48C4E739460D48A8
:1041A000C1E7586CC0F3066001F028FD4FF07E5166
:1041B00001F074FC0146204601F02CFE01F0C6FE21
:1041C000E6E7C5E90000E2E7000C02540090D003E6
:1041D0000024744A20BCBE4B7FB500F17E420A43E6
:1041E00003462DD1B54AD2F8F030D2F8F01003F4DE
:1041F0004073890703D5B3F5807F01F08A83D2F835
:10420000F020120103D5B3F5007F01F08683AB4A9D
:10421000106810F4003010D0B3F5407F41F0818376
:10422000D36903F47C53B3F5007FC1F07D83D36978
:10423000A348C3F30523B0FBF3F007B05DF804FB1C
:10424000A0F580120A4300F0C3819E4A904271F1AA
:10425000000280F09C80A0F580620A4300F0CB84CD
:1042600040F20142904271F100024AD2A0F12002D4
:104270000A4300F06483212871F1000223D2092847
:1042800071F1000218D250EA010201F05083431E7E
:1042900041F1FF31082B71F1000181F04B83072BB5
:1042A00001F24883DFE813F0FF014302460B890265
:1042B000460B460B460BC702A0F110030B4300F060
:1042C000FC820020B9E7A0F580720A4300F0078461
:1042D00040F20112904271F100020BD2A0F14002B3
:1042E0000A4300F06E83A0F180030B4300F0B1831A
:1042F0000020A2E7A0F500730B4300F036840020F5
:104300009BE7A0F500420A4300F0E48548F2010271
:10431000904271F100021DD2A0F500520A4300F054
:10432000858542F20102904271F100020BD2A0F5A4
:1043300000620A4300F0A084A0F580530B4300F014
:10434000E184002079E7A0F580430B4300F09885D5
:10435000002072E7A0F580220A4300F095865A4AB1
:10436000904271F100020BD2A0F580320A4300F0B6
:104370000B86A0F500330B4300F0268600205CE797
:10438000A0F500230B4300F0DA80002055E700225F
:104390000220814208BF934201F023829A42884161
:1043A00049D303F17040084301F0AA804748834293
:1043B00071F1000021D2A3F500020A4300F06281EE
:1043C000434A934271F100020BD2A3F500120A4353
:1043D00000F0DB84A3F580030B4300F04281002052
:1043E0002BE703F17C420A4301F03F8203F178435B
:1043F0000B4301F03A8000201FE74FF0004091424C
:1044000008BF834201F06381984272EB01000BD335
:1044100003F160420A4301F0C88003F140430B43BB
:1044200001F01081002008E7012908BF934201F044
:104430009381002001E74020814208BF934200F0B1
:10444000E3869A42884145D31020814208BF9342B7
:1044500001F038829A42884129D3042908BF934247
:1044600000F0E1870020082908BF83427FF4E5AE11
:10447000124AD2F8E830D2F8F01003F0C0038907EE
:1044800002D5002B01F0CC82D2F8F020100102D529
:10449000402B01F0C982094A106810F400703FF403
:1044A000CCAE802B48F2120018BF0020C5E62029B0
:1044B00008BF934200F048860020BEE6000C02547C
:1044C00040787D010100100001000400010000108F
:1044D000010080004FF40070814208BF934200F059
:1044E0008C849A42884122D3802908BF934200F0ED
:1044F000F1860020B1F5807F08BF83427FF49DAE36
:104500009B4AD2F8DC3003F0E043B3F1405F00F0A7
:10451000658700F23F87B3F1805F00F05187B3F108
:10452000005F00F05587002B00F0F28385E6B1F5BF
:10453000806F08BF934200F0F68400207DE68C4A2D
:10454000D2F8E83003F4E023B3F5003F18D007D8E1
:104550007BB9002303A80493FFF776FC04986CE66C
:10456000B3F5403F01F0E981B3F5802F0FD0002073
:1045700063E6002368460093FFF706FD00985CE6BB
:10458000002303A80393FFF793FD039855E6D2F8A1
:10459000E830116803F04043880706D52BB913684B
:1045A0007448C3F3C103D84047E6714A11688905CE
:1045B00003D5B3F1804F01F0C381106810F40030CF
:1045C0003FF43BAEB3F1004F6B4818BF002034E618
:1045D000674AD2F8E83003F46013B3F5801F18D0AF
:1045E00007D87BB9002303A80493FFF72DFC049898
:1045F00023E6B3F5C01F01F0A681B3F5001F0FD06D
:1046000000201AE6002368460093FFF7BDFC0098DF
:1046100013E6002303A80393FFF74AFD03980CE673
:10462000D2F8E830116803F04043880706D52BB96B
:1046300013685048C3F3C103D840FEE54C4A1168E3
:10464000890503D5B3F1804F01F08081106810F423
:1046500000303FF4F2ADB3F1004F474818BF0020DF
:10466000EBE5434BD3F8E4305B0606D4002303A804
:104670000493FFF7E9FB0498DFE56846FFF784FC45
:104680000298DAE53A4BD3F8E430180606D4002352
:1046900003A80493FFF7D8FB0498CEE56846FFF71C
:1046A00073FC0298C9E5324AD2F8D83013F00703F8
:1046B00004D107B05DF804EBFDF7A2BC1168090155
:1046C00008D5012B06D1002368460193FFF75CFC57
:1046D0000198B2E51268900008D5022B06D100239C
:1046E00003A80493FFF7E4FC0498A6E5204A1168A8
:1046F000890707D5032B05D113681E48C3F3C103EF
:10470000D8409AE51268920502D5042B01F0218168
:10471000174AD2F8F00010F002003FF48EADA3F17A
:10472000050CDCF1000343EB0C03D80385E5104ACC
:10473000D2F8D83013F0380304D107B05DF804EB99
:10474000FDF74CBC1268100108D5082B06D10023D8
:1047500068460193FFF718FC01986EE5102B0DD108
:10476000002303A80493FFF7A3FC049865E500BFAA
:10477000000C02540090D00340787D019B4A1168E0
:10478000890707D5182B05D113689948C3F3C103CE
:10479000D84052E51268920502D5202B01F0DC804A
:1047A000924AD2F8F00010F002003FF446ADA3F1B7
:1047B000280043424341D8033FE58C4AD2F8D83021
:1047C00013F4E073B9D01168090108D5402B06D164
:1047D000002368460193FFF7D7FB01982DE5126887
:1047E000900008D5802B06D1002303A80493FFF77F
:1047F0005FFC049821E57D4A1168890707D5C02B25
:1048000005D113687A48C3F3C103D84015E512688F
:10481000920503D5B3F5807F01F0A180734AD2F8E9
:10482000F00010F002003FF408ADA3F5A070434281
:104830004341D80301E56D4AD2F8D83013F46063E0
:104840003FF47BAF1168090109D5B3F5007F06D1AC
:10485000002368460193FFF797FB0198EDE4126887
:10486000900009D5B3F5806F06D1002303A8049307
:10487000FFF71EFC0498E0E45C4A1168890708D53C
:10488000B3F5C06F05D113685948C3F3C103D840CD
:10489000D3E41268920503D5B3F5006F01F062808E
:1048A000524AD2F8F00010F002003FF4C6ACA3F573
:1048B000206043424341D803BFE44C4AD2F8D83089
:1048C00013F4E0433FF439AF1168090109D5B3F59A
:1048D000805F06D1002368460193FFF755FB0198DE
:1048E000ABE41268900009D5B3F5005F06D1002350
:1048F00003A80493FFF7DCFB04989EE43B4A11688D
:10490000890708D5B3F5405F05D113683848C3F36C
:10491000C103D84091E41268920503D5B3F5804FE6
:1049200001F02380314AD2F8F00010F002003FF489
:1049300084ACA3F5A04043424341D8037DE42B4A15
:10494000D2F8D83013F460333FF4F7AE11680901A0
:1049500009D5B3F5004F06D1002368460193FFF750
:1049600013FB019869E41268900009D5B3F5803F04
:1049700006D1002303A80493FFF79AFB04985CE494
:104980001A4A1168890708D5B3F5C03F05D11368E5
:104990001748C3F3C103D8404FE41268920503D50A
:1049A000B3F5003F00F0E487104AD2F8F00010F0B1
:1049B00002003FF442ACA3F5203043424341D80308
:1049C0003BE40A4AD2F8D83013F4E0133FF4B5AE12
:1049D000116809010ED5B3F5802F0BD1002368466D
:1049E0000193FFF7D1FA019827E400BF000C0254AD
:1049F0000090D0031268900009D5B3F5002F06D1BE
:104A0000002303A80493FFF753FB049815E4A44A7A
:104A10001168890708D5B3F5402F05D11368A1485F
:104A2000C3F3C103D84008E41268920503D5B3F577
:104A3000801F00F0A0879A4AD2F8F00010F0020020
:104A40003FF4FBABA3F5A01043424341D803FFF76B
:104A5000F4BB934AD2F8D83013F460033FF46DAE40
:104A6000116809010AD5B3F5001F07D10023684674
:104A70000193FFF789FA0198FFF7DFBB12689000F6
:104A80000AD5B3F5800F07D1002303A80493FFF7DD
:104A90000FFB0498FFF7D1BB814A1168890709D53C
:104AA000B3F5C00F06D113687E48C3F3C103D840E5
:104AB000FFF7C3BB1268920503D5B3F5000F00F0F2
:104AC0005D87774AD2F8F00010F002003FF4B5ABF2
:104AD000A3F5200043424341D803FFF7AEBB704A21
:104AE000D2F8D83013F0E0633FF427AE1168090123
:104AF0000AD5B3F1807F07D1002368460193FFF701
:104B000043FA0198FFF799BB126890000AD5B3F1F8
:104B1000007F07D1002303A80493FFF7C9FA049884
:104B2000FFF78BBB5E4A1168890709D5B3F1407F57
:104B300006D113685B48C3F3C103D840FFF77DBBC0
:104B40001268920503D5B3F1806F00F01A87544ABA
:104B5000D2F8F00010F002003FF46FAB03F17B409D
:104B600043424341D803FFF768BB4D4AD2F8D830DF
:104B700013F060533FF4E1AD116809010AD5B3F1B8
:104B8000006F07D1002368460193FFF7FDF90198F4
:104B9000FFF753BB126890000AD5B3F1805F07D1CD
:104BA000002303A80493FFF783FA0498FFF745BB9B
:104BB0003B4A1168890709D5B3F1C05F06D1136874
:104BC0003848C3F3C103D840FFF737BB12689205DA
:104BD00003D5B3F1005F00F0D786314AD2F8F00078
:104BE00010F002003FF429AB03F158404342434127
:104BF000D803FFF722BB2A4AD2F8DC3013F00703B0
:104C00003FF49BAD1168090109D5012B07D10023A1
:104C100068460193FFF7B8F90198FFF70EBB1268D9
:104C2000900009D5022B07D1002303A80493FFF7B6
:104C30003FFA0498FFF701BB194A1168890708D5A4
:104C4000032B06D113681748C3F3C103D840FFF7FD
:104C5000F4BA1268920502D5042B00F09886104A27
:104C6000D2F8F00010F002003FF4E7AA581F4342C8
:104C70004341D803FFF7E1BA094AD2F8DC3013F018
:104C800070033FF45AAD116809010DD5102B0BD1FB
:104C9000002368460193FFF777F90198FFF7CDBA33
:104CA000000C02540090D0031268900009D5202B0C
:104CB00007D1002303A80493FFF7FAF90498FFF73C
:104CC000BCBAAE4A1168890708D5302B06D11368E3
:104CD000AB48C3F3C103D840FFF7AFBA12689205DF
:104CE00002D5402B00F05686A44AD2F8F00010F00E
:104CF00002003FF4A2AAA3F1500043424341D8036B
:104D0000FFF79BBA9D4AD2F8E03013F0E06304D17C
:104D100007B05DF804EBFDF785B9B3F1807F07D1EB
:104D2000002368460193FFF72FF90198FFF785BA32
:104D3000B3F1007F07D1002303A80493FFF7B8F96C
:104D40000498FFF77ABA1168890709D5B3F1407F53
:104D500006D113688A48C3F3C103D840FFF76DBA80
:104D6000864A1168880503D5B3F1806F00F0158677
:104D7000D2F8F00010F002003FF45FAA03F17B418B
:104D80004B424B41D803FFF758BA7C4AD2F8E8307F
:104D900013F0070304D107B05DF804EBFDF708B981
:104DA000012B04D107B05DF804EBFDF74BB8022BE3
:104DB00005D16846FFF7E8F80298FFF73EBA126897
:104DC000920302D5032B00F0EB856C4A116888072B
:104DD00008D5042B06D113686948C3F3C103D84032
:104DE000FFF72BBA106810F400703FF426AA052BC9
:104DF000644818BF0020FFF720BA604AD2F8E830B4
:104E0000D2F8F01003F00803890702D5002B00F058
:104E1000CA85D2F8F00010F000603FF40EAA002B13
:104E200014BF4FF4FA400020FFF707BA534AD2F8F4
:104E3000E43013F440333FF480ACB3F5803F05D148
:104E400003A8FFF735F90598FFF7F7B91168880748
:104E500009D5B3F5003F06D113684948C3F3C10330
:104E6000D840FFF7EAB9454A106810F400703FF4E3
:104E7000E4A9B3F5403F434818BF0020FFF7DDB970
:104E80003E4AD2F8E43013F440233FF456ACB3F575
:104E9000802F05D103A8FFF70BF90598FFF7CDB9CF
:104EA0001168890709D5B3F5002F06D11368344876
:104EB000C3F3C103D840FFF7C0B9304A106810F4FB
:104EC00000703FF4BAA9B3F5402F2E4818BF002058
:104ED000FFF7B3B9294AD2F8E43013F440133FF492
:104EE00017AFB3F5801F05D103A8FFF7E1F80598C8
:104EF000FFF7A3B91168880709D5B3F5001F06D1DC
:104F000013681F48C3F3C103D840FFF796B9106870
:104F100010F400703FF491A9B3F5401F194818BF71
:104F20000020FFF78AB9154AD2F8E43013F44003A1
:104F30003FF4EEAEB3F5800F05D103A8FFF7B8F844
:104F40000598FFF77AB91168890709D5B3F5000FFD
:104F500006D113680A48C3F3C103D840FFF76DB9FF
:104F6000064A106810F400703FF467A9B3F5400FCB
:104F7000044818BF0020FFF760B900BF000C0254BE
:104F80000090D00300093D00B24AD2F8E43013F09B
:104F900040733FF4D2ABB3F1807F05D103A8FFF794
:104FA00087F80598FFF749B9106810F002003FF440
:104FB00044A9B3F1007F40F0FA841368A648C3F314
:104FC000C103D840FFF739B9A24AD2F8DC3003F464
:104FD000E063B3F5407F23D00BD8B3F5807F11D0C9
:104FE000B3F5007F16D0002B3FF492AE0020FFF700
:104FF00024B9B3F5806F1AD0B3F5A06F21D000208B
:10500000FFF71BB9002368460093FEF7BDFF009829
:10501000FFF713B903A8FFF74BF80598FFF70DB991
:10502000D2F8F000C0F34000C003FFF706B9D2F891
:10503000F03013F0006F14BF4FF4FA400020FFF778
:10504000FCB8D2F8E830116803F04043880707D570
:1050500033B913688048C3F3C103D840FFF7EDB8F4
:105060007C4A1168890503D5B3F1804F00F0A28412
:10507000106810F400303FF4E0A8B3F1004F774817
:1050800018BF0020FFF7D9B8724AD2F8DC3003F419
:10509000E043B3F5405F23D00BD8B3F5805F11D068
:1050A000B3F5005F16D0002B3FF447AB0020FFF7AD
:1050B000C4B8B3F5804F1AD0B3F5A04F21D000206B
:1050C000FFF7BBB8002368460093FEF75DFF00982A
:1050D000FFF7B3B803A8FEF7EBFF0598FFF7ADB8ED
:1050E000D2F8F000C0F34000C003FFF7A6B8D2F832
:1050F000F03013F0006F14BF4FF4FA400020FFF7B8
:105100009CB8D2F8E830116803F04043880707D50F
:1051100033B913685048C3F3C103D840FFF78DB8C3
:105120004C4A1168890503D5B3F1804F00F04584DE
:10513000106810F400303FF480A8B3F1004F4748E6
:1051400018BF0020FFF779B8424AD2F8DC3003F4E8
:10515000E023B3F5403F23D00BD8B3F5803F11D007
:10516000B3F5003F16D0002B3FF4D2AD0020FFF77F
:1051700064B8B3F5802F1AD0B3F5A02F21D000204A
:10518000FFF75BB8002368460093FEF7FDFE00982A
:10519000FFF753B803A8FEF78BFF0598FFF74DB84C
:1051A000D2F8F000C0F34000C003FFF746B8D2F8D1
:1051B000F03013F0006F14BF4FF4FA400020FFF7F7
:1051C0003CB8D2F8E830116803F04043880707D5AF
:1051D00033B913682048C3F3C103D840FFF72DB893
:1051E0001C4A1168890503D5B3F1804F00F0E883AC
:1051F000106810F400303FF420A8B3F1004F1748B6
:1052000018BF0020FFF719B8124AD2F8DC3003F4B7
:10521000E003B3F5401F29D00BD8B3F5801F11D0A0
:10522000B3F5001F1CD0002B3FF472AD0020FFF738
:1052300004B8B3F5800F20D0B3F5A00F27D000201D
:10524000FEF7FBBF002368460093FEF79DFE009823
:10525000FEF7F3BF000C02540090D00340787D01AC
:1052600003A8FEF725FF0598FEF7E7BFD2F8F00088
:10527000C0F34000C003FEF7E0BFD2F8F03013F0F7
:10528000006F14BF4FF4FA400020FEF7D6BFD2F8EB
:10529000E830116803F04043880707D533B9136835
:1052A000AC48C3F3C103D840FEF7C7BFAA4A116890
:1052B000890503D5B3F1804F00F08583106810F4A1
:1052C00000303EF4BAAFB3F1004FA44818BF00203D
:1052D000FEF7B3BFA04AD2F8DC3003F0E063B3F1CD
:1052E000407F23D00BD8B3F1807F11D0B3F1007F82
:1052F00016D0002B3FF40CAD0020FEF79EBFB3F19B
:10530000806F1AD0B3F1A06F21D00020FEF795BFB7
:10531000002368460093FEF737FE0098FEF78DBF26
:1053200003A8FEF7C5FE0598FEF787BFD2F8F00088
:10533000C0F34000C003FEF780BFD2F8F03013F096
:10534000006F14BF4FF4FA400020FEF776BFD2F88A
:10535000E830116803F04043880707D533B9136874
:105360007C48C3F3C103D840FEF767BF7A4A11688F
:10537000890503D5B3F1804F00F02883106810F43D
:1053800000303EF45AAFB3F1004F744818BF00200C
:10539000FEF753BFB3F1804F27D0B3F1A04F7EF497
:1053A0004CAFD2F8E830116803F04043880726D5A7
:1053B0002BBB13686748C3F3C103D840FEF73DBF5A
:1053C000002368460093FEF7DFFD0098FEF735BF27
:1053D00003A8FEF76DFE0598FEF72FBFD2F8F00088
:1053E000C0F34000C003FEF728BFD2F8F03013F03E
:1053F000006F14BF4FF4FA400020FEF71EBF564A5C
:105400001168890503D5B3F1804F00F0E28210687E
:1054100010F400303EF411AFB3F1004F4F4818BF05
:105420000020FEF70ABF4C4AD2F8E830126803F4B5
:105430004073900302D5002B00F0CE82B3F5807F3D
:1054400007D1002303A80493FEF7FEFC0498FEF79F
:10545000F4BEB3F5007F40F0C2820023684601939A
:10546000FEF792FD0198FEF7E8BE3B4AD2F8E03025
:1054700003F00703042B00F2B582DFE803F0060E09
:1054800016031E003648FEF7D8BE002303A8049377
:10549000FEF7DAFC0498FEF7D0BE002368460093BE
:1054A000FEF772FD0098FEF7C8BE002303A8039321
:1054B000FEF7FEFD0398FEF7C0BED2F8E830116893
:1054C00003F04043890707D533B913682148C3F374
:1054D000C103D840FEF7B1BE1F4A1168880503D545
:1054E000B3F1804F00F08182106810F400303EF478
:1054F000A4AEB3F1004F194818BF0020FEF79DBEBF
:10550000154AD2F8E03003F03803102B19D008D830
:105510007BB9002303A80493FEF796FC0498FEF7DA
:105520008CBE182B00F06482202B1BD00020FEF7CD
:1055300084BE002368460093FEF726FD0098FEF720
:105540007CBE002303A80393FEF7B2FD0398FEF789
:1055500074BE00BF0090D003000C025440787D015F
:105560000080BB00D2F8E830116803F0404389079F
:1055700007D533B91368A548C3F3C103D840FEF774
:105580005CBEA34A1168880503D5B3F1804F00F0D3
:105590003282106810F400303EF44FAEB3F1004F89
:1055A0009C4818BF0020FEF748BE994AD2F8E03068
:1055B00003F4E073802B1AD008D883B9002303A822
:1055C0000493FEF741FC0498FEF737BEC02B00F0B1
:1055D0001582B3F5807F12D00020FEF72EBE002387
:1055E00068460093FEF7D0FC0098FEF726BE002325
:1055F00003A80393FEF75CFD0398FEF71EBED2F8E6
:10560000E830116803F04043890707D533B91368C0
:105610007E48C3F3C103D840FEF70FBE7C4A116831
:10562000880503D5B3F1804F00F0EB81106810F4CA
:1056300000303EF402AEB3F1004F764818BF0020B0
:10564000FEF7FBBD724AD2F8E03013F460633FF41A
:1056500030A8116809010AD5B3F5007F07D10023EE
:1056600068460193FEF790FC0198FEF7E6BD1268CC
:1056700090000AD5B3F5806F07D1002303A80493E7
:10568000FEF716FD0498FEF7D8BD614A1168890738
:1056900009D5B3F5C06F06D113685C48C3F3C103E5
:1056A000D840FEF7CABD1268900503D5B3F5006F68
:1056B00000F0AA81564A106810F400303EF4BDADE7
:1056C000B3F5206F534818BF0020FEF7B6BD504A0F
:1056D000D2F8E03013F4E0433FF41AAB116809014B
:1056E0000AD5B3F5805F07D1002368460193FEF722
:1056F0004BFC0198FEF7A1BD126890000AD5B3F5E6
:10570000005F07D1002303A80493FEF7D1FC04989F
:10571000FEF793BD3E4A1168890709D5B3F5405F8E
:1057200006D113683948C3F3C103D840FEF785BDDD
:105730001268900503D5B3F5804F00F06881344AB4
:10574000106810F400303EF478ADB3F5A04F314846
:1057500018BF0020FEF771BD2D4AD2F8E03013F4D7
:1057600060333EF4A6AF116809010AD5B3F5004FC6
:1057700007D1002368460193FEF706FC0198FEF767
:105780005CBD126890000AD5B3F5803F07D10023B5
:1057900003A80493FEF78CFC0498FEF74EBD1C4A48
:1057A0001168890709D5B3F5C03F06D113681748BA
:1057B000C3F3C103D840FEF740BD1268900503D57E
:1057C000B3F5003F00F02681114A106810F4003054
:1057D0003EF433ADB3F5203F0E4818BF0020FEF76E
:1057E0002CBD0B4AD2F8E43003F00303022B13D094
:1057F000032B17D0012B7FF4CEAA002303A8049318
:10580000FEF722FB0498FEF718BD00BF0090D003FE
:10581000000C025440787D016846FEF7B5FB029803
:10582000FEF70BBDD2F8E830116803F0404389075A
:1058300007D533B913688248C3F3C103D840FEF7D4
:10584000FCBC804A1168880503D5B3F1804F00F095
:10585000E480106810F400303EF4EFACB3F1004F78
:10586000794818BF0020FEF7E8BC764AD2F8E83045
:10587000116803F03003890402D5002B00F0D880B2
:105880001268920109D5102B07D1002303A80493B5
:10589000FEF7DAFA0498FEF7D0BC6A4AD2F8F010A4
:1058A000880702D5202B00F0C680D2F8F00010F057
:1058B00000603EF4C2AC302B0CBF4FF4FA40002025
:1058C000FEF7BBBC5F4AD2F8E43003F03003102B84
:1058D00007D1002303A80493FEF7B6FA0498FEF755
:1058E000ACBC1168890009D5202B07D1002303A87F
:1058F0000493FEF7DDFB0498FEF79FBC106810F4DC
:1059000000503EF49AAC302B504818BF0020FEF7F0
:1059100094BC4FF40040FEF790BC4FF4FA40FEF701
:105920008CBC0020FEF789BC0020FEF786BC00205E
:10593000FEF783BC0020FEF780BC4548FEF77DBC27
:105940004448FEF77ABC4248FEF777BC4148FEF770
:1059500074BC4048FEF771BC3E48FEF76EBC3D4843
:10596000FEF76BBC3B48FEF768BC3A48FEF765BCE7
:105970003848FEF762BC3748FEF75FBC3548FEF793
:105980005CBC3448FEF759BC3248FEF756BC31487F
:10599000FEF753BC2F48FEF750BC2E48FEF74DBC17
:1059A0002948FEF74ABC4FF40040FEF746BC0020F1
:1059B000FEF743BC2748FEF740BC2648FEF73DBC37
:1059C0002448FEF73ABC2348FEF737BC2148FEF7CF
:1059D00034BC2048FEF731BC1B48FEF72EBC00202B
:1059E000FEF72BBC0020FEF728BC1A48FEF725BCAA
:1059F0001748FEF722BC1748FEF71FBC1448FEF7F5
:105A00001CBC1448FEF719BC1248FEF716BC11481E
:105A1000FEF713BC0F48FEF710BC0E48FEF70DBC96
:105A20004FF40040FEF709BC4FF4FA40FEF705BC06
:105A30000648FEF702BC4FF40040FEF7FEBB00BF75
:105A40000090D003000C025440787D01006CDC0211
:105A50000080BB0000093D002DE9E04F2746A0462D
:105A6000A146A246A346A446A2B02DEC000A84F3A8
:105A7000008825462646A447EFF3148515F0080F45
:105A800018BFB0EE400A3DEC000A22B0BDE8E08F3E
:105A900080F0004002E000BF81F0004142001FBFE3
:105AA0005FEA410392EA030F7FEA226C7FEA236CEC
