:020000040808EA
:108000003DB8F3960000000000047C00C813100087
:108010000000000000000000000000000000000060
:10802000FFFFFFFFFFFFFFFFFFFFFFFFFFFFFFFF60
:10803000FFFFFFFFFFFFFFFFFFFFFFFFFFFFFFFF50
:10804000FFFFFFFFFFFFFFFFFFFFFFFFFFFFFFFF40
:1084000040490020B5A7080879A408087FA40808F7
:1084100085A408088BA4080891A4080897A4080854
:10842000000000000000000000000000C9AF0908C3
:108430009DA4080800000000D1B00908E1B00908B7
:10844000A3A40808A9A40808AFA40808B5A40808AC
:10845000BBA40808C1A40808C7A40808CDA408083C
:10846000D3A40808D9A40808DFA40808E5A40808CC
:10847000EBA40808F1A40808F7A40808FDA408085C
:1084800003A5080809A508080FA5080815A50808E8
:108490001BA5080821A5080827A508082DA5080878
:1084A00033A5080839A508083FA5080845A5080808
:1084B0004BA5080851A5080857A508085DA5080898
:1084C00063A5080869A508086FA5080875A5080828
:1084D0007BA5080881A5080887A508088DA50808B8
:1084E00093A5080899A508089FA50808A5A5080848
:1084F000ABA50808B1A50808B7A50808BDA50808D8
:10850000C3A50808C9A50808CFA50808D5A5080867
:10851000DBA50808E1A50808E7A50808EDA50808F7
:10852000F3A50808F9A50808FFA5080805A6080886
:108530000BA6080811A6080817A608081DA6080813
:1085400023A6080829A608082FA6080835A60808A3
:108550003BA6080841A6080847A608084DA6080833
:1085600053A6080859A608085FA6080865A60808C3
:108570006BA6080871A6080877A608087DA6080853
:1085800083A6080889A608088FA6080895A60808E3
:108590009BA60808A1A60808A7A60808ADA6080873
:1085A000B3A60808B9A60808BFA60808C5A6080803
:1085B000CBA60808D1A60808D7A60808DDA6080893
:1085C000E3A60808E9A60808EFA60808F5A6080823
:1085D000FBA6080801A7080807A708080DA70808B0
:1085E00013A7080819A708081FA7080825A708083F
:1085F0002BA7080831A7080837A708083DA70808CF
:1086000043A7080849A708084FA7080855A708085E
:108610005BA7080861A7080867A708086DA70808EE
:1086200073A7080879A708087FA7080885A708087E
:108630008BA7080891A7080897A708089DA708080E
:10864000A3A70808A9A70808AFA708080348044B70
:10865000834202D0034B03B118477047B406002091
:10866000B406002000000000064B0749C91A891013
:1086700048BF0131491003D0044B0BB101481847E2
:10868000704700BFB4060020B406002000000000C0
:1086900010B5064C237843B9FFF7D8FF044B13B14C
:1086A0000448AFF300800123237010BDB8060020FA
:1086B000000000000892180808B5054B1BB10549D9
:1086C0000548AFF30080BDE80840FFF7CDBF00BF0D
:1086D00000000000BC06002008921808A3F5803AAC
:1086E000704700BF174B002B08BF134B9D46FFF789
:1086F000F5FF00218B460F461348144A121A18F052
:1087000026FA0E4B002B00D098470D4B002B00D0C3
:1087100098470020002104000D000D48002802D0D9
:108720000C48AFF3008018F061FA2000290002F035
:10873000A7FA18F0B7F800BF00000800000000001A
:108740005599090840490020B80600203C3900200E
:10875000000000000000000080B582B000AF78602B
:1087600000F00AF802F07AF8024812F0F1FE02F086
:10877000F9FA00BFB4180A0880B586B000AF00232C
:10878000BB60294812F0E4FE4FF460724FF46021A0
:10879000264812F0DDFE00237B6133E04FF42053C6
:1087A0007B607A697B681344B3F5602F03D97B69DA
:1087B000C3F560237B600023FB6000233B610BE07B
:1087C0007A693B6913441A4AD35C1A46FB6813441E
:1087D000FB603B6901333B613A697B689A42EFD3A6
:1087E000BA68FB681344BB607B69990A7A697B6845
:1087F00013449A0AFB680F4812F0AAFE7B6903F53E
:1088000020537B617B69B3F5602FC7D3A5231A463C
:10881000C323B968084812F09BFE084812F098FE7E
:1088200000BF1837BD4680BDB8181808DC181808F6
:10883000B8180A08FC181808281918086C1918081C
:1088400080B400AF00BFBD465DF8047B704780B4C4
:1088500000AF00BFBD465DF8047B704780B400AF39
:1088600000BFBD465DF8047B704780B400AF00BF19
:10887000BD465DF8047B704780B400AF00BFBD46C5
:108880005DF8047B704780B400AF00BFBD465DF863
:10889000047B704780B400AF00BFBD465DF8047B29
:1088A0007047000080B58EB002AFF860B9607A60A2
:1088B000FB683B6207F1100300221A605A609A605D
:1088C000DA606FF081037B6207F120033B610423D0
:1088D0007B61BB68002B08D0BB681B68BB61BB68B1
:1088E0005B68FB610223FB6201E00123FB627B68A2
:1088F000002B02D00123BB6201E00023BB6207F121
:108900001002BB6A01937B680093FB6A40F2F53169
:10891000064810F039FE78627B6A002B01DA0123E9
:1089200000E07B6A18463037BD4680BD0501004037
:1089300080B58EB002AFC7E902017A603B6007F1F3
:1089400008037B610823BB613B68FB617B683B627A
:1089500007F138037B620423BB6207F11402002392
:10896000019300230093032340F2E931044810F0FF
:108970000BFEF862FB6A18463037BD4680BD00BF6B
:108980000101004080B58EB002AFC7E902017A60F4
:108990003B6007F10803BB610823FB6107F1280373
:1089A0003B6204237B62BB6B3B613B687B617B6802
:1089B000BB62FB6B002B02D16FF0860311E007F165
:1089C00018020123019307F110030093022340F2E0
:1089D000EA31064810F0D8FDF8627A69FB6B1A603C
:1089E000FB6A18463037BD4680BD00BF010100401C
:1089F00080B58EB002AFC7E902017A6007F12003AB
:108A000000221A605A609A6007F10803BB610823CC
:108A1000FB6107F120033B610C237B617B68002B2A
:108A200002D16FF0860317E007F1180201230193CA
:108A300007F110030093012340F2EB31084810F0D6
:108A4000A3FDF8623A6A7B681A607A6A7B685A60AA
:108A5000BA6A7B689A60FB6A18463037BD4680BDAB
:108A60000101004080B588B002AFC7E900013B4674
:108A7000FB6008233B6107F10C02002301930023F4
:108A8000009301234FF47B71044810F07DFD786161
:108A90007B6918461837BD4680BD00BF0101004004
:108AA00080B586B002AF0023FB6007F10C037B604A
:108AB0000423BB60012301933B1D0093002300228C
:108AC00040F2ED31034810F05FFDFB6818461037A7
:108AD000BD4680BD0101004080B58EB002AFC7E940
:108AE00002017A603B6007F108037B610823BB61E8
:108AF0003B68FB617B683B6207F138037B620423C0
:108B0000BB6207F1140200230193002300930323A7
:108B100040F2E931044810F037FDF862FB6A18466C
:108B20003037BD4680BD00BF0201004080B58EB029
:108B300002AFC7E902017A603B6007F10803BB613D
:108B40000823FB6107F128033B6204237B62BB6BB4
:108B50003B613B687B617B68BB62FB6B002B02D196
:108B60006FF0860311E007F118020123019307F16A
:108B700010030093022340F2EA31064810F004FD8E
:108B8000F8627A69FB6B1A60FB6A18463037BD469B
:108B900080BD00BF0201004080B58EB002AFC7E9C2
:108BA00002017A6007F1200300221A605A609A607D
:108BB00007F10803BB610823FB6107F120033B6158
:108BC0000C237B617B68002B02D16FF0860317E0DA
:108BD00007F118020123019307F110030093012309
:108BE00040F2EB31084810F0CFFCF8623A6A7B683B
:108BF0001A607A6A7B685A60BA6A7B689A60FB6A14
:108C000018463037BD4680BD0201004080B588B0AF
:108C100002AFC7E900013B46FB6008233B6107F157
:108C20000C02002301930023009301234FF47B7176
:108C3000044810F0A9FC78617B6918461837BD46D6
:108C400080BD00BF0201004080B598B002AF7860DF
:108C500007F1180338220021184617F078FF7B68C7
:108C6000FB614FF44273A7F8403007F118033B61F2
:108C700038237B6107F15003BB600423FB6007F1DD
:108C800010020123019307F108030093012300213F
:108C9000064810F079FC78657B6D002B01D13B6DA7
:108CA00000E0002318465837BD4680BD0001004053
:108CB00080B59AB002AF03463960FB8007F120030C
:108CC00038220021184617F042FF3B687B6240F2D1
:108CD0000953A7F8483007F120033B6138237B6133
:108CE000BB1DBB610223FB6107F15803BB6004237A
:108CF000FB6007F110020123019307F108030093C1
:108D000002230021064810F03FFCF865FB6D002BA4
:108D100001D1BB6D00E0002318466037BD4680BD21
:108D20000001004080B59CB002AFF860B9607A6085
:108D30003B6007F1300338220021184617F007FF87
:108D400040F20323A7F8583007F13003BB61382302
:108D5000FB61FB683B6218237B62BB68BB627B687C
:108D6000FB623B683B6104237B6107F1180201232E
:108D7000019307F11003009303230021034810F02F
:108D800003FC034618466837BD4680BD000100401D
:108D900080B594B002AF786007F11003382200214B
:108DA000184617F0D4FE7B683B614FF401733B8794
:108DB00007F11003BB603823FB6007F108020023B2
:108DC00001930023009301230021044810F0DCFBF1
:108DD000034618464837BD4680BD00BF000100402D
:108DE00080B596B002AF7860396007F11803382279
:108DF0000021184617F0ABFE7B68BB614FF400738F
:108E0000A7F8403007F118033B6138237B613B68CA
:108E1000BB601823FB6007F110020123019307F1E7
:108E20000803009301230021034810F0ADFB034623
:108E300018465037BD4680BD0001004080B59AB04D
:108E400002AFF860B9607A603B6007F12003382216
:108E50000021184617F07BFEFB683B6240F20523B9
:108E6000A7F8483007F12003BB613823FB61BB68DA
:108E70003B617B687B6107F118020123019307F1D5
:108E80001003009301230021054810F07DFBF865D5
:108E90007A693B681A60FB6D18466037BD4680BD35
:108EA0000001004080B59AB002AFF860B9607A6006
:108EB0003B6007F1200338220021184617F047FED7
:108EC000FB683B6240F20623A7F8483007F1200315
:108ED000BB613823FB61BB683B617B687B6107F149
:108EE00018020123019307F11003009301230021CD
:108EF000054810F049FBF8657A693B681A60FB6D1C
:108F000018466037BD4680BD0001004080B598B06E
:108F100002AFF860B9607A6007F1200338220021BF
:108F2000184617F014FEFB681B68BB6240F205533D
:108F3000A7F8483007F120033B6138237B61BB6809
:108F4000BB617B68FB6107F11002002301930023E2
:108F5000009302230021044810F016FB0346184634
:108F60005837BD4680BD00BF0001004080B598B0B5
:108F700002AFF860B9607A6007F12003382200215F
:108F8000184617F0E4FDBB683B627B687B62FB68B8
:108F90001B68BB6240F20253A7F8483007F1200378
:108FA000BB613823FB61FB683B6104237B6107F1F4
:108FB00018020123019307F11003009301230021FC
:108FC000034810F0E1FA034618465837BD4680BD05
:108FD0000001004080B598B002AFF860B9607A60D7
:108FE00007F1200338220021184617F0B0FDBB68B6
:108FF0003B627B687B62FB681B68BB6240F2035389
:10900000A7F8483007F12003BB613823FB61FB68F8
:109010003B6104237B6107F118020123019307F1EF
:109020001003009301230021034810F0ADFA03461A
:1090300018465837BD4680BD0001004080B59CB041
:1090400002AFF860B9607A603B6007F1280338220C
:109050000021184617F07BFDFB681B683B6340F25C
:109060000653A7F8503007F12803BB613823FB6192
:10907000BB683B627B687B623B683B613B6F7B61AB
:1090800007F118020123019307F110030093022353
:109090000021064810F078FA78667A697B6F1A60CA
:1090A0007B6E18466837BD4680BD00BF000100409A
:1090B00080B596B002AF786007F11803382200211E
:1090C000184617F044FD7B681B683B624FF4A163B0
:1090D000A7F8403007F118033B6138237B617B68B8
:1090E000BB600423FB6007F110020123019307F129
:1090F0000803009301230021034810F045FA0346BA
:1091000018465037BD4680BD0001004080B59CB078
:1091100002AFF860B9607A603B6007F1280338223B
:109120000021184617F013FDFB681B683B6340F2F3
:109130000753A7F8503007F128033B6238237B62BE
:10914000FB683B6104237B61BB68BB617B68FB619F
:1091500007F120020223019307F11003009301237A
:109160000021064810F010FA7866FA693B681A6028
:109170007B6E18466837BD4680BD00BF00010040C9
:1091800080B596B002AF7860396007F118033822D5
:109190000021184617F0DBFC3B68FB617B681B680D
:1091A0003B6240F20233A7F8403007F118033B61FD
:1091B00038237B617B68BB600423FB6007F11002EE
:1091C0000123019307F108030093012300210448C0
:1091D00010F0DAF9034618465037BD4680BD00BF8F
:1091E0000001004080B598B002AFF860B9607A60C5
:1091F00007F1200338220021184617F0A8FCFB686D
:109200001B68BB6240F20333A7F8483007F1200324
:109210003B6138237B61BB68BB617B68FB6107F105
:10922000100200230193002300930223002104482D
:1092300010F0AAF9034618465837BD4680BD00BF56
:109240000001004080B59CB002AFF860B9607A6060
:109250003B6007F1280338220021184617F077FCFD
:10926000FB681B683B6340F20533A7F8503007F1F9
:1092700028033B6238237B62FB683B6104237B61EC
:10928000BB68BB617B68FB6107F12002022301938D
:1092900007F11003009301230021064810F074F930
:1092A0007866FA693B681A607B6E18466837BD4677
:1092B00080BD00BF0001004080B59AB002AFF860E9
:1092C000B9607A6007F1280338220021184617F0A8
:1092D0003EFCFB681B683B6340F20633A7F8503046
:1092E00007F12803BB613823FB61BB683B627B68E5
:1092F0007B62FB683B6104237B6107F11802012359
:10930000019307F11003009302230021034810F09A
:109310003BF9034618466037BD4680BD000100405A
:1093200080B59CB002AFF860B9607A603B6007F12D
:10933000280338220021184617F009FCFB68FB625D
:109340004FF44073A7F8503007F12803BB6138236E
:10935000FB61BB683B627B687B623B683B613B6F48
:109360007B6107F118020123019307F110030093B9
:1093700002230021054810F007F978667A697B6FAF
:109380001A607B6E18466837BD4680BD00010040FC
:1093900080B59AB002AFF860B9607A603B6007F1BF
:1093A000280338220021184617F0D1FBFB68FB6226
:1093B00040F20133A7F8503007F128033B6138230E
:1093C0007B61BB68BB617B68FB613B683B62BB6EDA
:1093D0007B6207F110020023019300230093032313
:1093E0000021044810F0D0F8034618466037BD4607
:1093F00080BD00BF0001004080B598B002AFF860AA
:10940000B9607A6007F1200338220021184617F06E
:109410009EFBBB683B627B687B62FB681B68BB6230
:1094200040F20343A7F8483007F12003BB6138231B
:10943000FB61FB683B6104237B6107F11802012398
:10944000019307F11003009301230021034810F05A
:109450009BF8034618465837BD4680BD00010040C2
:1094600080B598B002AFF860B9607A6007F1200368
:1094700038220021184617F06AFBFB681B68BB62A4
:1094800040F20443A7F8483007F120033B6138233A
:109490007B61BB68BB617B68FB6107F11002002345
:1094A00001930023009302230021044810F06CF87C
:1094B000034618465837BD4680BD00BF0001004036
:1094C00080B59AB002AFF860B9607A6007F12803FE
:1094D00038220021184617F03AFBFB681B683B63F3
:1094E00040F20643A7F8503007F12803BB61382348
:1094F000FB61BB683B627B687B62FB683B6104236A
:109500007B6107F118020123019307F11003009317
:1095100002230021034810F037F80346184660374D
:10952000BD4680BD0001004080B5A0B002AFF8602C
:10953000B9607A603B6007F1300338220021184699
:1095400017F005FBFB683B63BB687B634FF4C063AC
:10955000A7F85830D7F88030002B06D1D7F88430E0
:10956000002B02D06FF0860354E00023BB61002380
:10957000FB61D7F888303B62D7F88C307B62D7F834
:109580008030BB62D7F88430FB62D7F890303B6103
:10959000D7F894307B613B68102B02D96FF08603BB
:1095A00038E07B68002B15D000237B670CE07A68DD
:1095B0007B6F1344197807F144027B6F13440A460A
:1095C0001A707B6F01337B677A6F3B689A42EED3E8
:1095D0003B687B6507F13003BB613823FB610323E4
:1095E0003B67D7F88030002B02D13B6F013B3B67D4
:1095F00007F118020123019307F1100300933B6F59
:10960000002106480FF0C0FFF8667A69D7F8983055
:109610001A60FB6E18467837BD4680BD00010040D9
:1096200080B5A0B002AFF860B9607A603B6007F126
:10963000300338220021184617F089FAFB683B6393
:10964000BB687B6340F20163A7F85830D7F88030DD
:10965000002B06D1D7F88430002B02D06FF08603A0
:1096600054E00023BB610023FB61D7F888303B62E4
:10967000D7F88C307B62D7F88030BB62D7F8843063
:10968000FB62D7F890303B61D7F894307B613B6840
:10969000102B02D96FF0860338E07B68002B15D0C1
:1096A00000237B670CE07A687B6F1344197807F11D
:1096B00044027B6F13440A461A707B6F01337B6749
:1096C0007A6F3B689A42EED33B687B6507F13003C3
:1096D000BB613823FB6103233B67D7F88030002B45
:1096E00002D13B6F013B3B6707F118020123019355
:1096F00007F1100300933B6F002106480FF044FF71
:10970000F8667A69D7F898301A60FB6E1846783791
:10971000BD4680BD0001004080B59AB002AFF86040
:10972000B9607A6007F1200338220021184617F04B
:109730000EFABB683B627B687B62FB681B68BB629E
:1097400040F20263A7F8483007F12003BB613823D9
:10975000FB61FB683B6104237B6107F11802012375
:10976000019307F1100300930123002104480FF037
:109770000BFFF865FB6D18466037BD4680BD00BF26
:109780000001004080B59AB002AFF860B9607A601D
:1097900007F1200338220021184617F0D8F9BB68DA
:1097A0003B627B687B62FB681B68BB6240F20363C1
:1097B000A7F8483007F12003BB613823FB61FB6841
:1097C0003B6104237B6107F118020123019307F138
:1097D000100300930123002104480FF0D5FEF86523
:1097E000FB6D18466037BD4680BD00BF00010040DC
:1097F00080B59AB002AFF860B9607A6007F12003D3
:1098000038220021184617F0A2F9FB681B68BB62DA
:1098100040F20563A7F8483007F120033B61382385
:109820007B61BB68BB617B68FB6107F110020023B1
:109830000193002300930223002104480FF0A4FEAB
:10984000F865FB6D18466037BD4680BD00010040DD
:1098500080B598B002AFF860B9607A6007F118037C
:1098600038220021184617F072F9FB681B683B622A
:10987000BB687B627B68BB6240F20663A7F840303E
:1098800007F118033B6138237B6107F110020023C5
:109890000193002300930123002104480FF074FE7C
:1098A00078657B6D18465837BD4680BD0001004085
:1098B00080B59AB002AFF860B9607A6007F1200312
:1098C00038220021184617F042F9FB681B68BB627A
:1098D00040F20763A7F84830BB68002B05D17B68CE
:1098E000002B02D06FF086031DE007F120033B61DF
:1098F00038237B61BB68BB617B68FB610223FB652E
:10990000BB68002B02D1FB6D013BFB6507F1100228
:109910000023019300230093FB6D002104480FF006
:1099200033FEB865BB6D18466037BD4680BD00BFCD
:109930000001004080B59CB002AFF860B9607A6069
:109940003B6007F1280338220021184617F0FFF882
:10995000FB681B683B634FF4C163A7F85030BB68DA
:10996000002B05D17B68002B02D06FF0860325E029
:1099700007F12803BB613823FB61BB683B627B684E
:109980007B623B683B613B6F7B6102237B66BB680C
:10999000002B02D17B6E013B7B6607F1180201238D
:1099A000019307F1100300937B6E002105480FF02F
:1099B000EBFD38667A697B6F1A603B6E1846683734
:1099C000BD4680BD0001004080B59EB002AFF8608A
:1099D000B9607A603B6007F13003382200211846F5
:1099E00017F0B5F8FB681B68BB6340F20963A7F882
:1099F0005830BB68002B05D17B68002B02D06FF07C
:109A0000860340E007F13003BB623823FB62FB684A
:109A10003B6104237B61BB6FBB61FB6FFB61BB6878
:109A20003B627B687B620323FB66BB68002B02D032
:109A30007B68002B02D1FB6E013BFB66FB6E032BA8
:109A400005D13B68002B02D16FF086031BE007F1C4
:109A50002802FB6E019307F11003009301230021FC
:109A60000B480FF091FDB866FB6E032B03D17A6AA9
:109A70003B681A6002E03B6800221A60FA69D7F876
:109A800080301A60BB6E18467037BD4680BD00BF7F
:109A90000001004080B59EB002AFF860B9607A6006
:109AA0003B6007F1300338220021184617F04FF8C9
:109AB000FB681B68BB6340F20A63A7F85830BB68B9
:109AC000002B05D17B68002B02D06FF086033CE0B1
:109AD00007F130033B6238237B62BB6FBB62FB6FD5
:109AE000FB62FB683B6104237B61BB68BB617B68F5
:109AF000FB610223FB66BB68002B02D07B68002B56
:109B000002D1FB6E013BFB66FB6E022B05D13B686D
:109B1000002B02D16FF0860317E007F12002FB6EE5
:109B2000019307F1100300930223002109480FF06D
:109B30002BFDB866FB6E022B03D1FA693B681A60F5
:109B400002E03B6800221A60BB6E18467037BD46C3
:109B500080BD00BF0001004080B596B002AF7860C4
:109B600007F1180338220021184616F0F0FF7B6831
:109B70001B683B6240F20B63A7F8403007F1180303
:109B80003B6138237B617B68BB600423FB6007F18A
:109B900010020123019307F1080300930123002120
:109BA00003480FF0F1FC034618465037BD4680BD10
:109BB0000001004080B59CB002AFF860B9607A60E7
:109BC0003B6007F1280338220021184616F0BFFF3A
:109BD000FB68BB62BB68FB624FF4E063A7F85030E0
:109BE00007F12803BB613823FB617B683B623B685C
:109BF0007B623B6F3B617B6F7B6107F11802012346
:109C0000019307F1100300930223002105480FF090
:109C1000BBFC78667A69BB6F1A607B6E1846683742
:109C2000BD4680BD0001004080B59AB002AFF8602B
:109C3000B9607A603B6007F128033822002118469A
:109C400016F085FFFB68BB62BB68FB6240F20173E4
:109C5000A7F8503007F128033B6138237B617B680C
:109C6000BB613B68FB61BB6E3B62FB6E7B6207F1D5
:109C700010020023019300230093032300210448D2
:109C80000FF082FC034618466037BD4680BD00BF1A
:109C90000001004080B59CB002AFF860B9607A6006
:109CA0003B6007F1280338220021184616F04FFFC9
:109CB000FB68BB62BB68FB6240F20273A7F85030DE
:109CC00007F12803BB613823FB617B683B623B687B
:109CD0007B623B6F3B617B6F7B6107F11802012365
:109CE000019307F1100300930223002105480FF0B0
:109CF0004BFC78667A69BB6F1A607B6E18466837D2
:109D0000BD4680BD0001004080B59AB002AFF8604A
:109D1000B9607A603B6007F12803382200211846B9
:109D200016F015FFFB68BB62BB68FB6240F2037371
:109D3000A7F8503007F128033B6138237B617B682B
:109D4000BB613B68FB61BB6E3B62FB6E7B6207F1F4
:109D500010020023019300230093032300210448F1
:109D60000FF012FC034618466037BD4680BD00BFA9
:109D70000001004080B59EB002AFF860B9607A6023
:109D80003B6007F1300338220021184616F0DFFE51
:109D9000FB683B63BB687B634FF40063A7F85830F4
:109DA000BB6F002B05D1FB6F002B02D06FF0860339
:109DB0002CE007F13003BB613823FB617B683B6219
:109DC0003B687B62BB6FBB62FB6FFB62D7F8803086
:109DD0003B61D7F884307B610323FB66BB6F002BAC
:109DE00002D1FB6E013BFB6607F1180201230193D0
:109DF00007F110030093FB6E002106480FF0C4FB2F
:109E0000B8667A69D7F888301A60BB6E1846703722
:109E1000BD4680BD0001004080B59EB002AFF86035
:109E2000B9607A603B6007F13003382200211846A0
:109E300016F08DFEFB683B63BB687B6340F6010355
:109E4000A7F85830BB6F002B05D1FB6F002B02D059
:109E50006FF086032CE007F13003BB613823FB6110
:109E60007B683B623B687B62BB6FBB62FB6FFB62E4
:109E7000D7F880303B61D7F884307B610323FB66E1
:109E8000BB6F002B02D1FB6E013BFB6607F1180292
:109E90000123019307F110030093FB6E0021064894
:109EA0000FF072FBB8667A69D7F888301A60BB6E1B
:109EB00018467037BD4680BD0001004080B598B09F
:109EC00002AFF860B9607A6007F120033822002100
:109ED000184616F03CFEFB681B68BB6240F6081390
:109EE000A7F8483007F12003BB613823FB61BB684A
:109EF0003B617B687B6107F118020123019307F145
:109F0000100300930123002103480FF03DFB03469B
:109F100018465837BD4680BD0001004080B596B058
:109F200002AFF8600B467A607B8107F11803382294
:109F30000021184616F00BFE7B68BB61FB681B68AE
:109F40003B6240F60513A7F840307B89A7F8423002
:109F500007F118033B6138237B6107F110020023EE
:109F60000193002300930123002104480FF00CFB10
:109F7000034618465037BD4680BD00BF0001004073
:109F800080B596B002AF786007F11803382200213F
:109F9000184616F0DCFD7B681B683B6240F60A132E
:109FA000A7F8403007F118033B6138237B617B68D9
:109FB000BB600423FB6007F110020123019307F14A
:109FC000080300930123002103480FF0DDFA034644
:109FD00018465037BD4680BD0001004080B59CB09A
:109FE00002AFF860B9607A603B6007F1280338225D
:109FF0000021184616F0ABFDFB68BB62BB68FB6234
:10A000004FF48063A7F8503007F12803BB61382371
:10A01000FB617B683B623B687B623B6F3B617B6FB4
:10A020007B6107F118020123019307F110030093EC
:10A030000223002105480FF0A7FA78667A69BB6F02
:10A040001A607B6E18466837BD4680BD000100402F
:10A0500080B59AB002AFF860B9607A603B6007F1F2
:10A06000280338220021184616F071FDFB68BB62F8
:10A07000BB68FB6240F20143A7F8503007F12803A8
:10A080003B6138237B617B68BB613B68FB61BB6ED6
:10A090003B62FB6E7B6207F11002002301930023F9
:10A0A00000930323002104480FF06EFA034618467C
:10A0B0006037BD4680BD00BF0001004080B59CB048
:10A0C00002AFF860B9607A603B6007F1280338227C
:10A0D0000021184616F03BFDFB68BB62BB68FB62C3
:10A0E0004FF4A063A7F8503007F12803BB61382371
:10A0F000FB617B683B623B687B623B6F3B617B6FD4
:10A100007B6107F118020123019307F1100300930B
:10A110000223002105480FF037FA78667A69BB6F91
:10A120001A607B6E18466837BD4680BD000100404E
:10A1300080B59CB002AFF860B9607A603B6007F10F
:10A14000280338220021184616F001FDFB68BB6287
:10A15000BB68FB6240F20153A7F8503007F12803B7
:10A16000BB613823FB617B683B623B687B623B6F72
:10A170003B617B6F7B6107F118020123019307F1BB
:10A18000100300930223002105480FF0FDF97866C3
:10A190007A69BB6F1A607B6E18466837BD4680BD12
:10A1A0000001004080B59CB002AFF860B9607A60F1
:10A1B0003B6007F1280338220021184616F0C7FC3F
:10A1C000BB68BB62FB68FB624FF41063A7F85030BA
:10A1D00007F12803BB613823FB617B683B623B6866
:10A1E0007B623B6F3B617B6F7B6107F11802012350
:10A1F000019307F1100300930223002105480FF09B
:10A20000C3F978667A69BB6F1A607B6E1846683747
:10A21000BD4680BD0001004080B596B002AF7860B9
:10A22000396007F1180338220021184616F08FFC18
:10A230003B68FB617B681B683B6240F60113A7F833
:10A24000403007F118033B6138237B617B68BB60BA
:10A250000423FB6007F110020123019307F10803B7
:10A2600000930123002104480FF08EF9034618469D
:10A270005037BD4680BD00BF0001004080B594B09E
:10A2800002AF7860396007F11003382200211846C8
:10A2900016F05DFC7B681B68BB6140F603133B87CF
:10A2A0003B683B6407F11003BB603823FB6007F198
:10A2B0000802002301930023009301230021044896
:10A2C0000FF062F9034618464837BD4680BD00BF0F
:10A2D0000001004080B598B002AFF8607A603B6042
:10A2E0000B467B8107F1200338220021184616F027
:10A2F0002EFCFB681B68BB6240F60413A7F84830CD
:10A300007B89A7F84A3007F120033B6138237B6142
:10A310007B68BB613B68FB6107F11002002301937E
:10A32000002300930223002103480FF02DF9034678
:10A3300018465837BD4680BD0001004080B59AB030
:10A3400002AFF860B9607A6007F128033822002173
:10A35000184616F0FCFBBB681B683B6340F609130C
:10A36000A7F8503007F12803BB613823FB61FB6875
:10A370003B6218237B627B683B6104237B6107F1AE
:10A3800018020123019307F1100300930223002117
:10A3900003480FF0F9F8034618466037BD4680BD04
:10A3A0000001004080B582B000AF78601822002123
:10A3B000786816F0CCFB00BF0837BD4680BD0000B2
:10A3C00080B58CB002AFF860B9607A603B60FB6822
:10A3D000FB61BB683B627B687B613B68BB6107F1EB
:10A3E0001C020123019307F114030093012340F29F
:10A3F000E93107480FF0C8F878627B6A002B02D178
:10A40000BA693B6B1A607B6A18462837BD4680BD27
:10A410000301004080B58CB002AF78603960002342
:10A42000FB6107F120037B610423BB6107F11C037F
:10A43000FB6004233B617B683B623B68002B02D1DD
:10A440006FF0860311E007F114020123019307F175
:10A450000C030093012340F2EA3106480FF094F810
:10A460007862FA693B681A607B6A18462837BD46ED
:10A4700080BD00BF0301004080B400AFFEE780B4A0
:10A4800000AFFEE780B400AFFEE780B400AFFEE7A8
:10A4900080B400AFFEE780B400AFFEE780B400AF49
:10A4A000FEE780B400AFFEE780B400AFFEE780B403
:10A4B00000AFFEE780B400AFFEE780B400AFFEE778
:10A4C00080B400AFFEE780B400AFFEE780B400AF19
:10A4D000FEE780B400AFFEE780B400AFFEE780B4D3
:10A4E00000AFFEE780B400AFFEE780B400AFFEE748
:10A4F00080B400AFFEE780B400AFFEE780B400AFE9
:10A50000FEE780B400AFFEE780B400AFFEE780B4A2
:10A5100000AFFEE780B400AFFEE780B400AFFEE717
:10A5200080B400AFFEE780B400AFFEE780B400AFB8
:10A53000FEE780B400AFFEE780B400AFFEE780B472
:10A5400000AFFEE780B400AFFEE780B400AFFEE7E7
:10A5500080B400AFFEE780B400AFFEE780B400AF88
:10A56000FEE780B400AFFEE780B400AFFEE780B442
:10A5700000AFFEE780B400AFFEE780B400AFFEE7B7
:10A5800080B400AFFEE780B400AFFEE780B400AF58
:10A59000FEE780B400AFFEE780B400AFFEE780B412
:10A5A00000AFFEE780B400AFFEE780B400AFFEE787
:10A5B00080B400AFFEE780B400AFFEE780B400AF28
:10A5C000FEE780B400AFFEE780B400AFFEE780B4E2
:10A5D00000AFFEE780B400AFFEE780B400AFFEE757
:10A5E00080B400AFFEE780B400AFFEE780B400AFF8
:10A5F000FEE780B400AFFEE780B400AFFEE780B4B2
:10A6000000AFFEE780B400AFFEE780B400AFFEE726
:10A6100080B400AFFEE780B400AFFEE780B400AFC7
:10A62000FEE780B400AFFEE780B400AFFEE780B481
:10A6300000AFFEE780B400AFFEE780B400AFFEE7F6
:10A6400080B400AFFEE780B400AFFEE780B400AF97
:10A65000FEE780B400AFFEE780B400AFFEE780B451
:10A6600000AFFEE780B400AFFEE780B400AFFEE7C6
:10A6700080B400AFFEE780B400AFFEE780B400AF67
:10A68000FEE780B400AFFEE780B400AFFEE780B421
:10A6900000AFFEE780B400AFFEE780B400AFFEE796
:10A6A00080B400AFFEE780B400AFFEE780B400AF37
:10A6B000FEE780B400AFFEE780B400AFFEE780B4F1
:10A6C00000AFFEE780B400AFFEE780B400AFFEE766
:10A6D00080B400AFFEE780B400AFFEE780B400AF07
:10A6E000FEE780B400AFFEE780B400AFFEE780B4C1
:10A6F00000AFFEE780B400AFFEE780B400AFFEE736
:10A7000080B400AFFEE780B400AFFEE780B400AFD6
:10A71000FEE780B400AFFEE780B400AFFEE780B490
:10A7200000AFFEE780B400AFFEE780B400AFFEE705
:10A7300080B400AFFEE780B400AFFEE780B400AFA6
:10A74000FEE780B400AFFEE780B400AFFEE780B460
:10A7500000AFFEE780B400AFFEE780B400AFFEE7D5
:10A7600080B400AFFEE780B400AFFEE780B400AF76
:10A77000FEE780B400AFFEE780B400AFFEE780B430
:10A7800000AFFEE780B400AFFEE780B400AFFEE7A5
:10A7900080B400AFFEE780B400AFFEE780B400AF46
:10A7A000FEE780B400AFFEE780B400AFFEE780B400
:10A7B00000AFFEE780B586B000AF234B7B607B68BF
:10A7C00083F30A8800BF10F0D9FE204B7B6119E0AB
:10A7D00000233B610EE07B691A683B699B001A44C9
:10A7E0007B6959683B699B000B4412681A603B699E
:10A7F00001333B617B699B683A699A42EBD37B6981
:10A800000C337B617B69124A9342E1D3114BFB60AD
:10A8100014E00023BB6009E0FB681A68BB689B007A
:10A82000134400221A60BB680133BB60FB685B689D
:10A83000BA689A42F0D3FB680833FB60FB68064AAB
:10A840009342E6D3FDF74EFF4039002074180A0802
:10A850008C180A088C180A089C180A0880B500AFE2
:10A860000349044800F056F80346184680BD00BF6F
:10A87000000100209419180880B582B000AF7860FC
:10A8800039601F2000F0ECF97B685B68002B12D068
:10A890007B685B681946124810F05AFE7B689B681B
:10A8A000002B14D07B6899687B68DB681A460D48DA
:10A8B00010F04EFE0BE07B689B68002B07D07B6896
:10A8C00099687B68DB681A46074810F041FE3968D2
:10A8D000064810F03DFE00BF0837BD4680BD00BFF2
:10A8E000A0191808A8191808C0191808D4191808A8
:10A8F00080B582B000AF78601F2000F0B1F97968B0
:10A90000034810F025FE00BF0837BD4680BD00BFDC
:10A91000EC19180880B584B000AF78603960002366
:10A92000FB72212000F09CF979683B4810F010FE82
:10A930000023FB6014E0FA6813469B0013449B005D
:10A940001A463B681344184600F0B2F80346FB72FF
:10A95000FB7A002B01D0FB7A5AE0FB680133FB60E5
:10A96000FA6813469B0013449B001A463B68134445
:10A970001B68002BDFD1212000F072F9796827488D
:10A9800010F0E6FD0023FB602CE0002000F068F9E9
:10A99000FA6813469B0013449B001A463B68134415
:10A9A000DB6819461E4810F0D3FDFA6813469B0079
:10A9B00013449B001A463B6813441B7C002B06D1B2
:10A9C000202000F04DF9174810F0C2FD07E01F20CD
:10A9D00000F046F9144810F0BBFD0323FB72FB683E
:10A9E0000133FB60FA6813469B0013449B001A4630
:10A9F0003B6813441B68002BC7D1212000F030F9BD
:10AA000079680A4810F0A4FD002000F029F9FB7ACB
:10AA100018461037BD4680BD701A1808A41A1808C9
:10AA2000C81A1808DC1A1808E81A1808F41A1808BE
:10AA300080B584B000AFF860B9607A603B603B6875
:10AA4000002B04D10948FFF753FF012309E03B68BD
:10AA5000FA68DA603B68BA685A603B687A689A605C
:10AA6000002318461037BD4680BD00BF181B1808CC
:10AA700080B584B000AFF860B9607A603B603B6835
:10AA8000002B03D10948FFF733FF0BE03B6801229D
:10AA90001A703B68FA685A603B68BA689A603B680B
:10AAA0007A68DA601037BD4680BD00BF381B1808D1
:10AAB00080B58AB000AF786000237B6200233B62E0
:10AAC00007F1080300221A605A609A60DA607B6816
:10AAD000002B03D07B681B68002B04D15648FFF77E
:10AAE00007FF0123A3E07B681B68786898477B68B1
:10AAF000DB68002B03D07B689B68002B04D14E4899
:10AB0000FFF7F6FE012392E0212000F0A9F87B6810
:10AB1000DB681946494810F01BFD7B685B68BB6128
:10AB20000023FB614DE0BB691B68002B03D0BB69B0
:10AB30005B68002B04D14248FFF7DAFE022376E07F
:10AB4000002000F08DF8BB695968BB699B681A4604
:10AB50003C4810F0FDFC00233B72BB691B6807F109
:10AB60000802104698473B7A012B0BD1BB695A6803
:10AB700007F1080311461846FFF77EFE7B6A013392
:10AB80007B6218E03B7A022B0CD1002000F068F8C1
:10AB9000BB695B6819462C4810F0DAFC3B6A01334C
:10ABA0003B6208E0202000F05BF8BB695B68194657
:10ABB000264810F0CDFCBB690C33BB61FB69013347
:10ABC000FB617B689B68FA699A42ACD37B6A002B75
:10ABD00009D0002000F044F87B689B681A46796A27
:10ABE0001B4810F0B5FC3B6A002B09D0002000F098
:10ABF00037F87B689B681A46396A164810F0A8FC3B
:10AC00007B6A002B09D1202000F02AF8124810F0AE
:10AC10009FFC7B6800221A7408E01F2000F020F8D7
:10AC20000E4810F095FC7B6801221A740023184628
:10AC30002837BD4680BD00BF181B18085C1B1808CC
:10AC4000381B1808781B1808A41B1808BC1B180808
:10AC5000D41B1808F81B18081C1C1808301C1808EE
:10AC600080B582B000AF0346FB71FB7919460348FB
:10AC700010F06EFC00BF0837BD4680BD441C1808AC
:10AC800080B500AF10F0F4FD0346002B00D0FEE7C6
:10AC900010F0F6FD0346002B00D0FEE70EF012FE8A
:10ACA0000EF036FC064B1B68064A0021184610F0D1
:10ACB000A7F8054810F04CFC0EF034FEFEE700BF8C
:10ACC0008C010020781C1808581C180880B584B026
:10ACD00000AF00233B6002237B600023BB600023A6
:10ACE000FB603B4618460FF0ADFB03461846103795
:10ACF000BD4680BD80B584B000AF78603960002368
:10AD0000FB607B68002B02D14FF0FF330BE039680A
:10AD100078680FF0B1FBF860FB68002B02D04FF0B1
:10AD2000FF3300E0002318461037BD4680BD80B5D4
:10AD300084B000AF78600023FB607B68002B02D1F9
:10AD40004FF0FF330AE078680FF0B2FBF860FB6861
:10AD5000002B02D04FF0FF3300E0002318461037DD
:10AD6000BD4680BD80B500AF10F068F880B582B0F8
:10AD700000AF0EF0C1FD78607B68002B02D07B68CD
:10AD8000012B01D1002300E0012318460837BD46FE
:10AD900080BD000080B584B000AF78600223FB6006
:10ADA0007B68FA6803490448FFF742FE00BF10378A
:10ADB000BD4680BD90010020281D180880B584B0D4
:10ADC00000AF786000F01CFDF860FB68002B0AD033
:10ADD000F968084810F0BCFB7B6843220649074825
:10ADE000FFF746FE02E07B6800221A701037BD466E
:10ADF00080BD00BF781D1808A01D1808F81D180890
:10AE000080B596B002AF786007F10C0340220021B4
:10AE1000184615F09CFE07F10C0007F1080300939B
:10AE20004FF41473244A2121FFF7CAFAF864FB6C2B
:10AE300013F1870F06D07B68642220492048FFF772
:10AE400017FE35E007F1080319464020FFF7E2FA44
:10AE5000F864FB6C002B06D07B686C2217491948FC
:10AE6000FFF706FE24E0BB68B3F5147F05D9164B47
:10AE7000164A7021114815F0F7FCBB685A1E07F1FD
:10AE80000C0007F10803009313460B4A4021FFF71B
:10AE900097FAF864FB6C13F18A0F06D07B687A226C
:10AEA00006490B48FFF7E4FD02E07B6800221A70B8
:10AEB0005037BD4680BD00BFD4060020A01D180835
:10AEC0002C1E1808641E1808941E1808EC1E18087A
:10AED000B81E180880B483B000AF3B4683E8030077
:10AEE0003B68002B0CBF01230023DBB218460C3754
:10AEF000BD465DF8047B704780B489B000AFF86050
:10AF0000381D80E806003B60BB683A689A4204D965
:10AF10000023BB610023FB6111E07B68002B06D19D
:10AF20000023BB61BA683B68D31AFB6107E07A680B
:10AF30003B681344BB61BA683B68D31AFB61FB688A
:10AF40001A4607F1180393E8030082E80300F86843
:10AF50002437BD465DF8047B704780B582B000AFF2
:10AF60003B4683E803003B4693E80300FFF7B2FF4C
:10AF7000034618460837BD4680BD80B584B000AF93
:10AF8000F860381D80E806003B60F8683B683A1DB1
:10AF900006CAFFF7B1FFF8681037BD4680BD90B50F
:10AFA00085B000AF07F1080484E80300394681E862
:10AFB0000C003B460CCB07F1080103C905F071FBFF
:10AFC000034618461437BD4690BD80B584B000AF27
:10AFD00007F1080383E803001346FB71FB791A4667
:10AFE00007F1080393E8030005F07DFB03461846CC
:10AFF0001037BD4680BD80B5A8B000AF7860002393
:10B00000C7F89C307B681B6D03F00103002B04D153
:10B010006FF03103C7F89C305EE107F1080340226E
:10B020000021184615F093FD07F10803C7F8883092
:10B030004023C7F88C3007F1880393E80300FFF73B
:10B040008CFF0346002B3CD1796807F188030CCBB9
:10B0500003C9FFF7A4FF0346002B32D007F180009D
:10B060007A68042306CAFFF788FF7B685B68402B79
:10B0700022D1002207F1800393E80300FFF7A5FF28
:10B080000346B3F1FF3F17D107F19000042307F106
:10B09000880206CAFFF771FF07F180030CCB07F1A6
:10B0A000900103C9FFF77BFF0346002B09D06FF027
:10B0B0003203C7F89C300FE16FF03203C7F89C30C1
:10B0C0000AE17B681B6D03F00203002B04D16FF0D3
:10B0D0003303C7F89C30FFE00023C7F88830002313
:10B0E000C7F88C3007F1880393E80300FFF735FFBA
:10B0F0000346002B0FD1796807F188030CCB083188
:10B1000003C9FFF74CFF0346002B04D06FF0340354
:10B11000C7F89C30E0E07B681B6D03F00403002B54
:10B1200004D16FF03503C7F89C30D5E00023C7F891
:10B1300088300023C7F88C3007F1880393E80300B8
:10B14000FFF70BFF0346002B0FD1796807F1880347
:10B150000CCB103103C9FFF722FF0346002B04D0AC
:10B160006FF03603C7F89C30B6E07B681B6D03F0C8
:10B170000803002B1CD00023C7F89830D7F898306C
:10B18000002B15D00023C7F888300323C7F88C3074
:10B19000796807F188030CCB183103C9FFF7FFFE6C
:10B1A0000346002B04D06FF03803C7F89C3093E0BF
:10B1B0007B681B6D03F01003002B04D16FF0390383
:10B1C000C7F89C3088E00023C7F888300023C7F810
:10B1D0008C3007F1880393E80300FFF7BEFE0346B7
:10B1E000002B0FD1796807F188030CCB203103C9FC
:10B1F000FFF7D5FE0346002B04D06FF03A03C7F8E3
:10B200009C3069E07B681B6D03F04003002B04D188
:10B210006FF03B03C7F89C305EE07B681B6D03F06A
:10B220002003002B04D16FF03D03C7F89C3053E09E
:10B230007B68DB6A002B08D07B68DB6A002B04DBB1
:10B240006FF03E03C7F89C3046E07B681B6D03F04F
:10B250008003002B1CD00023C7F89830D7F8983013
:10B26000002B15D00023C7F888300323C7F88C3093
:10B27000796807F188030CCB303103C9FFF78FFEE3
:10B280000346002B04D06FF04003C7F89C3023E046
:10B290007B681B6D03F48073002B1DD00023C7F85F
:10B2A0009830D7F89830002B15D00023C7F8883095
:10B2B0000323C7F88C30796807F188030CCB383149
:10B2C00003C9FFF76CFE0346002B05D06FF0420365
:10B2D000C7F89C3000E000BFD7F89C301846A03774
:10B2E000BD4680BD80B590B000AF78600023FB63A1
:10B2F0007B689B6A03F00103002B16D00023BB631D
:10B30000BB6B002B11D000233B6303237B63796865
:10B3100007F130030CCB03C9FFF741FE0346002BB6
:10B3200003D06FF06403FB638CE07B689B6A03F0DF
:10B330000203002B03D16FF06503FB6382E000235F
:10B340003B6300237B6307F1300393E80300FFF7BF
:10B3500004FE0346002B0ED1796807F130030CCBB5
:10B36000083103C9FFF71BFE0346002B03D06FF023
:10B370006603FB6366E07B689B6A03F00803002BAF
:10B3800003D16FF06903FB635CE00023BB63BB6B1D
:10B39000002B12D000233B6303237B63796807F102
:10B3A00030030CCB103103C9FFF7F9FD0346002B26
:10B3B00003D06FF06A03FB6344E07B689B6A03F091
:10B3C0002003002B03D16FF06B03FB633AE00023F3
:10B3D0003B6300237B6307F1300393E80300FFF72F
:10B3E000BCFD0346002B0ED1796807F130030CCB6E
:10B3F000183103C9FFF7D3FD0346002B03D06FF0CC
:10B400006C03FB631EE07B689B6A03F04003002B28
:10B4100018D00023BB63BB6B002B12D000233B630F
:10B4200003237B63796807F130030CCB203103C918
:10B43000FFF7B5FD0346002B04D06FF06E03FB63EE
:10B4400000E000BFFB6B18464037BD4680BD80B5AD
:10B4500090B000AF78600023FB637B689B6A03F0C9
:10B460000103002B16D00023BB63BB6B002B11D054
:10B4700000233B6303237B63796807F130030CCB24
:10B4800003C9FFF78CFD0346002B03D06FF0640364
:10B49000FB638CE07B689B6A03F00203002B03D103
:10B4A0006FF06503FB6382E000233B6300237B6353
:10B4B00007F1300393E80300FFF74FFD0346002B2D
:10B4C0000ED1796807F130030CCB083103C9FFF7BF
:10B4D00066FD0346002B03D06FF06603FB6366E056
:10B4E0007B689B6A03F00803002B03D16FF06903AC
:10B4F000FB635CE00023BB63BB6B002B12D000231B
:10B500003B6303237B63796807F130030CCB103175
:10B5100003C9FFF744FD0346002B03D06FF06A0315
:10B52000FB6344E07B689B6A03F02003002B03D19C
:10B530006FF06B03FB633AE000233B6300237B6304
:10B5400007F1300393E80300FFF707FD0346002BE4
:10B550000ED1796807F130030CCB183103C9FFF71E
:10B560001EFD0346002B03D06FF06C03FB631EE04F
:10B570007B689B6A03F04003002B18D00023BB6359
:10B58000BB6B002B12D000233B6303237B637968E2
:10B5900007F130030CCB203103C9FFF700FD034650
:10B5A000002B04D06FF06E03FB6300E000BFFB6B69
:10B5B00018464037BD4680BD90B5ADF2EC6D02AF88
:10B5C000024607F5DC63A3F2D9631A7007F5DC6362
:10B5D000A3F2E45307F582721A6007F5DC63A3F265
:10B5E000E4534FF4BA625A6007F5DC63A3F2EC53FC
:10B5F00000221A6007F5DC63A3F2EC5300225A60C4
:10B6000007F5DC63A3F2D9631B78012B03D97B4BCD
:10B61000C7F8DC36EAE000BF07F5DC63A3F2CC63D1
:10B62000184640231A46002115F091FA07F5DC630D
:10B63000A3F28C6307F114021A6007F5DC63A3F22E
:10B640008C6340225A6007F5DC63A3F28C631868B0
:10B6500007F5DC63A3F28C63596807F5DC63A3F29A
:10B66000E4531A6807F5DC63A3F2E4535C6807F15E
:10B67000F403043300932346FEF7A2FEC7F8D8066E
:10B68000D7F8D836002B20D107F5DC63A3F2E453BA
:10B690001A6807F5DC63A3F2EC531A6007F1E003C4
:10B6A000184600F0B5F807F5DC63A3F2EC5307F198
:10B6B000E00093E8060000F01BFF0346C7F8DC3605
:10B6C000D7F8DC36002B05D090E0D7F8D836C7F88D
:10B6D000DC368BE007F18C0207F1E00311461846D7
:10B6E00000F0A6F80346C7F8DC36D7F8DC36002BA6
:10B6F0006FD107F18C031846FFF77DFCC7F8DC0615
:10B70000D7F8DC36002B66D107F15C0207F1E003C5
:10B710001146184600F0B0FA0346C7F8DC36D7F8F1
:10B72000DC36002B59D107F5DC63A3F284631B6878
:10B73000C7F8D436D7F8D436002B04DA6FF00403F8
:10B74000C7F8DC3652E007F5DC63A3F284631B68BC
:10B75000002B3AD007F1600207F1E0030021184600
:10B7600000F0BAFB0346C7F8DC36D7F8DC36002B0E
:10B7700035D107F160031846FFF7B4FDC7F8DC06C2
:10B78000D7F8DC36002B2CD107F5DC63A3F28463F9
:10B790001B68012B19D907F1600207F1E0030121B1
:10B7A000184600F099FB0346C7F8DC36D7F8DC36BC
:10B7B000002B18D107F160031846FFF748FEC7F8C1
:10B7C000DC06D7F8DC36002B0FD10023C7F8DC36B7
:10B7D0000CE000BF0AE000BF08E000BF06E000BFC9
:10B7E00004E000BF02E000BF00E000BFD7F8DC3695
:10B7F000184607F2E467BD4690BD00BF18FCFFFF86
:10B8000080B500AF0020FFF7D7FE0346184680BD85
:10B8100080B582B000AF78600C220021786815F006
:10B8200096F97B6810221A7200BF0837BD4680BDAA
:10B8300080B5ADF55C7D00AF07F55C73A3F55B7378
:10B84000186007F55C73A3F55C73196007F55C730A
:10B85000A3F55C7354220021186815F078F907F5F8
:10B860005C73A3F51471344A4FF0FF33C1E9002330
:10B8700007F55C73A3F51471304A4FF0FF33C1E94B
:10B880000C2307F55C73A3F514712D4A4FF0FF33B9
:10B89000C1E9182307F55C73A3F51471294A4FF029
:10B8A000FF33C1E9242307F55C73A3F51471264A1D
:10B8B0004FF0FF33C1E9302307F55C73A3F5147132
:10B8C000224A4FF0FF33C1E93C2307F55C73A3F52F
:10B8D00014711F4A4FF0FF33C1E9482307F55C7329
:10B8E000A3F514711B4A4FF0FF33C1E9542307F548
:10B8F0005C73A3F51471184A4FF0FF33C1E960235C
:10B9000007F55C73A3F514714FF000024FF00003CC
:10B91000C1E9842307F55C73A3F55B731B681B7A8D
:10B92000002B1BD007F55C73A3F55B731B681B7AB8
:10B9300087F86F3396E100BF00DBFEFFFFDAFEFF02
:10B9400004DBFEFF03DBFEFF05DBFEFF07DBFEFF84
:10B9500006DBFEFF08DBFEFFFEDAFEFF07F55C7389
:10B96000A3F55B731A6807F10800002306CA02F00A
:10B9700054FF07F5907207F108031146184600F0CE
:10B98000AFFB034687F86F3397F86F33002B40F017
:10B99000668107F55C73A3F514731B7A062B1BD124
:10B9A00007F55C73A3F55C731A6807F55C73A3F580
:10B9B0001473103393E8030082E8030007F55C7307
:10B9C000A3F55C731B681B6D43F0010207F55C7304
:10B9D000A3F55C731B681A6507F55C73A3F5147314
:10B9E00093F83830062B1CD107F55C73A3F55C7314
:10B9F0001B6807F55C72A2F514720833403292E8B6
:10BA0000030083E8030007F55C73A3F55C731B6810
:10BA10001B6D43F0020207F55C73A3F55C731B68B2
:10BA20001A6507F55C73A3F5147393F86830062B59
:10BA30001CD107F55C73A3F55C731B6807F55C729A
:10BA4000A2F514721033703292E8030083E8030009
:10BA500007F55C73A3F55C731B681B6D43F0040270
:10BA600007F55C73A3F55C731B681A6507F55C73D7
:10BA7000A3F5147393F89830072B1CD107F55C736A
:10BA8000A3F55C731B6807F55C72A2F5147218339A
:10BA9000A03292E8030083E8030007F55C73A3F586
:10BAA0005C731B681B6D43F0080207F55C73A3F51C
:10BAB0005C731B681A6507F55C73A3F5147393F840
:10BAC000C830062B1CD107F55C73A3F55C731B68AB
:10BAD00007F55C72A2F514722033D03292E80300AD
:10BAE00083E8030007F55C73A3F55C731B681B6DAB
:10BAF00043F0100207F55C73A3F55C731B681A65CD
:10BB000007F55C73A3F5147393F8F830022B2CD16E
:10BB100007F55C73A3F51473D3E94023C7E9D82371
:10BB2000D7E9D8236FF000418A4273F1000306DBA6
:10BB3000D7E9D8234F498A4273F1FF3315DBD7F891
:10BB4000602307F55C73A3F55C731B68DA6207F585
:10BB50005C73A3F55C731B681B6D43F0200207F553
:10BB60005C73A3F55C731B681A6507F55C73A3F53A
:10BB7000147393F82831022B24D107F55C73A3F5D5
:10BB80001473D3E94C23B2F1FF3F73F1000319DAC8
:10BB900007F55C73A3F51473D3E94C2307F55C73C5
:10BBA000A3F55C731B689A6207F55C73A3F55C737D
:10BBB0001B681B6D43F0400207F55C73A3F55C73D3
:10BBC0001B681A6507F55C73A3F5147393F8583175
:10BBD000072B1DD107F55C73A3F55C731B6807F594
:10BBE0005C72A2F51472303302F5B07292E8030071
:10BBF00083E8030007F55C73A3F55C731B681B6D9A
:10BC000043F0800207F55C73A3F55C731B681A654B
:10BC100007F55C73A3F5147393F88831072B20D1D3
:10BC200007F55C73A3F55C731B6807F55C72A2F5FE
:10BC30001472383302F5C87292E8030083E80300F7
:10BC400007F55C73A3F55C731B681B6D43F480728E
:10BC500007F55C73A3F55C731B681A6502E000BF0F
:10BC600000E000BF97F86F33184607F55C77BD46D4
:10BC700080BD00BF0100008080B590B002AF786049
:10BC800039607B681B7A002B04D07B681B7A87F8AD
:10BC9000373045E0796807F1080300930423234A0D
:10BCA00003C900F017FB034687F8373097F83730A1
:10BCB000002B28D097F83730112B30D1796807F155
:10BCC0000803009302231A4A03C900F003FB03464A
:10BCD00087F8373097F83730002B0CD1D7E9042399
:10BCE000511E0B4303D13B6800221A6017E0122358
:10BCF00087F8373013E097F83730112B0FD1122324
:10BD000087F837300BE03B8A002B03D1122387F8EA
:10BD1000373005E03B8A1A463B681A6000E000BFF6
:10BD200097F8373018463837BD4680BD02DBFEFF36
:10BD300001DBFEFFB0B592B000AFF860B9607A6089
:10BD4000BB681B78052B03D0062387F84730BCE07F
:10BD50002C220021786814F0FAFE002387F847307F
:10BD600007F118031946F86803F0FAFC034687F850
:10BD7000463097F84630002B03D0052387F847302C
:10BD8000A3E07B7E022B40F08980D7E90C23541E70
:10BD900043F1FF35062C75F100037FD2052C7DD8C9
:10BDA00001A353F824F000BFC1BD0808EDBD080889
:10BDB0009DBE080819BE080845BE080871BE0808DF
:10BDC0003B7E072B03D0072387F847307DE07B6855
:10BDD0001A4607F1200393E8030082E803007B681A
:10BDE0009B6A43F001027B689A6257E03B7E062B18
:10BDF00003D0072387F8473067E07B68083307F1F3
:10BE0000200292E8030083E803007B689B6A43F00A
:10BE100002027B689A6241E03B7E072B03D0072336
:10BE200087F8473051E07B68103307F1200292E831
:10BE3000030083E803007B689B6A43F008027B6889
:10BE40009A622BE03B7E062B03D0072387F847300E
:10BE50003BE07B68183307F1200292E8030083E897
:10BE600003007B689B6A43F020027B689A6215E0BE
:10BE70003B7E072B03D0072387F8473025E07B68FC
:10BE8000203307F1200292E8030083E803007B6877
:10BE90009B6A43F040027B689A6200BF07F114027C
:10BEA00007F118031946F86800F0DCF80346002B88
:10BEB00003D0052387F8473007E0BB68DB781A46D4
:10BEC0007B699A4200D84BE700BF97F84730184685
:10BED0004837BD46B0BD00BF80B5E2B000AF07F542
:10BEE000C473A3F5BE73186007F5C473A3F5C073DC
:10BEF000196007F5C473A3F5C2731A6007F5C4731C
:10BF0000A3F5BE731B681B7A002B08D007F5C4731A
:10BF1000A3F5BE731B681B7A87F8873177E007F5B6
:10BF2000C473A3F5BE731A6807F13800002306CA6C
:10BF300002F073FC07F5A87207F138033749184679
:10BF400000F040F9034687F8873197F88731002BD6
:10BF50005CD197F85031042B03D0072387F8873141
:10BF600055E097F85331C7F8803107F1100207F117
:10BF700038031146184603F0F3FB034687F87F3178
:10BF800097F87F31002B03D0052387F887313EE0F7
:10BF900007F5C473A3F5BC73DB781A46D7F8803174
:10BFA000934203D3112387F8873130E007F5C47338
:10BFB000A3F5C0731B68002B0ED107F5C473A3F55E
:10BFC000C27307F1100107F138001A68FFF7B2FEDB
:10BFD000034687F887311AE007F5C473A3F5C073E9
:10BFE00007F5C472A2F5C0721268013A1A6007F12F
:10BFF000100107F138030022184600F033F8034619
:10C00000002BB2D0052387F8873100E000BF97F8F6
:10C010008731184607F5C477BD4680BD02DBFEFFB9
:10C0200080B483B000AF3B4683E803003B68002B3D
:10C030000CBF01230023DBB218460C37BD465DF868
:10C04000047B704780B582B000AF3B4683E80300B5
:10C050003B4693E80300FFF7E3FF03461846083723
:10C06000BD4680BD80B590B000AFF860B9607A6021
:10C07000BB681B78052B03D0BB681B78042B1CD135
:10C0800007F110031946F86803F06AFB034687F8C6
:10C090003F3097F83F30002B1BD1FA7CBB68DB7830
:10C0A0009A42EDD27B68002B03D0FB7C1A467B685A
:10C0B0001A60002387F83F300CE07B68002B04D027
:10C0C000BB68DB781A467B681A60002387F83F302C
:10C0D00000E000BF97F83F3018464037BD4680BDAE
:10C0E000B0B592B000AF786039603B687B6405E022
:10C0F0007B6C00221A727B6C30337B647B6CD3E9DF
:10C1000000231343F4D107F110031946786803F0B4
:10C1100027FB3B7C052B03D0062387F843304BE0FD
:10C12000BB7CFB63FB7CFB603FE007F1100319461F
:10C13000786803F015FB0346002B03D0052387F82E
:10C14000433039E07B7C022B20D13B687B6418E0D4
:10C15000D7E90A017B6CD3E90023994208BF9042DA
:10C160000CD17B6C03F1080407F110050FCD0FC44F
:10C170000FCD0FC495E8030084E803007B6C3033D7
:10C180007B647B6CD3E900231343E1D107F10C02FC
:10C1900007F1100319467868FFF764FF0346002B88
:10C1A00003D0052387F8433006E0FB68FA6B9A4218
:10C1B000BBD3002387F8433097F8433018464837FD
:10C1C000BD46B0BDB0B590B000AFF860B9607A6060
:10C1D000002387F83F3007F110031946F86803F091
:10C1E000BFFA3B7C052B03D0062387F83F3031E0B4
:10C1F0007968F86803F0B4FA0346002B03D00523EE
:10C2000087F83F3026E07B685B78022B0ED17B6895
:10C21000D3E90623B968C8170C460546AB4208BFE8
:10C22000A24203D1002387F83F3013E0002279684F
:10C23000F868FFF717FF0346002B03D0052387F8A4
:10C240003F3007E07B68DA78FB7C9A42D0D211233A
:10C2500087F83F3097F83F3018464037BD46B0BDAD
:10C26000B0B59EB000AFF860B9607A60BB68DA170D
:10C270001C461546C7E904454FF000024FF0000385
:10C28000C7E9102307F110031946F868FFF728FFE4
:10C29000034687F8773097F87730002B13D13B7E31
:10C2A000002B03D1112387F877300DE07B681D4602
:10C2B00007F118040FCC0FC50FCC0FC594E803008D
:10C2C00085E8030000E000BF97F87730184678371C
:10C2D000BD46B0BDB0B5D6B000AF07F5AC74A4F59F
:10C2E000A87484E8030007F5AC71A1F5AA710A608F
:10C2F00007F5AC72A2F5AC72136007F5AC73A3F549
:10C30000A87393E80300FFF79DFE0346002B03D0BC
:10C310000A2387F8573150E007F5AC73A3F5A872EC
:10C3200007F11000002306CA02F077FA07F59472AD
:10C3300007F5AC73A3F5AA7307F110001968FFF7AE
:10C340008FFF034687F8573197F85731002B33D1C9
:10C3500007F11003184603F0AEFA034687F856318A
:10C3600097F85631002B0BD097F85631082B03D194
:10C37000062387F8573120E0052387F857311CE062
:10C3800097F828311A4607F5AC73A3F5AC731B6810
:10C39000934203D0072387F857310EE0D7F868316E
:10C3A0001D4607F594740FCC0FC50FCC0FC594E84C
:10C3B000030085E8030000E000BF97F857311846F6
:10C3C00007F5AC77BD46B0BD80B483B000AF03467F
:10C3D000FB71FB79302B00F2818001A252F823F02F
:10C3E000A5C40808A9C40808DDC40808ADC4080825
:10C3F000DDC40808DDC40808DDC40808DDC4080879
:10C40000DDC40808B1C40808C5C40808D5C40808B4
:10C41000D5C40808C9C40808D5C40808DDC408087C
:10C42000B5C40808DDC40808B9C40808D9C4080898
:10C43000D9C40808D5C40808C9C40808DDC4080858
:10C44000BDC40808C1C40808DDC40808DDC4080864
:10C45000DDC40808DDC40808C5C40808DDC4080830
:10C46000DDC40808DDC40808DDC40808DDC4080808
:10C47000DDC40808DDC40808DDC40808DDC40808F8
:10C48000DDC40808DDC40808DDC40808DDC40808E8
:10C49000DDC40808DDC40808DDC40808CDC40808E8
:10C4A000D1C4080800231AE00B2318E0042316E087
:10C4B000052314E00C2312E00D2310E002230EE00C
:10C4C00001230CE006230AE00A2308E0092306E022
:10C4D000092304E0092302E00F2300E003231846A8
:10C4E0000C37BD465DF8047B704700BF00000000BC
:10C4F00080B5F4B002AF07F5E473A3F5DE731860FE
:10C5000007F5E473A3F5E27383E8060007F1180367
:10C510000021184600F0B0F81BA3D3E90023C7E9B7
:10C52000042307F11801D7E90423084600F0CBF8EB
:10C5300007F5E473A3F5DE731B6807F5E472A2F553
:10C54000E27207F118000021009106CA00F0D8F845
:10C55000034687F8C73197F8C7311846FFF734FF0D
:10C56000034687F8C63107F5E473A3F5DE731B684D
:10C5700097F8C6211A7297F8C631184607F5E4777E
:10C58000BD4680BDAFF300805D81FF7F00000000ED
:10C5900082B080B588B004AFF860381D80E806002E
:10C5A000FB61BB6A03937B6A0293002301933B6A9E
:10C5B0000093FB693A1D06CAF86801F089FA034640
:10C5C00018461037BD46BDE8804002B0704780B5C0
:10C5D00082B000AF786039604FF49C7200217868B7
:10C5E00014F0B5FA7B6803F138027B681A637B6844
:10C5F0000022DA627B6806229A627B683A685A6097
:10C600007B6803F128027B68C3F8282100BF083744
:10C61000BD4680BD80B582B000AF786039607B6870
:10C620003968184601F079F900BF0837BD4680BD6A
:10C6300080B485B000AFF860C7E90023F968D7E996
:10C640000023C1E90623FB68203307F1180292E8B2
:10C65000030083E8030000BF1437BD465DF8047B88
:10C66000704780B483B000AF78607B6818460C37A1
:10C67000BD465DF8047B704790B583B000AF78602D
:10C6800039607A683B6843F0120319461046FFF799
:10C690009EFF7B683A68C3F8A0217B6803F59C7312
:10C6A000184600F045F97C687B6803F59C731846D2
:10C6B000FFF7D7FF034619462046FFF7ABFF00BF41
:10C6C0000C37BD4690BD90B589B002AFF860C7E9A0
:10C6D0000023FB6803F59C7400233B6100237B610E
:10C6E0006A4607F1100393E8030082E80300D7E9E4
:10C6F00000232046FFF79CFF00BF1C37BD4690BDBE
:10C7000080B58CB004AFF860381D80E806003B604F
:10C71000F86800233B6100237B6107F11803029353
:10C720003B6801937B6900933B693A1D06CAFFF79A
:10C730002FFF0346FB77FB7F002B0AD1BB6A002B40
:10C7400009D0BB69B96A184600F020FE0346FB77A2
:10C7500002E000BF00E000BFFB7F18462037BD4667
:10C7600080BD80B483B000AF3B4683E803003B68E4
:10C77000002B0CBF01230023DBB218460C37BD464B
:10C780005DF8047B704780B582B000AF3B4683E81C
:10C7900003003B4693E80300FFF7E3FF0346184618
:10C7A0000837BD4680BD90B585B000AF07F10804DD
:10C7B00084E80300394681E80C003B460CCB07F1C6
:10C7C000080103C903F06DFF034618461437BD4640
:10C7D00090BD80B584B000AF786007F10B031946B7
:10C7E000786800F070FDF860FB7A83F00103DBB23B
:10C7F000002B01D0002300E0FB6818461037BD462F
:10C8000080BD000080B582B000AF786004497868D0
:10C8100001F03CF8034618460837BD4680BD00BF0E
:10C82000041F180890B59DB006AFF860B9607A6033
:10C830003B60FB683B6507F12403FB6120233B62FF
:10C840003868FFF7C6FFF864FB6C002B03D10B239D
:10C8500087F8573065E0F86CFFF7D4FF034683F0A4
:10C860000103DBB2002B03D0012387F8573058E0D7
:10C87000BB6803F40063002B01D0002353E007F1F1
:10C8800044033968184600F04EFD3B6D203393E8B1
:10C890000300FFF778FF0346002B17D107F144038D
:10C8A00093E80300FFF76FFF0346002B01D00C2332
:10C8B00039E03B6D20330CCB07F1440103C9FFF78E
:10C8C00072FF0346002B01D02D232CE007F1140347
:10C8D000009307F11C030CCB7968F86C00F030FF73
:10C8E000034687F8573097F85730002B18D13B6D27
:10C8F0009A6A3B6D03AC07F1680103C984E8030041
:10C9000001AC07F1140103C984E803000092D3E9E4
:10C910000623F86C00F054F8034687F8573000E01F
:10C9200000BF97F8573018465C37BD4690BD0000F1
:10C9300080B582B000AF786030220021786814F0B2
:10C9400006F97B6844F676529A807B68024A9A60C0
:10C9500000BF0837BD4680BD25C8080880B483B035
:10C9600000AF00237B607B6818460C37BD465DF83E
:10C97000047B704780B483B000AF78607B6813F1AC
:10C98000070F01D1044B00E0002318460C37BD46C9
:10C990005DF8047B704700BF0906000680B582B0D1
:10C9A00000AF78607B681BB21946044800F089FF2D
:10C9B0000346DBB218460837BD4680BD0C1F180879
:10C9C00080B58AB002AFF860C7E90023F868FFF7C6
:10C9D000D1FFB861BB6923F4FF7323F00103B3F106
:10C9E000062F0ED0BB6923F0FF03134A934208D0F1
:10C9F000BB6923F0FF03114A934202D00123FB7766
:10CA000015E0D7E9002313467B61F96A386B7B6B2D
:10CA1000BA6B0192009303460A46B9697869FDF73B
:10CA200073F938613869FFF7B9FF0346FB77FB7F7D
:10CA300018462037BD4680BD0003000600130006DF
:10CA400080B483B000AF78607B6813F1100F01D120
:10CA5000044B01E04FF6FF7318460C37BD465DF8F6
:10CA6000047B70470900000280B582B000AF786097
:10CA70007B681BB21946044800F023FF0346DBB273
:10CA800018460837BD4680BD241F180890B585B0EC
:10CA900000AF786039603868FFF7D2FFF8607C68D3
:10CAA000FFF75CFF20607B68F9681846FCF768FBBD
:10CAB00002467B685A607B685B681846FFF7D4FFC4
:10CAC000034618461437BD4690BD80B584B000AF0C
:10CAD000F8603B1D83E80600FB685B68002B0CD107
:10CAE0007B68002B0BD0FB687968BA681846FCF7A6
:10CAF00079FB0246FB685A6002E000BF00E000BF1D
:10CB00001037BD4680BD80B584B000AFF860381DD9
:10CB100080E806003B60FB685B68002B0DD1F8687D
:10CB20007968BA683B680433FCF78CFB0246FB6803
:10CB30005A607A683B681A6000E000BFFB685B6877
:10CB40001846FFF791FF034618461037BD4680BDD3
:10CB500080B483B000AF3B4683E803003B68002B02
:10CB60000CBF01230023DBB218460C37BD465DF82D
:10CB7000047B704780B483B000AF3B4683E803007A
:10CB80007B68002B0CBF01230023DBB218460C3757
:10CB9000BD465DF8047B704780B582B000AF3B4670
:10CBA00083E803003B4693E80300FFF7E3FF0346F7
:10CBB000002B07D13B4693E80300FFF7C9FF03466C
:10CBC000002B01D0012300E0002318460837BD46A2
:10CBD00080BD80B483B000AF78607B6893F8EE309E
:10CBE00018460C37BD465DF8047B704780B485B0AD
:10CBF00000AF78607B6893F8EE30FB737B680022AF
:10CC000083F8EE20FB7B18461437BD465DF8047BA5
:10CC1000704780B582B000AF786039603A6805210E
:10CC2000786803F074FA00BF0837BD4680BD80B550
:10CC300082B000AF786039603A680421786803F008
:10CC400066FA00BF0837BD4680BD80B582B000AF30
:10CC500078600421786803F0FFFA00BF0837BD460A
:10CC600080BD80B582B000AF78600521786803F0A0
:10CC7000F3FA00BF0837BD4680BD80B582B000AF73
:10CC80003B4683E803003B4693E80300FFF760FF61
:10CC9000034618460837BD4680BD80B582B000AF58
:10CCA0003B4683E803003B4693E80300FFF774FF2D
:10CCB000034618460837BD4680BD80B485B000AF36
:10CCC000786039607B681B68002B03D17B683A6809
:10CCD0001A600DE07B681B68FB6002E0FB681B6A62
:10CCE000FB60FB681B6A002BF8D1FB683A681A628C
:10CCF00000BF1437BD465DF8047B704780B582B035
:10CD000000AF786050220021786813F020FF00BF48
:10CD10000837BD4680BD80B582B000AF78607B68C3
:10CD2000D3E9002313430AD17B68283393E8030037
:10CD3000FFF7B3FF0346002B01D0012300E00023DF
:10CD400003F00103DBB218460837BD4680BD80B44E
:10CD500087B000AFF860C7E9002300237B6110E0D3
:10CD6000FA687B69DB001344D3E90023D7E90001AB
:10CD7000994208BF904201D101230BE07B69013346
:10CD80007B61FA687B69DB001344D3E9002313431A
:10CD9000E6D1002318461C37BD465DF8047B70477A
:10CDA00080B590B000AF7860396000217868FFF7F7
:10CDB0003EFF0023FB630023BB6307F10803194612
:10CDC000786802F02DFD7868FFF710FF034687F8BA
:10CDD000363097F83630432B38D097F83630002B62
:10CDE00003D0242387F8373041E03B7A022B11D15E
:10CDF000FB6B032B03D9242387F8373037E0F96B1B
:10CE00004B1CFB63D7E904233868C9000144C1E91E
:10CE10000023D2E73B7A072B14D1BB6B032B03D93A
:10CE2000242387F8373022E0BB6B5A1CBA633A6878
:10CE30000533DB00134407F1100292E8030083E896
:10CE40000300BAE7242387F8373010E000BF786882
:10CE5000FFF7FBFE3868FFF75EFF0346002B03D0A9
:10CE6000242387F8373002E0002387F8373097F81B
:10CE7000373018464037BD4680BD80B584B000AF1E
:10CE8000786039607B68FB600EE0FB68D3E90023C3
:10CE90003868FFF75CFF0346002B02D0FB680122D5
:10CEA0005A72FB681B6AFB60FB68002BEDD100BF68
:10CEB00000BF1037BD4680BD80B485B000AF78603C
:10CEC0000023FB727B68FB6029E0FB685B7A002B28
:10CED0000FD0FB68D3E90023012A73F1000306DBBE
:10CEE000FB68D3E90023072A73F1000301DB1B234E
:10CEF00019E0FB68D3E90023511F0B4305D0FB6801
:10CF0000D3E90023911F0B4306D1FB7A002B01D0FC
:10CF1000222308E00123FB72FB681B6AFB60FB68AD
:10CF2000002BD2D1002318461437BD465DF8047B90
:10CF3000704780B5A4B000AFF86039813B601346FC
:10CF4000FB710021F868FFF764FE07F1380318460B
:10CF5000FFF7D4FE07F110031946F86802F048FC09
:10CF6000F868FFF743FE034687F88E3097F88E3057
:10CF7000432B00F0BC8097F88E30002B09D097F837
:10CF80008E300A21184600F059FC034687F88F308E
:10CF9000D3E07B7C022B03D00A2387F88F30CCE0D0
:10CFA000D7E90A23911E0B4318D1FB7983F00103C3
:10CFB000DBB2002B03D0232387F88F30BDE007F1CD
:10CFC00038031946F868FFF7EBFE034687F88F3001
:10CFD00097F88F30002B00F08880AEE0D7F89C30B7
:10CFE0005A68D7F89C301B689A4203D31A2387F8F3
:10CFF0008F30A2E0D7F89C309968D7F89C305A68F7
:10D0000013469B001344DB000B44C7F88830D7F865
:10D010009C305B685A1CD7F89C305A603A7CD7F831
:10D0200088301A73D7F888303A895A81D7E90A23A9
:10D03000D7F88810C1E90023D7F88830FA791A7236
:10D04000D7F8883000225A72D7F8883000221A6246
:10D050003B7C022B0ED0022B13DB063B012B10D89E
:10D06000D7F88830103307F1180292E8030083E8FC
:10D0700003001BE0D7E90623D7F88810C1E9042391
:10D0800014E03B68002B11D03B68D7F88820F96882
:10D09000D7F898009847034687F88F3097F88F3075
:10D0A000002B0AD097F88F30432B45D107F110039E
:10D0B0001946F86802F097FC00E000BFD7F8A030EE
:10D0C0001B68002B05D1D7F8A030D7F888201A604C
:10D0D00040E7D7F8A0301A68D7F888301A62D7F836
:10D0E000A030D7F888201A6034E700BF32E700BFCD
:10D0F000F868FFF7B6FDF868FFF778FD034687F894
:10D100008E3097F88E30002B09D097F88E300A2198
:10D11000184600F093FB034687F88F300DE0D7F8F0
:10D12000A0301B6807F1380211461846FFF7A5FE2C
:10D13000002387F88F3000E000BF97F88F30184643
:10D140009037BD4680BD80B485B000AF786039604F
:10D150003B68FB6012E0FB68D3E900017B68D3E920
:10D160000023994208BF904205D1FA687B689A4231
:10D1700001D0012306E0FB681B6AFB60FB68002B03
:10D18000E9D1002318461437BD465DF8047B70478B
:10D1900080B584B000AF78607B68FB600BE0796895
:10D1A000F868FFF7D0FF0346002B01D0012306E00B
:10D1B000FB681B6AFB60FB68002BF0D1002318465C
:10D1C0001037BD4680BD80B58AB004AFF8603981A4
:10D1D0007A603B6000233B61BA6A0121F86803F082
:10D1E00015F9BB6A5B68002B11D007F1100302939D
:10D1F0003B6A01933B6800937B680122B968F86839
:10D20000FFF797FE0346FB75FB7D002B34D1F868D2
:10D2100003F02BF907F1100302933B6A01933B687B
:10D2200000937B680022B968F868FFF782FE034626
:10D23000FB75FB7D002B21D1F868FFF7CAFC034684
:10D24000BB75BB7D002B07D0BB7D0A21184600F0C3
:10D25000F5FA0346FB7512E03B691846FFF798FFA5
:10D260000346002B02D02223FB7508E03B691946D8
:10D27000786AFFF722FD02E000BF00E000BFFB7DFF
:10D2800018461837BD4680BD80B485B000AFF86041
:10D29000C7E900230DE0FB68D3E90023D7E90001CB
:10D2A000994208BF904201D1FB6806E0FB681B6A07
:10D2B000FB60FB68002BEED1002318461437BD46F7
:10D2C0005DF8047B704780B584B000AF786039604A
:10D2D0004FF001024FF000037868FFF7D5FFF860C8
:10D2E000FB68002B11D0FB681B7B022B0DD1FB6868
:10D2F000D3E90423134308D0FB68D3E904236FF078
:10D3000000418A4273F1000301DB002307E0FB6860
:10D310001A7A3B681A70FB68D3E90423134618464F
:10D320001037BD4680BD80B586B000AF78603960EB
:10D330004FF004024FF000033868FFF7A5FF786153
:10D340007B69002B0BD07B691B7B062B07D17A688E
:10D350007B69103393E8030082E8030005E07B68F3
:10D3600000221A607B6800225A6078681837BD4630
:10D3700080BD80B582B000AF78601C220021786843
:10D3800013F0E5FB00BF0837BD4680BD80B584B013
:10D3900000AF786039603868FFF7EBFF0023FB735C
:10D3A0007B68BB6088E0BB68D3E90023111F0B4397
:10D3B0000FD1BB681B7B062B02D00A23FB7380E0D6
:10D3C0003B68BA680433103292E8030083E8030034
:10D3D0006FE0BB68D3E90023511E0B4326D1BB6825
:10D3E0001B7B022B02D00A23FB736AE0BB681B7A0B
:10D3F00083F00103DBB2002B02D02323FB7360E038
:10D40000BB68D3E90423134307D0BB68D3E90423E3
:10D41000B2F1004F73F1000302DB1E23FB7350E0F7
:10D42000BB68D3E904233B681A6042E0BB68D3E9D8
:10D430000023511F0B431BD1BB681B7B062B02D063
:10D440000A23FB733DE03B68143393E80300FFF7C6
:10D4500014FC0346002B02D12223FB7331E03B680E
:10D46000BA680C33103292E8030083E8030020E02E
:10D47000BB68D3E90023911F0B431AD1BB681B7B08
:10D48000062B02D00A23FB731BE03B680C3393E8A6
:10D490000300FFF7F2FB0346002B02D12223FB73AC
:10D4A0000FE03B68BA681433103292E8030083E857
:10D4B0000300BB681B6ABB60BB68002B7FF473AFC3
:10D4C00000BFFB7B18461037BD4680BD80B483B0DB
:10D4D00000AF3B4683E803003B68002B0CBF0123F1
:10D4E0000023DBB218460C37BD465DF8047B70475D
:10D4F00080B483B000AF0346FB71FB79132B04D9D2
:10D50000FB79272B01D8012300E0002318460C37B4
:10D51000BD465DF8047B704780B582B000AF3B46E6
:10D5200083E803003B4693E80300FFF7CFFF034681
:10D5300018460837BD4680BD80B582B000AF786020
:10D540007B68B3F5004F03DA7B6813F5004F01DA0F
:10D55000002306E07B681BB21946044800F0B1F9CD
:10D56000034618460837BD4680BD00BF9C1F1808FB
:10D5700080B487B000AFC7E902017A607B687B6145
:10D580000DE07B69D3E90023D7E90201994208BF86
:10D59000904201D101230CE07B6908337B617B69F8
:10D5A000D3E90023B3F1FF3F08BFB2F1FF3FE8D159
:10D5B000002318461C37BD465DF8047B70472DE9F3
:10D5C000B0438CB000AFF860B9607A603B60BB6874
:10D5D00000229846914608F0FF040025C7E9084557
:10D5E00000227968386802F078F9C7E90601FA681C
:10D5F000D7E90601FFF7BCFF0346FB75BB6803F4E0
:10D600008073002B07D0FB7D83F00103DBB2002B7E
:10D6100001D0202361E0BB6803F40073002B04D029
:10D62000FB7D002B01D0202357E0D7E908231343CB
:10D6300012D0FA68D7E90801FFF79AFF034683F092
:10D640000103DBB2002B01D0562346E0F96CD7E989
:10D650000823C1E900230CE0FB7D83F00103DBB26A
:10D66000002B01D0552338E0F96CD7E90623C1E936
:10D6700000232022FF21B86C13F069FA0023FB621B
:10D680000023BB62FB7D002B02D0FB6A0133FB62EF
:10D69000FA6A7968386802F020F9C7E90601FB6A7E
:10D6A0000133FB62D7E90623B3F1FF3F08BFB2F1B4
:10D6B000FF3F10D0BB6A032B01D925230DE0BB6AC5
:10D6C000DB00BA6CD118D7E90623C1E90023BB6A95
:10D6D0000133BB62DCE700BF002318463037BD468C
:10D6E000BDE8B083B0B590B004AFF8603B1D83E8EF
:10D6F000060007F12403FB610A233B62BB6800229A
:10D700001C46154607F11400CDE90245002300939D
:10D71000022307F11C0206CA00F038FB07F11403CC
:10D7200093E80600F868FFF7D0F93B1D93E8060080
:10D73000F868FFF7CAF900BF3037BD46B0BD00003A
:10D7400080B58EB000AFF860B960394681E80C0052
:10D75000F868FFF7F1FE38633B6B002B03D1012320
:10D7600087F8373060E007F12003396B1846FFF780
:10D770008DF9034687F8373097F83730002B52D1B0
:10D78000BB68103393E80300FFF7C6FE0346002B87
:10D7900007D1284A07F1280392E8030083E8030031
:10D7A00006E0254A07F1280392E8030083E8030016
:10D7B00007F1200007F1280393E80600FFF785F939
:10D7C000BB6807F1200093E80600FFF78BFFBB68FA
:10D7D000103393E80300FFF79FFE0346002B07D1A9
:10D7E000BB6807F12000103393E80600FFF77AFFCB
:10D7F000BB6807F12000083393E80600FFF772FFCB
:10D80000BB6807F12000183393E80600FFF76AFFB2
:10D8100007F120003B6C3A4606CAFFF774F903464D
:10D8200087F8373000E000BF97F8373018463837B0
:10D83000BD4680BD7C1F1808941F180880B582B0B3
:10D8400000AF03460A46FB711346BB71FB793C2BC4
:10D8500001D1252316E0FB791846FFF749FE034660
:10D86000002B01D009230DE0FB793D2B02D0FB7981
:10D87000432B01D1BB7905E0FB79002B01D02E238E
:10D8800000E0002318460837BD4680BD80B483B051
:10D8900000AF7860396009E03B681B687A689A429B
:10D8A00001D1012307E03B6804333B603B681B6800
:10D8B000002BF1D1002318460C37BD465DF8047BE0
:10D8C000704780B485B000AF78600B467B80002342
:10D8D000FB60FB689B007A681344B3F90030B7F92A
:10D8E00002209A4208D0FB689B007A681344B3F97F
:10D8F000003013F5004F06D1FB689B007A68134493
:10D90000B3F9023003E0FB680133FB60E1E718463E
:10D910001437BD465DF8047B704780B485B000AF16
:10D92000786039607B681B68002B03D17B683A689C
:10D930001A600DE07B681B68FB6002E0FB681B68F7
:10D94000FB60FB681B68002BF8D1FB683A681A6023
:10D9500000BF1437BD465DF8047B704780B483B0C8
:10D9600000AF78607B6893F8EE3018460C37BD4600
:10D970005DF8047B704780B582B000AF7860396095
:10D980003A680421786802F0C2FB00BF0837BD4640
:10D9900080BD80B582B000AF78600421786802F065
:10D9A0005BFC00BF0837BD4680BD000080B584B079
:10D9B00002AF78603960054B3A6800920ECB786808
:10D9C00002F08CFD00BF0837BD4680BDC01F18089F
:10D9D00080B58CB000AF786007F10803194678680D
:10D9E00001F01EFF7B6893F8EE30002B06D13B7AE6
:10D9F000162B03D07B683D2283F8EE2000BF303722
:10DA0000BD4680BD80B483B000AF0346FB71FB7997
:10DA1000432B15D0432B15DC0B2B0FDC002B11DD1A
:10DA20001A4640F60A03D34003F00103002B14BF4B
:10DA300001230023DBB2002B02D103E02D2B01D107
:10DA4000012300E0002318460C37BD465DF8047B37
:10DA5000704782B0B0B588B002AFF860B9607A6044
:10DA6000FB624223FB75FB681B683B6121E03B695D
:10DA70009C68FB685D686A4607F12C0393E8030025
:10DA800082E80300BB687A6829463869A0470346E4
:10DA9000FB75FB7D002B10D0FB7D1846FFF7B2FF16
:10DAA000034683F00103DBB2002B08D13B691B68FE
:10DAB0003B613B69002BDAD102E000BF00E000BF10
:10DAC000FB7D18461837BD46BDE8B04002B0704730
:10DAD00082B0B0B5F2B004AF07F5DC74A4F5D6742B
:10DAE000206007F5DC70A0F5DA7080E80600C7F862
:10DAF000CC3107F5DC73A3F5DA7207F19800002347
:10DB000006CA00F08AFE07F1380207F198031146B1
:10DB10001846FFF730FF07F5DC73A3F59A73002270
:10DB20001A7007F5DC73A3F59A7300225A7007F593
:10DB3000DC73A3F59C7300221A6007F5DC73A3F570
:10DB4000D6731B68D3F82C4107F5DC73A3F5D673A5
:10DB50001B68D3F8305107F5DC73A3F5D6731B6847
:10DB6000D3F8283107F5DC72A2F59A7107F1980015
:10DB700007F19002029207F18002019200932B4676
:10DB800022460968FFF71FFB034687F8B73197F86D
:10DB9000B731002B40F0E68007F5DC73A3F5D073B6
:10DBA000794A1C4615460FCD0FC495E8030084E85A
:10DBB000030007F5DC73A3F5D6731B68596807F5F6
:10DBC000DC73A3F5D6731B68083307F1980507F1DA
:10DBD000380407F1180007F13002019200932B4638
:10DBE0002246FFF7ECFC034687F8B73197F8B731C8
:10DBF000002B40F0B98097F8D431002B05D007F105
:10DC000098031846FFF7E4FE06E007F19803D7F8FB
:10DC1000D8111846FFF7CAFE07F5DC73A3F5AC71FF
:10DC200007F5DC73A3F594720B4692E8030083E8D2
:10DC3000030007F5DC73A3F5AC7300221A6107F546
:10DC4000DC73A3F5AC7300225A6107F5DC73A3F50E
:10DC5000AC73083307F5E67292E8030083E803002B
:10DC600007F5DC73A3F5AC73D7F8D821183392E825
:10DC7000030083E80300D7E90C23A2F112010B4350
:10DC800029D107F1880207F1980311461846FFF7DA
:10DC90008DFE07F198031846FFF760FE0346002B40
:10DCA0002ED107F5DC73A3F59C73196807F5DC73B7
:10DCB000A3F5987307F1600407F5DC72A2F5D6703E
:10DCC0005A6800921B6822460068FFF7C2FE0346AE
:10DCD00087F8B73102E0522387F8B73107F198038C
:10DCE0001846FFF756FED7F8DC31002B0AD007F5AF
:10DCF000DC73A3F59C731A68D7F8DC311A6002E074
:10DD000000BF00E000BF07F19803184601F0D3FD03
:10DD1000034687F8B63197F8B631002B08D097F84C
:10DD2000B63108211846FFF789FD034687F8B73159
:10DD300097F8B731002B19D107F5DC73A3F5D6732B
:10DD40001B685B6803F48053002B11D107F5DC736B
:10DD5000A3F59C731B681846FFF7AEF8034687F8D7
:10DD6000B73106E000BF04E000BF02E000BF00E002
:10DD700000BF97F8B731184607F5DC77BD46BDE818
:10DD8000B04002B0704700BFA81F180880B491B01F
:10DD900000AFF860381D80E80600FB70BB68092BF7
:10DDA00006D8FB6800221A60FB6800225A6068E00F
:10DDB0007B680933BB62BB6AFB63FB78802B05D9A8
:10DDC000FB78803BFB701F23BB6345E0D7E914233E
:10DDD000182A73F1000306D297F84830002B02D1BD
:10DDE0003B6DBB6338E097F848307B6300233B63AF
:10DDF00028E0274A3B6B13441B787B620023FB62BD
:10DE000015E0FB6B013BFB6397F85020FB6B1A702E
:10DE1000D7E914014FF000024FF00003020A42EA72
:10DE200001620B0AC7E91423FB6A0133FB62FA6A39
:10DE30007B6A9A42E5DB7A6B7B6AD31A7B633B6B26
:10DE400001333B63D7E914231343D2D17B6B002BFF
:10DE5000CFDC3B6B1733BB63FB785B01BA6B1344BE
:10DE60003B62FB6B013BFB633B6ADAB2FB6B1A70F4
:10DE7000BA6AFB6BD31A1946FB68FA6B1A60FB6827
:10DE80005960F8684437BD465DF8047B704700BFB1
