:020000040C03EB
:108000003DB8F3960000000000047B00004C050022
:10801000000000000203000000000000000000005B
:10802000FFFFFFFFFFFFFFFFFFFFFFFFFFFFFFFF60
:10803000FFFFFFFFFFFFFFFFFFFFFFFFFFFFFFFF50
:10804000FFFFFFFFFFFFFFFFFFFFFFFFFFFFFFFF40
:10805000FFFFFFFFFFFFFFFFFFFFFFFFFFFFFFFF30
:10840000F81704305987030CB5D8030C2D27040C3A
:108410002D27040C2D27040C9341040C8741040CD8
:10842000000000000000000000000000C123040C58
:108430004D86030C000000004F86030C5186030C90
:108440005386030C5586030C5786030C5986030C80
:108450005B86030C5D86030C5F86030C6186030C50
:108460006386030C6586030C6786030C6986030C20
:108470006B86030C6D86030C6F86030C7186030CF0
:108480007386030C7586030C7786030C7986030CC0
:108490007B86030C7D86030C7F86030C8186030C90
:1084A0008386030C8586030C8786030C8986030C60
:1084B0008B86030C8D86030C8F86030C9186030C30
:1084C0009386030C9586030C9786030C9986030C00
:1084D0009B86030C9D86030C9F86030CA186030CD0
:1084E000A386030CA586030CA786030CA986030CA0
:1084F000AB86030CAD86030CAF86030CB186030C70
:10850000B386030CB586030CB786030CB986030C3F
:10851000BB86030CBD86030CBF86030CC186030C0F
:10852000C386030CC586030CC786030CC986030CDF
:10853000CB86030CCD86030CCF86030CD186030CAF
:10854000D386030CD586030CD786030CD986030C7F
:10855000DB86030CDD86030CDF86030CE186030C4F
:10856000E386030CE586030CE786030CE986030C1F
:10857000EB86030CED86030CEF86030CF186030CEF
:10858000F386030CF586030CF786030CF986030CBF
:10859000FB86030CFD86030CFF86030C0187030C8E
:1085A0000387030C0587030C0787030C0987030C5B
:1085B0000B87030C0D87030C0F87030C1187030C2B
:1085C0001387030C1587030C1787030C1987030CFB
:1085D0001B87030C1D87030C1F87030C2187030CCB
:1085E0002387030C2587030C2787030C2987030C9B
:1085F0002B87030C2D87030C2F87030C3187030C6B
:108600003387030C3587030C3787030C3987030C3A
:108610003B87030C3D87030C3F87030C4187030C0A
:108620004387030C4587030C4787030C4987030CDA
:108630004B87030C4D87030C4F87030C5187030CAA
:108640005387030C5587030C5787030CFEE7FEE79F
:10865000FEE7FEE7FEE7FEE7FEE7FEE7FEE7FEE7F2
:10866000FEE7FEE7FEE7FEE7FEE7FEE7FEE7FEE7E2
:10867000FEE7FEE7FEE7FEE7FEE7FEE7FEE7FEE7D2
:10868000FEE7FEE7FEE7FEE7FEE7FEE7FEE7FEE7C2
:10869000FEE7FEE7FEE7FEE7FEE7FEE7FEE7FEE7B2
:1086A000FEE7FEE7FEE7FEE7FEE7FEE7FEE7FEE7A2
:1086B000FEE7FEE7FEE7FEE7FEE7FEE7FEE7FEE792
:1086C000FEE7FEE7FEE7FEE7FEE7FEE7FEE7FEE782
:1086D000FEE7FEE7FEE7FEE7FEE7FEE7FEE7FEE772
:1086E000FEE7FEE7FEE7FEE7FEE7FEE7FEE7FEE762
:1086F000FEE7FEE7FEE7FEE7FEE7FEE7FEE7FEE752
:10870000FEE7FEE7FEE7FEE7FEE7FEE7FEE7FEE741
:10871000FEE7FEE7FEE7FEE7FEE7FEE7FEE7FEE731
:10872000FEE7FEE7FEE7FEE7FEE7FEE7FEE7FEE721
:10873000FEE7FEE7FEE7FEE7FEE7FEE7FEE7FEE711
:10874000FEE7FEE7FEE7FEE7FEE7FEE7FEE7FEE701
:10875000FEE7FEE7FEE7FEE707B50022264B83F8BB
:10876000042310221A60254B83F30A88244A254BE0
:108770009360D3680193019B019B83F07F4383F453
:108780007F0343F4C043D3601F4BD3F8A82042F0CB
:108790000202C3F8A820D3F8A8301C4A0193019B19
:1087A000D2F8483143F00103C2F8483104F096FD95
:1087B000174B18498B4212D30020174B17498B4295
:1087C00018D30BF0A1FD186850F82240586840F803
:1087D0002240013298688242F5D30C33EAE7002246
:1087E000F8E71C6844F8220001325C68A242F8D322
:1087F0000833E4E70022F8E700E100E0001004306D
:1088000000ED00E00084030C000C0254000400544E
:10881000A0D2030CC4D2030CC4D2030CDCD2030CD0
:1088200001015F5F030100001F010000A18C030C28
:108830000000000000000000010000000100000036
:108840000000000000000000000000000000000028
:10885000021F000000000000000000007000000087
:10886000F01D060C80000000000F00000100000059
:10887000BD8C030C01015F5F050100001F010000BA
:10888000F99C030C00000000000000000100000043
:1088900001000000000000000000000000000000D7
:1088A00000000000031F00000000000000000000A6
:1088B00080000000FB1D060C20000000030F0000DC
:1088C00001000000359C030C01015F5F0001000006
:1088D0001F000000CD45040C000000000000000057
:1088E0000300000001000000000000000000000084
:1088F0000000000000000000051F00000000000054
:108900000000000080000000700000004000000037
:10891000131E060C600000000107000001000000AB
:10892000A544040C01015F5F010100001F0100006C
:1089300047A3030C0000000000000000000000003E
:108940000100000000000000000000000000000026
:1089500000000000011F00000000000000000000F7
:10896000311E060C70000000020F00000100000024
:108970004DA3030C01015F5F040100001F01000013
:1089800023B9030C000000000000000000000000FC
:1089900001000000000000000000000000000000D6
:1089A00000000000011F00000000000000000000A7
:1089B000561E060C400000000507000001000000E4
:1089C0000FB7030C01015F5F0F0100001F010000E2
:1089D000E1BD030C000000000000000002000000E8
:1089E0000100000000000000000000000000000086
:1089F00000000000041F0000000000000000000054
:108A000080000000400000006B1E060CA00000006B
:108A1000040F000001000000E5B9030C00015F5FD6
:108A200002000000FE0B00004525040CA02A0000F7
:108A30000000000000000000000000000000000036
:108A4000000000000100FFC3000000C400FE0000A1
:108A5000C0CD04300000000001015F5FC30B0000C7
:108A60001F000000A152040C0000000000000000E4
:108A700000000000030000000000000000000000F3
:108A80000000000000000000011F000000000000C6
:108A900000000000871E060C00F10000060B00001D
:108AA000010000005952040C9A1E060C01F100004E
:108AB00000010000010000006F52040CB41E060CFF
:108AC00002F1000000010000010000009152040CBE
:108AD00001015F5FBD0B00001F01000000000000EE
:108AE0000000000000000000020000000100000083
:108AF0000000000000000000000000000000000076
:108B0000041F0000000000000000000080000000C2
:108B100070000000D01E060CC0F000000004000031
:108B200001000000418C030C01015F5FBA0B0000E3
:108B30007F0100005F8C030C0000000000000000BB
:108B4000180000000100000001000000000000000B
:108B500000000000000000001A7F0000000000007C
:108B600000000000E0F00000800000006000000055
:108B70007000000020000000C0F000004000000075
:108B8000A000000000F1000001F100000000000062
:108B900000000000000000000000000000000000D5
:108BA00000000000000000000000000000000000C5
:108BB00000000000000000000000000000000000B5
:108BC00000000000E41E060C00F00000000400009D
:108BD00001000000698C030C000000000000000090
:108BE0000A00000001015F5FBE0B00001F000000D3
:108BF0000000000000000000000000000200000073
:108C00000100000000000000000000000000000063
:108C100000000000041F0000000000000000000031
:108C20008000000070000000001F060CE0F0000053
:108C300000040000010000004544040C0000000096
:108C40000368002B05DA0233B4BF6FF08000002008
:108C5000704701D10BF056BD6FF08000704708B52A
:108C60000CF04CFB002008BD08B50BF0A9FB000080
:108C700038B50025054B294603F5A044184622685F
:108C8000656015F07DF8256038BD00BF8028043090
:108C9000024B5B6803600020704700BF807804309F
:108CA00008B500F015F940B900F082FF00F08CFF24
:108CB00018B9BDE808401AF0FBBD08BD2DE9F04F1A
:108CC00004680546A3B0002C40F0F980214620221C
:108CD00004A815F055F8214620220CA815F050F8EC
:108CE0002146042414AF3822384615F049F805F11E
:108CF000200353F8041D2246013C09B1144601E04B
:108D0000002CF6D1042605F1300353F8041D324639
:108D1000013E09B1164601E0002EF6D12CB96FF0E4
:108D20008304204623B0BDE8F08F38233A46002163
:108D300068680BF02DFB3828F1D1CDE904700127CC
:108D4000DFF888A10DF1100805F110090AF5A04B14
:108D5000BC422AD10CAF3C4600215A4A05F11C0006
:108D6000136800EB8608A2F5A04940453BD101B14C
:108D700013600023CDE90233059BA968382B5160AD
:108D8000049A40F09080138D180A032857D00128C8
:108D90007ED01268831ECDE90221072B7DD8DFE843
:108DA00003F03F4E53595F656B7159F8043F1A1D2C
:108DB00020D8DBF80000D91C21F00301C0F5A04247
:108DC000914217D8014400EB0A02CBF80010686802
:108DD000394601920BF0DCFA019AC8F80C00013711
:108DE00048F8082FB4E750F804EF1EF1040F06D935
:108DF00001B11360FFF73CFF6FF08C0491E70EF1B7
:108E0000030C2CF0030CC3F5A04AD44504F108046C
:108E1000EED803EB090144E9021E63440121A4E7F3
:108E200002AA0CA904A800F015FE04464FF00008A1
:108E3000464507F1080739D1FFF71AFF71E70CA97A
:108E400004A800F0FDF9F0E702AA0CA904A800F0BC
:108E5000D9FAEAE702AA0CA904A800F011F9E4E79C
:108E600002AA0CA904A800F084FBDEE702AA0CA960
:108E700004A800F082FCD8E702AA0CA904A800F01C
:108E8000CFFCD2E702AA0CA904A800F00BFDCCE7A6
:108E90000CA904A800F081FEC7E70B4805F05AFFB3
:108EA0006FF08504C2E76FF08004BFE7414657E9E1
:108EB000022368680BF078FA08F10108B8E76FF050
:108EC00085042EE78078043038CF030C80280430E6
:108ED00008B54FF48C520021024814F051FF0020D5
:108EE00008BD00BF887804300023F7B50C6807463A
:108EF0000E461546019314BB22B3146001A8FFF778
:108F0000C7FEA8B94FF40C7C104A0CFB04F3D158EF
:108F1000A646013471B94FF0010E02EB030C42F882
:108F200003E0019910331344CCE9011734602B603E
:108F300003B0F0BD082CE8D16FF08400F8E76FF0C3
:108F40008800F5E76FF08600F2E700BF887804300C
:108F50000023F7B505680193013D072D036004D98F
:108F60006FF08604204603B0F0BD01A8FFF790FE25
:108F700004460028F6D14FF40C735D430A4E735932
:108F80007719012BECD17A68019B9A42E8D105F15F
:108F900010004FF408722146304414F0F1FEC7E986
:108FA00001447451DEE700BF88780430002373B5B4
:108FB0004C1E072C06461546019303D96FF0880016
:108FC00002B070BDC2B101A8FFF762FE0028F7D160
:108FD0004FF40C7202FB04F1094B5C585A18012C37
:108FE000ECD19468B442E9D15468019A9442E5D135
:108FF000103119442960E3E76FF08600E0E700BF15
:1090000088780430B0F5105F23D101F0FE43B3F14E
:10901000A06F124B08BF21F47E1199421BD00DD8CE
:109020000F4B994217D007D80E4B994213D00E48D8
:109030000B1A5842584170470C48F9E70C4B9942BB
:1090400009D004D80B4B994205D00B48F0E70B48E8
:10905000EEE7002070470120704700BF0010C004F9
:10906000004140040002C0030040400400444004AA
:10907000000140050011C0040012C00400024005B8
:10908000134640F209522DE9F04F0026D0F8008037
:1090900089B0B8F828B0074693450D46059618D113
:1090A0000A6883682AB96FF08004204609B0BDE8D9
:1090B000F08F49680329F6D9002BF4D0C168012943
:1090C000F1D9D8F804101888FFF79CFF106000242D
:1090D000EBE70DF118094846D3E9002100F065FDE2
:1090E000BBF5A06F13D12B1D03936B6802932B6804
:1090F0000193FB680093BB68D8F8042099E803004B
:1091000018F064FE04460028CFD06E60CDE740F230
:1091100001539B450FD12B1D03936B6802932B6862
:109120000193FB680093BB68D8F8042099E803001A
:1091300018F0F2FEE6E7ABF2025A1FFA8AF3012BAF
:1091400019D82E68002EAED06B68032BABD9D8F897
:10915000083031460120336005AAFFF7C5FE0446FA
:10916000002CA2D1BAF1060F67D8DFE80AF032412D
:109170001E2B495461000120D8F8081005AAFFF7FA
:1091800015FFABF20753012B0446E9D82E68002ED9
:1091900089D06B68032B86D9D8F808303360002853
:1091A000E0D0BBF5A16F92D07FE705982B1DD5E9E4
:1091B000001218F05BFD044600283FF476AF002350
:1091C0006B6072E70598D7E9021218F098FD044623
:1091D0006BE7D8F80430059899E8060018F02EFDE2
:1091E000044600283FF473AF3046FFF7B1FE5CE75A
:1091F000D8F80430059899E8060018F02BFDEFE741
:109200002B1D01936B68059800932B68D7E9021218
:1092100018F097FDCFE7059805F10C03D5E9021288
:1092200018F0B0FD04460028DED00023EB603CE7D8
:10923000059818F04FFC0446D6E76FF0850434E734
:1092400000232DE9F043D0F8008085B0B8F82890CD
:109250000546A9F540720F460293082A53D8DFE865
:1092600002F01C2D38525252525205000A6812B9AF
:109270006FF080040DE04B68032BF9D9D8F8043067
:1092800003F17E43083B032B8CBF002301231360B3
:109290000024204605B0BDE8F0830B1D01934B6808
:1092A00000930B68D0E90212D8F8040017F03BFED7
:1092B00004460028EDD000237B60EAE74369009371
:1092C0008168D0E90323D8F8040017F03FFE044674
:1092D000DFE70E68002ECBD04B68032BC8D9D8F837
:1092E000083031460320336002AAFFF7FDFD044633
:1092F0000028CED1D8F80410029817F0DDFC0446FF
:109300000028C5D02BE00320D8F8081002AAFFF7E8
:109310004DFE6FF441734B44022B04465DD83E680A
:10932000002EA5D07B68032BA2D9D8F80830336073
:10933000002856D040F207339945A9D0A9E70298F2
:10934000D5E9021217F08AFDC1E7029807F10C0374
:10935000D7E9021217F09AFD044620B900243046DE
:10936000FFF7F6FD95E70023FB6092E70298D5E949
:10937000021217F0A3FD044600288AD1EEE70298F6
:1093800017F08AFC0446EAE700233E680393002EA8
:109390003FF46EAF7B68032B7FF66AAFAB68002BA0
:1093A0003FF466AFEA68032A7FF662AF1B68314676
:1093B0000320336003AAFFF797FD044600287FF4DB
:1093C00068AFDDE9020117F0EAFD044600283FF42A
:1093D00060AFC4E76FF085045BE700287FF459AF06
:1093E0000646A9F20333042BF4D801A252F823F065
:1093F0003F93030C8993030C4B93030C6D93030C65
:109400007F93030C2DE9F04F0027D0F8009089B02E
:10941000B9F828B00DF1180806460D46D2E900212A
:109420004046059700F0C1FBBBF5806F15D12B1DA1
:1094300003936B6802932B680193F3680093B368FE
:10944000D9F8042098E8030018F00FF8044600B19A
:109450006F60204609B0BDE8F08F40F201439B45A4
:109460000ED17369029333690193F3680093B36873
:10947000D9F8042098E8030018F00CF80446E8E74F
:10948000ABF2024A1FFA8AF3012B1AD82F6817B9D8
:109490006FF08004DDE76B68032BF9D9D9F8083049
:1094A000394602203B6005AAFFF71EFD0446002C4A
:1094B000CFD1BAF1050F59D8DFE80AF01F2D353B9F
:1094C00049530220D9F8081005AAFFF76FFDABF247
:1094D0000543022B0446EAD82F68002FD8D06B68CA
:1094E000032BD5D9D9F808303B600028E1D040F2F1
:1094F00007439B45ADD10024ABE7D9F8043005986C
:1095000098E8060017F0E8FD04460028F3D0384636
:10951000FFF71EFD9DE7D9F80430059898E806008E
:1095200017F0E6FDF0E70598D6E9021217F0ECFD1A
:10953000A4E7059805F10C03D5E9021217F0FFFD29
:10954000044608B90024E2E70023EB6081E70598B0
:10955000D6E9021217F068FF044600287FF479AFBD
:10956000F0E7059817F03EFD0446D0E76FF085045C
:109570006FE72DE9F04F4FF0000807688DB0B7F89E
:1095800028B00DF1280906460D46D2E900214846CB
:10959000CDF8248000F009FBBBF5C06F1ED12B1D58
:1095A00007936B6806932B680593F3680493B3687D
:1095B000039373690293336901937B6A00937A681A
:1095C00007F1140399E8030018F024FD044608B1DC
:1095D000C5F8048020460DB0BDE8F08F40F201636D
:1095E0009B4517D12B1D07936B6806932B6805933A
:1095F000F3680493B3680393736902933369019327
:109600007B6A00937A6807F1140399E8030018F065
:1096100059FDDBE7ABF2026A1FFA8AF3012B20D86F
:10962000D5F80080B8F1000F02D16FF08004D1E7C7
:109630006B68032BF9D9BB6841460520C8F8003098
:1096400009AAFFF751FC0446002CC3D1BAF1090F57
:1096500000F29080DFE80AF02330525F66776C37C3
:109660007D4D0520B96809AAFFF7A0FC6FF4C1631E
:109670005B44022B0446E7D8D5F80080B8F1000F10
:10968000D3D06B68032BD0D9BB68C8F80030002852
:10969000DCD040F20B639B459CD100249AE77B68A9
:1096A000099899E8060018F01FFE04460028F4D037
:1096B0004046FFF74DFC8DE77B68099899E8060066
:1096C00018F01EFEF1E705F10C030293EB68099810
:1096D0000193AB680093D5E9041205F1140318F067
:1096E00035FF044608B90024E2E70023EB606B6114
:1096F00070E7099818F03EFD0446D9E709982B1D3C
:10970000D5E9001218F02FFE044600283FF462AF9E
:1097100000236B605EE70998D6E9021218F021FE7B
:10972000044657E70998D7E9031218F079FEF7E7DE
:109730002B1D01936B68099800932B68D6E90212E0
:1097400018F0CEFEE0E70998D6E9021218F096FE6E
:10975000E6E7F36809980193B3680093D5E902122C
:1097600005F10C0318F02BFF04460028BBD00023A2
:10977000EB602FE76FF085042CE7F0B587B0076842
:1097800004AE04460D46D2E90021304600F00DFA41
:109790003B8DA3F5E063032B3FD8DFE803F0021411
:1097A00022312B1D03936B6802932B680193E368AE
:1097B0000093A3687A6896E8030017F09FFF70B1E2
:1097C00000236B600BE06369029323690193E368F4
:1097D0000093A3687A6896E8030018F057F807B07A
:1097E000F0BD2B1D03936B6802932B680193E36814
:1097F0000093A3687A6896E8030017F095FFDEE708
:109800006369029323690193E3680093A3687A680C
:1098100096E8030018F078F8E1E76FF08500DEE7DE
:10982000F0B589B0076806AE04460D46D2E90021BE
:10983000304600F0BAF93B8DB3F5006F07D040F623
:10984000010293421AD06FF0850009B0F0BD2B1DC4
:1098500005936B6804932B680393636902932369F0
:109860000193E3680093A3687A6896E8030018F010
:1098700089F80028E9D000236B60E6E72B1D0593EB
:109880006B6804932B6803936369029323690193C4
:10989000E3680093A3687A6896E8030018F0C8F8B4
:1098A000E7E7000000232DE9F04706688EB0B6F820
:1098B00028900DF1140807460D469246D2E9002182
:1098C0004046049300F071F9B9F5106F0FD12B1DCC
:1098D00003936B6802932B680193FB680093BB684A
:1098E000706898E8060019F061FE044616E040F63C
:1098F0000113994516D12F68002F00F090806B68F6
:10990000032B40F28C80B368394604203B6004AAE4
:10991000FFF7EAFA0446002800F0928020460EB0D5
:10992000BDE8F0870420B16804AAFFF73FFB0446B6
:10993000A8B140F60A139945F0D12F68002F6ED0D8
:109940006B68032B6BD9B3683B60002C7FD1049804
:1099500018F076FE04463846FFF7FAFADEE7A9F675
:109960000219B9F1080F68D801A353F829F000BF14
:109970009599030CA999030CB399030CDB99030C7B
:10998000C199030C259A030CCF99030CE999030C98
:109990003B99030C2968002941D06B68042B3ED108
:1099A000049819F005F9A0E7316B049819F009F94A
:1099B0009BE7718D0498D7E9022319F0F1FC94E735
:1099C000718D0498D6E90C2319F0F4FC8DE7049806
:1099D000D5E9001219F00EF987E7718D049898E81F
:1099E0000C0019F01BFD80E72E68C6B16B68032BD5
:1099F00015D9B96899B1FA68182A10D107A814F0D6
:109A00009AF9DAF8040007A900F0EEF84246049942
:109A100007A819F087FC059B044633607EE76FF0CA
:109A200080047BE7FB68718D0193BB680498009309
:109A300098E80C0019F060FD57E76FF085046DE7BA
:109A40007168049819F07AFC0446002883D1002438
:109A500064E700BF2DE9F0418EB003ACD0F8008080
:109A600006460D461746D2E90021204600F09DF833
:109A700040F20322B8F82830934203D0A3F50273D2
:109A8000012B0ED8B16811B96FF080043CE0F26888
:109A9000182AF9D107A814F04EF9786807A900F040
:109AA000A3F8B8F82830A3F50073092B72D8DFE8C3
:109AB00003F01A717105142F3D464B63D6E9041269
:109AC0002E68002EE0D06B68032BDDD9234607A853
:109AD00016F0DCFF0446039B4CE094E8030016F00C
:109AE000B2FE044610E094E8030007AA2E6816F0C0
:109AF000D4FE2B680446002BC6D06A681C2AC3D843
:109B0000304607A914F017F920460EB0BDE8F081E1
:109B10002B1D0093D5E9002394E8030016F008FFFD
:109B200004460028F0D000236B60EDE72B1D009366
:109B3000D5E9002394E8030016F079FFF0E794E8F4
:109B400003001AF09FF8CCE7002205A811462E6802
:109B500000F02BF82B68002B96D06B68032B93D961
:109B600094E8030005AB07AA16F0FCFF04460028A2
:109B7000CAD1059B3360C7E72E68002E84D06B687E
:109B8000032B81D9214607A819F05EFE0446002860
:109B9000A1D0B9E76FF08504B6E7D1E9000119F06B
:109BA00056BD0FB4002004B07047C0E900217047D3
:109BB00008B514220249034814F0BDF8014808BD55
:109BC00058CF030C08BA043008B54FF4405104488C
:109BD00015F0E4FE034815F031FF002008BD00BF7A
:109BE000088A0430A39B030C88617047F0B50024F9
:109BF00085B0CDE9000103A816461F46039415F071
:109C000093FD2146009A039D814202D16FF08B00A3
:109C10000BE02B4653F8204B944208D100202B69CF
:109C20003360D5E90223C7E9002305B0F0BD1D4626
:109C30000131E9E740F2E93270B503680546934225
:109C400094B008D040F2EA32934232D06FF08504EB
:109C5000204614B070BD0021036A0469B3F5147F77
:109C600004F1FF321E4628BF4FF414763F2A0391B9
:109C700022D80BB382681E4B40681A60234604AAA0
:109C80000AF086FB844211D103AB21460093194AA6
:109C9000334604A800F0AEF904460028D8D1039B4F
:109CA000144A214668680AF07FFBD1E76FF083040D
:109CB000CEE70369042B02D06FF08604C8E7036A7D
:109CC000042BF9D181680A4A40681160002103AA77
:109CD0000AF05EFB04280646EED1039804A900F0C2
:109CE000ADF904460028B3D1334604AAD9E700BF32
:109CF0006CBC04301CBA043000F06EB9002313228F
:109D000070B588B003AE054631466846CDE90023FC
:109D1000029304F07EFA044650B9009B2846054998
:109D200001AA0196029300F0EAFA204608B070BD3D
:109D30000324FAE703DBFEFF202370B58CB004AEEA
:109D40000546314601A8019304F024FA044650B9AF
:109D5000019B2846054902AA0296039300F0CFFA18
:109D600020460CB070BD0524FAE700BFFEDAFEFF06
:109D700070B590B003AD342200210646284613F09A
:109D8000FFFF332329466846009304F01FFA044678
:109D900020BB009A019502929AB9114804F0DAFFAB
:109DA000104B019311230293DDE901210E4804F0C9
:109DB000D1FF30460D4901AA00F0A1FA204610B0AB
:109DC00070BD112A03D00A4804F0C4FFECE729460D
:109DD000044813F0F8FF0028F5D1E5E70524EDE786
:109DE0006CCF030CA0D1030CF1CF030C08DBFEFFFA
:109DF000A9CF030C10B5044604F0B8F900230246BD
:109E00000249204600F058FA002010BD06DBFEFF94
:109E100037B5054601A800F087FA044628B9019A2B
:109E200028460349D31700F047FA204603B030BD57
:109E300007DBFEFF202370B58CB004AE054631462B
:109E400001A8019304F0D0F9044650B9019B2846BB
:109E5000054902AA0296039300F03DFA20460CB091
:109E600070BD0324FAE700BF05DBFEFF37B50546EA
:109E7000684600F075F9044620B96A462846034949
:109E800000F029FA204603B030BD00BFFFDAFEFF24
:109E9000002370B58AB002AE054631462020CDE9D8
:109EA000003304F09CF9044650B920236A46284642
:109EB00004490096019300F00EFA20460AB070BDE6
:109EC0000324FAE704DBFEFF37B50B4B054601938D
:109ED00000F0F1F96A4601A900F0D6F8009B0446AB
:109EE000034305D1012200232846044900F0E4F988
:109EF000204603B030BD00BF02DBFEFF01DBFEFFEA
:109F00002DE9F043E7B08046894630486946174658
:109F100014F07CF86C460646A0B9BDF8005005F474
:109F20004F43B3F5824F12D1EDB2122D0AD1BDF8D5
:109F30000230B3F5C07F1AD0B3F5007F23D0B3F55C
:109F4000807F23D00525284667B0BDE8F083B5F5AE
:109F5000885FF7D1BDF80230B3F5C07F19D0B3F5F3
:109F6000007F18D0B3F5807FECD1052201E06FF0BF
:109F700022024B460021204600F02AF968B1012850
:109F8000E0D10225DFE76FF02302F2E76FF006026F
:109F9000EFE70622EDE70722EBE7424620460C49B1
:109FA00000F099F9DFF82C80204658F8043B9847D8
:109FB00005460028C7D10136092EF5D1394620467D
:109FC00000F042F90028DAD1BDE700BF5D81FF7FD4
:109FD00000DBFEFFB4D1030C08B500F0B9F804288B
:109FE00096BF034B6FF0830033F9100008BD00BF2C
:109FF00096D1030C7FB5CDE9022321F01002202A6F
:10A00000CDE9000101D0402914D19BB1684604AAD2
:10A0100002A9FFF775FF40B9089B059A1A60064B25
:10A0200033F9100007B05DF804FB0428F7D96FF08E
:10A030008300F7E70420F2E796D1030C002310B564
:10A0400086B0CDE9003002936FF00043039320F017
:10A050001003202B0C4601D0402811D1684604AAD9
:10A0600002A9FFF74DFF30B9059B2360054B33F97B
:10A07000100006B010BD0428F8D96FF08300F8E78F
:10A080000420F3E796D1030C2DE9F04F88461546DE
:10A09000044685B0002855D0002A53D00026DFF8AA
:10A0A000ACA016600DF1080B42F21603BAF80020BE
:10A0B0009A4203D0032005B0BDE8F08FBAF8023011
:10A0C000214F5344BB420AD80136072EECD12B68EE
:10A0D0001BB1042120460DF0CDF90020EBE704224E
:10A0E00039465846019313F026FEBDF80820BDF806
:10A0F0000A90C2F38511B142019B1FD102F03F02C9
:10A100003F2AE1D12B680133012B2B600CD1B8F130
:10A11000000F05D0D8F800202046D3170DF030F9F5
:10A12000042120460DF089F90437CDE9027909218F
:10A130009BE80C0020460DF038F9C5E709F1040949
:10A140004F44BFE70420B6E774BC043070BC043051
:10A150004FF401720120014900F0EEB870BC0430E8
:10A1600030B504469BB028B3154D6B68E3B912A116
:10A17000D1E9000107AB03934B23049305AB009394
:10A18000039A4B230BF00CFA10B103201BB030BD27
:10A190002B1D01932023DDE9051200932B6809484C
:10A1A00014F02AF90028F0D1074B00202360212366
:10A1B0006360EBE70420E9E75D81FF7F00000000BA
:10A1C00000280430090000020828043000000000C4
:10A1D0007FB51C460023054600F1A006C0F8981084
:10A1E00019463046CDE902330BF0F4FB04AB13E91A
:10A1F000030013A3D3E900238DE8030030460BF0DE
:10A200000BFC94E8060028460CF0FDFF294630467A
:10A210000BF06EFB0446022128460DF00EF944B106
:10A22000032C0BD0192C0CBF01240324204604B0AE
:10A2300070BD052128460DF000F9F7E70424F5E785
:10A240005D81FF7F0000000070B5044686B00D46BA
:10A2500005210DF00FF9002104AE32462046CDE96C
:10A260000211CDE904110DF00EF9059B029900933E
:10A27000019404F1A000DDE903230BF073FB38B176
:10A28000032814D019280AD00323184606B070BD3D
:10A29000314620460DF049F90128034601D101233A
:10A2A000F3E730B996E8030085E80300EDE70423FF
:10A2B000EBE70223E9E7704770B5044616461D46F2
:10A2C0000A46CB170DF05CF832462B462046BDE817
:10A2D00070400DF055B873B5D2E9006504460A46E2
:10A2E000CB170DF04DF802212046CDE9006502ABF9
:10A2F00013E90C0002B0BDE870400DF056B873B51C
:10A30000D2E9006504460A46CB170DF039F803215F
:10A310002046CDE9006502AB13E90C0002B0BDE8B0
:10A3200070400DF042B80000024B1B680360002033
:10A33000704700BF6CBC043008B513F0FAFC00385D
:10A3400018BF012008BD00F0CFB800006FF47A728A
:10A35000F0B50368044613448DB0032B7CD8DFE8C6
:10A3600003F002284C6B0369082B02D06FF08005C4
:10A370005FE08569042DF9D10021406808AA0AF040
:10A3800007F80828F2D12B460221606806AA09F0D6
:10A39000FFFF0428EAD16168314A63691160069AB7
:10A3A000CDE90032DDE90823A06800F01BF905467D
:10A3B0003FE00369082BD9D14569042DD6D100218E
:10A3C000406808AA09F0E4FF0828CFD12B460121F4
:10A3D000606806AA09F0DCFF0428C7D16168204A3A
:10A3E000236A116005AACDE90132069B0093A0689B
:10A3F000DDE9082300F04CF9D9E70369082BB5D152
:10A40000076A0C2FB2D10021406806AA09F0C0FFEC
:10A410000828ABD1DDE9062308AE0096A06800F05D
:10A420008DF9054628B901463B463246606809F079
:10A43000BBFF28460DB0F0BD0369082B96D1002163
:10A44000406808AA09F0A4FF08288FD1DDE9082395
:10A45000A06800F085F9AAE76FF08505E9E700BF7D
:10A4600074BE0430024603480B460068012109F01F
:10A470008FBF00BF74BE0430024603480B4600681D
:10A48000002109F091BF00BF74BE04301FB5CDE9B3
:10A4900002010843019219D004220E480DEB02017B
:10A4A00013F049FC08220C480DEB020113F043FCA9
:10A4B0000A4C01980A4B0B4AB0F5807F08BF1C4636
:10A4C0000449204600F0E6FA04B010BD6FF08600A3
:10A4D000FAE700BFC4C00430C8C0043098BE0430DE
:10A4E00078BE0430B8C0043030B5364B85B09D6AB4
:10A4F000A8470369102B23D1A847334C8368A36076
:10A50000A847037D01A8237603F0D7FDC0B9019BBE
:10A51000A26863609DF80C3021465343029A2B4891
:10A52000B2FBF3F222822A4AE36000F05CFAB0B98F
:10A53000264800F093FA30B9A8470369102B10D0D1
:10A540006FF080000BE0234815F08CF81F4800F0F6
:10A550009FFA20B91D4800F081FA0028ECD005B020
:10A5600030BDA8471C4C8368A360A847037D01A8A1
:10A57000237603F094FD0028E2D1019BA26863607A
:10A580009DF80C3021465343029A1448B2FBF3F273
:10A5900022820F4AE36000F026FA0028DFD10F483C
:10A5A00000F05CFA0028DAD00D4815F05BF80B4893
:10A5B00000F06EFA0028D2D1084805B0BDE830405E
:10A5C00000F04CBA9C2F040C4828043098BE04308C
:10A5D000D8D1030C28D0030C2C28043078BE0430CA
:10A5E0004ED0030C2DE9F7431946DDE90A5752EA2C
:10A5F0000103044610463BD0072F3CD82246FFF704
:10A6000045FF30B91D4B9B68DB0705D56FF0840013
:10A610002BE010F18C0F28D1184E194A194B47F432
:10A620004037B760B4F5807F0CBF9046984600274E
:10A63000DFF854907560B5F5007F2C4628BF4FF4C5
:10A64000007411482146FFF70DFF2346324640466D
:10A65000CDE900790D4900F031FA30B9B3682D1B0E
:10A6600023F44033B3602744E5D103B0BDE8F08361
:10A670006FF08600F9E76FF08500F6E7B8C00430A8
:10A6800078BE043098BE0430B8BE0430C4C0043074
:10A690002DE9F3470646194640F6BD339E4208BFF2
:10A6A0004FF4807652EA010310460A9FDDF83080AD
:10A6B00037D03246FFF7EAFE054630BB1A4B1C681E
:10A6C000BC422ED30B9BE41B9C4228BF1C46174A5E
:10A6D000174BDFF864A0B6F5807F0CBF9146994612
:10A6E000C8F80040B4F5007F264628BF4FF4007636
:10A6F0003B46324648460F49CDF800A000F0E9FA43
:10A70000054630B10023C8F80030284602B0BDE845
:10A71000F08731465046FFF7AFFEA41B3744E1D126
:10A72000F3E76FF08605F0E7B8C0043078BE043078
:10A7300098BE0430C4C00430B8BE043038B50546F5
:10A74000194610462A46049CFFF7A0FE28B9034B81
:10A750001A689B68C4E90022A36038BDB8C0043001
:10A7600010B51946044640F6BD339C4208BF4FF46D
:10A77000807410462246FFF789FE80B9084B9B681B
:10A78000DB070AD40748084B0849B4F5807F18BF97
:10A790001846BDE8104000F08CBA6FF0840010BD80
:10A7A000B8C0043078BE043098BE0430C4C0043051
:10A7B00008B5036800209B689847002818BF6FF011
:10A7C000910008BDF8B51D46036804465B680E4657
:10A7D000174698470B4BC0F3410013F820206368DD
:10A7E0000699E0681D442368B1FBF2F200FB0650B5
:10A7F00039469B6998470028B4BF6FF0910000204C
:10A80000F8BD00BFECD1030C0020704770B50446C2
:10A810000E460025E368AB4201D8002070BD606899
:10A8200006FB030023682844DB69984710B9A36836
:10A830001D44EFE76FF09100F0E700002DE9F74FBE
:10A840000C9C07469246002C55D0C26840681E18E2
:10A850003B6802FB01665B689847284BC0F34100E8
:10A8600013F82080B6FBF8F908FB09F94E4540D0F3
:10A870003B680DF1040B0122594648465B69984735
:10A88000002804DA6FF0910003B0BDE8F08FA6EB6A
:10A890000901621890458EBF2546A8EB06054D4478
:10A8A0002A465046594413F046FA641B1FD04445CB
:10A8B0000FD3B4FBF8F93B684A465B690AEB050124
:10A8C000A81998470028DDDB08FB09F3E41A0ED02D
:10A8D0001D443B6801225B6901A970199847002853
:10A8E000D0DB224601A90AEB050013F024FA002070
:10A8F000CAE70025DBE72046C6E700BFECD1030C22
:10A900002DE9F04F03688FB006AA04460E46D3F82F
:10A910000C8000F0FEFB00285FD10BA800F0EBFEDE
:10A92000014600285CD1DDE9067A202206A8099DAF
:10A9300013F026FA3146204606AA00F032FD002820
:10A940004BD1834681462368DB8A5B4515D8002DB1
:10A9500035D12946204602AA00F063FC00283CD1EC
:10A960002946204602AA00F07BFEB0BB204600F03C
:10A9700060FE78B36FF083002FE0B3451CD05946DA
:10A98000204606AA00F0C5FB38BB069BBB420DD192
:10A990000BA800F0B0FE48B9079B534506D998456F
:10A9A00028BF98465B1B0793099B9944594620464C
:10A9B00006AA00F0F6FC80B90BF1010BC3E7434691
:10A9C0002A4639462046CDE900A900F0A3F920B96E
:10A9D000002FCBD1204600F087FB0FB0BDE8F08FF1
:10A9E0006FF08B00F9E7F8B50D461746064660B3E1
:10A9F00059B352B30B8AE88A012BC96812D9032BC9
:10AA000010D0022BAA8A23D1431CA1EB43139342FB
:10AA100034BF6FF086040024914201D26FF08604A7
:10AA2000012302E06FF08604023B03EB4003013395
:10AA3000B1EB031F09D344B920222146304613F05D
:10AA40009FF9C6E900572046F8BD6FF08604FAE783
:10AA5000914234BF6FF086040024E5E737B5054620
:10AA600000F08BFD044658B94FF08071284601AACA
:10AA700000F0B9FB38B928460199FFF741FF0446B9
:10AA8000204603B030BD10F18C0F18BF0446F7E725
:10AA900000F097BC10B58AB0144602AB01AA00F0D2
:10AAA00073FB40B9059B6360049B2360BDF81830BD
:10AAB000A3600AB010BD6FF08B00FAE72DE9F043F8
:10AAC00093B00DF12808044689461546002120223E
:10AAD00040461F461A9E13F053F94FF6FF73CDE917
:10AAE000043325B96FF0860013B0BDE8F083AB687E
:10AAF000B3F1807FF6D2236849465A8A6B682046B4
:10AB0000013B1344524213406B6004AA434600F0D9
:10AB10003BFB002840F08780D5F808C004991CF45E
:10AB2000003F06D00D9A6B689A426FD10C90CDF819
:10AB300038C005914FF6FF73059A9A427CD121687F
:10AB40006B68898A8B42CDD806A9CDE9028105A917
:10AB50000191A9682046009104998A1A18BF012220
:10AB6000494600F0B9FB0028BED1002F6CD1204629
:10AB70000A9906AA00F074FD002851D105994246B1
:10AB8000204600F00EFC0146002849D1DDE90453BF
:10AB90009D4228BF1D4620462A4600F0D8FC0028CA
:10ABA0003ED14FF6FF72049B93420FD0059A934219
:10ABB0000CD09A4238BF1A462046691C00F0C7FCE8
:10ABC00070BBDDE904539D4238BF1D462368204613
:10ABD000DA8A691C00F0BBFC10BB0A9B002B62D117
:10ABE000002F60D0204600F07FFA00287FF47CAF71
:10ABF0004FF6FF73049999423FF476AF059B994253
:10AC00003FF472AF2046FFF77BFE6DE70E9B424696
:10AC100043F0807320460E9300F0C3FB002889D0D8
:10AC20006FF0830060E710F18C0F7FF45DAFAB68CD
:10AC3000DB037FF559AF7DE720460A9906AA00F0AD
:10AC4000F0FA002891D0EBE723685B8A5A1E324263
:10AC5000E6D17D1E1D445B421D400C9B9E42DFD809
:10AC60002A4631460D9800F03AFD0028D8D11B9BAA
:10AC70004246CDE900532046334606A900F0C0F80D
:10AC80000028CDD10C9B3E440A999E422046069D49
:10AC900088BF0C9600F023FA294606900A9A2046AF
:10ACA00000F07CFB63E7204600F0C3FC002899D04D
:10ACB000B6E713B5002301AA044600F065FA28B9E7
:10ACC00020460199FFF71CFE02B010BD6FF08B000B
:10ACD000FAE770B58CB015461C4603AA04AB0646CD
:10ACE00000F052FA98B92A462146069800F0F7FC7F
:10ACF00058B9109B2246009330462B4604A900F019
:10AD00005EF8002818BF6FF083000CB070BD6FF0C4
:10AD10008B00FAE72DE9F04786B01646DDE90E977D
:10AD200002AA054688469A4600F07BFA044698B97E
:10AD3000049B414633442846049300F0D0F906466C
:10AD40007FB101464A462846CDE900A7029B00F0A4
:10AD5000D0FB28B16FF08304204606B0BDE8F08731
:10AD60000127039A4A450BD2A9EB0203CDE9002340
:10AD700031462846029B00F0BCFB0028EAD101279F
:10AD800042462846029900F009FB4146284602AA9D
:10AD9000029600F065FC044628B14246314628463A
:10ADA00000F0FCFAD8E7B8F1000FD5D0002FD3D0CF
:10ADB0006B683146DB68286898470446CCE72DE984
:10ADC000FF410D46164609686A4604461F46DDF8EF
:10ADD000288000F026FA70B900994B1C0BD06268ED
:10ADE0006B680A9755684246AC462068334404B005
:10ADF000BDE8F04160476FF0830004B0BDE8F0812A
:10AE00002DE9F3471546DDE90AA90F469846116872
:10AE1000044600F064F96B687A689844A8EB020372
:10AE2000CDE90023064601463B68204600F061FB61
:10AE300020BB6368CDF800A0D3F808A04A4643467B
:10AE400031462068D047C8B9EB686A68B9681A44C7
:10AE500023682046DB685B1A9B1ACDE90023314644
:10AE60003B6800F046FB48B92B683BB1314663684C
:10AE70002068DB6802B0BDE8F047184702B0BDE8C3
:10AE8000F08713B510244B1C416800948C681B019B
:10AE9000C1690068A04702B010BD436810B5C16920
:10AEA00004461B690068984750B923681A8A022A29
:10AEB00006D96268A1681846BDE8104012691047BB
:10AEC00010BD008A022814BF03380020704708B55F
:10AED000FFF7F7FF013100EB4100000108BD2DE94C
:10AEE000F04F002405460F46904626464FF01009C5
:10AEF0008BB0D5F800A05046FFF7E3FF0130864243
:10AF00000ED300264FF02009D5F800A0BAF816306D
:10AF10009E421BD3002088F800400BB0BDE8F08FA4
:10AF20006B680136CDF80090D3F804B0394650462E
:10AF3000330102AAD8470028EFD102AB13F8012B46
:10AF40000130102884EA0204F8D1D2E76B68314658
:10AF50005046D3F804B0FFF7BAFF02AA03463946B9
:10AF60005046CDF80090D8470028D6D102AB13F850
:10AF7000012B0130202884EA0204F8D10136C3E70E
:10AF800037B5837B01685A1CD2B28273097E0446AE
:10AF90009142C16904BF02338373012900F10D029C
:10AFA0000ED8FFF79CFF48B91022636800929D6895
:10AFB000E169034604F108022068A84703B030BDE8
:10AFC0006FF08600FAE713B50C4611462279034666
:10AFD000012A09D1036862791B7E9A420CBF6FF087
:10AFE0008300002002B010BD022A04D11B68A279A0
:10AFF0001B7E9A4202D16FF08300F3E701290DD83E
:10B000000DF10702FFF76BFF0028EBD162799DF885
:10B0100007309A4218BF6FF09100E3E76FF08600A7
:10B02000E0E71022F0B543688BB000925C68002323
:10B0300002AA054619460068A0470246002834D0F7
:10B0400000264FF0FF3410226B6800925F680121E8
:10B050000023286806AAB847002839D101222846CB
:10B0600006A9FFF7B0FF002832D1002E35D02B689B
:10B070009DF81E201B7E9DF80E10B3FA83F35B092A
:10B0800093421BD1002A0CBF01230223994203D112
:10B0900091422CBF002601263446AC61B4FA84F4F8
:10B0A00000206409EC610BB0F0BD284602A9FFF74F
:10B0B0008AFF04460028C3D10126C4E78B42E7D1AA
:10B0C000002B0CBF012302239342E1D00646E3E7A5
:10B0D000002EE2D16FF08300E5E70124DDE709B936
:10B0E000C06970478068704710B50446FFF748FF95
:10B0F00070B96368E169DB682068984740B9D4E9B2
:10B1000006232046C4E90632BDE81040FFF7C5BE5D
:10B1100010BDF7B5066805463046FFF7D8FE034672
:10B120002020696800904F683046A9691446B847E6
:10B13000064640B92868FFF7C4FE23680130834201
:10B1400004D36FF09706304603B0F0BD04F114004D
:10B1500000F0D1FA0028F6D12D68E268AB8A9A4255
:10B16000EFD8A3689A42ECD3D4E900372BB928462C
:10B17000E98AFFF7ACFEB842E3D83946E86800F048
:10B18000AEFA0028DFD0DCE72DE9F0430746884619
:10B1900091461C46002589B03B68DB8AAB4202D849
:10B1A0006FF08B0616E06A4629463846FFF7B1FF76
:10B1B000B0B90C22414605A812F064FD064668B9F4
:10B1C000C9F8005034B16D460FCD0FC495E80F009B
:10B1D00084E80F00304609B0BDE8F0830135DBE7B5
:10B1E0006FF08306F6E7F0B505460E4617460024D5
:10B1F00089B02B68DB8AA34202D86FF08B0009E08C
:10B200006A4621462846FFF784FF38B9049B1E4250
:10B2100002D03C6009B0F0BD0134EAE76FF0830072
:10B22000F8E773B54B1C06464168102000904C6847
:10B230003068B1691B011546A047044630B9336830
:10B2400029681A8A914204D36FF09704204602B00D
:10B2500070BDD868D5E9011200F041FA0446002813
:10B26000F2D12B68012B03D83068C18AFFF72FFE7B
:10B270006B688342EAD0E7E773B54B1C054641682B
:10B28000102000904E681B01A96928681446B04739
:10B29000034630B92B6821681A8A914204D36FF0B3
:10B2A0009703184602B070BDD868D4E9011200F0C7
:10B2B00016FA03460028F2D12268012A08D82A6823
:10B2C0001046FFF7FEFDD28A013200EB420000017A
:10B2D00062688242E5D0E2E72DE9F04F06468B46F0
:10B2E00091469846002789B0DDE9145A3068FFF787
:10B2F000E8FD0130874202D36FF08D0421E0524611
:10B3000039463046FFF78DFF0446002835D1DAF87C
:10B31000082090452FD833685946DB682F609B1A68
:10B320006B600C22C5F80C8005F1140012F003FDCF
:10B33000129BAC602B61DAF80830A3EB0803CAF863
:10B34000083000253368DB8A9D4205D26A462946CB
:10B350003046FFF7DEFE98B14FF6FF75139B1D6078
:10B36000CCB94FF6FF739D4208BF6FF08D042046A5
:10B3700009B0BDE8F08F0137B8E76FF08304E0E76C
:10B3800005A800F0B8F920B1B9F1000FE6D14FF0EF
:10B3900001090135D6E76FF08D04E8E702B181605D
:10B3A000704773B5056804462846FFF790FD0346CD
:10B3B0002020616800908E682846E169B04702B09D
:10B3C00070BD70B58CB00546FFF72BFE002861D12B
:10B3D000EE696B6831461B69286898470446002867
:10B3E00078D1B6FA86F16B6828681B6949099847D5
:10B3F000044600286ED12A680126137EB3FA83F32F
:10B400005B09AB73138AC5E90606022B14BF02233E
:10B410000123AB6002232B73D18A1046FFF757FD3F
:10B42000D36821461B1A01906A462846029300966B
:10B43000FFF727FD044600284CD106462B680190F3
:10B44000DB6802932B681846FFF73BFDB04223D818
:10B45000002C4BD12B681846FFF733FDA04228D8AB
:10B460002022002104A812F08BFC00242B68DB8A28
:10B47000A34232D82846FFF783FD48BB6B68E969D1
:10B48000DB6828689847044620BBD5E90623C5E950
:10B4900006321FE000269CE7198A6A68022914BF59
:10B4A00003210021184631441269904701360443B4
:10B4B000C8E71B8A6A46022B14BF032300232344D8
:10B4C0000134214628460093FFF7DBFC0028C1D059
:10B4D0006FF0830420460CB070BD2146284604AAB4
:10B4E000FFF75FFF0028F3D10134BFE76FF091044D
:10B4F000F0E72DE9F04F0446884616469946C3B05A
:10B50000DDE94CA51DB9284643B0BDE8F08FB5F57F
:10B51000807F2F4628BF4FF4807763680097D3F869
:10B5200004B049465346206802AAD8470028EBD108
:10B5300063680097D3F808B041463346206802AAF2
:10B54000D8470028E0D13E44BA44ED1BDAE773B592
:10B55000066804463046FFF7BAFC154602462946FF
:10B560003046FFF7B4FC801ACDE900202046D4E92C
:10B570000631FFF7BEFF02B070BD2DE9F041436810
:10B5800005461B68006886B09847044628B92846D7
:10B59000FFF747FD28B16FF08304204606B0BDE8F1
:10B5A000F08110266B6805F108070096D3F8048037
:10B5B0003A462346A9692868C0470028EBD1394696
:10B5C0002846AA69FFF7FFFC0028E4D12846FFF7C8
:10B5D00064FC04460028DED12B7B012B24D10146DC
:10B5E00002AA2846FFF748FE04460028D5D1049B4E
:10B5F0002A68C3F1FF23D26803F57F03F0331344B5
:10B60000CDE9006332462846AB69E969FFF771FF6F
:10B6100004460028C1D16B7B2846AB7302232B73F1
:10B62000FFF762FD0446B8E7022B18BF6FF08304F2
:10B63000B3E710B586B0002102AA0446FFF7F1FD7A
:10B6400060B92068039A049BD118C36820465B1A2E
:10B65000CDE90023D4E90631FFF74BFF06B010BD5A
:10B66000F0B505460C4687B009B9C3691360214699
:10B670002846FFF706FC0146C0B9D5E906767CB935
:10B6800000212868FFF723FCA21C1201801ACDE9D3
:10B6900000203B4631462846FFF72BFF07B0F0BDA0
:10B6A000284602AAFFF7BDFD014610B16FF08300E6
:10B6B000F4E7284602AA0296FFF7E3FB0028F5D13B
:10B6C000012CDDD020222301103B019331463B4663
:10B6D00028460092FFF70DFF0028D1D0DEE7814217
:10B6E00006D8401A904234BF6FF0860000207047A1
:10B6F0006FF08600704700F10C0310F8012B22B99F
:10B700009842FAD16FF08B007047002070472DE906
:10B71000F04103680446A3F2F233A6B0032B00F213
:10B72000FD80DFE803F00D029195042200F1200373
:10B7300053F8040D1146013A002852D00A4652E04F
:10B7400000230421169300F1200353F8040D0A4648
:10B75000013908B1114601E00029F6D1042204F1B3
:10B76000300353F8045D1046013A0DB1024601E082
:10B77000002AF6D12369042B03D0012026B0BDE8AE
:10B78000F081206A0428F8D80129F6D1012AF4D1E1
:10B790000021606806AA08F0FBFD0428EDD1A3682B
:10B7A000002B16DB00220699A06802F041FE00285B
:10B7B000E3D1216A069816AA02F0F3FD0546002897
:10B7C000DBD1236A16AA0021606808F0EDFD284647
:10B7D000D4E7069806A902F040FE0028E2D0022035
:10B7E000CCE7002AA4D1042104F1300353F8045D0E
:10B7F000084601390DB1014601E00029F6D123695F
:10B80000042BBAD1012AB8D10029B6D1606816AA92
:10B8100008F0BEFD0428B0D1A368002B0DDB002288
:10B820001699A06802F004FE0028A6D1169802F02E
:10B83000EDFD003818BF0120A0E7169816A902F008
:10B840000CFE0028EBD0CAE702F024FC002095E7AC
:10B85000002504260DF1180840222946404616AF5F
:10B86000CDE90255CDE9045512F08AFA4022294665
:10B87000384612F085FA019504F1200353F8041DAF
:10B880003246013E59B133461646042504F13002D2
:10B8900052F8040D2946013D30B10D4606E0002E58
:10B8A000ECD14FF0FF33F0E7002DF1D12B43012B0A
:10B8B00002D96FF0800061E70423002160680DEB7E
:10B8C000030208F065FD0428F3D1022E1FD166693A
:10B8D000402E20D8334642460121606808F058FDCA
:10B8E0008642E6D1CDE9028602A995B1236A402BB2
:10B8F000DFD8CDE9047304AE3246019802F0CDFBE7
:10B900000546002E3FF463AFDDE904235BE7002129
:10B91000EBE72E46F0E76FF089002FE76FF0850028
:10B920002CE708B502F03BFD002814BF6FF0920031
:10B93000002008BDF0B5036991B0042B03D06FF06F
:10B94000800011B0F0BD6A460021406808F020FD7B
:10B950000428F4D100252E462846214C6279EFB206
:10B960003AB32379032B16D104232371009B384665
:10B97000236000F0A9FB0028E3D1012600206B1C06
:10B98000022B4FF0010504F10804E7D1002E08BF97
:10B990006FF08800D5E7052BF1D1384600F07AFC2E
:10B9A000431E012B14D806232371009B012623601C
:10B9B000E5E70121384601AB00F072FC0028C0D158
:10B9C0009DF80430052BDAD1012223716271E4E77E
:10B9D0000028B6D104232371009B2360CDE700BF6C
:10B9E000D0C404306FF47A722DE9F0430368054641
:10B9F000134491B0092B00F2ED81DFE813F00A0047
:10BA00004D0099000B01B3002A01E6019401970152
:10BA100050010469012C46D14769002F40F0DA81BA
:10BA200023466A463946406808F0B2FC9DF800306B
:10BA3000012B00F275816E692EB133463A462146DC
:10BA4000686808F0A5FC9DF80000B14D05EBC00347
:10BA50005A7922B11C79DCB16FF0880418E0012119
:10BA600001AB00F01DFC044690B99DF80430002B9A
:10BA7000F2D1014632469DF8000000F06BFA044610
:10BA800030B99DF8003005EBC30540F20113AB80DF
:10BA9000204611B0BDE8F0838669B6F5806F44D8C2
:10BAA0000469012C02D06FF08004F1E74769042F8C
:10BAB000F9D123466A460021406808F069FC9DF8E8
:10BAC0000030012B00F22C813B4601AA2146686818
:10BAD00008F05EFC9DF800208D4B03EBC2035A7901
:10BAE000002AB9D01B79012BB6D10EB90024CFE7BB
:10BAF000B6F5806F374628BF4FF4806702213B467A
:10BB0000844A686808F044FC8742CCD13B46814AAD
:10BB100001999DF8000000F04FFA04460028B7D1C3
:10BB2000019BF61B3B440193DFE76FF08604AFE710
:10BB30000369012BB7D101AA0021406808F028FC55
:10BB40009DF80420012A00F2EB80714B03EBC20345
:10BB50005A79002A80D01A79012A7FF47DAF022217
:10BB60001A71C3E74FF00008694F45463E467A799F
:10BB70005FFA88F0AAB33B79032B3FF46DAF062B35
:10BB80003FF46AAF022B07D105F140026B1C0DEBAD
:10BB9000020505F8400CDDB208F10103022B4FF05D
:10BBA000010807F10807E2D1002D3FF455AF2946FF
:10BBB000684600F0B1FA10F19C0F04463FF468AFFC
:10BBC000694600224FF0050C471E11F8010BC30017
:10BBD00033449CB983F804C00132D2B2AA42F4D1F2
:10BBE00056E7012101AB00F05BFB044600287FF41F
:10BBF0004FAF9DF80430052BCED12DE7012F89BF23
:10BC00004FF0040E032083F804E046F8304098BF5C
:10BC10001871E1E70369012B7FF445AF002140680B
:10BC200001AA08F0B5FB9DF80430012B78D83848FC
:10BC300000EBC302517900293FF40EAF11790139AD
:10BC400001293FF609AF04210024117140F8334067
:10BC50001EE70369012B7FF426AF0021406801AA8B
:10BC600008F096FB9DF80400012859D8284D05EBF3
:10BC7000C0035A79002A3FF4EFAE1B79042B02D09F
:10BC8000072B7FF4E9AE00F05DFB044600287FF44B
:10BC9000FFAE9DF8043005EBC305A880F8E600244C
:10BCA00006698DF80040012E7FF4FDAE036A3C2B3F
:10BCB0007FF4F9AE33466A462146406808F068FBD7
:10BCC0009DF8000001282BD8114901EBC0035A79D7
:10BCD00012B31B79022B8DF804301FD003F0FD0343
:10BCE000042B08BF51F830304FF000010A4608BF5E
:10BCF000029301AB00F0D4FA044600287FF4C8AEEA
:10BD000001463C23686801AA08F04EFBC0E600BF6C
:10BD1000D0C40430D0C004303146EAE72146E8E719
:10BD20006FF08B04B4E613F0E5F9DFE64FF000089E
:10BD30002A4E4546374672795FFA88F962B33379FD
:10BD4000052B07D105F140026B1C0DEB020505F830
:10BD5000409CDDB208F10103022B4FF0010806F10F
:10BD60000806E8D1002D3FF477AE2946684600F07A
:10BD700047F9044600287FF48BAE07229DF8003077
:10BD8000454507EBC3031A713FF482AE9DF80130BD
:10BD900007EBC3073A717BE60121484601AB00F08F
:10BDA0007FFA044600287FF473AE9DF80430052B1B
:10BDB000D0D105F140016A1C0DEB0105012105F808
:10BDC000409C71713371D5B2C4E711B0BDE8F04346
:10BDD000FFF7B0BD6FF085045AE600BFD0C4043051
:10BDE00008B500F0A5F8002818BF6FF0830008BD63
:10BDF00042F216032DE9F341154C074622880E4600
:10BE00009A4204D06FF0970002B0BDE8F0816588D7
:10BE100025440434AC42F5D2042221460DEB020045
:10BE200011F089FFBDF80430BDF8062013F03F087B
:10BE30000BD1C3F38513BB4207D1082AE2D13046A8
:10BE4000211D11F078FF4046DEE704321444E1E79B
:10BE5000E0C404302DE9F04F4FF000080446CDB0A7
:10BE600020220E4604A84146CDF8048011F088FF38
:10BE70002C4B01AD53F8342002AFC7F80080002AE4
:10BE80004DD0E01C03EBC4032946C0B2D3F80490A4
:10BE900000F0AAFC40B1244813F0E4FB6FF09104D9
:10BEA00020464DB0BDE8F08F0DF10C0ACAF8000035
:10BEB0001E495046D5F800B012F002FA0446E0B12F
:10BEC0006FF09104286800F0ABFCE9E7A9EB0408E7
:10BED000B8F5807F28BF4FF4807821464346584606
:10BEE0000CAA00F09FFC0028EAD1424650460CA95B
:10BEF00012F00AFA0028E3D14444A145E6D83B46B3
:10BF00002022504604A912F021FA04460028D7D175
:10BF10003A6804A906F11C0011F00DFFD2E76FF09A
:10BF20008604BDE7FCC4043073D0030C0900000292
:10BF300010B51C220220064911F0FBFE044618B978
:10BF400000F03AFC204610BD6FF09104FAE700BF04
:10BF5000E0C4043013B5044622BB012822D80028CF
:10BF600001A914BF0420032000F03EFC014630B1BB
:10BF70000E4813F077FB6FF0910002B010BD0198EE
:10BF8000C26800F0C7FD28B1094813F06BFB6FF0E1
:10BF90008300F2E7074B019A43F8342003EBC40314
:10BFA0005860EAE76FF08600E7E700BF73D0030C44
:10BFB00094D0030CFCC4043070B505461E46A2B1F3
:10BFC000012812D80C4C54F8300088B100F0D4FC91
:10BFD00028B10A4813F046FB6FF0910070BD04EBE6
:10BFE000C504626832446260F8E76FF08600F5E7E6
:10BFF0006FF08800F2E700BFFCC40430B5D0030C3A
:10C000002DE9F0470E46054686B020B96FF0860050
:10C0100006B0BDE8F0870446DFF8A89000EB010801
:10C02000444504D10024B44213D10020F0E714F8B1
:10C03000017B012FEAD8002F14BF0420032001A99F
:10C0400000F0D2FB28BB019B002BDFD049F8373032
:10C05000E6E72F5D384600F0F2FA631C78B34FF044
:10C060000008DFF86090E4B25FFA88F3A34210D2D0
:10C0700059F837603046F56800F06DFD00F10F0AA1
:10C0800040420AEA000A203DBAF1100F25F00F05E0
:10C0900002D96FF09100BBE7304600F062FD5246D6
:10C0A000014602A811F06CFE53462946304602AA0A
:10C0B00000F062FC08F101080028D5D0E9E71C4631
:10C0C000B1E700BFFCC4043030B5012885B01BD8EF
:10C0D000104B53F83050D5B12846EC6800F041FDC4
:10C0E000103C01461022684624F00F0411F048FE6F
:10C0F00010236A462146284600F03EFC002818BF5F
:10C100006FF0910005B030BD6FF08600FAE76FF078
:10C110008B00F7E7FCC4043000232DE9F04FA1B0F9
:10C120000E460446CDE9053378B107468046DFF870
:10C130005C91DFF85CA100EB010BD8450AD100252A
:10C14000B54240F08F80012001E06FF0860021B001
:10C15000BDE8F08F18F8013B012BF6D859F83350A1
:10C16000002DF2D020230021284610AA00F05AFB0F
:10C1700010B16FF09100EAE7109B534502D06FF0C9
:10C180009700E4E70123009340232A460DEB0301C7
:10C190000AA800F070FA0028EBD100230DF10E027E
:10C1A00004A90AA800F0B3FA0028E2DBC5D1BDF863
:10C1B0000E300C2BC9D82846049907AA00F032FB90
:10C1C0000028D6D19DF81C000228D8D805A9FFF771
:10C1D0000FFE0028CDD19DF814209DF820309A4202
:10C1E000DBD80CD39DF815209DF821309A42D4D885
:10C1F00005D3BDF81620BDF822309A42CDD20023D7
:10C200009DF81C20E15C914206D00133D9B28E42E8
:10C21000F8D86FF09B009AE7DBB29E42F9D959F843
:10C2200032000028F5D02023002118AA00F0FAFAE5
:10C2300000289ED1189B5345EBD19DF874209DF8A2
:10C2400020309A42A9D8E4D39DF875209DF821307A
:10C250009A42A2D8DDD3BDF87620BDF822309A42AA
:10C26000D7D39AE70021605D00F0CCF96B1C50B188
:10C270002544AF423FF47DAF17F8010BFFF724FFD1
:10C280000028F6D075E71D465AE700BFFCC404300D
:10C290003DB8F39601288CBF6FF0860001207047EF
:10C2A000F0B51746032285B08DF80320002206461C
:10C2B0000C461D460192002B3ED001283CD89042EE
:10C2C00014BF0220012001A900F08EFA38B11C48E9
:10C2D00013F0C8F96FF09104204605B0F0BD019845
:10C2E000C3682B610378AB6101236B618CB10DF1E5
:10C2F000030100F0D6F828B16FF09104019800F026
:10C300008FFAE9E79DF80330012B16BF052328704B
:10C310002B70304602A9FFF76BFD04460028EBD1D5
:10C32000029BAB60039BEB60002FE7D029463046B1
:10C33000FFF790FD0446E1E76FF08604CCE700BF0D
:10C3400073D0030C012838B504460BD80A4D55F8B4
:10C35000300050B10021C26800F0DCFB40B945F864
:10C36000340038BD6FF08600FBE76FF08B00F8E714
:10C370006FF09100F5E700BFFCC40430C0682038BE
:10C3800020F00F002038704738B515460C4661B1D3
:10C390005AB100F0E6FB2146254411F8013B8342E7
:10C3A00003D1A942F9D1012038BD0020FCE738B5FE
:10C3B0000C46012311462246054600F033FA0028B8
:10C3C0000FDB012221462846FFF7DEFF18B10323C9
:10C3D0000020237038BD2378012B14BF02230123D2
:10C3E000F6E70120F6E7000030B5C16885B01039E6
:10C3F00021F00F04054600F0B4FB10220146684608
:10C4000011F0BEFC10226846064911F094FC10237E
:10C410006A462146284600F0AFFA003818BF0120CE
:10C4200005B030BDF8D1030C2DE9FF471D46064687
:10C430000F46904600F08FFB6C1E044440420440BF
:10C44000102C1AD8304600F08CFB82462A46414612
:10C45000684611F070FC5146621B0DEB050011F0AF
:10C460008FFC23466A463946304600F085FA00388C
:10C4700018BF012004B0BDE8F0874FF0FF30F9E7A6
:10C4800007B501238DF8042001AAFFF7CDFF03B003
:10C490005DF804FBC1680122203921F00F01FFF78C
:10C4A000EFBFC268203A22F00F02FFF780BF000002
:10C4B00030B50D46C16887B0102302AA1039044672
:10C4C00000F0B0F9002802DA012007B030BD1022D8
:10C4D000204602A9FFF758FF00283AD110221E4932
:10C4E00002A811F0CFFB00280CBF012302232B7000
:10C4F0002046FFF743FF012301460DF107022046C6
:10C5000000F090F90028DFDB9DF80730204603F0AB
:10C510000F021B096A702B7101220DF10701FFF751
:10C5200033FF10B96B78042B03D901236B70002300
:10C530002B71E2682046203A22F00F02103AA91C23
:10C54000FFF735FF0028BFD12046E91CFFF7A9FF00
:10C55000BBE70323CBE700BFF8D1030C13B541EAD7
:10C56000021104468DF80710FFF708FF012301466A
:10C570000DF107022046FFF757FF02B010BD73B55B
:10C580000E46694604461546FFF792FF10B101209A
:10C5900002B070BD9DF80030022B2FD0032B0BD0C2
:10C5A000012B2DD1002EF3D09DF80330032BEFD1BA
:10C5B0002046FFF76FFFEBE7002EE9D12046FFF79B
:10C5C00013FF0028E3D135B9237803F0FD02012AD7
:10C5D00007D100220AE02046FFF75CFF0028D7D1F0
:10C5E000F2E7022B08D0043B5A425A41A91C2046CC
:10C5F000C9B2FFF7B3FFCBE70122F7E7F01CC7E7AB
:10C600000320C5E713B50C46A8B1012814BFFF20CD
:10C61000042001A900F0E8F8014670B9221E18BFF5
:10C6200001220198FFF7ABFF0446019800F0F8F8EB
:10C63000204602B010BD0320EBE70124F8E70023F9
:10C6400013B5019398B1012814BFFF20022001A95E
:10C6500000F0CAF868B9012201981146FFF78FFF70
:10C660000446019800F0DCF8204602B010BD01201D
:10C67000EDE70124F8E72DE9F7430E461746994602
:10C68000044628B94FF0FF38404603B0BDE8F083B8
:10C690000029F7D0002AF5D0CB680D8938461D4413
:10C6A000042329460DEB030200F0BCF88046002865
:10C6B000E8D146F60812BDF804107389914223D1DF
:10C6C000BDF806109942DDD1042338460DEB030274
:10C6D000294400F0A7F80028D4D146F60713BDF886
:10C6E00004209A42CED19DF82830C4E90067A4F80E
:10C6F0000890A3727389BDF806202B44E3600435CB
:10C70000134463612561BFE7002BE6D0BAE72DE94A
:10C71000F7430F4690461E46044620B94FF0FF30BF
:10C7200003B0BDE8F0830368002BF7D04368002B0B
:10C73000F4D04FF6FF79D4E90413994215D2236857
:10C740005B8923B1E3688B4204BF04312161042378
:10C7500060680DEB030200F065F80028DED1A37AD3
:10C76000256923B1E368AB4201D80120D8E72189CC
:10C77000BDF80620494502F1040303D0BDF804C00A
:10C780008C450BD116B1BDF80410318004353D60E5
:10C79000A8F8002022691A442261C1E72B442361D2
:10C7A000C9E740B1521805D2C068904234BF00209A
:10C7B000012070470020704770B50024084B094DD8
:10C7C0001E68A64201DC002070BD55F8043B002025
:10C7D0009B68984708B90134F3E74FF0FF30F3E75F
:10C7E00068D2030C642804300B4B30B51A68002360
:10C7F0000A4C934203DB06D14FF0FF3008E01D01E5
:10C80000655D854205D10020044A02EB03130B60ED
:10C8100030BD0133EDE700BF14D2030C18D2030C76
:10C82000704700002DE9F0431E4603780546032BB0
:10C830000C46174685B00AD183684B480B4403F178
:10C840000062009203F14063324602F083FAAA6864
:10C85000B2F5001F0AD3454B197839B90121197077
:10C86000009623462978424802F074FA324621465F
:10C870002846FFF796FF002873D06B6802965B6826
:10C8800098473C4BC0F3410013F82090C9F10003D6
:10C8900003EA040834EA03032BD0D5E9013001226E
:10C8A0005B6903A940449847002816DB0022A319BE
:10C8B000A3EB08034B4524BFA8EB04064E44A4EBAE
:10C8C00008035FFA82F8464502F1010208D8029B8C
:10C8D0009B1B0293029B7BB9002005B0BDE8F0834F
:10C8E00008F110016944194411F8041C07F80810F4
:10C8F000E7E74FF00008EDE7029B4B45B3FBF9F685
:10C900001CD209FB06F6AB68301918446B6801228B
:10C910005B6903A9404498470028DEDB00223744C6
:10C920000299D3B2994202F10102D5D9F918103314
:10C930006B4413F8043C01F80830F1E7A8686B6811
:10C94000204432465B6907EB0801404498470028C1
:10C95000C3DB029B09FB16330293029B002BD0D151
:10C96000BAE74FF0FF30B8E7D4D0030C0CC5043061
:10C9700019D1030C08D2030C2DE9F04F8DB00292AF
:10C980001A4605460F461E4621F00F0A01F00F0811
:10C99000FFF707FF28B94FF0FF3318460DB0BDE889
:10C9A000F08F6B680DF1200B5B689847584BC0F314
:10C9B000410053F820305A460093514643462846DA
:10C9C000FFF730FF0028E6D106F10F03434423F0C0
:10C9D0000F03AAEB0709A9EB06091A465146284698
:10C9E00001939944FFF7DDFE0028D4D04B4628463A
:10C9F00004AAB919FFF716FF03460028CBD1B8F1F6
:10CA0000000F63D14446B442C7D2A6EB040A3AF001
:10CA10000F0A10D0A86869689DF800203844D1F842
:10CA200018B0BAFBF2F2029920440393D8470028C9
:10CA3000B1DB039B5444B9F1000FAED008A82246E5
:10CA400000238646964209D90299013311F802C0A3
:10CA5000102B00F801CB02F10102F3D196429AD1DA
:10CA6000002204A8102B01D04A454AD108F1100831
:10CA7000102BA0448FD14A458DD1019A42458AD1CD
:10CA8000A8689DF800206D683844B3FBF2F2714647
:10CA9000AD692044A847C3177FE7029A125D0134AD
:10CAA0000BF8012001310F2913D8B442F5D100222F
:10CAB00004A80DF1200C0F2920D84A450BD010F8FE
:10CAC00001EB013201F80CE00131F4E74146044684
:10CAD000E9E7B442EBD0102903937FF45CAFD5E9CA
:10CAE00001309DF80020D3F818B0B1FBF2F25044A9
:10CAF00008A9D8470028039B85DA4CE74A45EAD0C5
:10CB000049E710F8016B01320EF803600133A9E721
:10CB100008D2030C2DE9F04105460E469046FFF77A
:10CB200040FEA8B16B689B6A98470468074664B1E9
:10CB30000020BDE8F081D5E90130DB693044984739
:10CB40000028F6D1BB681C441E444445F3D3EFE7EC
:10CB50004FF0FF30EDE708B543689B6A98470069DE
:10CB600008BD08B543689B6A9847007D08BD036807
:10CB7000D90444BF43F4806303609A0444BF43F480
:10CB800000630360704700002DE9F04F1F4640F638
:10CB9000BD33904699424FF0000208BF4FF48073B6
:10CBA0000446ADF5217D06AD03912846114608AE39
:10CBB00008BF0393FCF7F9FFA26C40F20311304663
:10CBC000FCF7F3FF4FF40872002118A811F0D8F811
:10CBD000182200210BA811F0D3F800211A220DF120
:10CBE000460011F0CDF84FF6F87241F20103B2EBB6
:10CBF000C70F4FF6FF72ADF828304FEAC70338BFB2
:10CC00001346ADF82A30012305A80593FFF7AFFFBF
:10CC10000368DFF8A8B00C934FF480430360FFF77C
:10CC2000A6FF0368214613934FF49053226BADF88F
:10CC3000443011A83346CDF850B013F027FF0DF162
:10CC40000C0A04460DF1280938BB594618A816F0FD
:10CC500075FB044608BB96E80C0040F2011118A8C9
:10CC600016F0DCFB0446C0B90423524640F203210F
:10CC700018A816F095FB044678B92A46484618A924
:10CC800016F050FB044640B9AA9B4246009395E833
:10CC900003003B4613F04CFE044618A815F0D0FCE8
:10CCA00096E8030013F0CFFD95E8030013F0CBFDE9
:10CCB00020460DF5217DBDE8F08F00BF0901000879
:10CCC0002DE9F04F0024A1B008A8089412F02CFD23
:10CCD0008346DFF8DCA0334F5C4503D1002021B050
:10CCE000BDE8F08F089B660103EB441211695145C2
:10CCF00025D19268002105920BA89A59FCF755FF9F
:10CD0000DDE90B981C2200210DA811F039F80DF176
:10CD10001E03029308980AAB019307AB30440093BB
:10CD2000436930221D46806909AB14A9A84740B168
:10CD3000009043464A461C491C4802F00BF8013457
:10CD4000CAE74FF6F8714FF6FF72BDF81C30CDE917
:10CD500012988B4288BF1346ADF836300A9B059D6A
:10CD60001093BDF81E301C22ADF83430089B0DA97D
:10CD700033441B690E9313F0FF0308BF129354232F
:10CD80005D4305F1340038443D4410F0D4FF28469B
:10CD9000099A14A910F0CFFF099B2B6301232B657F
:10CDA000CDE700BF10C504306CD2030C53D1030C87
:10CDB000010100807FB51546CDE9000112B30024C2
:10CDC0000646146003A8039412F0AEFC039BA04235
:10CDD00009D01A4652F8201B8E4208D1D3E902210D
:10CDE000931E0B4306D16FF08B0004B070BD134649
:10CDF0000134ECE75421054B002001FB02331B6B8F
:10CE00002B60F2E76FF08600EFE700BF10C504303B
:10CE10002DE9F04F87B01F46109B012806461446A7
:10CE2000DDF84490009304D96FF0860007B0BDE8A8
:10CE3000F08F542141433F4D019101EB050ADAF88F
:10CE40005030002B6FD0002AEED0D2E905B8002375
:10CE500002A8029312F062FC0023029A0199984200
:10CE600050D094465CF80CEBF3454DD1D2E901C3A8
:10CE7000BCF1000F07D0002253F8320080453ED1AC
:10CE800003EBC2035B6834311C2229442046019322
:10CE900010F051FF5A46414604A8FCF786FE04995B
:10CEA000626861610599019BA161D1B221B922F04B
:10CEB000FF0242F00102626003A80393FFF757FEEE
:10CEC000542303FB06531A6B009B03999A42A160FB
:10CED0002CD8002FA8D0B9F1000FA5D04B0416D53F
:10CEE00040F20313984512D03A4641465046009B03
:10CEF000CDF8409007B0BDE8F04FFFF745BE0132D6
:10CF00009445B9D10023BEE762460133A7E75146F5
:10CF1000384610F010FF542303FB06552B6B0020FE
:10CF2000C9F8003082E76FF08B007FE76FF089006F
:10CF30007CE700BF10C504300A5B43727970746FE0
:10CF40005D20556E737570706F72746564207265C4
:10CF50007175657374210A0054462D5053412D4359
:10CF6000727970746F20312E312E3000285B41743D
:10CF7000746573745D2054686520706C6174666FAD
:10CF8000726D20646964206E6F74207265747572AE
:10CF90006E20612070726F66696C655F646566699A
:10CFA0006E6974696F6E0D0A001E5B41747465735F
:10CFB000745D205573696E672061206D69736D61C2
:10CFC00074636865642070726F66696C655F646520
:10CFD00066696E6974696F6E2072656365697665EE
:10CFE000642066726F6D207468652048414C0D0A9C
:10CFF00000285B4174746573745D20456E636F64D3
:10D00000696E672070726F66696C655F64656669DA
:10D010006E6974696F6E202873697A653A20256499
:10D02000293A2025730D0A003C4372656174696ECC
:10D030006720616E20656D707479204954532066B5
:10D040006C617368206C61796F75742E0A003C43C3
:10D0500072656174696E6720616E20656D707479A8
:10D0600020505320666C617368206C61796F757411
:10D070002E0A003C54464D204657553A206F7065A5
:10D080006E696E6720666C617368206661696C65A5
:10D09000642E0A003C54464D204657553A2065728E
:10D0A0006173696E6720666C617368206661696C84
:10D0B00065642E0A003C54464D204657553A207769
:10D0C0007269746520666C617368206661696C655D
:10D0D000642E0A00287265616420415245415F3226
:10D0E0002028532D7365636F6E6461727929206FF8
:10D0F00066663D30782578206C656E3D3078257801
:10D10000206162735F733D30782578206162735FC0
:10D110006E733D307825780A0028666C617368204C
:10D12000726561642062616E6B322066615F696462
:10D130003D25642066615F6F66663D307825782006
:10D140006F66663D30782578206C656E3D307825B9
:10D15000780A001E25733A20536B697070696E67F8
:10D16000206B65795F6964202530387820286F77D7
:10D170006E65723A202564292064756520746F20DD
:10D180002530387820706C6174666F726D2065721E
:10D19000726F720D0A00000070FF76FF7CFF79FF4E
:10D1A0005053415F494F545F50524F46494C455F81
:10D1B00031000000919E030C6D9E030C359E030C04
:10D1C000119E030CF59D030CC99E030C719D030C6D
:10D1D000399D030CFD9C030CB1A7030C3DA8030C67
:10D1E000C5A7030C09A8030C0DA8030C010000003F
:10D1F000020000000400000010002DE15D29410B39
:10D200008D77679C110F1F8A01000000020000004B
:10D210000400000005000000016400009C2F040CC5
:10D220000080030000800500036400009C2F040CB4
:10D230000000200000800500026400009C2F040C08
:10D240000000090000C01200046400009C2F040CC0
:10D250000080250000C01200056400009C2F040C13
:10D260000000000000C000000100000074666D5F57
:10D270006275696C74696E5F6B65795F6C6F616410
:10D2800065725F696E6974000000000000000000B4
:10D29000000000000000000000000000000000008E
:10D2A0006034040CC0C504307F010000E033040C7E
:10D2B0000028043020000000C033040C00000430BB
:10D2C00008000000C0CB0430EC19000080280430B6
:10D2D0005027000020000430F8020000074AD2F86E
:10D2E000883043F47003C2F8883002F50032D2F877
:10D2F000883043F47003C2F88830704700ED00E0D6
:10D30000704738B50446002839D0437A03F0FF024D
:10D3100013B90272FFF7F4FF0223226863721368E5
:10D32000616823F004031360136823F0804323F043
:10D3300020030B4343F080431360136823F08043C2
:10D34000136006F0EBFE054623681A68510009D405
:10D350001A6842F004021A605B685A0611D5042369
:10D3600063720CE006F0DAFE401B0428ECD9236857
:10D370001B685800E8D5012363720223E360012093
:10D3800038BD06F0CBFE05462368586810F004004F
:10D3900003D101236372E060F2E706F0BFFE401B99
:10D3A0000428F1D923685B685B07EDD50423E3E724
:10D3B0007047002307B5019303685A68510709D4E1
:10D3C0005A6822F040025A60C36823F00803C36021
:10D3D000002018E01A6842F080421A601A6822F0B1
:10D3E00080421A6004220192019A013A0192019A44
:10D3F00062B901234372C368027243F00203C3603F
:10D40000FFF7D6FF012003B05DF804FB1A68520055
:10D41000EAD45A68510642BF5A6822F040025A6064
:10D4200004220192019A013A0192019A002AE0D065
:10D430005A685207F6D4C7E7F8B5037A0446012BB9
:10D440000E4643D00123427A03729A42D5B239D1B3
:10D450000223437203685B685F061BD406F05EFE1E
:10D46000074623685A68D0071CD59A685968226114
:10D47000490642BF0822E2605A684FF0000544BFE7
:10D4800022F001025A604FF0010358BF326063720C
:10D49000002315E00823C360FFF78BFF0128DDD1CF
:10D4A0002846F8BD06F03AFEC01B0428D9D92368E7
:10D4B0005B6813F00103D4D1012262720222E260A0
:10D4C0002372EDE704221D46C260E1E70225E7E78B
:10D4D000042A09DB0B68036000F1040001F1040178
:10D4E000A2F10402042AF5DA002A09D00B780370AD
:10D4F00000F1010001F10101A2F10102012AF5DAB6
:10D5000070470000044B82B0186883B26FF30F00BD
:10D51000184302B0704700BFE02F040C0C20704786
:10D5200000207047012805D902280CBF00206FF0A9
:10D53000040070476FF0030070476FF003007047FE
:10D54000014B1868704700BF800A053000487047DB
:10D55000C82F040C08B54FF47A7000F081FA00204F
:10D5600008BD00000C4B70B55A6992B11C690023CC
:10D5700001390144151DA34201D1002070BD52F8AC
:10D580003360864203D855F83360B14201D9013384
:10D59000F1E70120F2E700BF14CB04302DE9F041A0
:10D5A0001446204B96001A78074622F002021A70A1
:10D5B000421E02EB8402B2F5800F0D4611D31A4AC7
:10D5C00094693CB16FF004001A7842F002021A70BC
:10D5D000BDE8F0813246FF21284610F0D1FB2046FD
:10D5E000F6E70023DFF844803146C8F80030FFF743
:10D5F000B9FF324690B107F140612846FFF768FF56
:10D60000D8F8003023B132460021284610F0B8FB8C
:10D61000002324F04040C8F80030D9E707F100614A
:10D62000EBE700BF800A053014CB0430840A0530D4
:10D6300038B50E4D6B68DC0709D40C4B5A6890075F
:10D6400011D45A68520744BF0422DA6038BD06F08C
:10D6500065FD04466B689907EFD406F05FFD001B7B
:10D660000128F7D9E9E70222DA60EAE7000403506B
:10D670000B4A10B5D36823F00203D36006F096FD81
:10D6800006F04CFD044606F0ADFD40B106F046FD47
:10D69000001B0128F7D906F0A5FD0028F3D010BD26
:10D6A000000403502DE9F04F454F87B03B784FEA17
:10D6B0008208019123F002034146064615463B705D
:10D6C000FFF750FFF0B14FF0020B4FF0406A721EAF
:10D6D0004244B2F5800F0CD248EA060414F00F045D
:10D6E00007D1384BD3E902C1234601F1040E63454B
:10D6F0000DD16FF004003B7843F002033B7007B09C
:10D70000BDE8F08F4FF0006ADFF8BCB0DFE751F8FA
:10D710003300864203D35EF83300824244D901339A
:10D72000E5E700F071F93B7843F001033B70019BA2
:10D730001022191902A810F0FEFA029B049A05990A
:10D740001A40039B0B40B3F1FF3F08BFB2F1FF3F0C
:10D7500024D00AEB0601584602AA214400F0CCF975
:10D7600081461034A04502D0B9F1000FDFD03B78DC
:10D77000414623F0010330193B70FFF7F3FE80B1FF
:10D7800000F062F9FFF754FF06F006FDB9F1000F53
:10D7900025F0404018BF4FF0FF30B0E74FF00009D0
:10D7A000DFE700F045F9EDE7FFF762FF414630465D
:10D7B000FFF7D8FE0028B4D100F012F9B3E700BF9C
:10D7C000800A053014CB04300200008070B5B0F53B
:10D7D000800F044686B008D2C0F30C032BB9324A3E
:10D7E000D2E90012101D8B4208D16FF004002F4ABD
:10D7F000137843F00203137006B070BD52F8335033
:10D80000AC4203D350F83350AC4207D90133EAE7B6
:10D8100000F0E6F829E000F00BF93BE00421204697
:10D82000FFF7A0FE0028224B18BF0423B4F5001F09
:10D83000029334BF0123022303934FF001030593A6
:10D840004FEA543301D3A3F58073184E0493FFF7C6
:10D850000FFF3378042123F0020320463370FFF7D3
:10D8600081FE0028D4D000F0CFF8337801A943F02E
:10D87000010302A8337000F003FA3378054623F061
:10D880000103042120463370FFF76CFE0028C2D04C
:10D8900000F0DAF8FFF7CCFE06F07EFC281E18BF79
:10D8A00001204042A8E700BF14CB0430800A0530B5
:10D8B00004000080174BD3F80421002A29DAD3F89A
:10D8C000042142F00042C3F80421134A13680133D3
:10D8D0001360734603F00F030D2B14D1EFF309828D
:10D8E000D2E90631C9010CD523F00101098801F400
:10D8F0006840B0F5684F04D001F47841B1F5704F3D
:10D9000004D1043303E0EFF30882E9E702339361C3
:10D910007047FEE700200250840A05300C4B10B51A
:10D920000C4A9C680C4B13EA240338BF13461A6850
:10D9300042F002021A60EFF3108272B60023CC5854
:10D94000C4500433102BFAD182F3108810BD00BFED
:10D95000F8CA04302C2002502820024030B50F4D68
:10D96000AB68002BAABF0E4B0E4B0F4A1C68B8BF0A
:10D970000E4A44F002041C60AB68146803F0040310
:10D9800023431360EFF3108272B60023CC58C450C7
:10D990000433102BFAD182F3108830BDF8CA04305A
:10D9A0002C200250282002404420025040200240F7
:10D9B000084B10B5084A9C68084B13EA240338BF8B
:10D9C00013461A6842F002021A600B889BB2038069
:10D9D00010BD00BFF8CA04302C200250282002409D
:10D9E000074B9A6AD20741BF064A5A6002F1883251
:10D9F0005A6046BF986A00F001000120704700BFDE
:10DA00000020025023016745074BDA6AD20741BF65
:10DA1000064A9A6002F188329A6046BFD86A00F0DE
:10DA200001000120704700BF00200250230167451C
:10DA3000044B9A6A42F001029A62986AC04300F06D
:10DA40000100704700200250044BDA6A42F00102E4
:10DA5000DA62D86AC04300F001007047002002502B
:10DA6000F8B5054606F05AFB1D4E1E4CB2681E4B1B
:10DA7000074614EA220438BF1C46236813F00B0F34
:10DA80001AD1B168194B1A4A1A4812EA210238BF52
:10DA90001A462168036A01F47E0103F400030B4374
:10DAA00015D071681943716013601A0202D54FF4E2
:10DAB0000003036301200EE0691CDED006F02EFB9C
:10DAC000C01BA84201D8002DD7D1032003E0236852
:10DAD000DB0301D40020F8BD4FF480331360F9E775
:10DAE000F8CA043020200240242002503420025082
:10DAF00030200240002002502DE9F041264D04461E
:10DB00002B780E46012B174644D001232B7000239F
:10DB10004FF47A706B60FFF7A3FF50BB1F4B204A96
:10DB2000AC6012EA240838BF984624F00043022B68
:10DB300023D139463046FFF7F1FE4FF47A70FFF7F4
:10DB40008FFFD8F8003024F0304222F0040223EA9C
:10DB50000203C8F80030134B9C420AD1A968124A4C
:10DB6000124B13EA210338BF13461A6822F004024D
:10DB70001A6000232B70BDE8F0810D4B24F00402E5
:10DB80009A423946304602D1FFF7E8FED5E7FFF763
:10DB90000FFFD2E70220EEE7F8CA04302C20025033
:10DBA000282002400600001044200250402002407D
:10DBB00002000010124B134A9968134B13EA210319
:10DBC00038BF134600F00302032A06D11A6842F454
:10DBD000004242F020021A607047C10707D51A6858
:10DBE00022F0004222F0280242F028021A60820746
:10DBF000F2D51A6842F0004242F02802EBE700BF7B
:10DC0000F8CA04302C20025028200240064B074A54
:10DC10009968074B13EA210338BF13461A6842F08C
:10DC200008021A60704700BFF8CA0430442002504E
:10DC3000402002400F4B104A10B59C680F4B8001EA
:10DC400013EA240338BF1346C9071A680AD522F01D
:10DC5000004222F47F521A601A68024342F0240202
:10DC60001A6010BD22F47F521A601A68024342F013
:10DC70000042F3E7F8CA04302C200250282002406A
:10DC80002DE9F843294E054633788946012B4AD0C1
:10DC90000123337000234FF47A707360FFF7E0FEC6
:10DCA0000446F0B92B682249224AB36011EA2308DE
:10DCB00038BF904648F2080223F00041914215D146
:10DCC0006868FFF777FF4FF47A70FFF7C9FE0446E4
:10DCD0002A68D8F8003022F0004223EA0203C8F88C
:10DCE0000030002333702046BDE8F883082B02D1B2
:10DCF000FFF78CFFE7E74FF0FF33C9F80030AF685C
:10DD0000D5E902231344BB42E2D938466968FFF7DC
:10DD100091FF4FF47A70FFF7A3FE10B1C9F80070BD
:10DD2000D5E70137ECE70224DDE700BFF8CA04308D
:10DD3000282002402C200250B1F5417F30B580F000
:10DD40008C80050F00F01F0202EB45145A2C00F2E4
:10DD50008480830658D5002C7FD140F201138B4379
:10DD60002BD13F4B1A694FF0FF321A6158693D4A77
:10DD700002435A619A6942F0BF6242F4FF2242F4C0
:10DD8000E06242F003029A6140F202238B4327D102
:10DD9000334B1A6A4FF0FF321A62596A314A0A430A
:10DDA0005A629A6A42F0BF6242F4FF2242F4E06291
:10DDB00042F003029A62002030BDCD05E4D5284B25
:10DDC0001A691C615869284A02405A619A6922F00E
:10DDD000BF6222F4FF2222F4E06222F00302D2E7C3
:10DDE0008C05E8D51E4B1A6A00221A62596A1E4A2F
:10DDF0000A405A629A6A22F0BF6222F4FF2222F499
:10DE0000E06222F00302D5E740F20110174B88438D
:10DE10002B444FEA83030FD101201C68904020431C
:10DE2000186040F2022088430ED10121186901FADE
:10DE300002F202431A61BEE7C805F2D50124186850
:10DE4000944020EA0400EBE78905B4D50120196964
:10DE500000FA02F221EA0202ECE70120ACE700BF7F
:10DE60000024035007FF0FFFF800F00004C900145E
:10DE7000036843F0010303607047000020F0805303
