:020000040C03EB
:108000003DB8F3960000000000047B0000DC040093
:10801000000000000203000000000000000000005B
:10802000FFFFFFFFFFFFFFFFFFFFFFFFFFFFFFFF60
:10803000FFFFFFFFFFFFFFFFFFFFFFFFFFFFFFFF50
:10804000FFFFFFFFFFFFFFFFFFFFFFFFFFFFFFFF40
:10805000FFFFFFFFFFFFFFFFFFFFFFFFFFFFFFFF30
:10840000F81503305987030C29C1030C890E040C9D
:10841000890E040C890E040C9321040C8721040C92
:108420000000000000000000000000001D0B040C14
:108430004D86030C000000004F86030C5186030C90
:108440005386030C5586030C5786030C5986030C80
:108450005B86030C5D86030C5F86030C6186030C50
:108460006386030C6586030C6786030C6986030C20
:108470006B86030C6D86030C6F86030C7186030CF0
:108480007386030C7586030C7786030C7986030CC0
:108490007B86030C7D86030C7F86030C8186030C90
:1084A0008386030C8586030C8786030C8986030C60
:1084B0008B86030C8D86030C8F86030C9186030C30
:1084C0009386030C9586030C9786030C9986030C00
:1084D0009B86030C9D86030C9F86030CA186030CD0
:1084E000A386030CA586030CA786030CA986030CA0
:1084F000AB86030CAD86030CAF86030CB186030C70
:10850000B386030CB586030CB786030CB986030C3F
:10851000BB86030CBD86030CBF86030CC186030C0F
:10852000C386030CC586030CC786030CC986030CDF
:10853000CB86030CCD86030CCF86030CD186030CAF
:10854000D386030CD586030CD786030CD986030C7F
:10855000DB86030CDD86030CDF86030CE186030C4F
:10856000E386030CE586030CE786030CE986030C1F
:10857000EB86030CED86030CEF86030CF186030CEF
:10858000F386030CF586030CF786030CF986030CBF
:10859000FB86030CFD86030CFF86030C0187030C8E
:1085A0000387030C0587030C0787030C0987030C5B
:1085B0000B87030C0D87030C0F87030C1187030C2B
:1085C0001387030C1587030C1787030C1987030CFB
:1085D0001B87030C1D87030C1F87030C2187030CCB
:1085E0002387030C2587030C2787030C2987030C9B
:1085F0002B87030C2D87030C2F87030C3187030C6B
:108600003387030C3587030C3787030C3987030C3A
:108610003B87030C3D87030C3F87030C4187030C0A
:108620004387030C4587030C4787030C4987030CDA
:108630004B87030C4D87030C4F87030C5187030CAA
:108640005387030C5587030C5787030CFEE7FEE79F
:10865000FEE7FEE7FEE7FEE7FEE7FEE7FEE7FEE7F2
:10866000FEE7FEE7FEE7FEE7FEE7FEE7FEE7FEE7E2
:10867000FEE7FEE7FEE7FEE7FEE7FEE7FEE7FEE7D2
:10868000FEE7FEE7FEE7FEE7FEE7FEE7FEE7FEE7C2
:10869000FEE7FEE7FEE7FEE7FEE7FEE7FEE7FEE7B2
:1086A000FEE7FEE7FEE7FEE7FEE7FEE7FEE7FEE7A2
:1086B000FEE7FEE7FEE7FEE7FEE7FEE7FEE7FEE792
:1086C000FEE7FEE7FEE7FEE7FEE7FEE7FEE7FEE782
:1086D000FEE7FEE7FEE7FEE7FEE7FEE7FEE7FEE772
:1086E000FEE7FEE7FEE7FEE7FEE7FEE7FEE7FEE762
:1086F000FEE7FEE7FEE7FEE7FEE7FEE7FEE7FEE752
:10870000FEE7FEE7FEE7FEE7FEE7FEE7FEE7FEE741
:10871000FEE7FEE7FEE7FEE7FEE7FEE7FEE7FEE731
:10872000FEE7FEE7FEE7FEE7FEE7FEE7FEE7FEE721
:10873000FEE7FEE7FEE7FEE7FEE7FEE7FEE7FEE711
:10874000FEE7FEE7FEE7FEE7FEE7FEE7FEE7FEE701
:10875000FEE7FEE7FEE7FEE707B50022264B83F8BB
:10876000042310221A60254B83F30A88244A254BE0
:108770009360D3680193019B019B83F07F4383F453
:108780007F0343F4C043D3601F4BD3F8A82042F0CB
:108790000202C3F8A820D3F8A8301C4A0193019B19
:1087A000D2F8483143F00103C2F8483103F0D6F95A
:1087B000174B18498B4212D30020174B17498B4295
:1087C00018D309F0A1FD186850F82240586840F805
:1087D0002240013298688242F5D30C33EAE7002246
:1087E000F8E71C6844F8220001325C68A242F8D322
:1087F0000833E4E70022F8E700E100E0000E033070
:1088000000ED00E00084030C000C0254000400544E
:1088100020BB030C44BB030C44BB030C5CBB030C2C
:1088200001015F5F030100001F010000B18A030C1A
:108830000000000000000000010000000100000036
:108840000000000000000000000000000000000028
:10885000021F000000000000000000007000000087
:10886000EC6E050C80000000000F0000010000000D
:10887000CD8A030C01015F5F050100001F010000AC
:10888000099B030C00000000000000000100000034
:1088900001000000000000000000000000000000D7
:1088A00000000000031F00000000000000000000A6
:1088B00080000000F76E050C20000000030F000090
:1088C00001000000459A030C01015F5F00010000F8
:1088D0001F0000006D25040C0000000000000000D7
:1088E0000300000001000000000000000000000084
:1088F0000000000000000000051F00000000000054
:108900000000000080000000700000004000000037
:108910000F6F050C6000000001070000010000005F
:108920004524040C01015F5F010100001F010000EC
:108930002FA1030C00000000000000000000000058
:108940000100000000000000000000000000000026
:1089500000000000011F00000000000000000000F7
:108960002D6F050C70000000020F000001000000D8
:1089700035A1030C01015F5F040100001F0100002D
:10898000DFB6030C00000000000000000000000043
:1089900001000000000000000000000000000000D6
:1089A00000000000011F00000000000000000000A7
:1089B000526F050C40000000050700000100000098
:1089C000CBB4030C00015F5F02000000FE0B00004F
:1089D000A10C040C20250000000000000000000095
:1089E0000000000000000000000000000100FFC3C4
:1089F000000000C400FE0000A0C103300000000021
:108A000001015F5FC30B00001F000000D131040CA7
:108A10000000000000000000000000000300000053
:108A20000000000000000000000000000000000046
:108A3000011F00000000000000000000676F050C2F
:108A400000F10000040B0000010000008931040C5B
:108A50007A6F050C01F10000000100000100000028
:108A60009F31040C946F050C02F10000000100001E
:108A700001000000C131040C0000000000000000F3
:108A800038B50025054B294603F5A0441846226851
:108A900065600BF0F2FA256038BD00BF8026033018
:108AA000024B5B6803600020704700BF8076033094
:108AB00008B500F015F940B900F082FF00F08CFF16
:108AC00018B9BDE8084010F001B908BD2DE9F04F14
:108AD00004680546A3B0002C40F0F980214620220E
:108AE00004A80BF0CAFA214620220CA80BF0C5FA04
:108AF0002146042414AF382238460BF0BEFA05F1A3
:108B0000200353F8041D2246013C09B1144601E03C
:108B1000002CF6D1042605F1300353F8041D32462B
:108B2000013E09B1164601E0002EF6D12CB96FF0D6
:108B30008304204623B0BDE8F08F38233A46002155
:108B4000686809F025FC3828F1D1CDE904700127C7
:108B5000DFF888A10DF1100805F110090AF5A04B06
:108B6000BC422AD10CAF3C4600215A4A05F11C00F8
:108B7000136800EB8608A2F5A04940453BD101B13E
:108B800013600023CDE90233059BA968382B51609F
:108B9000049A40F09080138D180A032857D00128BA
:108BA0007ED01268831ECDE90221072B7DD8DFE835
:108BB00003F03F4E53595F656B7159F8043F1A1D1E
:108BC00020D8DBF80000D91C21F00301C0F5A04239
:108BD000914217D8014400EB0A02CBF800106868F4
:108BE0003946019209F0D4FB019AC8F80C0001370C
:108BF00048F8082FB4E750F804EF1EF1040F06D927
:108C000001B11360FFF73CFF6FF08C0491E70EF1A8
:108C1000030C2CF0030CC3F5A04AD44504F108045E
:108C2000EED803EB090144E9021E63440121A4E7E5
:108C300002AA0CA904A800F015FE04464FF0000893
:108C4000464507F1080739D1FFF71AFF71E70CA96C
:108C500004A800F0FDF9F0E702AA0CA904A800F0AE
:108C6000D9FAEAE702AA0CA904A800F011F9E4E78E
:108C700002AA0CA904A800F084FBDEE702AA0CA952
:108C800004A800F082FCD8E702AA0CA904A800F00E
:108C9000CFFCD2E702AA0CA904A800F00BFDCCE798
:108CA0000CA904A800F081FEC7E70B4804F03CFCC7
:108CB0006FF08504C2E76FF08004BFE7414657E9D3
:108CC0000223686809F070FB08F10108B8E76FF04B
:108CD00085042EE7807603308CBA030C802603309F
:108CE00008B54FF48C52002102480BF0C6F9002061
:108CF00008BD00BF887603300023F7B50C6807462F
:108D00000E461546019314BB22B3146001A8FFF769
:108D1000C7FEA8B94FF40C7C104A0CFB04F3D158E1
:108D2000A646013471B94FF0010E02EB030C42F874
:108D300003E0019910331344CCE9011734602B6030
:108D400003B0F0BD082CE8D16FF08400F8E76FF0B5
:108D50008800F5E76FF08600F2E700BF8876033001
:108D60000023F7B505680193013D072D036004D981
:108D70006FF08604204603B0F0BD01A8FFF790FE17
:108D800004460028F6D14FF40C735D430A4E735924
:108D90007719012BECD17A68019B9A42E8D105F151
:108DA00010004FF40872214630440BF066F9C7E911
:108DB00001447451DEE700BF88760330002373B5A9
:108DC0004C1E072C06461546019303D96FF0880008
:108DD00002B070BDC2B101A8FFF762FE0028F7D152
:108DE0004FF40C7202FB04F1094B5C585A18012C29
:108DF000ECD19468B442E9D15468019A9442E5D127
:108E0000103119442960E3E76FF08600E0E700BF06
:108E100088760330B0F5105F23D101F0FE43B3F143
:108E2000A06F124B08BF21F47E1199421BD00DD8C0
:108E30000F4B994217D007D80E4B994213D00E48CA
:108E40000B1A5842584170470C48F9E70C4B9942AD
:108E500009D004D80B4B994205D00B48F0E70B48DA
:108E6000EEE7002070470120704700BF0010C004EB
:108E7000004140040002C00300404004004440049C
:108E8000000140050011C0040012C00400024005AA
:108E9000134640F209522DE9F04F0026D0F8008029
:108EA00089B0B8F828B0074693450D46059618D105
:108EB0000A6883682AB96FF08004204609B0BDE8CB
:108EC000F08F49680329F6D9002BF4D0C168012935
:108ED000F1D9D8F804101888FFF79CFF106000241F
:108EE000EBE70DF118094846D3E9002100F065FDD4
:108EF000BBF5A06F13D12B1D03936B6802932B68F6
:108F00000193FB680093BB68D8F8042099E803003C
:108F10000EF06AF904460028CFD06E60CDE740F22B
:108F200001539B450FD12B1D03936B6802932B6854
:108F30000193FB680093BB68D8F8042099E803000C
:108F40000EF0F8F9E6E7ABF2025A1FFA8AF3012BAA
:108F500019D82E68002EAED06B68032BABD9D8F889
:108F6000083031460120336005AAFFF7C5FE0446EC
:108F7000002CA2D1BAF1060F67D8DFE80AF032411F
:108F80001E2B495461000120D8F8081005AAFFF7EC
:108F900015FFABF20753012B0446E9D82E68002ECB
:108FA00089D06B68032B86D9D8F808303360002845
:108FB000E0D0BBF5A16F92D07FE705982B1DD5E9D6
:108FC00000120EF061F8044600283FF476AF00234B
:108FD0006B6072E70598D7E902120EF09EF804461E
:108FE0006BE7D8F80430059899E806000EF034F8DD
:108FF000044600283FF473AF3046FFF7B1FE5CE74C
:10900000D8F80430059899E806000EF031F8EFE73B
:109010002B1D01936B68059800932B68D7E902120A
:109020000EF09DF8CFE7059805F10C03D5E9021283
:109030000EF0B6F804460028DED00023EB603CE7D3
:1090400005980DF055FF0446D6E76FF0850434E728
:1090500000232DE9F043D0F8008085B0B8F82890BF
:109060000546A9F540720F460293082A53D8DFE857
:1090700002F01C2D38525252525205000A6812B9A1
:109080006FF080040DE04B68032BF9D9D8F8043059
:1090900003F17E43083B032B8CBF002301231360A5
:1090A0000024204605B0BDE8F0830B1D01934B68FA
:1090B00000930B68D0E90212D8F804000DF041F9D2
:1090C00004460028EDD000237B60EAE74369009363
:1090D0008168D0E90323D8F804000DF045F904466F
:1090E000DFE70E68002ECBD04B68032BC8D9D8F829
:1090F000083031460320336002AAFFF7FDFD044625
:109100000028CED1D8F8041002980CF0E3FF0446F2
:109110000028C5D02BE00320D8F8081002AAFFF7DA
:109120004DFE6FF441734B44022B04465DD83E68FC
:10913000002EA5D07B68032BA2D9D8F80830336065
:10914000002856D040F207339945A9D0A9E70298E4
:10915000D5E902120DF090F8C1E7029807F10C036F
:10916000D7E902120DF0A0F8044620B900243046D9
:10917000FFF7F6FD95E70023FB6092E70298D5E93B
:1091800002120DF0A9F8044600288AD1EEE70298F1
:109190000CF090FF0446EAE700233E680393002E9C
:1091A0003FF46EAF7B68032B7FF66AAFAB68002B92
:1091B0003FF466AFEA68032A7FF662AF1B68314668
:1091C0000320336003AAFFF797FD044600287FF4CD
:1091D00068AFDDE902010DF0F0F8044600283FF425
:1091E00060AFC4E76FF085045BE700287FF459AFF8
:1091F0000646A9F20333042BF4D801A252F823F057
:109200004F91030C9991030C5B91030C7D91030C1E
:109210008F91030C2DE9F04F0027D0F8009089B012
:10922000B9F828B00DF1180806460D46D2E900211C
:109230004046059700F0C1FBBBF5806F15D12B1D93
:1092400003936B6802932B680193F3680093B368F0
:10925000D9F8042098E803000DF015FB044600B18E
:109260006F60204609B0BDE8F08F40F201439B4596
:109270000ED17369029333690193F3680093B36865
:10928000D9F8042098E803000DF012FB0446E8E743
:10929000ABF2024A1FFA8AF3012B1AD82F6817B9CA
:1092A0006FF08004DDE76B68032BF9D9D9F808303B
:1092B000394602203B6005AAFFF71EFD0446002C3C
:1092C000CFD1BAF1050F59D8DFE80AF01F2D353B91
:1092D00049530220D9F8081005AAFFF76FFDABF239
:1092E0000543022B0446EAD82F68002FD8D06B68BC
:1092F000032BD5D9D9F808303B600028E1D040F2E3
:1093000007439B45ADD10024ABE7D9F8043005985D
:1093100098E806000DF0EEF804460028F3D0384631
:10932000FFF71EFD9DE7D9F80430059898E8060080
:109330000DF0ECF8F0E70598D6E902120DF0F2F81E
:10934000A4E7059805F10C03D5E902120DF005F923
:10935000044608B90024E2E70023EB6081E70598A2
:10936000D6E902120DF06EFA044600287FF479AFB8
:10937000F0E705980DF044F80446D0E76FF0850457
:109380006FE72DE9F04F4FF0000807688DB0B7F890
:1093900028B00DF1280906460D46D2E900214846BD
:1093A000CDF8248000F009FBBBF5C06F1ED12B1D4A
:1093B00007936B6806932B680593F3680493B3686F
:1093C000039373690293336901937B6A00937A680C
:1093D00007F1140399E803000EF02AF8044608B1D7
:1093E000C5F8048020460DB0BDE8F08F40F201635F
:1093F0009B4517D12B1D07936B6806932B6805932C
:10940000F3680493B3680393736902933369019318
:109410007B6A00937A6807F1140399E803000EF061
:109420005FF8DBE7ABF2026A1FFA8AF3012B20D860
:10943000D5F80080B8F1000F02D16FF08004D1E7B9
:109440006B68032BF9D9BB6841460520C8F800308A
:1094500009AAFFF751FC0446002CC3D1BAF1090F49
:1094600000F29080DFE80AF02330525F66776C37B5
:109470007D4D0520B96809AAFFF7A0FC6FF4C16310
:109480005B44022B0446E7D8D5F80080B8F1000F02
:10949000D3D06B68032BD0D9BB68C8F80030002844
:1094A000DCD040F20B639B459CD100249AE77B689B
:1094B000099899E806000EF025F904460028F4D032
:1094C0004046FFF74DFC8DE77B68099899E8060058
:1094D0000EF024F9F1E705F10C030293EB6809980B
:1094E0000193AB680093D5E9041205F114030EF063
:1094F0003BFA044608B90024E2E70023EB606B6105
:1095000070E709980EF044F80446D9E709982B1D36
:10951000D5E900120EF035F9044600283FF462AF99
:1095200000236B605EE70998D6E902120EF027F976
:10953000044657E70998D7E903120EF07FF9F7E7D9
:109540002B1D01936B68099800932B68D6E90212D2
:109550000EF0D4F9E0E70998D6E902120EF09CF972
:10956000E6E7F36809980193B3680093D5E902121E
:1095700005F10C030EF031FA04460028BBD000239D
:10958000EB602FE76FF085042CE7F0B587B0076834
:1095900004AE04460D46D2E90021304600F00DFA33
:1095A0003B8DA3F5E063032B3FD8DFE803F0021403
:1095B00022312B1D03936B6802932B680193E368A0
:1095C0000093A3687A6896E803000DF0A5FA70B1DD
:1095D00000236B600BE06369029323690193E368E6
:1095E0000093A3687A6896E803000DF05DFB07B06E
:1095F000F0BD2B1D03936B6802932B680193E36806
:109600000093A3687A6896E803000DF09BFADEE702
:109610006369029323690193E3680093A3687A68FE
:1096200096E803000DF07EFBE1E76FF08500DEE7D2
:10963000F0B589B0076806AE04460D46D2E90021B0
:10964000304600F0BAF93B8DB3F5006F07D040F615
:10965000010293421AD06FF0850009B0F0BD2B1DB6
:1096600005936B6804932B680393636902932369E2
:109670000193E3680093A3687A6896E803000DF00D
:109680008FFB0028E9D000236B60E6E72B1D0593D4
:109690006B6804932B6803936369029323690193B6
:1096A000E3680093A3687A6896E803000DF0CEFBA8
:1096B000E7E7000000232DE9F04706688EB0B6F812
:1096C00028900DF1140807460D469246D2E9002174
:1096D0004046049300F071F9B9F5106F0FD12B1DBE
:1096E00003936B6802932B680193FB680093BB683C
:1096F000706898E806000FF067F9044616E040F637
:109700000113994516D12F68002F00F090806B68E7
:10971000032B40F28C80B368394604203B6004AAD6
:10972000FFF7EAFA0446002800F0928020460EB0C7
:10973000BDE8F0870420B16804AAFFF73FFB0446A8
:10974000A8B140F60A139945F0D12F68002F6ED0CA
:109750006B68032B6BD9B3683B60002C7FD10498F6
:109760000EF07CF904463846FFF7FAFADEE7A9F670
:109770000219B9F1080F68D801A353F829F000BF06
:10978000A597030CB997030CC397030CEB97030C35
:10979000D197030C3598030CDF97030CF997030C52
:1097A0004B97030C2968002941D06B68042B3ED1EC
:1097B00004980EF00BFCA0E7316B04980EF00FFC40
:1097C0009BE7718D0498D7E902230EF0F7FF94E729
:1097D000718D0498D6E90C230EF0FAFF8DE70498FA
:1097E000D5E900120EF014FC87E7718D049898E813
:1097F0000C000FF021F880E72E68C6B16B68032BD0
:1098000015D9B96899B1FA68182A10D107A80AF0D1
:109810000FFCDAF8040007A900F0EEF842460499BC
:1098200007A80EF08DFF059B044633607EE76FF0BE
:1098300080047BE7FB68718D0193BB6804980093FB
:1098400098E80C000FF066F857E76FF085046DE7B5
:10985000716804980EF080FF0446002883D100242C
:1098600064E700BF2DE9F0418EB003ACD0F8008072
:1098700006460D461746D2E90021204600F09DF825
:1098800040F20322B8F82830934203D0A3F50273C4
:10989000012B0ED8B16811B96FF080043CE0F2687A
:1098A000182AF9D107A80AF0C3FB786807A900F0C5
:1098B000A3F8B8F82830A3F50073092B72D8DFE8B5
:1098C00003F01A717105142F3D464B63D6E904125B
:1098D0002E68002EE0D06B68032BDDD9234607A845
:1098E0000CF0E2FA0446039B4CE094E803000CF011
:1098F000B8F9044610E094E8030007AA2E680CF0BB
:10990000DAF92B680446002BC6D06A681C2AC3D833
:10991000304607A90AF08CFB20460EB0BDE8F08166
:109920002B1D0093D5E9002394E803000CF00EFAF8
:1099300004460028F0D000236B60EDE72B1D009358
:10994000D5E9002394E803000CF07FFAF0E794E8EF
:1099500003000FF0A5FBCCE7002205A811462E68F6
:1099600000F02BF82B68002B96D06B68032B93D953
:1099700094E8030005AB07AA0CF002FB044600289C
:10998000CAD1059B3360C7E72E68002E84D06B6870
:10999000032B81D9214607A80FF064F9044600285B
:1099A000A1D0B9E76FF08504B6E7D1E900010FF067
:1099B0005CB80FB4002004B07047C0E900217047C4
:1099C00008B51422024903480AF032FB014808BDD9
:1099D000ACBA030C08B8033008B54FF44051044842
:1099E0000BF0EAF903480BF037FA002008BD00BF7E
:1099F00008880330B399030C88617047F0B50024E0
:109A000085B0CDE9000103A816461F4603940BF06C
:109A100099F82146009A039D814202D16FF08B0094
:109A20000BE02B4653F8204B944208D100202B69C1
:109A30003360D5E90223C7E9002305B0F0BD1D4618
:109A40000131E9E740F2E93270B503680546934217
:109A500094B008D040F2EA32934232D06FF08504DD
:109A6000204614B070BD0021036A0469B3F5147F69
:109A700004F1FF321E4628BF4FF414763F2A0391AB
:109A800022D80BB382681E4B40681A60234604AA92
:109A900008F07EFC844211D103AB21460093194AA1
:109AA000334604A800F09AF904460028D8D1039B55
:109AB000144A2146686808F077FCD1E76FF0830408
:109AC000CEE70369042B02D06FF08604C8E7036A6F
:109AD000042BF9D181680A4A40681160002103AA69
:109AE00008F056FC04280646EED1039804A900F0BD
:109AF00099F904460028B3D1334604AAD9E700BF38
:109B00006CBA03301CB8033000F05AB9002313229A
:109B100070B588B003AE054631466846CDE90023EE
:109B2000029302F064FF044650B9009B28460549A1
:109B300001AA0196029300F0D6FA204608B070BD43
:109B40000324FAE703DBFEFF202370B58CB004AEDC
:109B50000546314601A8019302F00AFF044650B9B8
:109B6000019B2846054902AA0296039300F0BBFA1E
:109B700020460CB070BD0524FAE700BFFEDAFEFFF8
:109B800070B590B003AD34220021064628460AF095
:109B900074FA332329466846009302F005FF044611
:109BA000B0B9009A019502925AB90A4B0193112358
:109BB00002933046084901AA00F095FA204610B0F9
:109BC00070BD112AF5D1294602480AF079FAF0E76A
:109BD0000524F3E7CABA030C08DBFEFF10B5044600
:109BE00002F0B2FE002302460249204600F058FA75
:109BF000002010BD06DBFEFF37B5054601A800F0CA
:109C000087FA044628B9019A28460349D31700F079
:109C100047FA204603B030BD07DBFEFF202370B5B6
:109C20008CB004AE0546314601A8019302F0CAFE8D
:109C3000044650B9019B2846054902AA029603939F
:109C400000F03DFA20460CB070BD0324FAE700BFD7
:109C500005DBFEFF37B50546684600F075F904469A
:109C600020B96A462846034900F029FA204603B085
:109C700030BD00BFFFDAFEFF002370B58AB002AE30
:109C8000054631462020CDE9003302F096FE044619
:109C900050B920236A46284604490096019300F0F3
:109CA0000EFA20460AB070BD0324FAE704DBFEFF7B
:109CB00037B50B4B0546019300F0F1F96A4601A94F
:109CC00000F0D6F8009B0446034305D1012200238F
:109CD0002846044900F0E4F9204603B030BD00BF37
:109CE00002DBFEFF01DBFEFF2DE9F043E7B080461B
:109CF00089463048694617460AF014FA6C4606460B
:109D0000A0B9BDF8005005F44F43B3F5824F12D10E
:109D1000EDB2122D0AD1BDF80230B3F5C07F1AD0D2
:109D2000B3F5007F23D0B3F5807F23D005252846E7
:109D300067B0BDE8F083B5F5885FF7D1BDF80230B4
:109D4000B3F5C07F19D0B3F5007F18D0B3F5807F8D
:109D5000ECD1052201E06FF022024B4600212046A3
:109D600000F02AF968B10128E0D10225DFE76FF0A1
:109D70002302F2E76FF00602EFE70622EDE7072283
:109D8000EBE7424620460C4900F099F9DFF82C80B9
:109D9000204658F8043B984705460028C7D10136AD
:109DA000092EF5D13946204600F042F90028DAD1D3
:109DB000BDE700BF5D81FF7F00DBFEFFDCBA030C67
:109DC00008B500F0B9F8042896BF034B6FF0830084
:109DD00033F9100008BD00BFC0BA030C7FB5CDE950
:109DE000022321F01002202ACDE9000101D04029F0
:109DF00014D19BB1684604AA02A9FFF775FF40B9C8
:109E0000089B059A1A60064B33F9100007B05DF8FD
:109E100004FB0428F7D96FF08300F7E70420F2E78A
:109E2000C0BA030C002310B586B0CDE90030029310
:109E30006FF00043039320F01003202B0C4601D059
:109E4000402811D1684604AA02A9FFF74DFF30B996
:109E5000059B2360054B33F9100006B010BD0428A4
:109E6000F8D96FF08300F8E70420F3E7C0BA030CD9
:109E70002DE9F04F88461546044685B0002855D098
:109E8000002A53D00026DFF8ACA016600DF1080BB5
:109E900042F21603BAF800209A4203D0032005B01C
:109EA000BDE8F08FBAF80230214F5344BB420AD8C4
:109EB0000136072EECD12B681BB10421204609F096
:109EC00071FF0020EBE704223946584601930AF05F
:109ED000AFF8BDF80820BDF80A90C2F38511B14271
:109EE000019B1FD102F03F023F2AE1D12B680133D1
:109EF000012B2B600CD1B8F1000F05D0D8F8002051
:109F00002046D31709F0D4FE0421204609F02DFF86
:109F10000437CDE9027909219BE80C00204609F0BD
:109F2000DCFEC5E709F104094F44BFE70420B6E7AA
:109F300074BA033070BA03304FF401720120014942
:109F400000F0EEB870BA033030B504469BB028B3C9
:109F5000154D6B68E3B912A1D1E9000107AB03937A
:109F60004B23049305AB0093039A4B2309F05EF94E
:109F700010B103201BB030BD2B1D01932023DDE960
:109F8000051200932B6809480AF088F90028F0D1DF
:109F9000074B0020236021236360EBE70420E9E7FF
:109FA0005D81FF7F000000000026033009000002F1
:109FB00008260330000000007FB51C46002305463C
:109FC00000F1A006C0F8981019463046CDE90233DA
:109FD00009F0BEFA04AB13E9030013A3D3E900238D
:109FE0008DE80300304609F0D5FA94E806002846CB
:109FF00009F0A1FD2946304609F038FA044602214D
:10A00000284609F0B2FE44B1032C0BD0192C0CBF2A
:10A0100001240324204604B070BD0521284609F020
:10A02000A4FEF7E70424F5E75D81FF7F0000000050
:10A0300070B5044686B00D46052109F0B3FE002137
:10A0400004AE32462046CDE90211CDE9041109F0F3
:10A05000B2FE059B02990093019404F1A000DDE992
:10A06000032309F03DFA38B1032814D019280AD087
:10A070000323184606B070BD3146204609F0EDFEB8
:10A080000128034601D10123F3E730B996E8030024
:10A0900085E80300EDE70423EBE70223E9E77047D7
:10A0A00070B5044616461D460A46CB1709F000FE59
:10A0B00032462B462046BDE8704009F0F9BD73B525
:10A0C000D2E9006504460A46CB1709F0F1FD0221EA
:10A0D0002046CDE9006502AB13E90C0002B0BDE8F3
:10A0E000704009F0FABD73B5D2E9006504460A462E
:10A0F000CB1709F0DDFD03212046CDE9006502AB59
:10A1000013E90C0002B0BDE8704009F0E6BD0000A4
:10A11000024B1B6803600020704700BF6CBA03301D
:10A1200008B509F083FF003818BF012008BD00F012
:10A13000CFB800006FF47A72F0B503680446134498
:10A140008DB0032B7CD8DFE803F002284C6B036949
:10A15000082B02D06FF080055FE08569042DF9D1EE
:10A160000021406808AA08F013F90828F2D12B460C
:10A170000221606806AA08F00BF90428EAD1616898
:10A18000314A63691160069ACDE90032DDE908239E
:10A19000A06800F011F905463FE00369082BD9D10A
:10A1A0004569042DD6D10021406808AA08F0F0F8CE
:10A1B0000828CFD12B460121606806AA08F0E8F8EC
:10A1C0000428C7D16168204A236A116005AACDE935
:10A1D0000132069B0093A068DDE9082300F042F9F4
:10A1E000D9E70369082BB5D1076A0C2FB2D100213A
:10A1F000406806AA08F0CCF80828ABD1DDE90623B0
:10A2000008AE0096A06800F07DF9054628B9014621
:10A210003B463246606808F0C7F828460DB0F0BDEE
:10A220000369082B96D10021406808AA08F0B0F80D
:10A2300008288FD1DDE90823A06800F075F9AAE7A6
:10A240006FF08505E9E700BF74BC033002460348A0
:10A250000B460068012108F09BB800BF74BC0330B6
:10A26000024603480B460068002108F09DB800BF75
:10A2700074BC03301FB5CDE902010843019219D027
:10A2800004220E480DEB020109F0D2FE08220C4810
:10A290000DEB020109F0CCFE0A4C01980A4B0B4A67
:10A2A000B0F5807F08BF1C460449204600F0D0FA74
:10A2B00004B010BD6FF08600FAE700BFC4BE0330E3
:10A2C000C8BE033098BC033078BC0330B8BE03303E
:10A2D00030B5334B85B09D6AA8470369102B23D155
:10A2E000A847304C8368A360A847037D01A8237664
:10A2F00002F0D1FAC0B9019BA26863609DF80C30EE
:10A3000021465343029A2848B2FBF3F22282274A9D
:10A31000E36000F046FA98B9234800F07DFA30B9BE
:10A32000A8470369102B0DD06FF0800008E01E488D
:10A3300000F08CFA20B91C4800F06EFA0028EFD02B
:10A3400005B030BDA8471A4C8368A360A847037DB9
:10A3500001A8237602F091FA0028E5D1019BA268BA
:10A3600063609DF80C3021465343029A1148B2FBBA
:10A37000F3F222820D4AE36000F013FA0028DFD1E5
:10A380000C4800F049FA0028DAD00A4800F05EFADA
:10A390000028D5D1074805B0BDE8304000F03CBAF0
:10A3A000E816040C4826033098BC033000BB030CAD
:10A3B0002C26033078BC03302DE9F7431946DDE93C
:10A3C0000A5752EA0103044610463BD0072F3CD8F7
:10A3D0002246FFF74FFF30B91D4B9B68DB0705D5C1
:10A3E0006FF084002BE010F18C0F28D1184E194A21
:10A3F000194B47F44037B760B4F5807F0CBF9046E7
:10A4000098460027DFF854907560B5F5007F2C461C
:10A4100028BF4FF4007411482146FFF717FF234669
:10A4200032464046CDE900790D4900F025FA30B9B1
:10A43000B3682D1B23F44033B3602744E5D103B048
:10A44000BDE8F0836FF08600F9E76FF08500F6E76E
:10A45000B8BE033078BC033098BC0330B8BC0330BE
:10A46000C4BE03302DE9F347194652EA01030646FC
:10A470000A9F1046DDF8308037D03246FFF7FAFEEB
:10A48000054630BB1A4B1C68BC422ED30B9BE41B09
:10A490009C4228BF1C46174A174BDFF864A0B6F54C
:10A4A000807F0CBF91469946C8F80040B4F5007F04
:10A4B000264628BF4FF400763B46324648460F49B1
:10A4C000CDF800A000F0E3FA054630B10023C8F84B
:10A4D0000030284602B0BDE8F08731465046FFF70D
:10A4E000BFFEA41B3744E1D1F3E76FF08605F0E728
:10A4F000B8BE033078BC033098BC0330C4BE033010
:10A50000B8BC033038B50546194610462A46049CA7
:10A51000FFF7B0FE28B9034B1A689B68C4E9002214
:10A52000A36038BDB8BE033010B5044619461046C6
:10A530002246FFF79FFE80B9084B9B68DB070AD4D1
:10A540000748084B0849B4F5807F18BF1846BDE896
:10A55000104000F08CBA6FF0840010BDB8BE03301C
:10A5600078BC033098BC0330C4BE033008B5036820
:10A5700000209B689847002818BF6FF0910008BD25
:10A58000F8B51D46036804465B680E4617469847B3
:10A590000B4BC0F3410013F8202063680699E06874
:10A5A0001D442368B1FBF2F200FB065039469B695B
:10A5B00098470028B4BF6FF091000020F8BD00BF9D
:10A5C00014BB030C0020704770B504460E460025EE
:10A5D000E368AB4201D8002070BD606806FB030051
:10A5E00023682844DB69984710B9A3681D44EFE746
:10A5F0006FF09100F0E700002DE9F74F0C9C074643
:10A600009246002C55D0C26840681E183B6802FB79
:10A6100001665B689847284BC0F3410013F820801F
:10A62000B6FBF8F908FB09F94E4540D03B680DF13F
:10A63000040B0122594648465B699847002804DA12
:10A640006FF0910003B0BDE8F08FA6EB090162182E
:10A6500090458EBF2546A8EB06054D442A46504638
:10A66000594409F0E5FC641B1FD044450FD3B4FBEB
:10A67000F8F93B684A465B690AEB0501A819984757
:10A680000028DDDB08FB09F3E41A0ED01D443B680B
:10A6900001225B6901A9701998470028D0DB224686
:10A6A00001A90AEB050009F0C3FC0020CAE7002558
:10A6B000DBE72046C6E700BF14BB030C2DE9F04FD3
:10A6C00003688FB006AA04460E46D3F80C8000F04B
:10A6D000FEFB00285FD10BA800F0EBFE014600282E
:10A6E0005CD1DDE9067A202206A8099D09F0C5FCA7
:10A6F0003146204606AA00F032FD00284BD18346A1
:10A7000081462368DB8A5B4515D8002D35D1294663
:10A71000204602AA00F063FC00283CD129462046CE
:10A7200002AA00F07BFEB0BB204600F060FE78B3CA
:10A730006FF083002FE0B3451CD05946204606AA8F
:10A7400000F0C5FB38BB069BBB420DD10BA800F047
:10A75000B0FE48B9079B534506D9984528BF98468F
:10A760005B1B0793099B99445946204606AA00F0B3
:10A77000F6FC80B90BF1010BC3E743462A46394684
:10A780002046CDE900A900F0A3F920B9002FCBD1D4
:10A79000204600F087FB0FB0BDE8F08F6FF08B0014
:10A7A000F9E7F8B50D461746064660B359B352B3FC
:10A7B0000B8AE88A012BC96812D9032B10D0022B0F
:10A7C000AA8A23D1431CA1EB4313934234BF6FF0F9
:10A7D00086040024914201D26FF08604012302E036
:10A7E0006FF08604023B03EB40030133B1EB031F20
:10A7F00009D344B920222146304609F03EFCC6E97F
:10A8000000572046F8BD6FF08604FAE7914234BF46
:10A810006FF086040024E5E737B5054600F08BFDB0
:10A82000044658B94FF08071284601AA00F0B9FBE0
:10A8300038B928460199FFF741FF0446204603B086
:10A8400030BD10F18C0F18BF0446F7E700F097BC3D
:10A8500010B58AB0144602AB01AA00F073FB40B9F0
:10A86000059B6360049B2360BDF81830A3600AB0A9
:10A8700010BD6FF08B00FAE72DE9F04393B00DF1B6
:10A8800028080446894615460021202240461F46D6
:10A890001A9E09F0F2FB4FF6FF73CDE9043325B998
:10A8A0006FF0860013B0BDE8F083AB68B3F1807F32
:10A8B000F6D2236849465A8A6B682046013B134406
:10A8C000524213406B6004AA434600F03BFB002851
:10A8D00040F08780D5F808C004991CF4003F06D0EA
:10A8E0000D9A6B689A426FD10C90CDF838C00591E3
:10A8F0004FF6FF73059A9A427CD121686B68898A6A
:10A900008B42CDD806A9CDE9028105A90191A9689C
:10A910002046009104998A1A18BF0122494600F086
:10A92000B9FB0028BED1002F6CD120460A9906AA97
:10A9300000F074FD002851D105994246204600F0F0
:10A940000EFC0146002849D1DDE904539D4228BF91
:10A950001D4620462A4600F0D8FC00283ED14FF67E
:10A96000FF72049B93420FD0059A93420CD09A42F7
:10A9700038BF1A462046691C00F0C7FC70BBDDE9F1
:10A9800004539D4238BF1D4623682046DA8A691C5D
:10A9900000F0BBFC10BB0A9B002B62D1002F60D0E3
:10A9A000204600F07FFA00287FF47CAF4FF6FF735B
:10A9B000049999423FF476AF059B99423FF472AFF8
:10A9C0002046FFF77BFE6DE70E9B424643F0807307
:10A9D00020460E9300F0C3FB002889D06FF083005F
:10A9E00060E710F18C0F7FF45DAFAB68DB037FF5A0
:10A9F00059AF7DE720460A9906AA00F0F0FA002830
:10AA000091D0EBE723685B8A5A1E3242E6D17D1E65
:10AA10001D445B421D400C9B9E42DFD82A463146B6
:10AA20000D9800F03AFD0028D8D11B9B4246CDE995
:10AA300000532046334606A900F0C0F80028CDD1C7
:10AA40000C9B3E440A999E422046069D88BF0C9668
:10AA500000F023FA294606900A9A204600F07CFB73
:10AA600063E7204600F0C3FC002899D0B6E713B591
:10AA7000002301AA044600F065FA28B9204601998E
:10AA8000FFF71CFE02B010BD6FF08B00FAE770B547
:10AA90008CB015461C4603AA04AB064600F052FAD9
:10AAA00098B92A462146069800F0F7FC58B9109B41
:10AAB0002246009330462B4604A900F05EF8002899
:10AAC00018BF6FF083000CB070BD6FF08B00FAE719
:10AAD0002DE9F04786B01646DDE90E9702AA054635
:10AAE00088469A4600F07BFA044698B9049B414692
:10AAF00033442846049300F0D0F906467FB101465E
:10AB00004A462846CDE900A7029B00F0D0FB28B1B9
:10AB10006FF08304204606B0BDE8F0870127039A52
:10AB20004A450BD2A9EB0203CDE900233146284662
:10AB3000029B00F0BCFB0028EAD1012742462846D0
:10AB4000029900F009FB4146284602AA029600F04D
:10AB500065FC044628B142463146284600F0FCFA1E
:10AB6000D8E7B8F1000FD5D0002FD3D06B683146AD
:10AB7000DB68286898470446CCE72DE9FF410D467D
:10AB8000164609686A4604461F46DDF8288000F02C
:10AB900026FA70B900994B1C0BD062686B680A9753
:10ABA00055684246AC462068334404B0BDE8F041E5
:10ABB00060476FF0830004B0BDE8F0812DE9F347F2
:10ABC0001546DDE90AA90F4698461168044600F0CB
:10ABD00064F96B687A689844A8EB0203CDE9002316
:10ABE000064601463B68204600F061FB20BB6368D7
:10ABF000CDF800A0D3F808A04A4643463146206865
:10AC0000D047C8B9EB686A68B9681A442368204617
:10AC1000DB685B1A9B1ACDE9002331463B6800F0E4
:10AC200046FB48B92B683BB1314663682068DB6856
:10AC300002B0BDE8F047184702B0BDE8F08713B591
:10AC400010244B1C416800948C681B01C16900688A
:10AC5000A04702B010BD436810B5C16904461B6926
:10AC60000068984750B923681A8A022A06D9626890
:10AC7000A1681846BDE810401269104710BD008A4F
:10AC8000022814BF03380020704708B5FFF7F7FF0C
:10AC9000013100EB4100000108BD2DE9F04F002417
:10ACA00005460F46904626464FF010098BB0D5F862
:10ACB00000A05046FFF7E3FF013086420ED3002686
:10ACC0004FF02009D5F800A0BAF816309E421BD3E9
:10ACD000002088F800400BB0BDE8F08F6B680136AB
:10ACE000CDF80090D3F804B039465046330102AA9B
:10ACF000D8470028EFD102AB13F8012B0130102800
:10AD000084EA0204F8D1D2E76B6831465046D3F8A2
:10AD100004B0FFF7BAFF02AA034639465046CDF801
:10AD20000090D8470028D6D102AB13F8012B013090
:10AD3000202884EA0204F8D10136C3E737B5837BC3
:10AD400001685A1CD2B28273097E04469142C169DD
:10AD500004BF02338373012900F10D020ED8FFF7FF
:10AD60009CFF48B91022636800929D68E169034620
:10AD700004F108022068A84703B030BD6FF08600D8
:10AD8000FAE713B50C46114622790346012A09D188
:10AD9000036862791B7E9A420CBF6FF0830000202B
:10ADA00002B010BD022A04D11B68A2791B7E9A4210
:10ADB00002D16FF08300F3E701290DD80DF10702EE
:10ADC000FFF76BFF0028EBD162799DF807309A42BC
:10ADD00018BF6FF09100E3E76FF08600E0E7102204
:10ADE000F0B543688BB000925C68002302AA054668
:10ADF00019460068A0470246002834D000264FF0CC
:10AE0000FF3410226B6800925F68012100232868DC
:10AE100006AAB847002839D10122284606A9FFF71B
:10AE2000B0FF002832D1002E35D02B689DF81E20AF
:10AE30001B7E9DF80E10B3FA83F35B0993421BD17E
:10AE4000002A0CBF01230223994203D191422CBF57
:10AE5000002601263446AC61B4FA84F4002064096B
:10AE6000EC610BB0F0BD284602A9FFF78AFF04464B
:10AE70000028C3D10126C4E78B42E7D1002B0CBFC9
:10AE8000012302239342E1D00646E3E7002EE2D1FC
:10AE90006FF08300E5E70124DDE709B9C069704779
:10AEA0008068704710B50446FFF748FF70B96368C3
:10AEB000E169DB682068984740B9D4E90623204659
:10AEC000C4E90632BDE81040FFF7C5BE10BDF7B5B6
:10AED000066805463046FFF7D8FE0346202069681D
:10AEE00000904F683046A9691446B847064640B9F5
:10AEF0002868FFF7C4FE23680130834204D36FF053
:10AF00009706304603B0F0BD04F1140000F0D1FA0A
:10AF10000028F6D12D68E268AB8A9A42EFD8A36880
:10AF20009A42ECD3D4E900372BB92846E98AFFF7D7
:10AF3000ACFEB842E3D83946E86800F0AEFA002823
:10AF4000DFD0DCE72DE9F0430746884691461C46F2
:10AF5000002589B03B68DB8AAB4202D86FF08B06D4
:10AF600016E06A4629463846FFF7B1FFB0B90C2211
:10AF7000414605A809F00AF8064668B9C9F8005024
:10AF800034B16D460FCD0FC495E80F0084E80F0073
:10AF9000304609B0BDE8F0830135DBE76FF083068A
:10AFA000F6E7F0B505460E461746002489B02B6833
:10AFB000DB8AA34202D86FF08B0009E06A46214683
:10AFC0002846FFF784FF38B9049B1E4202D03C603C
:10AFD00009B0F0BD0134EAE76FF08300F8E773B51C
:10AFE0004B1C06464168102000904C683068B169DF
:10AFF0001B011546A047044630B9336829681A8AF0
:10B00000914204D36FF09704204602B070BDD86817
:10B01000D5E9011200F041FA04460028F2D12B686C
:10B02000012B03D83068C18AFFF72FFE6B6883427B
:10B03000EAD0E7E773B54B1C054641681020009045
:10B040004E681B01A96928681446B047034630B909
:10B050002B6821681A8A914204D36FF0970318462F
:10B0600002B070BDD868D4E9011200F016FA0346A8
:10B070000028F2D12268012A08D82A681046FFF772
:10B08000FEFDD28A013200EB42000001626882427A
:10B09000E5D0E2E72DE9F04F06468B46914698460B
:10B0A000002789B0DDE9145A3068FFF7E8FD013068
:10B0B000874202D36FF08D0421E052463946304674
:10B0C000FFF78DFF0446002835D1DAF808209045B7
:10B0D0002FD833685946DB682F609B1A6B600C22AF
:10B0E000C5F80C8005F1140008F0A2FF129BAC60BB
:10B0F0002B61DAF80830A3EB0803CAF80830002502
:10B100003368DB8A9D4205D26A4629463046FFF7FE
:10B11000DEFE98B14FF6FF75139B1D60CCB94FF65C
:10B12000FF739D4208BF6FF08D04204609B0BDE853
:10B13000F08F0137B8E76FF08304E0E705A800F06F
:10B14000B8F920B1B9F1000FE6D14FF0010901358E
:10B15000D6E76FF08D04E8E702B18160704773B500
:10B16000056804462846FFF790FD034620206168E5
:10B1700000908E682846E169B04702B070BD70B596
:10B180008CB00546FFF72BFE002861D1EE696B6895
:10B1900031461B69286898470446002878D1B6FADA
:10B1A00086F16B6828681B6949099847044600289E
:10B1B0006ED12A680126137EB3FA83F35B09AB7361
:10B1C000138AC5E90606022B14BF02230123AB60D4
:10B1D00002232B73D18A1046FFF757FDD36821460F
:10B1E0001B1A01906A46284602930096FFF727FD36
:10B1F000044600284CD106462B680190DB68029378
:10B200002B681846FFF73BFDB04223D8002C4BD1EA
:10B210002B681846FFF733FDA04228D820220021D2
:10B2200004A808F02AFF00242B68DB8AA34232D846
:10B230002846FFF783FD48BB6B68E969DB6828682F
:10B240009847044620BBD5E90623C5E906321FE02E
:10B2500000269CE7198A6A68022914BF032100218D
:10B26000184631441269904701360443C8E71B8AE7
:10B270006A46022B14BF03230023234401342146D2
:10B2800028460093FFF7DBFC0028C1D06FF0830451
:10B2900020460CB070BD2146284604AAFFF75FFF88
:10B2A0000028F3D10134BFE76FF09104F0E72DE9F6
:10B2B000F04F0446884616469946C3B0DDE94CA5D2
:10B2C0001DB9284643B0BDE8F08FB5F5807F2F4605
:10B2D00028BF4FF4807763680097D3F804B04946DD
:10B2E0005346206802AAD8470028EBD1636800972C
:10B2F000D3F808B041463346206802AAD847002850
:10B30000E0D13E44BA44ED1BDAE773B50668044663
:10B310003046FFF7BAFC1546024629463046FFF78D
:10B32000B4FC801ACDE900202046D4E90631FFF7AD
:10B33000BEFF02B070BD2DE9F041436805461B68B1
:10B34000006886B09847044628B92846FFF747FDAD
:10B3500028B16FF08304204606B0BDE8F0811026C6
:10B360006B6805F108070096D3F804803A46234637
:10B37000A9692868C0470028EBD139462846AA6940
:10B38000FFF7FFFC0028E4D12846FFF764FC0446E1
:10B390000028DED12B7B012B24D1014602AA2846AE
:10B3A000FFF748FE04460028D5D1049B2A68C3F164
:10B3B000FF23D26803F57F03F0331344CDE9006324
:10B3C00032462846AB69E969FFF771FF0446002859
:10B3D000C1D16B7B2846AB7302232B73FFF762FD51
:10B3E0000446B8E7022B18BF6FF08304B3E710B52B
:10B3F00086B0002102AA0446FFF7F1FD60B920687B
:10B40000039A049BD118C36820465B1ACDE9002338
:10B41000D4E90631FFF74BFF06B010BDF0B5054685
:10B420000C4687B009B9C369136021462846FFF767
:10B4300006FC0146C0B9D5E906767CB9002128682A
:10B44000FFF723FCA21C1201801ACDE900203B4625
:10B4500031462846FFF72BFF07B0F0BD284602AA69
:10B46000FFF7BDFD014610B16FF08300F4E72846F9
:10B4700002AA0296FFF7E3FB0028F5D1012CDDD0EC
:10B4800020222301103B019331463B46284600927F
:10B49000FFF70DFF0028D1D0DEE7814206D8401A21
:10B4A000904234BF6FF08600002070476FF0860036
:10B4B000704700F10C0310F8012B22B99842FAD121
:10B4C0006FF08B007047002070472DE9F041036852
:10B4D0000446A3F2F233A6B0032B00F2FD80DFE8AE
:10B4E00003F00D029195042200F1200353F8040D9E
:10B4F0001146013A002852D00A4652E000230421A6
:10B50000169300F1200353F8040D0A46013908B1DF
:10B51000114601E00029F6D1042204F1300353F86A
:10B52000045D1046013A0DB1024601E0002AF6D151
:10B530002369042B03D0012026B0BDE8F081206AE6
:10B540000428F8D80129F6D1012AF4D10021606835
:10B5500006AA06F01DFF0428EDD1A368002B16DB18
:10B5600000220699A06801F051FB0028E3D1216A6E
:10B57000069816AA01F003FB05460028DBD1236AD2
:10B5800016AA0021606806F00FFF2846D4E7069847
:10B5900006A901F050FB0028E2D00220CCE7002AE7
:10B5A000A4D1042104F1300353F8045D08460139A5
:10B5B0000DB1014601E00029F6D12369042BBAD16F
:10B5C000012AB8D10029B6D1606816AA06F0E0FEBB
:10B5D0000428B0D1A368002B0DDB00221699A068C7
:10B5E00001F014FB0028A6D1169801F0FDFA0038EE
:10B5F00018BF0120A0E7169816A901F01CFB00282F
:10B60000EBD0CAE701F034F9002095E700250426C5
:10B610000DF1180840222946404616AFCDE90255E3
:10B62000CDE9045508F029FD40222946384608F0A6
:10B6300024FD019504F1200353F8041D3246013E18
:10B6400059B133461646042504F1300252F8040D70
:10B650002946013D30B10D4606E0002EECD14FF0F9
:10B66000FF33F0E7002DF1D12B43012B02D96FF00E
:10B67000800061E70423002160680DEB030206F0FF
:10B6800087FE0428F3D1022E1FD16669402E20D8F0
:10B69000334642460121606806F07AFE8642E6D1D2
:10B6A000CDE9028602A995B1236A402BDFD8CDE906
:10B6B000047304AE3246019801F0DDF80546002E11
:10B6C0003FF463AFDDE904235BE70021EBE72E469F
:10B6D000F0E76FF089002FE76FF085002CE708B5E1
:10B6E00001F04BFA002814BF6FF09200002008BD53
:10B6F0000368D90444BF43F4806303609A0444BFE1
:10B7000043F40063036070472DE9F04F9046002238
:10B710000446ADF5217D06AD2846039108AE1146DD
:10B720001F46FEF74AF9A26C40F203113046FEF7BD
:10B7300044F94FF40872002118A808F09EFC182262
:10B7400000210BA808F099FC00211A220DF14600F7
:10B7500008F093FC4FF6F87241F20103B2EBC70F09
:10B760004FF6FF72ADF828304FEAC70338BF1346D3
:10B77000ADF82A30012305A80593FFF7B9FF036848
:10B78000DFF8A4B00C934FF480430360FFF7B0FFE1
:10B790000368214613934FF49053226BADF8443065
:10B7A00011A83346CDF850B00AF07EFB0DF10C0A1B
:10B7B00004460DF1280938BB594618A80CF0CCFFF7
:10B7C000044608BB96E80C0040F2011118A80DF0E1
:10B7D00033F80446C0B90423524640F2032118A8A6
:10B7E0000CF0ECFF044678B92A46484618A90CF03C
:10B7F000A7FF044640B9AA9B4246009395E8030080
:10B800003B460AF0A3FA044618A80CF027F996E87C
:10B8100003000AF026FA95E803000AF022FA20460F
:10B820000DF5217DBDE8F08F090100082DE9F047F5
:10B8300000249EB006A8069409F084F90646DFF8B5
:10B84000C4802F4FB44203D100201EB0BDE8F08762
:10B85000069B4FEA441903EB4412116941454DD14F
:10B860000021956809A853F80920FEF7A6F81C22C4
:10B8700000210BA808F001FC0DF1160302930698B5
:10B8800008AB019305AB00934844D0F814A03022D4
:10B89000806907AB12A9D04700282FD14FF6F87165
:10B8A0004FF6FF72099B10930A9B1193BDF8143059
:10B8B0008B4288BF1346ADF82E30089B1C220E9396
:10B8C000BDF816300BA9ADF82C30069B4B441B6914
:10B8D0000C9313F0FF0308BF109354235D4305F14D
:10B8E000340038443D4408F0A3FB2846079A12A9C7
:10B8F00008F09EFB079B2B6301232B650134A1E716
:10B90000D0BE0330010100807FB51546CDE90001AE
:10B9100012B300240646146003A8039409F012F938
:10B92000039BA04209D01A4652F8201B8E4208D130
:10B93000D3E90221931E0B4306D16FF08B0004B0B4
:10B9400070BD13460134ECE75421054B002001FB88
:10B9500002331B6B2B60F2E76FF08600EFE700BF4E
:10B96000D0BE03302DE9F04F87B01F46109B012851
:10B9700006461446DDF84490009304D96FF0860023
:10B9800007B0BDE8F08F542141433F4D019101EBD9
:10B99000050ADAF85030002B6FD0002AEED0D2E939
:10B9A00005B8002302A8029309F0C6F80023029A02
:10B9B0000199984250D094465CF80CEBF3454DD178
:10B9C000D2E901C3BCF1000F07D0002253F83200C6
:10B9D00080453ED103EBC2035B6834311C2229440D
:10B9E0002046019308F024FB5A46414604A8FDF77F
:10B9F000E4FF0499626861610599019BA161D1B27C
:10BA000021B922F0FF0242F00102626003A8039311
:10BA1000FFF76EFE542303FB06531A6B009B03993A
:10BA20009A42A1602CD8002FA8D0B9F1000FA5D060
:10BA30004B0416D540F20313984512D03A464146BE
:10BA40005046009BCDF8409007B0BDE8F04FFFF79F
:10BA50005BBE01329445B9D10023BEE76246013393
:10BA6000A7E75146384608F0E3FA542303FB06558E
:10BA70002B6B0020C9F8003082E76FF08B007FE766
:10BA80006FF089007CE700BFD0BE03300A5B4372D1
:10BA90007970746F5D20556E737570706F72746518
:10BAA000642072657175657374210A0054462D50C7
:10BAB00053412D43727970746F20312E312E300036
:10BAC000000070FF76FF7CFF79FF5053415F494FC4
:10BAD000545F50524F46494C455F3100799C030CEE
:10BAE000559C030C1D9C030CF99B030CDD9B030C64
:10BAF000B19C030C819B030C499B030C0D9B030C15
:10BB00006DA5030CF9A5030C81A5030CC5A5030CB9
:10BB1000C9A5030C010000000200000004000000A1
:10BB2000E01A040C80BF03302D000000601A040CE2
:10BB30000026033020000000601A040C00000330CF
:10BB40000000000040C003302015000080260330B4
:10BB5000402600000000033080020000074AD2F8AF
:10BB6000883043F47003C2F8883002F50032D2F80E
:10BB7000883043F47003C2F88830704700ED00E06D
:10BB8000704738B50446002839D0437A03F0FF02E5
:10BB900013B90272FFF7F4FF02232268637213687D
:10BBA000616823F004031360136823F0804323F0DB
:10BBB00020030B4343F080431360136823F080435A
:10BBC000136006F0ABFA054623681A68510009D4E1
:10BBD0001A6842F004021A605B685A0611D5042301
:10BBE00063720CE006F09AFA401B0428ECD9236833
:10BBF0001B685800E8D5012363720223E36001202B
:10BC000038BD06F08BFA05462368586810F004002A
:10BC100003D101236372E060F2E706F07FFA401B74
:10BC20000428F1D923685B685B07EDD50423E3E7BB
:10BC30007047002307B5019303685A68510709D478
:10BC40005A6822F040025A60C36823F00803C360B8
:10BC5000002018E01A6842F080421A601A6822F048
:10BC600080421A6004220192019A013A0192019ADB
:10BC700062B901234372C368027243F00203C360D6
:10BC8000FFF7D6FF012003B05DF804FB1A685200ED
:10BC9000EAD45A68510642BF5A6822F040025A60FC
:10BCA00004220192019A013A0192019A002AE0D0FD
:10BCB0005A685207F6D4C7E7F8B5037A0446012B51
:10BCC0000E4643D00123427A03729A42D5B239D14B
:10BCD0000223437203685B685F061BD406F01EFAFA
:10BCE000074623685A68D0071CD59A6859682261AC
:10BCF000490642BF0822E2605A684FF0000544BF7F
:10BD000022F001025A604FF0010358BF32606372A3
:10BD1000002315E00823C360FFF78BFF0128DDD166
:10BD20002846F8BD06F0FAF9C01B0428D9D92368C3
:10BD30005B6813F00103D4D1012262720222E26037
:10BD40002372EDE704221D46C260E1E70225E7E722
:10BD5000042A09DB0B68036000F1040001F104010F
:10BD6000A2F10402042AF5DA002A09D00B78037044
:10BD700000F1010001F10101A2F10102012AF5DA4D
:10BD800070470000044B82B0186883B26FF30F0055
:10BD9000184302B0704700BF2C17040C0C207047EA
:10BDA00000207047012805D902280CBF00206FF041
:10BDB000040070476FF0030070476FF00300704796
:10BDC000014B1868704700BFD0EB03300048704744
:10BDD0001417040C08B54FF47A7000F05DFA0020D7
:10BDE00008BD00000C4B70B55A6992B11C69002364
:10BDF00001390144151DA34201D1002070BD52F844
:10BE00003360864203D855F83360B14201D901331B
:10BE1000F1E70120F2E700BFACBF03302DE9F041AC
:10BE20001446204B96001A78074622F002021A7038
:10BE3000421E02EB8402B2F5001F0D4611D31A4ACE
:10BE400094693CB16FF004001A7842F002021A7053
:10BE5000BDE8F0813246FF21284608F00EF9204661
:10BE6000F6E70023DFF844803146C8F80030FFF7DA
:10BE7000B9FF324690B107F140612846FFF768FFED
:10BE8000D8F8003023B132460021284608F0F5F8F2
:10BE9000002324F04040C8F80030D9E707F10061E2
:10BEA000EBE700BFD0EB0330ACBF0330D4EB033083
:10BEB00038B50E4D6B68DC0709D40C4B5A689007F7
:10BEC00011D45A68520744BF0422DA6038BD06F024
:10BED00025F904466B689907EFD406F01FF9001B9B
:10BEE0000128F7D9E9E70222DA60EAE70004035003
:10BEF0000B4A10B5D36823F00203D36006F056F95D
:10BF000006F00CF9044606F06DF940B106F006F9AA
:10BF1000001B0128F7D906F065F90028F3D010BD01
:10BF2000000403502DE9F04F454F87B03B784FEAAE
:10BF30008208019123F002034146064615463B70F4
:10BF4000FFF750FFF0B14FF0020B4FF0406A721E46
:10BF50004244B2F5001F0CD248EA060414F00F0464
:10BF600007D1384BD3E902C1234601F1040E6345E2
:10BF70000DD16FF004003B7843F002033B7007B033
:10BF8000BDE8F08F4FF0006ADFF8BCB0DFE751F892
:10BF90003300864203D35EF83300824244D9013332
:10BFA000E5E700F04DF93B7843F001033B70019B5E
:10BFB0001022191902A808F03BF8029B049A05996F
:10BFC0001A40039B0B40B3F1FF3F08BFB2F1FF3FA4
:10BFD00024D00AEB0601584602AA214400F0A8F931
:10BFE00081461034A04502D0B9F1000FDFD03B7874
:10BFF000414623F0010330193B70FFF7F3FE80B197
:10C0000000F03EF9FFF754FF06F0C6F8B9F1000F53
:10C0100025F0404018BF4FF0FF30B0E74FF0000967
:10C02000DFE700F021F9EDE7FFF762FF4146304618
:10C03000FFF7D8FE0028B4D100F0EEF8B3E700BF58
:10C04000D0EB0330ACBF03300200008070B5B0F518
:10C05000001F044686B008D2C0F30C032BB92F4A48
:10C06000D2E90012101D8B4208D16FF004002C4A57
:10C07000137843F00203137006B070BD52F83350CA
:10C08000AC4203D350F83350AC4207D90133EAE74E
:10C0900000F0C2F824E000F0E7F836E00421204682
:10C0A000FFF7A0FE00281F4B18BF0423B4F5801F24
:10C0B000029334BF0123022303930123184E0593F7
:10C0C000630B0493FFF714FF3378042123F002037A
:10C0D00020463370FFF786FE0028D9D000F0B0F874
:10C0E000337801A943F0010302A8337000F0E4F9AA
:10C0F0003378054623F00103042120463370FFF70F
:10C1000071FE0028C7D000F0BBF8FFF7D1FE06F0A3
:10C1100043F8281E18BF01204042ADE7ACBF0330F2
:10C12000D0EB033004000080084BD3F80421002A30
:10C130000ADAD3F8042142F00042C3F80421044A89
:10C140001368013313607047FEE700BF0020025000
:10C15000D4EB03300C4B10B50C4A9C680C4B13EA23
:10C16000240338BF13461A6842F002021A60EFF344
:10C17000108272B60023CC58C4500433102BFAD16D
:10C1800082F3108810BD00BF90BF03302C200250F6
:10C190002820024030B50F4DAB68002BAABF0E4BD4
:10C1A0000E4B0F4A1C68B8BF0E4A44F002041C60D4
:10C1B000AB68146803F0040323431360EFF31082A9
:10C1C00072B60023CC58C4500433102BFAD182F33A
:10C1D000108830BD90BF03302C2002502820024030
:10C1E0004420025040200240084B10B5084A9C6889
:10C1F000084B13EA240338BF13461A6842F00202C0
:10C200001A600B889BB2038010BD00BF90BF033043
:10C210002C20025028200240074B9A6AD20741BFC7
:10C22000064A5A6002F188325A6046BF986A00F0A6
:10C2300001000120704700BF002002502301674524
:10C24000074BDA6AD20741BF064A9A6002F1883288
:10C250009A6046BFD86A00F001000120704700BF15
:10C260000020025023016745044B9A6A42F0010204
:10C270009A62986AC04300F00100704700200250A3
:10C28000044BDA6A42F00102DA62D86AC04300F075
:10C290000100704700200250F8B5054605F03EFF4A
:10C2A0001D4E1E4CB2681E4B074614EA220438BFCE
:10C2B0001C46236813F00B0F1AD1B168194B1A4AA8
:10C2C0001A4812EA210238BF1A462168036A01F4AB
:10C2D0007E0103F400030B4315D0716819437160AC
:10C2E00013601A0202D54FF40003036301200EE02D
:10C2F000691CDED005F012FFC01BA84201D8002D3A
:10C30000D7D1032003E02368DB0301D40020F8BD6C
:10C310004FF480331360F9E790BF033020200240D0
:10C3200024200250342002503020024000200250CD
:10C330002DE9F041264D04462B780E46012B174679
:10C3400044D001232B7000234FF47A706B60FFF709
:10C35000A3FF50BB1F4B204AAC6012EA240838BF31
:10C36000984624F00043022B23D139463046FFF78C
:10C37000F1FE4FF47A70FFF78FFFD8F8003024F009
:10C38000304222F0040223EA0203C8F80030134BC3
:10C390009C420AD1A968124A124B13EA210338BF02
:10C3A00013461A6822F004021A6000232B70BDE8BD
:10C3B000F0810D4B24F004029A423946304602D1F6
:10C3C000FFF7E8FED5E7FFF70FFFD2E70220EEE721
:10C3D00090BF03302C20025028200240060000109D
:10C3E000442002504020024002000010124B134A29
:10C3F0009968134B13EA210338BF134600F0030278
:10C40000032A06D11A6842F4004242F020021A6060
:10C410007047C10707D51A6822F0004222F02802AF
:10C4200042F028021A608207F2D51A6842F00042F0
:10C4300042F02802EBE700BF90BF03302C200250EF
:10C4400028200240064B074A9968074B13EA21034C
:10C4500038BF13461A6842F008021A60704700BFDE
:10C4600090BF033044200250402002400F4B104A3E
:10C4700010B59C680F4B800113EA240338BF1346A4
:10C48000C9071A680AD522F0004222F4FE521A6047
:10C490001A68024342F024021A6010BD22F4FE52D0
:10C4A0001A601A68024342F00042F3E790BF03307B
:10C4B0002C200250282002402DE9F843294E054641
:10C4C00033788946012B4AD00123337000234FF47F
:10C4D0007A707360FFF7E0FE0446F0B92B682249DA
:10C4E000224AB36011EA230838BF904648F2080296
:10C4F00023F00041914215D16868FFF777FF4FF4B0
:10C500007A70FFF7C9FE04462A68D8F8003022F096
:10C51000004223EA0203C8F80030002333702046AB
:10C52000BDE8F883082B02D1FFF78CFFE7E74FF057
:10C53000FF33C9F80030AF68D5E902231344BB428A
:10C54000E2D938466968FFF791FF4FF47A70FFF738
:10C55000A3FE10B1C9F80070D5E70137ECE702245B
:10C56000DDE700BF90BF0330282002402C2002509E
:10C57000B1F5417F30B580F08C80050F00F01F02CF
:10C5800002EB45145A2C00F28480830658D5002C07
:10C590007FD140F201138B432BD13F4B1A694FF0EF
:10C5A000FF321A6158693D4A02435A619A6942F062
:10C5B000BF6242F4FF2242F4E06242F003029A6159
:10C5C00040F202238B4327D1334B1A6A4FF0FF32DC
:10C5D0001A62596A314A0A435A629A6A42F0BF6241
:10C5E00042F4FF2242F4E06242F003029A62002029
:10C5F00030BDCD05E4D5284B1A691C615869284A1D
:10C6000002405A619A6922F0BF6222F4FF2222F4AA
:10C61000E06222F00302D2E78C05E8D51E4B1A6ACD
:10C6200000221A62596A1E4A0A405A629A6A22F025
:10C63000BF6222F4FF2222F4E06222F00302D5E777
:10C6400040F20110174B88432B444FEA83030FD16C
:10C6500001201C6890402043186040F2022088436B
:10C660000ED10121186901FA02F202431A61BEE7F4
:10C67000C805F2D501241868944020EA0400EBE7CD
:10C680008905B4D50120196900FA02F221EA0202F3
:10C69000ECE70120ACE700BF0024035007FF0FFFC9
:10C6A000F800F00004C90014036843F001030360BC
:10C6B0007047000020F0805323F48023B3F1005F23
:10C6C000F0B504D0244B20F080529A4242D10E683B
:10C6D00036F000433ED14C6834F080453AD120F02A
:10C6E0008050B0F1005F2DD01C4B98422ED04FF4FB
:10C6F000A0201B4B0022800B01F1840702F1800C6B
:10C7000057F804EF0132904243F82CE0F6D126436B
:10C710000A1D05F1400452F8047F0135A84243F890
:10C720002470F6D14FF0FF32824000201C69D1F80E
:10C73000081122400A431A611A6822F0404232432B
:10C740001A60F0BD4FF48020064BD3E74FF48030E1
:10C75000054BCFE70120F4E700000520000004208E
:10C7600000340350002C03500030035020F0805060
:10C77000B0F1005F30B52BD01A4B98422CD003F5A6
:10C78000803398422CD14FF4A023174C980B236888
:10C79000043103F080420A604FF0FF3203F000439F
:10C7A00041F8043C2369824023EA0203C1F80431C2
:10C7B000002304EB8302D2F80051013341F8045FF7
:10C7C000D2F800229842C1F88020F2D1002030BD7A
:10C7D0004FF48023054CD9E74FF48033044CD5E760
:10C7E0000120F4E70000042000340350002C035023
:10C7F00000300350030F00F01F0101EB43127D2AAC
:10C8000019D880060CD5B2B94FF0FF320B4B1A6025
:10C810000B4A5A600B4A9A600B4ADA600020704754
:10C82000012203F1A05303F54A439B0018688A4094
:10C8300002431A60F2E70120704700BF002803504E
:10C8400007FF0FFF03FFFF05FF0F3F3FBFF34F8FB2
:10C850000549064BCA6802F4E0621343CB60BFF39C
:10C860004F8F00BFFDE700BF00ED00E00400FA05B8
:10C8700008B5FFF7EBFF0320704748B14FF4403293
:10C880004FF48043C0E90023012303720020704766
:10C890004CF2DA20704748B14FF450324FF48043E5
:10C8A000C0E9002301230372002070474CF2DA2014
:10C8B00070470000BFF34F8F0549064BCA6802F46A
:10C8C000E0621343CB60BFF34F8F00BFFDE700BFB3
:10C8D00000ED00E00400FA050A4B37B51B786BB198
:10C8E000094C6369984748B9E56AA847C307FCD46F
:10C8F000236A019303B0BDE830401847002003B01D
:10C9000030BD00BFD8EB03307C18040C10B50B4CC5
:10C910000020A368984780B902202369984760B92E
:10C920004FF4E1310120A46AA04730B9012115205C
:10C93000A04710B90122024B1A7010BD7C18040CDC
:10C94000D8EB0330FFF7C8BF07B50421072001AAC1
:10C9500000F0D6FB40B9019B072B02D8034A32F8FE
:10C96000130003B05DF804FB0020FAE73017040C55
:10C9700073B50A4605460E4601680A2000F0C0FB62
:10C98000044670B90A2001A900F086FB044640B9AC
:10C990002968019B3046994228BF194607F03CFBA5
:10C9A0002860204602B070BD034618B111B10020C6
:10C9B0001860704743F65C2070470A46014606201F
:10C9C00000F09EBB13B50A4604460168082000F03B
:10C9D00097FB50B9082001A900F05EFB28B9226836
:10C9E000019B9A4294BF2260236002B010BD73B5D0
:10C9F0000A4605460E460168092000F081FB044600
:10CA000070B9092001A900F047FB044640B9296824
:10CA1000019B3046994228BF194607F0FDFA28606D
:10CA2000204602B070BD37B50422BD3084000D46EB
:10CA300020460DEB020100F073F958B9019B5A1C16
:10CA40000AD0AB420BD8042220460DEB020101951F
:10CA500000F0A6F903B030BD45F2A350FAE74AF260
:10CA6000C530F7E770B5A2B00D4601A9064600F043
:10CA700013FB044610BB019B802B28BF8023B5EB22
:10CA8000C30F019321D80146802202A807F0F5FACE
:10CA9000FF21EA0802ABA24213D104F188030DEB97
:10CAA0000304012305F00705AB40013B3046019923
:10CAB00002AA04F8803C00F0C7FB0446204622B0DE
:10CAC00070BD03F8011B0134E5E745F2A354F5E717
:10CAD000F0B5A3B00D466946064600F0DDFA0446FF
:10CAE000C8B900993046802928BF802102AA009148
:10CAF00000F006FB044670B901460246009F019013
:10CB000002ABB8420AD102B10191042228460DEBD2
:10CB1000020107F08DFA204623B0F0BD002213F881
:10CB200001CB4CFA02F6013206F00106082A314424
:10CB3000F7D101220130E4E706281BD8DFE800F036
:10CB400004090D111416180004224FF43D7000F072
:10CB5000E7B804224FF43E70F9E704224FF43F7027
:10CB6000F5E71020FFF7B4BF1120FBE71220F9E72B
:10CB70001320F7E74CF25A30704700F0E5B904296A
:10CB800002D11146FFF7D8BF43F65C20704737B596
:10CB900005460C46062824D8DFE800F004151719CE
:10CBA0001D1F21000020FFF73EFF50B9284601A9B4
:10CBB000FFF7C2FF28B943F65C23019AA24218BFCF
:10CBC000184603B030BD0120EDE70220EBE710204E
:10CBD000FFF748FFE9E71120FAE71220F8E71320F2
:10CBE000F6E74CF25A30ECE713B501A90446FFF71B
:10CBF000A3FF30B901994B1C05D020460131FFF746
:10CC0000C6FF02B010BD45F2A350FAE7022905D9CC
:10CC10000839022909D94CF25A307047B0F5807FA3
:10CC20004CF25A3008BF0020704700284CF25A30AE
:10CC3000B8BF00207047022804D819B10830086036
:10CC4000002070474AF2C530704700000048704726
:10CC500000FC04304FF480607047000070B504465B
:10CC6000074E4518A54201D8002070BD2046F36943
:10CC7000984710B904F50054F4E743F65C20F4E754
:10CC8000E816040C2DE9F84FDFF864A00746DAF83F
:10CC900004308846154698470024134BC0F34100E2
:10CCA00013F8209004F18003AB4294BF80262E1B22
:10CCB000B6FBF9FBDAF814305A460C493819984794
:10CCC00000280EDB5A46DAF81830084908EB040051
:10CCD0009847002805DB3444A542E3D80020BDE88E
:10CCE000F88F43F65C20FAE74017040CD9EB0330C9
:10CCF000E816040C08B54FF400514FF42830FFF744
:10CD0000ADFF48B9BDE808404FF400524FF4283158
:10CD10004FF42030FFF7B6BF43F65C2008BD00009B
:10CD20002DE9F347DFF874900546D9F804308846BA
:10CD300014469847184BC0F3410013F820A0B5FBE8
:10CD4000FAF70AFB175727BBA4B9384602B0BDE86B
:10CD5000F0870AFB06F6A41BF7D0012201A9A81947
:10CD6000C847002812DB224601A908EB060007F09D
:10CD70005FF9EAE7B4FBFAF605F52035324641469D
:10CD80002846D9F81490C8470028E2DA43F65C2711
:10CD9000DBE74AF2C537D8E74017040CE816040C65
:10CDA0002DE9F04F86187542C5F30C05354485B062
:10CDB000B5F5005F0446019104D943F65C2005B047
:10CDC000BDE8F08FDFF87881D8F804309847042266
:10CDD000584BC0F3410053F82070D8F8143056482F
:10CDE0000093FBB2B2FBF3F203A9009B9847039AAE
:10CDF000531C023208BF01230393002D34D024F4C6
:10CE0000FF5B2BF01F0BA5EB0B010BF52030FFF7A1
:10CE100025FF0028D1D1B5F5407FAA4628BF4FF4A1
:10CE2000407ADA4529D8B5F5407F5ED3FBB21027AA
:10CE3000B7FBF3F7414D3A4629463F48009B9847D8
:10CE4000B6F5407F5CD8042203A93C4807F0F0F80F
:10CE50003B4B3A4639493B489B69984708B1874262
:10CE6000ABD1FFF747FFAAE74FF400514FF4203052
:10CE7000FFF7F4FE0028C2D09FE70BF180039A452C
:10CE80002CBF4FF08009AAEB0B095FFA87F8B9FBBA
:10CE9000F8F82A494246009B0BF5283098475E4532
:10CEA00016D909EB0B039C4212D2A3455A4638BF50
:10CEB0002246111BA2EB0B009E4294BFC2EB06025E
:10CEC000C2EB0302019B19441C4B184407F0B0F855
:10CED0001B4B42469B6919490BF52030984710B10E
:10CEE00080457FF46AAFCB449BE74FF440724FF428
:10CEF00020314FF42830FFF7C5FE002896D05CE7BC
:10CF0000B4F5447F9FD2B4F5407F224638BF4FF43A
:10CF10004072019B111BA2F540700B44B6F5447F93
:10CF200094BFC2EB0602C2F544721946284407F0CA
:10CF30007FF888E74017040C00A30200D9EB033008
:10CF4000E816040C008302002DE9F0414D4F86B035
:10CF50000020BB68984700286BD104226946FFF780
:10CF6000DFFE044600283FD104224FF440700DEB51
:10CF70000201FFF7D5FE0446002835D1424E009B42
:10CF8000B34203D1019B013B03335ED97B689847D1
:10CF90003E4BC0F3410053F8205004224FF40050A0
:10CFA00004A9FFF7BDFE0446F0B904224FF40C506B
:10CFB00005A9FFF7B5FE0446B0B9049B4FF4005134
:10CFC000B3424FF4203013D1059B013B03330FD8FC
:10CFD000FFF744FE68BB4FF400524FF420314FF48A
:10CFE0002830FFF74FFE20BB204606B0BDE8F08199
:10CFF000FFF734FE0146E0B94FF08008EDB2802221
:10D00000234807F03AF8B8FBF5F84FF42035BF692C
:10D01000284642461E498035B847B5F5283FF7D126
:10D02000FFF768FE28B9042202A90296FFF7B8FEAE
:10D0300010B143F65C24D7E70123042203A94FF47F
:10D0400040700393FFF7ACFECDE704224FF40C5081
:10D0500005A9FFF765FE04460028C5D1059B5A1EA9
:10D06000033206D8019A934203D30233BCD1012A7A
:10D07000BAD1FFF73FFE43F65C23002818BF1C46D9
:10D08000B2E700BFE816040C1281DEC04017040CA2
:10D09000D9EB0330FFF758BF1E280BD8012303FA42
:10D0A00000F00A4B034043B9094B18420BD110F072
:10D0B000980F06D14CF25A307047202300200B60A5
:10D0C00070470423FAE74023F8E700BF65FF0040FC
:10D0D00000000F2037B50C4601A91D46FFF7DCFF05
:10D0E00050B9019B29469A4228BF1A46204603B0F0
:10D0F000BDE83040FFF714BE4CF25A3003B030BDEB
:10D1000013461E2870D8DFE800F0106F15191D2196
:10D1100025292D3135393D42474C51565B606F6FA3
:10D120006F6F6F6F6F6F6F656A000A460020042192
:10D13000FFF7D0BF0A4602202421F9E70A46032060
:10D140004421F5E70A4604204821F1E70A46052074
:10D150004C21EDE70A4606206C21E9E70A46072044
:10D160008C21E5E70A4608209021E1E70A460920DC
:10D17000B021DDE70A460A20D021D9E70A460B2074
:10D18000F021D5E70A460C204FF48871D0E70A4613
:10D190000D204FF49871CBE70A460E204FF414711E
:10D1A000C6E70A460F204FF41C71C1E70A4610205B
:10D1B0004FF4A871BCE70A4611204FF4C871B7E7D5
:10D1C0000A4612204FF4E871B2E70A4613204FF4E2
:10D1D0000471ADE70A461D204FF42571A8E70A4601
:10D1E0001E204FF43571A3E74CF25A307047F0B56A
:10D1F00093B00E4601A915461C46FFF74DFF00BB34
:10D20000019B934203D24AF2C53013B0F0BD402BCC
:10D21000F9D8304602A9FFF783FD0028F5D1224650
:10D2200002AB2819824205D12A4621463046FFF733
:10D23000B7FDEAE713F8011B12F8017BB943F1D0FF
:10D24000E1E74CF25A30E0E713461E2870D8DFE8D9
:10D2500000F0106F15191D2125292D3135393D425A
:10D26000474C51565B606F6F6F6F6F6F6F6F6F657D
:10D270006A000A4600200421FFF7B9BF0A460220CF
:10D280002421F9E70A4603204421F5E70A46042051
:10D290004821F1E70A4605204C21EDE70A46062021
:10D2A0006C21E9E70A4607208C21E5E70A460820B9
:10D2B0009021E1E70A460920B021DDE70A460A206D
:10D2C000D021D9E70A460B20F021D5E70A460C20E9
:10D2D0004FF48871D0E70A460D204FF49871CBE7E0
:10D2E0000A460E204FF41471C6E70A460F204FF489
:10D2F0001C71C1E70A4610204FF4A871BCE70A462A
:10D3000011204FF4C871B7E70A4612204FF4E871B4
:10D31000B2E70A4613204FF40471ADE70A461D2018
:10D320004FF42571A8E70A461E204FF43571A3E794
:10D330004CF25A30704700207047002070470000C0
:10D3400007B508216A460220FFF7DAFEDDE9000290
:10D350000C490D4B9A4208BF88420BD10B4800F094
:10D36000E3F80B4800F0E0F80A4800F0DDF80A485E
:10D3700000F0DAF808220021684606F07EFE03B0CD
:10D380005DF804FBA9B454B26D6F90A4BB19040CF2
:10D39000CA19040CF919040C1A1A040C13B5044622
:10D3A00068B10421072001AAFFF7AAFE28B9019B52
:10D3B000012B8CBF00230123237002B010BD4AF261
:10D3C000C530FAE707B520210020074AFFF73CFFE8
:10D3D00030B901230421072001AA0193FFF734FF8C
:10D3E00003B05DF804FB00BF5C18040C07B52021F6
:10D3F0000220214AFFF728FF00283AD10421032008
:10D400001E4AFFF721FFA0BB04211D4A0846FFF773
:10D410001BFF70BB202106201A4AFFF715FF40BBF7
:10D4200020210820184AFFF70FFF10BB20210920F8
:10D43000164AFFF709FFE0B920210A20144AFFF736
:10D4400003FFB0B920210B20124AFFF7FDFE80B97F
:10D4500040211D20104AFFF7F7FE18B14CF25A3355
:10D46000984206D103230421072001AA0193FFF764
:10D47000EBFE03B05DF804FB5017040C7017040CAE
:10D480007417040C7817040C9817040CB817040CC4
:10D49000D817040CF817040C1818040C07B504214D
:10D4A000072001AAFFF72CFE98B9194800F03CF8B4
:10D4B000184800F039F8184800F036F8174800F01E
:10D4C00033F8019B43B10421072001AAFFF718FE9E
:10D4D00078B103B05DF804FBFFF72DFF0028F8D109
:10D4E000FFF770FF0028F4D1FFF727FF0028EAD0EC
:10D4F000EFE7019B012BECD1FFF71DFF0028E8D1DE
:10D50000FFF774FF0028E4D1FFF717FFE1E700BF42
:10D51000BB19040C211A040CF919040C1A1A040C76
:10D5200008461146FFF7D8B90FB41FB5012106AB65
:10D5300053F8042B054800910021039307F0D8F914
:10D5400005B05DF804EB04B0704700BF21D5030CB3
:10D55000044B82B0186883B26FF30F00184302B017
:10D56000704700BFB418040C0120704700207047BA
:10D57000002070476FF003007047002070470020C4
:10D580007047002070476FF003007047002070471D
:10D5900010B50C46014630B12CB10448A2B200F0DF
:10D5A0003FFE204610BD6FF00400FBE75CEC03304B
:10D5B0000A4608B5014640B13AB14FF47A730448BF
:10D5C00092B200F0E4FC002008BD6FF00400FBE71D
:10D5D0005CEC033010B52B4B88B0D3F88C200724BB
:10D5E00042F00102C3F88C20D3F88C2003A902F08A
:10D5F00001020092009AD3F88C20234842F00102E5
:10D60000C3F88C20D3F88C2002F001020192019A19
:10D61000D3F8A42042F48042C3F8A420D3F8A43065
:10D620004FF4007203F480430293029B0223CDE97E
:10D630000323069301230794059300F02DF84FF47C
:10D64000806303A910480393079400F025F80F495D
:10D650000F4B0C220B6000234FF4E130C1E905238E
:10D660004FF40042C1E901030846C1E90333C1E9AF
:10D6700007234B6200F01AFD003818BF012040421A
:10D6800008B010BD000C0254000002525CEC0330E4
:10D6900000380150002070472DE9F04F00234FF073
:10D6A0000F094A4A4A4D02EA90280A6832FA03F4FE
:10D6B00001D1BDE8F08F012404FA03FA1AEA02024C
:10D6C00070D04C6824F01007022F16D14FEAD30C0B
:10D6D00000EB8C0C03F0070EDCF820604FEA8E0E96
:10D6E00009FA0EFB26EA0B0B0E6906F00F0606FA86
:10D6F0000EF646EA0B06CCF820600326D0F800B000
:10D700004FEA430E06FA0EFC2BEA0C0B6FEA0C06EE
:10D7100004F0030C0CFA0EFC013F4CEA0B0C012F39
:10D72000C0F800C040D9032C3CD0C76837408E6891
:10D7300006FA0EF63E43C660E60033D523F0030733
:10D7400007F1A84707F5083703F00306D7F860C0CC
:10D75000F60009FA06FE2CEA0E0C08FA06F646EA6E
:10D760000C063E66D743D5F8806014F4803F0CBFAA
:10D770003E401643C5F88060D5F8846014F4003F3D
:10D780000CBF3E401643C5F884602E6814F4801F19
:10D790000CBF3E4016432E606E68A40254BF3E404C
:10D7A00016436E60013380E7876806EA070CCF688E
:10D7B00007FA0EF747EA0C078760476827EA0A0C62
:10D7C00027099F4047EA0C074760AEE77F7F2B00A1
:10D7D000002002547047704770477047D0F88C2083
:10D7E00008B5222A036845D15B6AB0F86010826DE3
:10D7F0000B401370836D01338365B0F85E30013BDD
:10D800009BB2A0F85E30B0F85E309BB273BB02688A
:10D8100052E8003F23F4907342E800310368002986
:10D82000F5D103F1080252E8001F944621F00101EE
:10D830004CE80012002AF4D12021C0F88C100267B5
:10D84000C16E4267012912D1C26653E8002F22F04F
:10D85000100243E800210029F7D1DA69B0F85C1022
:10D86000D20644BF10221A62FFF7B7FF08BDFFF7C8
:10D87000B2FFFBE79A6942F008029A61F6E7D0F836
:10D880008C2008B5222A036842D1596AB0F860207A
:10D890001140826D22F8021B8265B0F85E20013AC9
:10D8A00092B2A0F85E20B0F85E2092B262BB53E85C
:10D8B000002F22F4907243E800210029F7D103F1F0
:10D8C000080252E8001F944621F001014CE80012C2
:10D8D000002AF4D12021C0F88C100267C16E426783
:10D8E000012912D1C26653E8002F22F0100243E84A
:10D8F00000210029F7D1DA69B0F85C10D20644BFE4
:10D9000010221A62FFF769FF08BDFFF764FFFBE70B
:10D910009A6942F008029A61F6E7000003682DE96F
:10D92000F047DD69D3F800909F68D0F88C2004465A
:10D93000222A40F0A980B0F868303BB9B4F85E30D4
:10D940009BB2002B40F08380BDE8F0874FF0000AC7
:10D95000B0F860804F4E07F00107AB06EED52368A4
:10D96000A26D5B6A03EA08031370A36D0133A3651C
:10D97000B4F85E30013B9BB2A4F85E302368DD69E9
:10D9800069072AD0EA070AD519F4807F07D0012257
:10D990001A62D4F8902042F00102C4F89020A8073F
:10D9A00008D53FB102221A62D4F8902042F0040256
:10D9B000C4F89020690708D53FB104221A62D4F850
:10D9C000903043F00203C4F89030D4F8903023B183
:10D9D0002046FFF701FFC4F890A0B4F85E309BB278
:10D9E000002BBAD1226852E8003F23F4807342E84A
:10D9F000003123680029F5D103F1080252E8001F25
:10DA00001046314040E80012002AF5D12021C4F828
:10DA10008C102267E16E6267012914D1E26653E837
:10DA2000002F22F0100243E800210029F7D1DA6923
:10DA30002046D20648BF1022B4F85C1048BF1A62D4
:10DA4000FFF7CBFE89E72046FFF7C5FE85E7B4F870
:10DA500068209A427FF678AF226802F1080353E803
:10DA6000003F23F08053083242E800312268002949
:10DA7000F2D1094B636752E8003F43F0200342E8CC
:10DA800000310029F7D15FE79A6942F008029A61F4
:10DA90005AE700BFFEFFFFEFDDD7030C03682DE957
:10DAA000F047DD69D3F800909F68D0F88C200446D9
:10DAB000222A40F0A780B0F868303BB9B4F85E3055
:10DAC0009BB2002B40F08180BDE8F0874FF0000A48
:10DAD000B0F860804E4E07F00107AB06EED5236824
:10DAE000A26D596A08EA010122F8021BA265B4F886
:10DAF0005E20013A92B2A4F85E20DD6969072AD05F
:10DB0000EA070AD519F4807F07D001221A62D4F8F7
:10DB1000902042F00102C4F89020A80708D53FB138
:10DB200002221A62D4F8902042F00402C4F8902035
:10DB3000690708D53FB104221A62D4F8903043F047
:10DB40000203C4F89030D4F8903023B12046FFF798
:10DB500043FEC4F890A0B4F85E309BB2002BBCD159
:10DB6000226852E8003F23F4807342E800312368C2
:10DB70000029F5D103F1080252E8001F1046314098
:10DB800040E80012002AF5D12021C4F88C10226749
:10DB9000E16E6267012914D1E26653E8002F22F09A
:10DBA000100243E800210029F7D1DA692046D206A5
:10DBB00048BF1022B4F85C1048BF1A62FFF70DFE90
:10DBC0008BE72046FFF707FE87E7B4F868209A4204
:10DBD0007FF67AAF226802F1080353E8003F23F092
:10DBE0008053083242E8003122680029F2D1094B03
:10DBF000636752E8003F43F0200342E80031002908
:10DC0000F7D161E79A6942F008029A615CE700BFC8
:10DC1000FEFFFFEF7FD8030CF8B504460368C16927
:10DC2000826800691D6802436069024375480A43BF
:10DC3000284002431A605A68E06822F440520243C6
:10DC40005A60714AA069934205D002F18052934212
:10DC50001CBF226A10439A6822F06E4222F430629E
:10DC600002439A60DA6A606A22F00F020243DA62C3
:10DC7000664A93426ED0A2F57442934200F08F80C0
:10DC800002F58062934200F08C8002F5806293423C
:10DC900000F08980B3F1502F00F0878002F5C05268
:10DCA000934200F0848002F5A052934200F08180FC
:10DCB00002F5806293427ED002F5806293427CD06E
:10DCC000A2F5C05293427BD002F5806293427AD093
:10DCD00002F5C052934279D04D4A93421CD002F1D2
:10DCE000704293424FF0000035D1002100F088FCD3
:10DCF00070B3616A474A656832F8112005EB450147
:10DD0000B0FBF2F399420AD901204FF00113A36648
:10DD10000023C4E91D33F8BD4FF48050E5E7B3EBB1
:10DD2000053FF1D80023194618F020FF00230646CE
:10DD300019464FF4807768082A46E6FB070118F079
:10DD400015FF354BA0F540729A42DDD82368D860A4
:10DD50000020DAE70120B1F5004F4FF0000138D183
:10DD600000F04EFC0028F3D0616A2A4B626833F859
:10DD70001130B0FBF3F0530803EB4003B3FBF2F3B5
:10DD80004FF6EF72A3F110019142BDD823F00F02BC
:10DD9000216892B2C3F342031343CB60D8E7022059
:10DDA000D9E70420D7E70820D5E71020D3E72020C3
:10DDB000D1E74020CFE78020CDE74FF48070CAE75D
:10DDC0004FF40070C7E74FF48060C4E74FF4006081
:10DDD000C1E700F015FC0028BAD0616A0D4B6268FB
:10DDE00033F81130B0FBF3F303EB5203B3FBF2F360
:10DDF0004FF6EF72A3F11001914285D82268D360EB
:10DE0000A6E700BFF369FFCF0024004400380150AB
:10DE100000240054B818040CFFFC0F00836A10B5EE
:10DE2000DA0706D50168C46A4A6822F40032224340
:10DE30004A609C0706D50168046B4A6822F4803268
:10DE400022434A60590706D50168446B4A6822F4A8
:10DE5000802222434A601A0706D50168846B4A680B
:10DE600022F4004222434A60DC0606D50168C46BF6
:10DE70008A6822F4805222438A60990606D5016896
